{
	"contracts/STEMToken_flattened.sol": {
		"STEMToken": {
			"abi": [
				{
					"inputs": [
						{
							"internalType": "address",
							"name": "_usdtTokenAddress",
							"type": "address"
						},
						{
							"internalType": "uint256",
							"name": "initialSupply",
							"type": "uint256"
						}
					],
					"stateMutability": "nonpayable",
					"type": "constructor"
				},
				{
					"inputs": [
						{
							"internalType": "address",
							"name": "spender",
							"type": "address"
						},
						{
							"internalType": "uint256",
							"name": "allowance",
							"type": "uint256"
						},
						{
							"internalType": "uint256",
							"name": "needed",
							"type": "uint256"
						}
					],
					"name": "ERC20InsufficientAllowance",
					"type": "error"
				},
				{
					"inputs": [
						{
							"internalType": "address",
							"name": "sender",
							"type": "address"
						},
						{
							"internalType": "uint256",
							"name": "balance",
							"type": "uint256"
						},
						{
							"internalType": "uint256",
							"name": "needed",
							"type": "uint256"
						}
					],
					"name": "ERC20InsufficientBalance",
					"type": "error"
				},
				{
					"inputs": [
						{
							"internalType": "address",
							"name": "approver",
							"type": "address"
						}
					],
					"name": "ERC20InvalidApprover",
					"type": "error"
				},
				{
					"inputs": [
						{
							"internalType": "address",
							"name": "receiver",
							"type": "address"
						}
					],
					"name": "ERC20InvalidReceiver",
					"type": "error"
				},
				{
					"inputs": [
						{
							"internalType": "address",
							"name": "sender",
							"type": "address"
						}
					],
					"name": "ERC20InvalidSender",
					"type": "error"
				},
				{
					"inputs": [
						{
							"internalType": "address",
							"name": "spender",
							"type": "address"
						}
					],
					"name": "ERC20InvalidSpender",
					"type": "error"
				},
				{
					"inputs": [
						{
							"internalType": "address",
							"name": "owner",
							"type": "address"
						}
					],
					"name": "OwnableInvalidOwner",
					"type": "error"
				},
				{
					"inputs": [
						{
							"internalType": "address",
							"name": "account",
							"type": "address"
						}
					],
					"name": "OwnableUnauthorizedAccount",
					"type": "error"
				},
				{
					"anonymous": false,
					"inputs": [
						{
							"indexed": true,
							"internalType": "address",
							"name": "owner",
							"type": "address"
						},
						{
							"indexed": true,
							"internalType": "address",
							"name": "spender",
							"type": "address"
						},
						{
							"indexed": false,
							"internalType": "uint256",
							"name": "value",
							"type": "uint256"
						}
					],
					"name": "Approval",
					"type": "event"
				},
				{
					"anonymous": false,
					"inputs": [
						{
							"indexed": true,
							"internalType": "address",
							"name": "from",
							"type": "address"
						},
						{
							"indexed": false,
							"internalType": "uint256",
							"name": "amount",
							"type": "uint256"
						}
					],
					"name": "Burned",
					"type": "event"
				},
				{
					"anonymous": false,
					"inputs": [
						{
							"indexed": false,
							"internalType": "uint256",
							"name": "newBuyRate",
							"type": "uint256"
						}
					],
					"name": "BuyRateUpdated",
					"type": "event"
				},
				{
					"anonymous": false,
					"inputs": [
						{
							"indexed": true,
							"internalType": "address",
							"name": "buyer",
							"type": "address"
						},
						{
							"indexed": false,
							"internalType": "uint256",
							"name": "usdtAmount",
							"type": "uint256"
						},
						{
							"indexed": false,
							"internalType": "uint256",
							"name": "stemAmount",
							"type": "uint256"
						}
					],
					"name": "BuyStem",
					"type": "event"
				},
				{
					"anonymous": false,
					"inputs": [
						{
							"indexed": true,
							"internalType": "address",
							"name": "to",
							"type": "address"
						},
						{
							"indexed": false,
							"internalType": "uint256",
							"name": "amount",
							"type": "uint256"
						}
					],
					"name": "Minted",
					"type": "event"
				},
				{
					"anonymous": false,
					"inputs": [
						{
							"indexed": true,
							"internalType": "address",
							"name": "previousOwner",
							"type": "address"
						},
						{
							"indexed": true,
							"internalType": "address",
							"name": "newOwner",
							"type": "address"
						}
					],
					"name": "OwnershipTransferred",
					"type": "event"
				},
				{
					"anonymous": false,
					"inputs": [
						{
							"indexed": true,
							"internalType": "address",
							"name": "newProfitTreasury",
							"type": "address"
						}
					],
					"name": "ProfitTreasuryChanged",
					"type": "event"
				},
				{
					"anonymous": false,
					"inputs": [
						{
							"indexed": false,
							"internalType": "uint256",
							"name": "newSellRate",
							"type": "uint256"
						}
					],
					"name": "SellRateUpdated",
					"type": "event"
				},
				{
					"anonymous": false,
					"inputs": [
						{
							"indexed": true,
							"internalType": "address",
							"name": "seller",
							"type": "address"
						},
						{
							"indexed": false,
							"internalType": "uint256",
							"name": "stemAmount",
							"type": "uint256"
						},
						{
							"indexed": false,
							"internalType": "uint256",
							"name": "usdtAmount",
							"type": "uint256"
						},
						{
							"indexed": false,
							"internalType": "uint256",
							"name": "profitStems",
							"type": "uint256"
						}
					],
					"name": "SellStem",
					"type": "event"
				},
				{
					"anonymous": false,
					"inputs": [
						{
							"indexed": true,
							"internalType": "address",
							"name": "from",
							"type": "address"
						},
						{
							"indexed": true,
							"internalType": "address",
							"name": "to",
							"type": "address"
						},
						{
							"indexed": false,
							"internalType": "uint256",
							"name": "value",
							"type": "uint256"
						}
					],
					"name": "Transfer",
					"type": "event"
				},
				{
					"anonymous": false,
					"inputs": [
						{
							"indexed": true,
							"internalType": "address",
							"name": "newTreasury",
							"type": "address"
						}
					],
					"name": "TreasuryChanged",
					"type": "event"
				},
				{
					"anonymous": false,
					"inputs": [
						{
							"indexed": true,
							"internalType": "address",
							"name": "to",
							"type": "address"
						},
						{
							"indexed": false,
							"internalType": "uint256",
							"name": "amount",
							"type": "uint256"
						}
					],
					"name": "USDTWithdrawn",
					"type": "event"
				},
				{
					"inputs": [
						{
							"internalType": "address",
							"name": "owner",
							"type": "address"
						},
						{
							"internalType": "address",
							"name": "spender",
							"type": "address"
						}
					],
					"name": "allowance",
					"outputs": [
						{
							"internalType": "uint256",
							"name": "",
							"type": "uint256"
						}
					],
					"stateMutability": "view",
					"type": "function"
				},
				{
					"inputs": [
						{
							"internalType": "address",
							"name": "spender",
							"type": "address"
						},
						{
							"internalType": "uint256",
							"name": "value",
							"type": "uint256"
						}
					],
					"name": "approve",
					"outputs": [
						{
							"internalType": "bool",
							"name": "",
							"type": "bool"
						}
					],
					"stateMutability": "nonpayable",
					"type": "function"
				},
				{
					"inputs": [
						{
							"internalType": "address",
							"name": "account",
							"type": "address"
						}
					],
					"name": "balanceOf",
					"outputs": [
						{
							"internalType": "uint256",
							"name": "",
							"type": "uint256"
						}
					],
					"stateMutability": "view",
					"type": "function"
				},
				{
					"inputs": [
						{
							"internalType": "address",
							"name": "from",
							"type": "address"
						},
						{
							"internalType": "uint256",
							"name": "amount",
							"type": "uint256"
						}
					],
					"name": "burn",
					"outputs": [],
					"stateMutability": "nonpayable",
					"type": "function"
				},
				{
					"inputs": [],
					"name": "buyRate",
					"outputs": [
						{
							"internalType": "uint256",
							"name": "",
							"type": "uint256"
						}
					],
					"stateMutability": "view",
					"type": "function"
				},
				{
					"inputs": [
						{
							"internalType": "uint256",
							"name": "usdtAmount",
							"type": "uint256"
						}
					],
					"name": "buyStem",
					"outputs": [],
					"stateMutability": "nonpayable",
					"type": "function"
				},
				{
					"inputs": [],
					"name": "decimals",
					"outputs": [
						{
							"internalType": "uint8",
							"name": "",
							"type": "uint8"
						}
					],
					"stateMutability": "view",
					"type": "function"
				},
				{
					"inputs": [],
					"name": "getConfig",
					"outputs": [
						{
							"internalType": "uint256",
							"name": "_buyRate",
							"type": "uint256"
						},
						{
							"internalType": "uint256",
							"name": "_sellRate",
							"type": "uint256"
						},
						{
							"internalType": "address",
							"name": "_treasury",
							"type": "address"
						},
						{
							"internalType": "address",
							"name": "_profitTreasury",
							"type": "address"
						},
						{
							"internalType": "uint256",
							"name": "treasuryStemBalance",
							"type": "uint256"
						},
						{
							"internalType": "uint256",
							"name": "profitStemBalance",
							"type": "uint256"
						},
						{
							"internalType": "uint256",
							"name": "contractStemBalance",
							"type": "uint256"
						},
						{
							"internalType": "uint256",
							"name": "contractUsdtBalance",
							"type": "uint256"
						},
						{
							"internalType": "uint256",
							"name": "totalStemSupply",
							"type": "uint256"
						}
					],
					"stateMutability": "view",
					"type": "function"
				},
				{
					"inputs": [
						{
							"internalType": "address",
							"name": "to",
							"type": "address"
						},
						{
							"internalType": "uint256",
							"name": "amount",
							"type": "uint256"
						}
					],
					"name": "mint",
					"outputs": [],
					"stateMutability": "nonpayable",
					"type": "function"
				},
				{
					"inputs": [],
					"name": "name",
					"outputs": [
						{
							"internalType": "string",
							"name": "",
							"type": "string"
						}
					],
					"stateMutability": "view",
					"type": "function"
				},
				{
					"inputs": [],
					"name": "owner",
					"outputs": [
						{
							"internalType": "address",
							"name": "",
							"type": "address"
						}
					],
					"stateMutability": "view",
					"type": "function"
				},
				{
					"inputs": [],
					"name": "profitTreasury",
					"outputs": [
						{
							"internalType": "address",
							"name": "",
							"type": "address"
						}
					],
					"stateMutability": "view",
					"type": "function"
				},
				{
					"inputs": [],
					"name": "renounceOwnership",
					"outputs": [],
					"stateMutability": "nonpayable",
					"type": "function"
				},
				{
					"inputs": [],
					"name": "sellRate",
					"outputs": [
						{
							"internalType": "uint256",
							"name": "",
							"type": "uint256"
						}
					],
					"stateMutability": "view",
					"type": "function"
				},
				{
					"inputs": [
						{
							"internalType": "uint256",
							"name": "stemAmount",
							"type": "uint256"
						}
					],
					"name": "sellStem",
					"outputs": [],
					"stateMutability": "nonpayable",
					"type": "function"
				},
				{
					"inputs": [
						{
							"internalType": "uint256",
							"name": "newRate",
							"type": "uint256"
						}
					],
					"name": "setBuyRate",
					"outputs": [],
					"stateMutability": "nonpayable",
					"type": "function"
				},
				{
					"inputs": [
						{
							"internalType": "address",
							"name": "_treasury",
							"type": "address"
						}
					],
					"name": "setProfitTreasury",
					"outputs": [],
					"stateMutability": "nonpayable",
					"type": "function"
				},
				{
					"inputs": [
						{
							"internalType": "uint256",
							"name": "newRate",
							"type": "uint256"
						}
					],
					"name": "setSellRate",
					"outputs": [],
					"stateMutability": "nonpayable",
					"type": "function"
				},
				{
					"inputs": [
						{
							"internalType": "address",
							"name": "_treasury",
							"type": "address"
						}
					],
					"name": "setTreasury",
					"outputs": [],
					"stateMutability": "nonpayable",
					"type": "function"
				},
				{
					"inputs": [],
					"name": "symbol",
					"outputs": [
						{
							"internalType": "string",
							"name": "",
							"type": "string"
						}
					],
					"stateMutability": "view",
					"type": "function"
				},
				{
					"inputs": [],
					"name": "totalSupply",
					"outputs": [
						{
							"internalType": "uint256",
							"name": "",
							"type": "uint256"
						}
					],
					"stateMutability": "view",
					"type": "function"
				},
				{
					"inputs": [
						{
							"internalType": "address",
							"name": "to",
							"type": "address"
						},
						{
							"internalType": "uint256",
							"name": "value",
							"type": "uint256"
						}
					],
					"name": "transfer",
					"outputs": [
						{
							"internalType": "bool",
							"name": "",
							"type": "bool"
						}
					],
					"stateMutability": "nonpayable",
					"type": "function"
				},
				{
					"inputs": [
						{
							"internalType": "address",
							"name": "from",
							"type": "address"
						},
						{
							"internalType": "address",
							"name": "to",
							"type": "address"
						},
						{
							"internalType": "uint256",
							"name": "value",
							"type": "uint256"
						}
					],
					"name": "transferFrom",
					"outputs": [
						{
							"internalType": "bool",
							"name": "",
							"type": "bool"
						}
					],
					"stateMutability": "nonpayable",
					"type": "function"
				},
				{
					"inputs": [
						{
							"internalType": "address",
							"name": "newOwner",
							"type": "address"
						}
					],
					"name": "transferOwnership",
					"outputs": [],
					"stateMutability": "nonpayable",
					"type": "function"
				},
				{
					"inputs": [],
					"name": "treasury",
					"outputs": [
						{
							"internalType": "address",
							"name": "",
							"type": "address"
						}
					],
					"stateMutability": "view",
					"type": "function"
				},
				{
					"inputs": [],
					"name": "usdtToken",
					"outputs": [
						{
							"internalType": "contract IERC20",
							"name": "",
							"type": "address"
						}
					],
					"stateMutability": "view",
					"type": "function"
				},
				{
					"inputs": [
						{
							"internalType": "address",
							"name": "to",
							"type": "address"
						},
						{
							"internalType": "uint256",
							"name": "amount",
							"type": "uint256"
						}
					],
					"name": "withdrawUSDT",
					"outputs": [],
					"stateMutability": "nonpayable",
					"type": "function"
				}
			],
			"devdoc": {
				"errors": {
					"ERC20InsufficientAllowance(address,uint256,uint256)": [
						{
							"details": "Indicates a failure with the `spender`’s `allowance`. Used in transfers.",
							"params": {
								"allowance": "Amount of tokens a `spender` is allowed to operate with.",
								"needed": "Minimum amount required to perform a transfer.",
								"spender": "Address that may be allowed to operate on tokens without being their owner."
							}
						}
					],
					"ERC20InsufficientBalance(address,uint256,uint256)": [
						{
							"details": "Indicates an error related to the current `balance` of a `sender`. Used in transfers.",
							"params": {
								"balance": "Current balance for the interacting account.",
								"needed": "Minimum amount required to perform a transfer.",
								"sender": "Address whose tokens are being transferred."
							}
						}
					],
					"ERC20InvalidApprover(address)": [
						{
							"details": "Indicates a failure with the `approver` of a token to be approved. Used in approvals.",
							"params": {
								"approver": "Address initiating an approval operation."
							}
						}
					],
					"ERC20InvalidReceiver(address)": [
						{
							"details": "Indicates a failure with the token `receiver`. Used in transfers.",
							"params": {
								"receiver": "Address to which tokens are being transferred."
							}
						}
					],
					"ERC20InvalidSender(address)": [
						{
							"details": "Indicates a failure with the token `sender`. Used in transfers.",
							"params": {
								"sender": "Address whose tokens are being transferred."
							}
						}
					],
					"ERC20InvalidSpender(address)": [
						{
							"details": "Indicates a failure with the `spender` to be approved. Used in approvals.",
							"params": {
								"spender": "Address that may be allowed to operate on tokens without being their owner."
							}
						}
					],
					"OwnableInvalidOwner(address)": [
						{
							"details": "The owner is not a valid owner account. (eg. `address(0)`)"
						}
					],
					"OwnableUnauthorizedAccount(address)": [
						{
							"details": "The caller account is not authorized to perform an operation."
						}
					]
				},
				"events": {
					"Approval(address,address,uint256)": {
						"details": "Emitted when the allowance of a `spender` for an `owner` is set by a call to {approve}. `value` is the new allowance."
					},
					"Transfer(address,address,uint256)": {
						"details": "Emitted when `value` tokens are moved from one account (`from`) to another (`to`). Note that `value` may be zero."
					}
				},
				"kind": "dev",
				"methods": {
					"allowance(address,address)": {
						"details": "See {IERC20-allowance}."
					},
					"approve(address,uint256)": {
						"details": "See {IERC20-approve}. NOTE: If `value` is the maximum `uint256`, the allowance is not updated on `transferFrom`. This is semantically equivalent to an infinite approval. Requirements: - `spender` cannot be the zero address."
					},
					"balanceOf(address)": {
						"details": "See {IERC20-balanceOf}."
					},
					"decimals()": {
						"details": "Returns the number of decimals used to get its user representation. For example, if `decimals` equals `2`, a balance of `505` tokens should be displayed to a user as `5.05` (`505 / 10 ** 2`). Tokens usually opt for a value of 18, imitating the relationship between Ether and Wei. This is the default value returned by this function, unless it's overridden. NOTE: This information is only used for _display_ purposes: it in no way affects any of the arithmetic of the contract, including {IERC20-balanceOf} and {IERC20-transfer}."
					},
					"name()": {
						"details": "Returns the name of the token."
					},
					"owner()": {
						"details": "Returns the address of the current owner."
					},
					"renounceOwnership()": {
						"details": "Leaves the contract without owner. It will not be possible to call `onlyOwner` functions. Can only be called by the current owner. NOTE: Renouncing ownership will leave the contract without an owner, thereby disabling any functionality that is only available to the owner."
					},
					"symbol()": {
						"details": "Returns the symbol of the token, usually a shorter version of the name."
					},
					"totalSupply()": {
						"details": "See {IERC20-totalSupply}."
					},
					"transfer(address,uint256)": {
						"details": "See {IERC20-transfer}. Requirements: - `to` cannot be the zero address. - the caller must have a balance of at least `value`."
					},
					"transferFrom(address,address,uint256)": {
						"details": "See {IERC20-transferFrom}. Skips emitting an {Approval} event indicating an allowance update. This is not required by the ERC. See {xref-ERC20-_approve-address-address-uint256-bool-}[_approve]. NOTE: Does not update the allowance if the current allowance is the maximum `uint256`. Requirements: - `from` and `to` cannot be the zero address. - `from` must have a balance of at least `value`. - the caller must have allowance for ``from``'s tokens of at least `value`."
					},
					"transferOwnership(address)": {
						"details": "Transfers ownership of the contract to a new account (`newOwner`). Can only be called by the current owner."
					}
				},
				"version": 1
			},
			"evm": {
				"assembly": "    /* \"contracts/STEMToken_flattened.sol\":24919:29898  contract STEMToken is ERC20, Ownable {... */\n  mstore(0x40, 0x80)\n    /* \"contracts/STEMToken_flattened.sol\":25018:25022  1e18 */\n  0x0de0b6b3a7640000\n    /* \"contracts/STEMToken_flattened.sol\":24993:25022  uint256 public buyRate = 1e18 */\n  0x07\n  sstore\n    /* \"contracts/STEMToken_flattened.sol\":25085:25089  1e18 */\n  0x0de0b6b3a7640000\n    /* \"contracts/STEMToken_flattened.sol\":25059:25089  uint256 public sellRate = 1e18 */\n  0x08\n  sstore\n    /* \"contracts/STEMToken_flattened.sol\":25167:25209  0xfE09E35DfadF080A768f41df13e06629F5E80Eb9 */\n  0xfe09e35dfadf080a768f41df13e06629f5e80eb9\n    /* \"contracts/STEMToken_flattened.sol\":25141:25209  address public treasury = 0xfE09E35DfadF080A768f41df13e06629F5E80Eb9 */\n  0x09\n  exp(0x0100, 0x00)\n  dup2\n  sload\n  dup2\n  0xffffffffffffffffffffffffffffffffffffffff\n  mul\n  not\n  and\n  swap1\n  dup4\n  0xffffffffffffffffffffffffffffffffffffffff\n  and\n  mul\n  or\n  swap1\n  sstore\n  pop\n    /* \"contracts/STEMToken_flattened.sol\":25247:25289  0xeACa0253B95730F2ae2755Af09083d69840A683C */\n  0xeaca0253b95730f2ae2755af09083d69840a683c\n    /* \"contracts/STEMToken_flattened.sol\":25215:25289  address public profitTreasury = 0xeACa0253B95730F2ae2755Af09083d69840A683C */\n  0x0a\n  exp(0x0100, 0x00)\n  dup2\n  sload\n  dup2\n  0xffffffffffffffffffffffffffffffffffffffff\n  mul\n  not\n  and\n  swap1\n  dup4\n  0xffffffffffffffffffffffffffffffffffffffff\n  and\n  mul\n  or\n  swap1\n  sstore\n  pop\n    /* \"contracts/STEMToken_flattened.sol\":25933:26144  constructor(address _usdtTokenAddress, uint256 initialSupply) ERC20(\"STEM Token\", \"STEM\") Ownable(msg.sender) {... */\n  callvalue\n  dup1\n  iszero\n  tag_1\n  jumpi\n  0x00\n  dup1\n  revert\ntag_1:\n  pop\n  mload(0x40)\n  sub(codesize, bytecodeSize)\n  dup1\n  bytecodeSize\n  dup4\n  codecopy\n  dup2\n  dup2\n  add\n  0x40\n  mstore\n  dup2\n  add\n  swap1\n  tag_2\n  swap2\n  swap1\n  tag_3\n  jump\t// in\ntag_2:\n    /* \"contracts/STEMToken_flattened.sol\":26031:26041  msg.sender */\n  caller\n    /* \"contracts/STEMToken_flattened.sol\":12482:12595  constructor(string memory name_, string memory symbol_) {... */\n  mload(0x40)\n  dup1\n  0x40\n  add\n  0x40\n  mstore\n  dup1\n  0x0a\n  dup2\n  mstore\n  0x20\n  add\n  0x5354454d20546f6b656e00000000000000000000000000000000000000000000\n  dup2\n  mstore\n  pop\n  mload(0x40)\n  dup1\n  0x40\n  add\n  0x40\n  mstore\n  dup1\n  0x04\n  dup2\n  mstore\n  0x20\n  add\n  0x5354454d00000000000000000000000000000000000000000000000000000000\n  dup2\n  mstore\n  pop\n    /* \"contracts/STEMToken_flattened.sol\":12556:12561  name_ */\n  dup2\n    /* \"contracts/STEMToken_flattened.sol\":12548:12553  _name */\n  0x03\n    /* \"contracts/STEMToken_flattened.sol\":12548:12561  _name = name_ */\n  swap1\n  dup2\n  tag_8\n  swap2\n  swap1\n  tag_9\n  jump\t// in\ntag_8:\n  pop\n    /* \"contracts/STEMToken_flattened.sol\":12581:12588  symbol_ */\n  dup1\n    /* \"contracts/STEMToken_flattened.sol\":12571:12578  _symbol */\n  0x04\n    /* \"contracts/STEMToken_flattened.sol\":12571:12588  _symbol = symbol_ */\n  swap1\n  dup2\n  tag_10\n  swap2\n  swap1\n  tag_9\n  jump\t// in\ntag_10:\n  pop\n    /* \"contracts/STEMToken_flattened.sol\":12482:12595  constructor(string memory name_, string memory symbol_) {... */\n  pop\n  pop\n    /* \"contracts/STEMToken_flattened.sol\":23049:23050  0 */\n  0x00\n    /* \"contracts/STEMToken_flattened.sol\":23025:23051  initialOwner == address(0) */\n  0xffffffffffffffffffffffffffffffffffffffff\n  and\n    /* \"contracts/STEMToken_flattened.sol\":23025:23037  initialOwner */\n  dup2\n    /* \"contracts/STEMToken_flattened.sol\":23025:23051  initialOwner == address(0) */\n  0xffffffffffffffffffffffffffffffffffffffff\n  and\n  sub\n    /* \"contracts/STEMToken_flattened.sol\":23021:23116  if (initialOwner == address(0)) {... */\n  tag_12\n  jumpi\n    /* \"contracts/STEMToken_flattened.sol\":23102:23103  0 */\n  0x00\n    /* \"contracts/STEMToken_flattened.sol\":23074:23105  OwnableInvalidOwner(address(0)) */\n  mload(0x40)\n  0x1e4fbdf700000000000000000000000000000000000000000000000000000000\n  dup2\n  mstore\n  0x04\n  add\n  tag_13\n  swap2\n  swap1\n  tag_14\n  jump\t// in\ntag_13:\n  mload(0x40)\n  dup1\n  swap2\n  sub\n  swap1\n  revert\n    /* \"contracts/STEMToken_flattened.sol\":23021:23116  if (initialOwner == address(0)) {... */\ntag_12:\n    /* \"contracts/STEMToken_flattened.sol\":23125:23157  _transferOwnership(initialOwner) */\n  tag_15\n    /* \"contracts/STEMToken_flattened.sol\":23144:23156  initialOwner */\n  dup2\n    /* \"contracts/STEMToken_flattened.sol\":23125:23143  _transferOwnership */\n  shl(0x20, tag_16)\n    /* \"contracts/STEMToken_flattened.sol\":23125:23157  _transferOwnership(initialOwner) */\n  0x20\n  shr\n  jump\t// in\ntag_15:\n    /* \"contracts/STEMToken_flattened.sol\":22977:23164  constructor(address initialOwner) {... */\n  pop\n    /* \"contracts/STEMToken_flattened.sol\":26072:26089  _usdtTokenAddress */\n  dup2\n    /* \"contracts/STEMToken_flattened.sol\":26053:26062  usdtToken */\n  0x06\n  0x00\n    /* \"contracts/STEMToken_flattened.sol\":26053:26090  usdtToken = IERC20(_usdtTokenAddress) */\n  0x0100\n  exp\n  dup2\n  sload\n  dup2\n  0xffffffffffffffffffffffffffffffffffffffff\n  mul\n  not\n  and\n  swap1\n  dup4\n  0xffffffffffffffffffffffffffffffffffffffff\n  and\n  mul\n  or\n  swap1\n  sstore\n  pop\n    /* \"contracts/STEMToken_flattened.sol\":26100:26137  _mint(treasury, initialSupply * 1e18) */\n  tag_18\n    /* \"contracts/STEMToken_flattened.sol\":26106:26114  treasury */\n  0x09\n  0x00\n  swap1\n  sload\n  swap1\n  0x0100\n  exp\n  swap1\n  div\n  0xffffffffffffffffffffffffffffffffffffffff\n  and\n    /* \"contracts/STEMToken_flattened.sol\":26132:26136  1e18 */\n  0x0de0b6b3a7640000\n    /* \"contracts/STEMToken_flattened.sol\":26116:26129  initialSupply */\n  dup4\n    /* \"contracts/STEMToken_flattened.sol\":26116:26136  initialSupply * 1e18 */\n  tag_19\n  swap2\n  swap1\n  tag_20\n  jump\t// in\ntag_19:\n    /* \"contracts/STEMToken_flattened.sol\":26100:26105  _mint */\n  shl(0x20, tag_21)\n    /* \"contracts/STEMToken_flattened.sol\":26100:26137  _mint(treasury, initialSupply * 1e18) */\n  0x20\n  shr\n  jump\t// in\ntag_18:\n    /* \"contracts/STEMToken_flattened.sol\":25933:26144  constructor(address _usdtTokenAddress, uint256 initialSupply) ERC20(\"STEM Token\", \"STEM\") Ownable(msg.sender) {... */\n  pop\n  pop\n    /* \"contracts/STEMToken_flattened.sol\":24919:29898  contract STEMToken is ERC20, Ownable {... */\n  jump(tag_22)\n    /* \"contracts/STEMToken_flattened.sol\":24664:24851  function _transferOwnership(address newOwner) internal virtual {... */\ntag_16:\n    /* \"contracts/STEMToken_flattened.sol\":24737:24753  address oldOwner */\n  0x00\n    /* \"contracts/STEMToken_flattened.sol\":24756:24762  _owner */\n  0x05\n  0x00\n  swap1\n  sload\n  swap1\n  0x0100\n  exp\n  swap1\n  div\n  0xffffffffffffffffffffffffffffffffffffffff\n  and\n    /* \"contracts/STEMToken_flattened.sol\":24737:24762  address oldOwner = _owner */\n  swap1\n  pop\n    /* \"contracts/STEMToken_flattened.sol\":24781:24789  newOwner */\n  dup2\n    /* \"contracts/STEMToken_flattened.sol\":24772:24778  _owner */\n  0x05\n  0x00\n    /* \"contracts/STEMToken_flattened.sol\":24772:24789  _owner = newOwner */\n  0x0100\n  exp\n  dup2\n  sload\n  dup2\n  0xffffffffffffffffffffffffffffffffffffffff\n  mul\n  not\n  and\n  swap1\n  dup4\n  0xffffffffffffffffffffffffffffffffffffffff\n  and\n  mul\n  or\n  swap1\n  sstore\n  pop\n    /* \"contracts/STEMToken_flattened.sol\":24835:24843  newOwner */\n  dup2\n    /* \"contracts/STEMToken_flattened.sol\":24804:24844  OwnershipTransferred(oldOwner, newOwner) */\n  0xffffffffffffffffffffffffffffffffffffffff\n  and\n    /* \"contracts/STEMToken_flattened.sol\":24825:24833  oldOwner */\n  dup2\n    /* \"contracts/STEMToken_flattened.sol\":24804:24844  OwnershipTransferred(oldOwner, newOwner) */\n  0xffffffffffffffffffffffffffffffffffffffff\n  and\n  0x8be0079c531659141344cd1fd0a4f28419497f9722a3daafe3b4186f6b6457e0\n  mload(0x40)\n  mload(0x40)\n  dup1\n  swap2\n  sub\n  swap1\n  log3\n    /* \"contracts/STEMToken_flattened.sol\":24727:24851  {... */\n  pop\n    /* \"contracts/STEMToken_flattened.sol\":24664:24851  function _transferOwnership(address newOwner) internal virtual {... */\n  pop\n  jump\t// out\n    /* \"contracts/STEMToken_flattened.sol\":18339:18547  function _mint(address account, uint256 value) internal {... */\ntag_21:\n    /* \"contracts/STEMToken_flattened.sol\":18428:18429  0 */\n  0x00\n    /* \"contracts/STEMToken_flattened.sol\":18409:18430  account == address(0) */\n  0xffffffffffffffffffffffffffffffffffffffff\n  and\n    /* \"contracts/STEMToken_flattened.sol\":18409:18416  account */\n  dup3\n    /* \"contracts/STEMToken_flattened.sol\":18409:18430  account == address(0) */\n  0xffffffffffffffffffffffffffffffffffffffff\n  and\n  sub\n    /* \"contracts/STEMToken_flattened.sol\":18405:18496  if (account == address(0)) {... */\n  tag_25\n  jumpi\n    /* \"contracts/STEMToken_flattened.sol\":18482:18483  0 */\n  0x00\n    /* \"contracts/STEMToken_flattened.sol\":18453:18485  ERC20InvalidReceiver(address(0)) */\n  mload(0x40)\n  0xec442f0500000000000000000000000000000000000000000000000000000000\n  dup2\n  mstore\n  0x04\n  add\n  tag_26\n  swap2\n  swap1\n  tag_14\n  jump\t// in\ntag_26:\n  mload(0x40)\n  dup1\n  swap2\n  sub\n  swap1\n  revert\n    /* \"contracts/STEMToken_flattened.sol\":18405:18496  if (account == address(0)) {... */\ntag_25:\n    /* \"contracts/STEMToken_flattened.sol\":18505:18540  _update(address(0), account, value) */\n  tag_27\n    /* \"contracts/STEMToken_flattened.sol\":18521:18522  0 */\n  0x00\n    /* \"contracts/STEMToken_flattened.sol\":18525:18532  account */\n  dup4\n    /* \"contracts/STEMToken_flattened.sol\":18534:18539  value */\n  dup4\n    /* \"contracts/STEMToken_flattened.sol\":18505:18512  _update */\n  shl(0x20, tag_28)\n    /* \"contracts/STEMToken_flattened.sol\":18505:18540  _update(address(0), account, value) */\n  0x20\n  shr\n  jump\t// in\ntag_27:\n    /* \"contracts/STEMToken_flattened.sol\":18339:18547  function _mint(address account, uint256 value) internal {... */\n  pop\n  pop\n  jump\t// out\n    /* \"contracts/STEMToken_flattened.sol\":16889:17996  function _update(address from, address to, uint256 value) internal virtual {... */\ntag_28:\n    /* \"contracts/STEMToken_flattened.sol\":16994:16995  0 */\n  0x00\n    /* \"contracts/STEMToken_flattened.sol\":16978:16996  from == address(0) */\n  0xffffffffffffffffffffffffffffffffffffffff\n  and\n    /* \"contracts/STEMToken_flattened.sol\":16978:16982  from */\n  dup4\n    /* \"contracts/STEMToken_flattened.sol\":16978:16996  from == address(0) */\n  0xffffffffffffffffffffffffffffffffffffffff\n  and\n  sub\n    /* \"contracts/STEMToken_flattened.sol\":16974:17514  if (from == address(0)) {... */\n  tag_30\n  jumpi\n    /* \"contracts/STEMToken_flattened.sol\":17130:17135  value */\n  dup1\n    /* \"contracts/STEMToken_flattened.sol\":17114:17126  _totalSupply */\n  0x02\n  0x00\n    /* \"contracts/STEMToken_flattened.sol\":17114:17135  _totalSupply += value */\n  dup3\n  dup3\n  sload\n  tag_31\n  swap2\n  swap1\n  tag_32\n  jump\t// in\ntag_31:\n  swap3\n  pop\n  pop\n  dup2\n  swap1\n  sstore\n  pop\n    /* \"contracts/STEMToken_flattened.sol\":16974:17514  if (from == address(0)) {... */\n  jump(tag_33)\ntag_30:\n    /* \"contracts/STEMToken_flattened.sol\":17166:17185  uint256 fromBalance */\n  0x00\n    /* \"contracts/STEMToken_flattened.sol\":17188:17197  _balances */\n  dup1\n    /* \"contracts/STEMToken_flattened.sol\":17188:17203  _balances[from] */\n  0x00\n    /* \"contracts/STEMToken_flattened.sol\":17198:17202  from */\n  dup6\n    /* \"contracts/STEMToken_flattened.sol\":17188:17203  _balances[from] */\n  0xffffffffffffffffffffffffffffffffffffffff\n  and\n  0xffffffffffffffffffffffffffffffffffffffff\n  and\n  dup2\n  mstore\n  0x20\n  add\n  swap1\n  dup2\n  mstore\n  0x20\n  add\n  0x00\n  keccak256\n  sload\n    /* \"contracts/STEMToken_flattened.sol\":17166:17203  uint256 fromBalance = _balances[from] */\n  swap1\n  pop\n    /* \"contracts/STEMToken_flattened.sol\":17235:17240  value */\n  dup2\n    /* \"contracts/STEMToken_flattened.sol\":17221:17232  fromBalance */\n  dup2\n    /* \"contracts/STEMToken_flattened.sol\":17221:17240  fromBalance < value */\n  lt\n    /* \"contracts/STEMToken_flattened.sol\":17217:17332  if (fromBalance < value) {... */\n  iszero\n  tag_34\n  jumpi\n    /* \"contracts/STEMToken_flattened.sol\":17292:17296  from */\n  dup4\n    /* \"contracts/STEMToken_flattened.sol\":17298:17309  fromBalance */\n  dup2\n    /* \"contracts/STEMToken_flattened.sol\":17311:17316  value */\n  dup4\n    /* \"contracts/STEMToken_flattened.sol\":17267:17317  ERC20InsufficientBalance(from, fromBalance, value) */\n  mload(0x40)\n  0xe450d38c00000000000000000000000000000000000000000000000000000000\n  dup2\n  mstore\n  0x04\n  add\n  tag_35\n  swap4\n  swap3\n  swap2\n  swap1\n  tag_36\n  jump\t// in\ntag_35:\n  mload(0x40)\n  dup1\n  swap2\n  sub\n  swap1\n  revert\n    /* \"contracts/STEMToken_flattened.sol\":17217:17332  if (fromBalance < value) {... */\ntag_34:\n    /* \"contracts/STEMToken_flattened.sol\":17484:17489  value */\n  dup2\n    /* \"contracts/STEMToken_flattened.sol\":17470:17481  fromBalance */\n  dup2\n    /* \"contracts/STEMToken_flattened.sol\":17470:17489  fromBalance - value */\n  sub\n    /* \"contracts/STEMToken_flattened.sol\":17452:17461  _balances */\n  0x00\n    /* \"contracts/STEMToken_flattened.sol\":17452:17467  _balances[from] */\n  dup1\n    /* \"contracts/STEMToken_flattened.sol\":17462:17466  from */\n  dup7\n    /* \"contracts/STEMToken_flattened.sol\":17452:17467  _balances[from] */\n  0xffffffffffffffffffffffffffffffffffffffff\n  and\n  0xffffffffffffffffffffffffffffffffffffffff\n  and\n  dup2\n  mstore\n  0x20\n  add\n  swap1\n  dup2\n  mstore\n  0x20\n  add\n  0x00\n  keccak256\n    /* \"contracts/STEMToken_flattened.sol\":17452:17489  _balances[from] = fromBalance - value */\n  dup2\n  swap1\n  sstore\n  pop\n    /* \"contracts/STEMToken_flattened.sol\":17152:17514  {... */\n  pop\n    /* \"contracts/STEMToken_flattened.sol\":16974:17514  if (from == address(0)) {... */\ntag_33:\n    /* \"contracts/STEMToken_flattened.sol\":17542:17543  0 */\n  0x00\n    /* \"contracts/STEMToken_flattened.sol\":17528:17544  to == address(0) */\n  0xffffffffffffffffffffffffffffffffffffffff\n  and\n    /* \"contracts/STEMToken_flattened.sol\":17528:17530  to */\n  dup3\n    /* \"contracts/STEMToken_flattened.sol\":17528:17544  to == address(0) */\n  0xffffffffffffffffffffffffffffffffffffffff\n  and\n  sub\n    /* \"contracts/STEMToken_flattened.sol\":17524:17949  if (to == address(0)) {... */\n  tag_37\n  jumpi\n    /* \"contracts/STEMToken_flattened.sol\":17707:17712  value */\n  dup1\n    /* \"contracts/STEMToken_flattened.sol\":17691:17703  _totalSupply */\n  0x02\n  0x00\n    /* \"contracts/STEMToken_flattened.sol\":17691:17712  _totalSupply -= value */\n  dup3\n  dup3\n  sload\n  sub\n  swap3\n  pop\n  pop\n  dup2\n  swap1\n  sstore\n  pop\n    /* \"contracts/STEMToken_flattened.sol\":17524:17949  if (to == address(0)) {... */\n  jump(tag_38)\ntag_37:\n    /* \"contracts/STEMToken_flattened.sol\":17919:17924  value */\n  dup1\n    /* \"contracts/STEMToken_flattened.sol\":17902:17911  _balances */\n  0x00\n    /* \"contracts/STEMToken_flattened.sol\":17902:17915  _balances[to] */\n  dup1\n    /* \"contracts/STEMToken_flattened.sol\":17912:17914  to */\n  dup5\n    /* \"contracts/STEMToken_flattened.sol\":17902:17915  _balances[to] */\n  0xffffffffffffffffffffffffffffffffffffffff\n  and\n  0xffffffffffffffffffffffffffffffffffffffff\n  and\n  dup2\n  mstore\n  0x20\n  add\n  swap1\n  dup2\n  mstore\n  0x20\n  add\n  0x00\n  keccak256\n  0x00\n    /* \"contracts/STEMToken_flattened.sol\":17902:17924  _balances[to] += value */\n  dup3\n  dup3\n  sload\n  add\n  swap3\n  pop\n  pop\n  dup2\n  swap1\n  sstore\n  pop\n    /* \"contracts/STEMToken_flattened.sol\":17524:17949  if (to == address(0)) {... */\ntag_38:\n    /* \"contracts/STEMToken_flattened.sol\":17979:17981  to */\n  dup2\n    /* \"contracts/STEMToken_flattened.sol\":17964:17989  Transfer(from, to, value) */\n  0xffffffffffffffffffffffffffffffffffffffff\n  and\n    /* \"contracts/STEMToken_flattened.sol\":17973:17977  from */\n  dup4\n    /* \"contracts/STEMToken_flattened.sol\":17964:17989  Transfer(from, to, value) */\n  0xffffffffffffffffffffffffffffffffffffffff\n  and\n  0xddf252ad1be2c89b69c2b068fc378daa952ba7f163c4a11628f55a4df523b3ef\n    /* \"contracts/STEMToken_flattened.sol\":17983:17988  value */\n  dup4\n    /* \"contracts/STEMToken_flattened.sol\":17964:17989  Transfer(from, to, value) */\n  mload(0x40)\n  tag_39\n  swap2\n  swap1\n  tag_40\n  jump\t// in\ntag_39:\n  mload(0x40)\n  dup1\n  swap2\n  sub\n  swap1\n  log3\n    /* \"contracts/STEMToken_flattened.sol\":16889:17996  function _update(address from, address to, uint256 value) internal virtual {... */\n  pop\n  pop\n  pop\n  jump\t// out\n    /* \"#utility.yul\":88:205   */\ntag_42:\n    /* \"#utility.yul\":197:198   */\n  0x00\n    /* \"#utility.yul\":194:195   */\n  dup1\n    /* \"#utility.yul\":187:199   */\n  revert\n    /* \"#utility.yul\":334:460   */\ntag_44:\n    /* \"#utility.yul\":371:378   */\n  0x00\n    /* \"#utility.yul\":411:453   */\n  0xffffffffffffffffffffffffffffffffffffffff\n    /* \"#utility.yul\":404:409   */\n  dup3\n    /* \"#utility.yul\":400:454   */\n  and\n    /* \"#utility.yul\":389:454   */\n  swap1\n  pop\n    /* \"#utility.yul\":334:460   */\n  swap2\n  swap1\n  pop\n  jump\t// out\n    /* \"#utility.yul\":466:562   */\ntag_45:\n    /* \"#utility.yul\":503:510   */\n  0x00\n    /* \"#utility.yul\":532:556   */\n  tag_79\n    /* \"#utility.yul\":550:555   */\n  dup3\n    /* \"#utility.yul\":532:556   */\n  tag_44\n  jump\t// in\ntag_79:\n    /* \"#utility.yul\":521:556   */\n  swap1\n  pop\n    /* \"#utility.yul\":466:562   */\n  swap2\n  swap1\n  pop\n  jump\t// out\n    /* \"#utility.yul\":568:690   */\ntag_46:\n    /* \"#utility.yul\":641:665   */\n  tag_81\n    /* \"#utility.yul\":659:664   */\n  dup2\n    /* \"#utility.yul\":641:665   */\n  tag_45\n  jump\t// in\ntag_81:\n    /* \"#utility.yul\":634:639   */\n  dup2\n    /* \"#utility.yul\":631:666   */\n  eq\n    /* \"#utility.yul\":621:684   */\n  tag_82\n  jumpi\n    /* \"#utility.yul\":680:681   */\n  0x00\n    /* \"#utility.yul\":677:678   */\n  dup1\n    /* \"#utility.yul\":670:682   */\n  revert\n    /* \"#utility.yul\":621:684   */\ntag_82:\n    /* \"#utility.yul\":568:690   */\n  pop\n  jump\t// out\n    /* \"#utility.yul\":696:839   */\ntag_47:\n    /* \"#utility.yul\":753:758   */\n  0x00\n    /* \"#utility.yul\":784:790   */\n  dup2\n    /* \"#utility.yul\":778:791   */\n  mload\n    /* \"#utility.yul\":769:791   */\n  swap1\n  pop\n    /* \"#utility.yul\":800:833   */\n  tag_84\n    /* \"#utility.yul\":827:832   */\n  dup2\n    /* \"#utility.yul\":800:833   */\n  tag_46\n  jump\t// in\ntag_84:\n    /* \"#utility.yul\":696:839   */\n  swap3\n  swap2\n  pop\n  pop\n  jump\t// out\n    /* \"#utility.yul\":845:922   */\ntag_48:\n    /* \"#utility.yul\":882:889   */\n  0x00\n    /* \"#utility.yul\":911:916   */\n  dup2\n    /* \"#utility.yul\":900:916   */\n  swap1\n  pop\n    /* \"#utility.yul\":845:922   */\n  swap2\n  swap1\n  pop\n  jump\t// out\n    /* \"#utility.yul\":928:1050   */\ntag_49:\n    /* \"#utility.yul\":1001:1025   */\n  tag_87\n    /* \"#utility.yul\":1019:1024   */\n  dup2\n    /* \"#utility.yul\":1001:1025   */\n  tag_48\n  jump\t// in\ntag_87:\n    /* \"#utility.yul\":994:999   */\n  dup2\n    /* \"#utility.yul\":991:1026   */\n  eq\n    /* \"#utility.yul\":981:1044   */\n  tag_88\n  jumpi\n    /* \"#utility.yul\":1040:1041   */\n  0x00\n    /* \"#utility.yul\":1037:1038   */\n  dup1\n    /* \"#utility.yul\":1030:1042   */\n  revert\n    /* \"#utility.yul\":981:1044   */\ntag_88:\n    /* \"#utility.yul\":928:1050   */\n  pop\n  jump\t// out\n    /* \"#utility.yul\":1056:1199   */\ntag_50:\n    /* \"#utility.yul\":1113:1118   */\n  0x00\n    /* \"#utility.yul\":1144:1150   */\n  dup2\n    /* \"#utility.yul\":1138:1151   */\n  mload\n    /* \"#utility.yul\":1129:1151   */\n  swap1\n  pop\n    /* \"#utility.yul\":1160:1193   */\n  tag_90\n    /* \"#utility.yul\":1187:1192   */\n  dup2\n    /* \"#utility.yul\":1160:1193   */\n  tag_49\n  jump\t// in\ntag_90:\n    /* \"#utility.yul\":1056:1199   */\n  swap3\n  swap2\n  pop\n  pop\n  jump\t// out\n    /* \"#utility.yul\":1205:1712   */\ntag_3:\n    /* \"#utility.yul\":1284:1290   */\n  0x00\n    /* \"#utility.yul\":1292:1298   */\n  dup1\n    /* \"#utility.yul\":1341:1343   */\n  0x40\n    /* \"#utility.yul\":1329:1338   */\n  dup4\n    /* \"#utility.yul\":1320:1327   */\n  dup6\n    /* \"#utility.yul\":1316:1339   */\n  sub\n    /* \"#utility.yul\":1312:1344   */\n  slt\n    /* \"#utility.yul\":1309:1428   */\n  iszero\n  tag_92\n  jumpi\n    /* \"#utility.yul\":1347:1426   */\n  tag_93\n  tag_42\n  jump\t// in\ntag_93:\n    /* \"#utility.yul\":1309:1428   */\ntag_92:\n    /* \"#utility.yul\":1467:1468   */\n  0x00\n    /* \"#utility.yul\":1492:1556   */\n  tag_94\n    /* \"#utility.yul\":1548:1555   */\n  dup6\n    /* \"#utility.yul\":1539:1545   */\n  dup3\n    /* \"#utility.yul\":1528:1537   */\n  dup7\n    /* \"#utility.yul\":1524:1546   */\n  add\n    /* \"#utility.yul\":1492:1556   */\n  tag_47\n  jump\t// in\ntag_94:\n    /* \"#utility.yul\":1482:1556   */\n  swap3\n  pop\n    /* \"#utility.yul\":1438:1566   */\n  pop\n    /* \"#utility.yul\":1605:1607   */\n  0x20\n    /* \"#utility.yul\":1631:1695   */\n  tag_95\n    /* \"#utility.yul\":1687:1694   */\n  dup6\n    /* \"#utility.yul\":1678:1684   */\n  dup3\n    /* \"#utility.yul\":1667:1676   */\n  dup7\n    /* \"#utility.yul\":1663:1685   */\n  add\n    /* \"#utility.yul\":1631:1695   */\n  tag_50\n  jump\t// in\ntag_95:\n    /* \"#utility.yul\":1621:1695   */\n  swap2\n  pop\n    /* \"#utility.yul\":1576:1705   */\n  pop\n    /* \"#utility.yul\":1205:1712   */\n  swap3\n  pop\n  swap3\n  swap1\n  pop\n  jump\t// out\n    /* \"#utility.yul\":1718:1817   */\ntag_51:\n    /* \"#utility.yul\":1770:1776   */\n  0x00\n    /* \"#utility.yul\":1804:1809   */\n  dup2\n    /* \"#utility.yul\":1798:1810   */\n  mload\n    /* \"#utility.yul\":1788:1810   */\n  swap1\n  pop\n    /* \"#utility.yul\":1718:1817   */\n  swap2\n  swap1\n  pop\n  jump\t// out\n    /* \"#utility.yul\":1823:2003   */\ntag_52:\n    /* \"#utility.yul\":1871:1948   */\n  0x4e487b7100000000000000000000000000000000000000000000000000000000\n    /* \"#utility.yul\":1868:1869   */\n  0x00\n    /* \"#utility.yul\":1861:1949   */\n  mstore\n    /* \"#utility.yul\":1968:1972   */\n  0x41\n    /* \"#utility.yul\":1965:1966   */\n  0x04\n    /* \"#utility.yul\":1958:1973   */\n  mstore\n    /* \"#utility.yul\":1992:1996   */\n  0x24\n    /* \"#utility.yul\":1989:1990   */\n  0x00\n    /* \"#utility.yul\":1982:1997   */\n  revert\n    /* \"#utility.yul\":2009:2189   */\ntag_53:\n    /* \"#utility.yul\":2057:2134   */\n  0x4e487b7100000000000000000000000000000000000000000000000000000000\n    /* \"#utility.yul\":2054:2055   */\n  0x00\n    /* \"#utility.yul\":2047:2135   */\n  mstore\n    /* \"#utility.yul\":2154:2158   */\n  0x22\n    /* \"#utility.yul\":2151:2152   */\n  0x04\n    /* \"#utility.yul\":2144:2159   */\n  mstore\n    /* \"#utility.yul\":2178:2182   */\n  0x24\n    /* \"#utility.yul\":2175:2176   */\n  0x00\n    /* \"#utility.yul\":2168:2183   */\n  revert\n    /* \"#utility.yul\":2195:2515   */\ntag_54:\n    /* \"#utility.yul\":2239:2245   */\n  0x00\n    /* \"#utility.yul\":2276:2277   */\n  0x02\n    /* \"#utility.yul\":2270:2274   */\n  dup3\n    /* \"#utility.yul\":2266:2278   */\n  div\n    /* \"#utility.yul\":2256:2278   */\n  swap1\n  pop\n    /* \"#utility.yul\":2323:2324   */\n  0x01\n    /* \"#utility.yul\":2317:2321   */\n  dup3\n    /* \"#utility.yul\":2313:2325   */\n  and\n    /* \"#utility.yul\":2344:2362   */\n  dup1\n    /* \"#utility.yul\":2334:2415   */\n  tag_100\n  jumpi\n    /* \"#utility.yul\":2400:2404   */\n  0x7f\n    /* \"#utility.yul\":2392:2398   */\n  dup3\n    /* \"#utility.yul\":2388:2405   */\n  and\n    /* \"#utility.yul\":2378:2405   */\n  swap2\n  pop\n    /* \"#utility.yul\":2334:2415   */\ntag_100:\n    /* \"#utility.yul\":2462:2464   */\n  0x20\n    /* \"#utility.yul\":2454:2460   */\n  dup3\n    /* \"#utility.yul\":2451:2465   */\n  lt\n    /* \"#utility.yul\":2431:2449   */\n  dup2\n    /* \"#utility.yul\":2428:2466   */\n  sub\n    /* \"#utility.yul\":2425:2509   */\n  tag_101\n  jumpi\n    /* \"#utility.yul\":2481:2499   */\n  tag_102\n  tag_53\n  jump\t// in\ntag_102:\n    /* \"#utility.yul\":2425:2509   */\ntag_101:\n    /* \"#utility.yul\":2246:2515   */\n  pop\n    /* \"#utility.yul\":2195:2515   */\n  swap2\n  swap1\n  pop\n  jump\t// out\n    /* \"#utility.yul\":2521:2662   */\ntag_55:\n    /* \"#utility.yul\":2570:2574   */\n  0x00\n    /* \"#utility.yul\":2593:2596   */\n  dup2\n    /* \"#utility.yul\":2585:2596   */\n  swap1\n  pop\n    /* \"#utility.yul\":2616:2619   */\n  dup2\n    /* \"#utility.yul\":2613:2614   */\n  0x00\n    /* \"#utility.yul\":2606:2620   */\n  mstore\n    /* \"#utility.yul\":2650:2654   */\n  0x20\n    /* \"#utility.yul\":2647:2648   */\n  0x00\n    /* \"#utility.yul\":2637:2655   */\n  keccak256\n    /* \"#utility.yul\":2629:2655   */\n  swap1\n  pop\n    /* \"#utility.yul\":2521:2662   */\n  swap2\n  swap1\n  pop\n  jump\t// out\n    /* \"#utility.yul\":2668:2761   */\ntag_56:\n    /* \"#utility.yul\":2705:2711   */\n  0x00\n    /* \"#utility.yul\":2752:2754   */\n  0x20\n    /* \"#utility.yul\":2747:2749   */\n  0x1f\n    /* \"#utility.yul\":2740:2745   */\n  dup4\n    /* \"#utility.yul\":2736:2750   */\n  add\n    /* \"#utility.yul\":2732:2755   */\n  div\n    /* \"#utility.yul\":2722:2755   */\n  swap1\n  pop\n    /* \"#utility.yul\":2668:2761   */\n  swap2\n  swap1\n  pop\n  jump\t// out\n    /* \"#utility.yul\":2767:2874   */\ntag_57:\n    /* \"#utility.yul\":2811:2819   */\n  0x00\n    /* \"#utility.yul\":2861:2866   */\n  dup3\n    /* \"#utility.yul\":2855:2859   */\n  dup3\n    /* \"#utility.yul\":2851:2867   */\n  shl\n    /* \"#utility.yul\":2830:2867   */\n  swap1\n  pop\n    /* \"#utility.yul\":2767:2874   */\n  swap3\n  swap2\n  pop\n  pop\n  jump\t// out\n    /* \"#utility.yul\":2880:3273   */\ntag_58:\n    /* \"#utility.yul\":2949:2955   */\n  0x00\n    /* \"#utility.yul\":2999:3000   */\n  0x08\n    /* \"#utility.yul\":2987:2997   */\n  dup4\n    /* \"#utility.yul\":2983:3001   */\n  mul\n    /* \"#utility.yul\":3022:3119   */\n  tag_107\n    /* \"#utility.yul\":3052:3118   */\n  0xffffffffffffffffffffffffffffffffffffffffffffffffffffffffffffffff\n    /* \"#utility.yul\":3041:3050   */\n  dup3\n    /* \"#utility.yul\":3022:3119   */\n  tag_57\n  jump\t// in\ntag_107:\n    /* \"#utility.yul\":3140:3179   */\n  tag_108\n    /* \"#utility.yul\":3170:3178   */\n  dup7\n    /* \"#utility.yul\":3159:3168   */\n  dup4\n    /* \"#utility.yul\":3140:3179   */\n  tag_57\n  jump\t// in\ntag_108:\n    /* \"#utility.yul\":3128:3179   */\n  swap6\n  pop\n    /* \"#utility.yul\":3212:3216   */\n  dup1\n    /* \"#utility.yul\":3208:3217   */\n  not\n    /* \"#utility.yul\":3201:3206   */\n  dup5\n    /* \"#utility.yul\":3197:3218   */\n  and\n    /* \"#utility.yul\":3188:3218   */\n  swap4\n  pop\n    /* \"#utility.yul\":3261:3265   */\n  dup1\n    /* \"#utility.yul\":3251:3259   */\n  dup7\n    /* \"#utility.yul\":3247:3266   */\n  and\n    /* \"#utility.yul\":3240:3245   */\n  dup5\n    /* \"#utility.yul\":3237:3267   */\n  or\n    /* \"#utility.yul\":3227:3267   */\n  swap3\n  pop\n    /* \"#utility.yul\":2956:3273   */\n  pop\n  pop\n    /* \"#utility.yul\":2880:3273   */\n  swap4\n  swap3\n  pop\n  pop\n  pop\n  jump\t// out\n    /* \"#utility.yul\":3279:3339   */\ntag_59:\n    /* \"#utility.yul\":3307:3310   */\n  0x00\n    /* \"#utility.yul\":3328:3333   */\n  dup2\n    /* \"#utility.yul\":3321:3333   */\n  swap1\n  pop\n    /* \"#utility.yul\":3279:3339   */\n  swap2\n  swap1\n  pop\n  jump\t// out\n    /* \"#utility.yul\":3345:3487   */\ntag_60:\n    /* \"#utility.yul\":3395:3404   */\n  0x00\n    /* \"#utility.yul\":3428:3481   */\n  tag_111\n    /* \"#utility.yul\":3446:3480   */\n  tag_112\n    /* \"#utility.yul\":3455:3479   */\n  tag_113\n    /* \"#utility.yul\":3473:3478   */\n  dup5\n    /* \"#utility.yul\":3455:3479   */\n  tag_48\n  jump\t// in\ntag_113:\n    /* \"#utility.yul\":3446:3480   */\n  tag_59\n  jump\t// in\ntag_112:\n    /* \"#utility.yul\":3428:3481   */\n  tag_48\n  jump\t// in\ntag_111:\n    /* \"#utility.yul\":3415:3481   */\n  swap1\n  pop\n    /* \"#utility.yul\":3345:3487   */\n  swap2\n  swap1\n  pop\n  jump\t// out\n    /* \"#utility.yul\":3493:3568   */\ntag_61:\n    /* \"#utility.yul\":3536:3539   */\n  0x00\n    /* \"#utility.yul\":3557:3562   */\n  dup2\n    /* \"#utility.yul\":3550:3562   */\n  swap1\n  pop\n    /* \"#utility.yul\":3493:3568   */\n  swap2\n  swap1\n  pop\n  jump\t// out\n    /* \"#utility.yul\":3574:3843   */\ntag_62:\n    /* \"#utility.yul\":3684:3723   */\n  tag_116\n    /* \"#utility.yul\":3715:3722   */\n  dup4\n    /* \"#utility.yul\":3684:3723   */\n  tag_60\n  jump\t// in\ntag_116:\n    /* \"#utility.yul\":3745:3836   */\n  tag_117\n    /* \"#utility.yul\":3794:3835   */\n  tag_118\n    /* \"#utility.yul\":3818:3834   */\n  dup3\n    /* \"#utility.yul\":3794:3835   */\n  tag_61\n  jump\t// in\ntag_118:\n    /* \"#utility.yul\":3786:3792   */\n  dup5\n    /* \"#utility.yul\":3779:3783   */\n  dup5\n    /* \"#utility.yul\":3773:3784   */\n  sload\n    /* \"#utility.yul\":3745:3836   */\n  tag_58\n  jump\t// in\ntag_117:\n    /* \"#utility.yul\":3739:3743   */\n  dup3\n    /* \"#utility.yul\":3732:3837   */\n  sstore\n    /* \"#utility.yul\":3650:3843   */\n  pop\n    /* \"#utility.yul\":3574:3843   */\n  pop\n  pop\n  pop\n  jump\t// out\n    /* \"#utility.yul\":3849:3922   */\ntag_63:\n    /* \"#utility.yul\":3894:3897   */\n  0x00\n    /* \"#utility.yul\":3849:3922   */\n  swap1\n  jump\t// out\n    /* \"#utility.yul\":3928:4117   */\ntag_64:\n    /* \"#utility.yul\":4005:4037   */\n  tag_121\n  tag_63\n  jump\t// in\ntag_121:\n    /* \"#utility.yul\":4046:4111   */\n  tag_122\n    /* \"#utility.yul\":4104:4110   */\n  dup2\n    /* \"#utility.yul\":4096:4102   */\n  dup5\n    /* \"#utility.yul\":4090:4094   */\n  dup5\n    /* \"#utility.yul\":4046:4111   */\n  tag_62\n  jump\t// in\ntag_122:\n    /* \"#utility.yul\":3981:4117   */\n  pop\n    /* \"#utility.yul\":3928:4117   */\n  pop\n  pop\n  jump\t// out\n    /* \"#utility.yul\":4123:4309   */\ntag_65:\n    /* \"#utility.yul\":4183:4303   */\ntag_124:\n    /* \"#utility.yul\":4200:4203   */\n  dup2\n    /* \"#utility.yul\":4193:4198   */\n  dup2\n    /* \"#utility.yul\":4190:4204   */\n  lt\n    /* \"#utility.yul\":4183:4303   */\n  iszero\n  tag_126\n  jumpi\n    /* \"#utility.yul\":4254:4293   */\n  tag_127\n    /* \"#utility.yul\":4291:4292   */\n  0x00\n    /* \"#utility.yul\":4284:4289   */\n  dup3\n    /* \"#utility.yul\":4254:4293   */\n  tag_64\n  jump\t// in\ntag_127:\n    /* \"#utility.yul\":4227:4228   */\n  0x01\n    /* \"#utility.yul\":4220:4225   */\n  dup2\n    /* \"#utility.yul\":4216:4229   */\n  add\n    /* \"#utility.yul\":4207:4229   */\n  swap1\n  pop\n    /* \"#utility.yul\":4183:4303   */\n  jump(tag_124)\ntag_126:\n    /* \"#utility.yul\":4123:4309   */\n  pop\n  pop\n  jump\t// out\n    /* \"#utility.yul\":4315:4858   */\ntag_66:\n    /* \"#utility.yul\":4416:4418   */\n  0x1f\n    /* \"#utility.yul\":4411:4414   */\n  dup3\n    /* \"#utility.yul\":4408:4419   */\n  gt\n    /* \"#utility.yul\":4405:4851   */\n  iszero\n  tag_129\n  jumpi\n    /* \"#utility.yul\":4450:4488   */\n  tag_130\n    /* \"#utility.yul\":4482:4487   */\n  dup2\n    /* \"#utility.yul\":4450:4488   */\n  tag_55\n  jump\t// in\ntag_130:\n    /* \"#utility.yul\":4534:4563   */\n  tag_131\n    /* \"#utility.yul\":4552:4562   */\n  dup5\n    /* \"#utility.yul\":4534:4563   */\n  tag_56\n  jump\t// in\ntag_131:\n    /* \"#utility.yul\":4524:4532   */\n  dup2\n    /* \"#utility.yul\":4520:4564   */\n  add\n    /* \"#utility.yul\":4717:4719   */\n  0x20\n    /* \"#utility.yul\":4705:4715   */\n  dup6\n    /* \"#utility.yul\":4702:4720   */\n  lt\n    /* \"#utility.yul\":4699:4748   */\n  iszero\n  tag_132\n  jumpi\n    /* \"#utility.yul\":4738:4746   */\n  dup2\n    /* \"#utility.yul\":4723:4746   */\n  swap1\n  pop\n    /* \"#utility.yul\":4699:4748   */\ntag_132:\n    /* \"#utility.yul\":4761:4841   */\n  tag_133\n    /* \"#utility.yul\":4817:4839   */\n  tag_134\n    /* \"#utility.yul\":4835:4838   */\n  dup6\n    /* \"#utility.yul\":4817:4839   */\n  tag_56\n  jump\t// in\ntag_134:\n    /* \"#utility.yul\":4807:4815   */\n  dup4\n    /* \"#utility.yul\":4803:4840   */\n  add\n    /* \"#utility.yul\":4790:4801   */\n  dup3\n    /* \"#utility.yul\":4761:4841   */\n  tag_65\n  jump\t// in\ntag_133:\n    /* \"#utility.yul\":4420:4851   */\n  pop\n  pop\n    /* \"#utility.yul\":4405:4851   */\ntag_129:\n    /* \"#utility.yul\":4315:4858   */\n  pop\n  pop\n  pop\n  jump\t// out\n    /* \"#utility.yul\":4864:4981   */\ntag_67:\n    /* \"#utility.yul\":4918:4926   */\n  0x00\n    /* \"#utility.yul\":4968:4973   */\n  dup3\n    /* \"#utility.yul\":4962:4966   */\n  dup3\n    /* \"#utility.yul\":4958:4974   */\n  shr\n    /* \"#utility.yul\":4937:4974   */\n  swap1\n  pop\n    /* \"#utility.yul\":4864:4981   */\n  swap3\n  swap2\n  pop\n  pop\n  jump\t// out\n    /* \"#utility.yul\":4987:5156   */\ntag_68:\n    /* \"#utility.yul\":5031:5037   */\n  0x00\n    /* \"#utility.yul\":5064:5115   */\n  tag_137\n    /* \"#utility.yul\":5112:5113   */\n  0x00\n    /* \"#utility.yul\":5108:5114   */\n  not\n    /* \"#utility.yul\":5100:5105   */\n  dup5\n    /* \"#utility.yul\":5097:5098   */\n  0x08\n    /* \"#utility.yul\":5093:5106   */\n  mul\n    /* \"#utility.yul\":5064:5115   */\n  tag_67\n  jump\t// in\ntag_137:\n    /* \"#utility.yul\":5060:5116   */\n  not\n    /* \"#utility.yul\":5145:5149   */\n  dup1\n    /* \"#utility.yul\":5139:5143   */\n  dup4\n    /* \"#utility.yul\":5135:5150   */\n  and\n    /* \"#utility.yul\":5125:5150   */\n  swap2\n  pop\n    /* \"#utility.yul\":5038:5156   */\n  pop\n    /* \"#utility.yul\":4987:5156   */\n  swap3\n  swap2\n  pop\n  pop\n  jump\t// out\n    /* \"#utility.yul\":5161:5456   */\ntag_69:\n    /* \"#utility.yul\":5237:5241   */\n  0x00\n    /* \"#utility.yul\":5383:5412   */\n  tag_139\n    /* \"#utility.yul\":5408:5411   */\n  dup4\n    /* \"#utility.yul\":5402:5406   */\n  dup4\n    /* \"#utility.yul\":5383:5412   */\n  tag_68\n  jump\t// in\ntag_139:\n    /* \"#utility.yul\":5375:5412   */\n  swap2\n  pop\n    /* \"#utility.yul\":5445:5448   */\n  dup3\n    /* \"#utility.yul\":5442:5443   */\n  0x02\n    /* \"#utility.yul\":5438:5449   */\n  mul\n    /* \"#utility.yul\":5432:5436   */\n  dup3\n    /* \"#utility.yul\":5429:5450   */\n  or\n    /* \"#utility.yul\":5421:5450   */\n  swap1\n  pop\n    /* \"#utility.yul\":5161:5456   */\n  swap3\n  swap2\n  pop\n  pop\n  jump\t// out\n    /* \"#utility.yul\":5461:6856   */\ntag_9:\n    /* \"#utility.yul\":5578:5615   */\n  tag_141\n    /* \"#utility.yul\":5611:5614   */\n  dup3\n    /* \"#utility.yul\":5578:5615   */\n  tag_51\n  jump\t// in\ntag_141:\n    /* \"#utility.yul\":5680:5698   */\n  0xffffffffffffffff\n    /* \"#utility.yul\":5672:5678   */\n  dup2\n    /* \"#utility.yul\":5669:5699   */\n  gt\n    /* \"#utility.yul\":5666:5722   */\n  iszero\n  tag_142\n  jumpi\n    /* \"#utility.yul\":5702:5720   */\n  tag_143\n  tag_52\n  jump\t// in\ntag_143:\n    /* \"#utility.yul\":5666:5722   */\ntag_142:\n    /* \"#utility.yul\":5746:5784   */\n  tag_144\n    /* \"#utility.yul\":5778:5782   */\n  dup3\n    /* \"#utility.yul\":5772:5783   */\n  sload\n    /* \"#utility.yul\":5746:5784   */\n  tag_54\n  jump\t// in\ntag_144:\n    /* \"#utility.yul\":5831:5898   */\n  tag_145\n    /* \"#utility.yul\":5891:5897   */\n  dup3\n    /* \"#utility.yul\":5883:5889   */\n  dup3\n    /* \"#utility.yul\":5877:5881   */\n  dup6\n    /* \"#utility.yul\":5831:5898   */\n  tag_66\n  jump\t// in\ntag_145:\n    /* \"#utility.yul\":5925:5926   */\n  0x00\n    /* \"#utility.yul\":5949:5953   */\n  0x20\n    /* \"#utility.yul\":5936:5953   */\n  swap1\n  pop\n    /* \"#utility.yul\":5981:5983   */\n  0x1f\n    /* \"#utility.yul\":5973:5979   */\n  dup4\n    /* \"#utility.yul\":5970:5984   */\n  gt\n    /* \"#utility.yul\":5998:5999   */\n  0x01\n    /* \"#utility.yul\":5993:6611   */\n  dup2\n  eq\n  tag_147\n  jumpi\n    /* \"#utility.yul\":6655:6656   */\n  0x00\n    /* \"#utility.yul\":6672:6678   */\n  dup5\n    /* \"#utility.yul\":6669:6746   */\n  iszero\n  tag_148\n  jumpi\n    /* \"#utility.yul\":6721:6730   */\n  dup3\n    /* \"#utility.yul\":6716:6719   */\n  dup8\n    /* \"#utility.yul\":6712:6731   */\n  add\n    /* \"#utility.yul\":6706:6732   */\n  mload\n    /* \"#utility.yul\":6697:6732   */\n  swap1\n  pop\n    /* \"#utility.yul\":6669:6746   */\ntag_148:\n    /* \"#utility.yul\":6772:6839   */\n  tag_149\n    /* \"#utility.yul\":6832:6838   */\n  dup6\n    /* \"#utility.yul\":6825:6830   */\n  dup3\n    /* \"#utility.yul\":6772:6839   */\n  tag_69\n  jump\t// in\ntag_149:\n    /* \"#utility.yul\":6766:6770   */\n  dup7\n    /* \"#utility.yul\":6759:6840   */\n  sstore\n    /* \"#utility.yul\":6628:6850   */\n  pop\n    /* \"#utility.yul\":5963:6850   */\n  jump(tag_146)\n    /* \"#utility.yul\":5993:6611   */\ntag_147:\n    /* \"#utility.yul\":6045:6049   */\n  0x1f\n    /* \"#utility.yul\":6041:6050   */\n  not\n    /* \"#utility.yul\":6033:6039   */\n  dup5\n    /* \"#utility.yul\":6029:6051   */\n  and\n    /* \"#utility.yul\":6079:6116   */\n  tag_150\n    /* \"#utility.yul\":6111:6115   */\n  dup7\n    /* \"#utility.yul\":6079:6116   */\n  tag_55\n  jump\t// in\ntag_150:\n    /* \"#utility.yul\":6138:6139   */\n  0x00\n    /* \"#utility.yul\":6152:6360   */\ntag_151:\n    /* \"#utility.yul\":6166:6173   */\n  dup3\n    /* \"#utility.yul\":6163:6164   */\n  dup2\n    /* \"#utility.yul\":6160:6174   */\n  lt\n    /* \"#utility.yul\":6152:6360   */\n  iszero\n  tag_153\n  jumpi\n    /* \"#utility.yul\":6245:6254   */\n  dup5\n    /* \"#utility.yul\":6240:6243   */\n  dup10\n    /* \"#utility.yul\":6236:6255   */\n  add\n    /* \"#utility.yul\":6230:6256   */\n  mload\n    /* \"#utility.yul\":6222:6228   */\n  dup3\n    /* \"#utility.yul\":6215:6257   */\n  sstore\n    /* \"#utility.yul\":6296:6297   */\n  0x01\n    /* \"#utility.yul\":6288:6294   */\n  dup3\n    /* \"#utility.yul\":6284:6298   */\n  add\n    /* \"#utility.yul\":6274:6298   */\n  swap2\n  pop\n    /* \"#utility.yul\":6343:6345   */\n  0x20\n    /* \"#utility.yul\":6332:6341   */\n  dup6\n    /* \"#utility.yul\":6328:6346   */\n  add\n    /* \"#utility.yul\":6315:6346   */\n  swap5\n  pop\n    /* \"#utility.yul\":6189:6193   */\n  0x20\n    /* \"#utility.yul\":6186:6187   */\n  dup2\n    /* \"#utility.yul\":6182:6194   */\n  add\n    /* \"#utility.yul\":6177:6194   */\n  swap1\n  pop\n    /* \"#utility.yul\":6152:6360   */\n  jump(tag_151)\ntag_153:\n    /* \"#utility.yul\":6388:6394   */\n  dup7\n    /* \"#utility.yul\":6379:6386   */\n  dup4\n    /* \"#utility.yul\":6376:6395   */\n  lt\n    /* \"#utility.yul\":6373:6552   */\n  iszero\n  tag_154\n  jumpi\n    /* \"#utility.yul\":6446:6455   */\n  dup5\n    /* \"#utility.yul\":6441:6444   */\n  dup10\n    /* \"#utility.yul\":6437:6456   */\n  add\n    /* \"#utility.yul\":6431:6457   */\n  mload\n    /* \"#utility.yul\":6489:6537   */\n  tag_155\n    /* \"#utility.yul\":6531:6535   */\n  0x1f\n    /* \"#utility.yul\":6523:6529   */\n  dup10\n    /* \"#utility.yul\":6519:6536   */\n  and\n    /* \"#utility.yul\":6508:6517   */\n  dup3\n    /* \"#utility.yul\":6489:6537   */\n  tag_68\n  jump\t// in\ntag_155:\n    /* \"#utility.yul\":6481:6487   */\n  dup4\n    /* \"#utility.yul\":6474:6538   */\n  sstore\n    /* \"#utility.yul\":6396:6552   */\n  pop\n    /* \"#utility.yul\":6373:6552   */\ntag_154:\n    /* \"#utility.yul\":6598:6599   */\n  0x01\n    /* \"#utility.yul\":6594:6595   */\n  0x02\n    /* \"#utility.yul\":6586:6592   */\n  dup9\n    /* \"#utility.yul\":6582:6596   */\n  mul\n    /* \"#utility.yul\":6578:6600   */\n  add\n    /* \"#utility.yul\":6572:6576   */\n  dup9\n    /* \"#utility.yul\":6565:6601   */\n  sstore\n    /* \"#utility.yul\":6000:6611   */\n  pop\n  pop\n  pop\n    /* \"#utility.yul\":5963:6850   */\ntag_146:\n  pop\n    /* \"#utility.yul\":5553:6856   */\n  pop\n  pop\n  pop\n    /* \"#utility.yul\":5461:6856   */\n  pop\n  pop\n  jump\t// out\n    /* \"#utility.yul\":6862:6980   */\ntag_70:\n    /* \"#utility.yul\":6949:6973   */\n  tag_157\n    /* \"#utility.yul\":6967:6972   */\n  dup2\n    /* \"#utility.yul\":6949:6973   */\n  tag_45\n  jump\t// in\ntag_157:\n    /* \"#utility.yul\":6944:6947   */\n  dup3\n    /* \"#utility.yul\":6937:6974   */\n  mstore\n    /* \"#utility.yul\":6862:6980   */\n  pop\n  pop\n  jump\t// out\n    /* \"#utility.yul\":6986:7208   */\ntag_14:\n    /* \"#utility.yul\":7079:7083   */\n  0x00\n    /* \"#utility.yul\":7117:7119   */\n  0x20\n    /* \"#utility.yul\":7106:7115   */\n  dup3\n    /* \"#utility.yul\":7102:7120   */\n  add\n    /* \"#utility.yul\":7094:7120   */\n  swap1\n  pop\n    /* \"#utility.yul\":7130:7201   */\n  tag_159\n    /* \"#utility.yul\":7198:7199   */\n  0x00\n    /* \"#utility.yul\":7187:7196   */\n  dup4\n    /* \"#utility.yul\":7183:7200   */\n  add\n    /* \"#utility.yul\":7174:7180   */\n  dup5\n    /* \"#utility.yul\":7130:7201   */\n  tag_70\n  jump\t// in\ntag_159:\n    /* \"#utility.yul\":6986:7208   */\n  swap3\n  swap2\n  pop\n  pop\n  jump\t// out\n    /* \"#utility.yul\":7214:7394   */\ntag_71:\n    /* \"#utility.yul\":7262:7339   */\n  0x4e487b7100000000000000000000000000000000000000000000000000000000\n    /* \"#utility.yul\":7259:7260   */\n  0x00\n    /* \"#utility.yul\":7252:7340   */\n  mstore\n    /* \"#utility.yul\":7359:7363   */\n  0x11\n    /* \"#utility.yul\":7356:7357   */\n  0x04\n    /* \"#utility.yul\":7349:7364   */\n  mstore\n    /* \"#utility.yul\":7383:7387   */\n  0x24\n    /* \"#utility.yul\":7380:7381   */\n  0x00\n    /* \"#utility.yul\":7373:7388   */\n  revert\n    /* \"#utility.yul\":7400:7810   */\ntag_20:\n    /* \"#utility.yul\":7440:7447   */\n  0x00\n    /* \"#utility.yul\":7463:7483   */\n  tag_162\n    /* \"#utility.yul\":7481:7482   */\n  dup3\n    /* \"#utility.yul\":7463:7483   */\n  tag_48\n  jump\t// in\ntag_162:\n    /* \"#utility.yul\":7458:7483   */\n  swap2\n  pop\n    /* \"#utility.yul\":7497:7517   */\n  tag_163\n    /* \"#utility.yul\":7515:7516   */\n  dup4\n    /* \"#utility.yul\":7497:7517   */\n  tag_48\n  jump\t// in\ntag_163:\n    /* \"#utility.yul\":7492:7517   */\n  swap3\n  pop\n    /* \"#utility.yul\":7552:7553   */\n  dup3\n    /* \"#utility.yul\":7549:7550   */\n  dup3\n    /* \"#utility.yul\":7545:7554   */\n  mul\n    /* \"#utility.yul\":7574:7604   */\n  tag_164\n    /* \"#utility.yul\":7592:7603   */\n  dup2\n    /* \"#utility.yul\":7574:7604   */\n  tag_48\n  jump\t// in\ntag_164:\n    /* \"#utility.yul\":7563:7604   */\n  swap2\n  pop\n    /* \"#utility.yul\":7753:7754   */\n  dup3\n    /* \"#utility.yul\":7744:7751   */\n  dup3\n    /* \"#utility.yul\":7740:7755   */\n  div\n    /* \"#utility.yul\":7737:7738   */\n  dup5\n    /* \"#utility.yul\":7734:7756   */\n  eq\n    /* \"#utility.yul\":7714:7715   */\n  dup4\n    /* \"#utility.yul\":7707:7716   */\n  iszero\n    /* \"#utility.yul\":7687:7770   */\n  or\n    /* \"#utility.yul\":7664:7803   */\n  tag_165\n  jumpi\n    /* \"#utility.yul\":7783:7801   */\n  tag_166\n  tag_71\n  jump\t// in\ntag_166:\n    /* \"#utility.yul\":7664:7803   */\ntag_165:\n    /* \"#utility.yul\":7448:7810   */\n  pop\n    /* \"#utility.yul\":7400:7810   */\n  swap3\n  swap2\n  pop\n  pop\n  jump\t// out\n    /* \"#utility.yul\":7816:8007   */\ntag_32:\n    /* \"#utility.yul\":7856:7859   */\n  0x00\n    /* \"#utility.yul\":7875:7895   */\n  tag_168\n    /* \"#utility.yul\":7893:7894   */\n  dup3\n    /* \"#utility.yul\":7875:7895   */\n  tag_48\n  jump\t// in\ntag_168:\n    /* \"#utility.yul\":7870:7895   */\n  swap2\n  pop\n    /* \"#utility.yul\":7909:7929   */\n  tag_169\n    /* \"#utility.yul\":7927:7928   */\n  dup4\n    /* \"#utility.yul\":7909:7929   */\n  tag_48\n  jump\t// in\ntag_169:\n    /* \"#utility.yul\":7904:7929   */\n  swap3\n  pop\n    /* \"#utility.yul\":7952:7953   */\n  dup3\n    /* \"#utility.yul\":7949:7950   */\n  dup3\n    /* \"#utility.yul\":7945:7954   */\n  add\n    /* \"#utility.yul\":7938:7954   */\n  swap1\n  pop\n    /* \"#utility.yul\":7973:7976   */\n  dup1\n    /* \"#utility.yul\":7970:7971   */\n  dup3\n    /* \"#utility.yul\":7967:7977   */\n  gt\n    /* \"#utility.yul\":7964:8000   */\n  iszero\n  tag_170\n  jumpi\n    /* \"#utility.yul\":7980:7998   */\n  tag_171\n  tag_71\n  jump\t// in\ntag_171:\n    /* \"#utility.yul\":7964:8000   */\ntag_170:\n    /* \"#utility.yul\":7816:8007   */\n  swap3\n  swap2\n  pop\n  pop\n  jump\t// out\n    /* \"#utility.yul\":8013:8131   */\ntag_72:\n    /* \"#utility.yul\":8100:8124   */\n  tag_173\n    /* \"#utility.yul\":8118:8123   */\n  dup2\n    /* \"#utility.yul\":8100:8124   */\n  tag_48\n  jump\t// in\ntag_173:\n    /* \"#utility.yul\":8095:8098   */\n  dup3\n    /* \"#utility.yul\":8088:8125   */\n  mstore\n    /* \"#utility.yul\":8013:8131   */\n  pop\n  pop\n  jump\t// out\n    /* \"#utility.yul\":8137:8579   */\ntag_36:\n    /* \"#utility.yul\":8286:8290   */\n  0x00\n    /* \"#utility.yul\":8324:8326   */\n  0x60\n    /* \"#utility.yul\":8313:8322   */\n  dup3\n    /* \"#utility.yul\":8309:8327   */\n  add\n    /* \"#utility.yul\":8301:8327   */\n  swap1\n  pop\n    /* \"#utility.yul\":8337:8408   */\n  tag_175\n    /* \"#utility.yul\":8405:8406   */\n  0x00\n    /* \"#utility.yul\":8394:8403   */\n  dup4\n    /* \"#utility.yul\":8390:8407   */\n  add\n    /* \"#utility.yul\":8381:8387   */\n  dup7\n    /* \"#utility.yul\":8337:8408   */\n  tag_70\n  jump\t// in\ntag_175:\n    /* \"#utility.yul\":8418:8490   */\n  tag_176\n    /* \"#utility.yul\":8486:8488   */\n  0x20\n    /* \"#utility.yul\":8475:8484   */\n  dup4\n    /* \"#utility.yul\":8471:8489   */\n  add\n    /* \"#utility.yul\":8462:8468   */\n  dup6\n    /* \"#utility.yul\":8418:8490   */\n  tag_72\n  jump\t// in\ntag_176:\n    /* \"#utility.yul\":8500:8572   */\n  tag_177\n    /* \"#utility.yul\":8568:8570   */\n  0x40\n    /* \"#utility.yul\":8557:8566   */\n  dup4\n    /* \"#utility.yul\":8553:8571   */\n  add\n    /* \"#utility.yul\":8544:8550   */\n  dup5\n    /* \"#utility.yul\":8500:8572   */\n  tag_72\n  jump\t// in\ntag_177:\n    /* \"#utility.yul\":8137:8579   */\n  swap5\n  swap4\n  pop\n  pop\n  pop\n  pop\n  jump\t// out\n    /* \"#utility.yul\":8585:8807   */\ntag_40:\n    /* \"#utility.yul\":8678:8682   */\n  0x00\n    /* \"#utility.yul\":8716:8718   */\n  0x20\n    /* \"#utility.yul\":8705:8714   */\n  dup3\n    /* \"#utility.yul\":8701:8719   */\n  add\n    /* \"#utility.yul\":8693:8719   */\n  swap1\n  pop\n    /* \"#utility.yul\":8729:8800   */\n  tag_179\n    /* \"#utility.yul\":8797:8798   */\n  0x00\n    /* \"#utility.yul\":8786:8795   */\n  dup4\n    /* \"#utility.yul\":8782:8799   */\n  add\n    /* \"#utility.yul\":8773:8779   */\n  dup5\n    /* \"#utility.yul\":8729:8800   */\n  tag_72\n  jump\t// in\ntag_179:\n    /* \"#utility.yul\":8585:8807   */\n  swap3\n  swap2\n  pop\n  pop\n  jump\t// out\n    /* \"contracts/STEMToken_flattened.sol\":24919:29898  contract STEMToken is ERC20, Ownable {... */\ntag_22:\n  dataSize(sub_0)\n  dup1\n  dataOffset(sub_0)\n  0x00\n  codecopy\n  0x00\n  return\nstop\n\nsub_0: assembly {\n        /* \"contracts/STEMToken_flattened.sol\":24919:29898  contract STEMToken is ERC20, Ownable {... */\n      mstore(0x40, 0x80)\n      callvalue\n      dup1\n      iszero\n      tag_1\n      jumpi\n      0x00\n      dup1\n      revert\n    tag_1:\n      pop\n      jumpi(tag_2, lt(calldatasize, 0x04))\n      shr(0xe0, calldataload(0x00))\n      dup1\n      0x85e436bf\n      gt\n      tag_30\n      jumpi\n      dup1\n      0xbb285554\n      gt\n      tag_31\n      jumpi\n      dup1\n      0xf0f44260\n      gt\n      tag_32\n      jumpi\n      dup1\n      0xf0f44260\n      eq\n      tag_26\n      jumpi\n      dup1\n      0xf203787c\n      eq\n      tag_27\n      jumpi\n      dup1\n      0xf2fde38b\n      eq\n      tag_28\n      jumpi\n      dup1\n      0xfc37987b\n      eq\n      tag_29\n      jumpi\n      jump(tag_2)\n    tag_32:\n      dup1\n      0xbb285554\n      eq\n      tag_23\n      jumpi\n      dup1\n      0xc3f909d4\n      eq\n      tag_24\n      jumpi\n      dup1\n      0xdd62ed3e\n      eq\n      tag_25\n      jumpi\n      jump(tag_2)\n    tag_31:\n      dup1\n      0x95d89b41\n      gt\n      tag_33\n      jumpi\n      dup1\n      0x95d89b41\n      eq\n      tag_19\n      jumpi\n      dup1\n      0x9dc29fac\n      eq\n      tag_20\n      jumpi\n      dup1\n      0xa9059cbb\n      eq\n      tag_21\n      jumpi\n      dup1\n      0xa98ad46c\n      eq\n      tag_22\n      jumpi\n      jump(tag_2)\n    tag_33:\n      dup1\n      0x85e436bf\n      eq\n      tag_16\n      jumpi\n      dup1\n      0x8da5cb5b\n      eq\n      tag_17\n      jumpi\n      dup1\n      0x8e0b017d\n      eq\n      tag_18\n      jumpi\n      jump(tag_2)\n    tag_30:\n      dup1\n      0x313ce567\n      gt\n      tag_34\n      jumpi\n      dup1\n      0x61d027b3\n      gt\n      tag_35\n      jumpi\n      dup1\n      0x61d027b3\n      eq\n      tag_12\n      jumpi\n      dup1\n      0x6217229b\n      eq\n      tag_13\n      jumpi\n      dup1\n      0x70a08231\n      eq\n      tag_14\n      jumpi\n      dup1\n      0x715018a6\n      eq\n      tag_15\n      jumpi\n      jump(tag_2)\n    tag_35:\n      dup1\n      0x313ce567\n      eq\n      tag_9\n      jumpi\n      dup1\n      0x40c10f19\n      eq\n      tag_10\n      jumpi\n      dup1\n      0x5d91e3f8\n      eq\n      tag_11\n      jumpi\n      jump(tag_2)\n    tag_34:\n      dup1\n      0x06fdde03\n      eq\n      tag_3\n      jumpi\n      dup1\n      0x095ea7b3\n      eq\n      tag_4\n      jumpi\n      dup1\n      0x0f7e730b\n      eq\n      tag_5\n      jumpi\n      dup1\n      0x1481794e\n      eq\n      tag_6\n      jumpi\n      dup1\n      0x18160ddd\n      eq\n      tag_7\n      jumpi\n      dup1\n      0x23b872dd\n      eq\n      tag_8\n      jumpi\n    tag_2:\n      0x00\n      dup1\n      revert\n        /* \"contracts/STEMToken_flattened.sol\":12660:12749  function name() public view virtual returns (string memory) {... */\n    tag_3:\n      tag_36\n      tag_37\n      jump\t// in\n    tag_36:\n      mload(0x40)\n      tag_38\n      swap2\n      swap1\n      tag_39\n      jump\t// in\n    tag_38:\n      mload(0x40)\n      dup1\n      swap2\n      sub\n      swap1\n      return\n        /* \"contracts/STEMToken_flattened.sol\":14879:15065  function approve(address spender, uint256 value) public virtual returns (bool) {... */\n    tag_4:\n      tag_40\n      0x04\n      dup1\n      calldatasize\n      sub\n      dup2\n      add\n      swap1\n      tag_41\n      swap2\n      swap1\n      tag_42\n      jump\t// in\n    tag_41:\n      tag_43\n      jump\t// in\n    tag_40:\n      mload(0x40)\n      tag_44\n      swap2\n      swap1\n      tag_45\n      jump\t// in\n    tag_44:\n      mload(0x40)\n      dup1\n      swap2\n      sub\n      swap1\n      return\n        /* \"contracts/STEMToken_flattened.sol\":28997:29152  function setProfitTreasury(address _treasury) external onlyOwner {... */\n    tag_5:\n      tag_46\n      0x04\n      dup1\n      calldatasize\n      sub\n      dup2\n      add\n      swap1\n      tag_47\n      swap2\n      swap1\n      tag_48\n      jump\t// in\n    tag_47:\n      tag_49\n      jump\t// in\n    tag_46:\n      stop\n        /* \"contracts/STEMToken_flattened.sol\":28568:28752  function withdrawUSDT(address to, uint256 amount) external onlyOwner {... */\n    tag_6:\n      tag_50\n      0x04\n      dup1\n      calldatasize\n      sub\n      dup2\n      add\n      swap1\n      tag_51\n      swap2\n      swap1\n      tag_42\n      jump\t// in\n    tag_51:\n      tag_52\n      jump\t// in\n    tag_50:\n      stop\n        /* \"contracts/STEMToken_flattened.sol\":13730:13827  function totalSupply() public view virtual returns (uint256) {... */\n    tag_7:\n      tag_53\n      tag_54\n      jump\t// in\n    tag_53:\n      mload(0x40)\n      tag_55\n      swap2\n      swap1\n      tag_56\n      jump\t// in\n    tag_55:\n      mload(0x40)\n      dup1\n      swap2\n      sub\n      swap1\n      return\n        /* \"contracts/STEMToken_flattened.sol\":15657:15901  function transferFrom(address from, address to, uint256 value) public virtual returns (bool) {... */\n    tag_8:\n      tag_57\n      0x04\n      dup1\n      calldatasize\n      sub\n      dup2\n      add\n      swap1\n      tag_58\n      swap2\n      swap1\n      tag_59\n      jump\t// in\n    tag_58:\n      tag_60\n      jump\t// in\n    tag_57:\n      mload(0x40)\n      tag_61\n      swap2\n      swap1\n      tag_45\n      jump\t// in\n    tag_61:\n      mload(0x40)\n      dup1\n      swap2\n      sub\n      swap1\n      return\n        /* \"contracts/STEMToken_flattened.sol\":13588:13670  function decimals() public view virtual returns (uint8) {... */\n    tag_9:\n      tag_62\n      tag_63\n      jump\t// in\n    tag_62:\n      mload(0x40)\n      tag_64\n      swap2\n      swap1\n      tag_65\n      jump\t// in\n    tag_64:\n      mload(0x40)\n      dup1\n      swap2\n      sub\n      swap1\n      return\n        /* \"contracts/STEMToken_flattened.sol\":27625:27760  function mint(address to, uint256 amount) external onlyOwner {... */\n    tag_10:\n      tag_66\n      0x04\n      dup1\n      calldatasize\n      sub\n      dup2\n      add\n      swap1\n      tag_67\n      swap2\n      swap1\n      tag_42\n      jump\t// in\n    tag_67:\n      tag_68\n      jump\t// in\n    tag_66:\n      stop\n        /* \"contracts/STEMToken_flattened.sol\":26627:27590  function sellStem(uint256 stemAmount) external {... */\n    tag_11:\n      tag_69\n      0x04\n      dup1\n      calldatasize\n      sub\n      dup2\n      add\n      swap1\n      tag_70\n      swap2\n      swap1\n      tag_71\n      jump\t// in\n    tag_70:\n      tag_72\n      jump\t// in\n    tag_69:\n      stop\n        /* \"contracts/STEMToken_flattened.sol\":25141:25209  address public treasury = 0xfE09E35DfadF080A768f41df13e06629F5E80Eb9 */\n    tag_12:\n      tag_73\n      tag_74\n      jump\t// in\n    tag_73:\n      mload(0x40)\n      tag_75\n      swap2\n      swap1\n      tag_76\n      jump\t// in\n    tag_75:\n      mload(0x40)\n      dup1\n      swap2\n      sub\n      swap1\n      return\n        /* \"contracts/STEMToken_flattened.sol\":25059:25089  uint256 public sellRate = 1e18 */\n    tag_13:\n      tag_77\n      tag_78\n      jump\t// in\n    tag_77:\n      mload(0x40)\n      tag_79\n      swap2\n      swap1\n      tag_56\n      jump\t// in\n    tag_79:\n      mload(0x40)\n      dup1\n      swap2\n      sub\n      swap1\n      return\n        /* \"contracts/STEMToken_flattened.sol\":13885:14001  function balanceOf(address account) public view virtual returns (uint256) {... */\n    tag_14:\n      tag_80\n      0x04\n      dup1\n      calldatasize\n      sub\n      dup2\n      add\n      swap1\n      tag_81\n      swap2\n      swap1\n      tag_48\n      jump\t// in\n    tag_81:\n      tag_82\n      jump\t// in\n    tag_80:\n      mload(0x40)\n      tag_83\n      swap2\n      swap1\n      tag_56\n      jump\t// in\n    tag_83:\n      mload(0x40)\n      dup1\n      swap2\n      sub\n      swap1\n      return\n        /* \"contracts/STEMToken_flattened.sol\":24045:24146  function renounceOwnership() public virtual onlyOwner {... */\n    tag_15:\n      tag_84\n      tag_85\n      jump\t// in\n    tag_84:\n      stop\n        /* \"contracts/STEMToken_flattened.sol\":27983:28246  function setBuyRate(uint256 newRate) external onlyOwner {... */\n    tag_16:\n      tag_86\n      0x04\n      dup1\n      calldatasize\n      sub\n      dup2\n      add\n      swap1\n      tag_87\n      swap2\n      swap1\n      tag_71\n      jump\t// in\n    tag_87:\n      tag_88\n      jump\t// in\n    tag_86:\n      stop\n        /* \"contracts/STEMToken_flattened.sol\":23390:23475  function owner() public view virtual returns (address) {... */\n    tag_17:\n      tag_89\n      tag_90\n      jump\t// in\n    tag_89:\n      mload(0x40)\n      tag_91\n      swap2\n      swap1\n      tag_76\n      jump\t// in\n    tag_91:\n      mload(0x40)\n      dup1\n      swap2\n      sub\n      swap1\n      return\n        /* \"contracts/STEMToken_flattened.sol\":28316:28529  function setSellRate(uint256 newRate) external onlyOwner {... */\n    tag_18:\n      tag_92\n      0x04\n      dup1\n      calldatasize\n      sub\n      dup2\n      add\n      swap1\n      tag_93\n      swap2\n      swap1\n      tag_71\n      jump\t// in\n    tag_93:\n      tag_94\n      jump\t// in\n    tag_92:\n      stop\n        /* \"contracts/STEMToken_flattened.sol\":12862:12955  function symbol() public view virtual returns (string memory) {... */\n    tag_19:\n      tag_95\n      tag_96\n      jump\t// in\n    tag_95:\n      mload(0x40)\n      tag_97\n      swap2\n      swap1\n      tag_39\n      jump\t// in\n    tag_97:\n      mload(0x40)\n      dup1\n      swap2\n      sub\n      swap1\n      return\n        /* \"contracts/STEMToken_flattened.sol\":27795:27936  function burn(address from, uint256 amount) external onlyOwner {... */\n    tag_20:\n      tag_98\n      0x04\n      dup1\n      calldatasize\n      sub\n      dup2\n      add\n      swap1\n      tag_99\n      swap2\n      swap1\n      tag_42\n      jump\t// in\n    tag_99:\n      tag_100\n      jump\t// in\n    tag_98:\n      stop\n        /* \"contracts/STEMToken_flattened.sol\":14196:14374  function transfer(address to, uint256 value) public virtual returns (bool) {... */\n    tag_21:\n      tag_101\n      0x04\n      dup1\n      calldatasize\n      sub\n      dup2\n      add\n      swap1\n      tag_102\n      swap2\n      swap1\n      tag_42\n      jump\t// in\n    tag_102:\n      tag_103\n      jump\t// in\n    tag_101:\n      mload(0x40)\n      tag_104\n      swap2\n      swap1\n      tag_45\n      jump\t// in\n    tag_104:\n      mload(0x40)\n      dup1\n      swap2\n      sub\n      swap1\n      return\n        /* \"contracts/STEMToken_flattened.sol\":24963:24986  IERC20 public usdtToken */\n    tag_22:\n      tag_105\n      tag_106\n      jump\t// in\n    tag_105:\n      mload(0x40)\n      tag_107\n      swap2\n      swap1\n      tag_108\n      jump\t// in\n    tag_107:\n      mload(0x40)\n      dup1\n      swap2\n      sub\n      swap1\n      return\n        /* \"contracts/STEMToken_flattened.sol\":26206:26590  function buyStem(uint256 usdtAmount) external {... */\n    tag_23:\n      tag_109\n      0x04\n      dup1\n      calldatasize\n      sub\n      dup2\n      add\n      swap1\n      tag_110\n      swap2\n      swap1\n      tag_71\n      jump\t// in\n    tag_110:\n      tag_111\n      jump\t// in\n    tag_109:\n      stop\n        /* \"contracts/STEMToken_flattened.sol\":29190:29896  function getConfig() external view returns (... */\n    tag_24:\n      tag_112\n      tag_113\n      jump\t// in\n    tag_112:\n      mload(0x40)\n      tag_114\n      swap10\n      swap9\n      swap8\n      swap7\n      swap6\n      swap5\n      swap4\n      swap3\n      swap2\n      swap1\n      tag_115\n      jump\t// in\n    tag_114:\n      mload(0x40)\n      dup1\n      swap2\n      sub\n      swap1\n      return\n        /* \"contracts/STEMToken_flattened.sol\":14432:14572  function allowance(address owner, address spender) public view virtual returns (uint256) {... */\n    tag_25:\n      tag_116\n      0x04\n      dup1\n      calldatasize\n      sub\n      dup2\n      add\n      swap1\n      tag_117\n      swap2\n      swap1\n      tag_118\n      jump\t// in\n    tag_117:\n      tag_119\n      jump\t// in\n    tag_116:\n      mload(0x40)\n      tag_120\n      swap2\n      swap1\n      tag_56\n      jump\t// in\n    tag_120:\n      mload(0x40)\n      dup1\n      swap2\n      sub\n      swap1\n      return\n        /* \"contracts/STEMToken_flattened.sol\":28810:28947  function setTreasury(address _treasury) external onlyOwner {... */\n    tag_26:\n      tag_121\n      0x04\n      dup1\n      calldatasize\n      sub\n      dup2\n      add\n      swap1\n      tag_122\n      swap2\n      swap1\n      tag_48\n      jump\t// in\n    tag_122:\n      tag_123\n      jump\t// in\n    tag_121:\n      stop\n        /* \"contracts/STEMToken_flattened.sol\":25215:25289  address public profitTreasury = 0xeACa0253B95730F2ae2755Af09083d69840A683C */\n    tag_27:\n      tag_124\n      tag_125\n      jump\t// in\n    tag_124:\n      mload(0x40)\n      tag_126\n      swap2\n      swap1\n      tag_76\n      jump\t// in\n    tag_126:\n      mload(0x40)\n      dup1\n      swap2\n      sub\n      swap1\n      return\n        /* \"contracts/STEMToken_flattened.sol\":24295:24510  function transferOwnership(address newOwner) public virtual onlyOwner {... */\n    tag_28:\n      tag_127\n      0x04\n      dup1\n      calldatasize\n      sub\n      dup2\n      add\n      swap1\n      tag_128\n      swap2\n      swap1\n      tag_48\n      jump\t// in\n    tag_128:\n      tag_129\n      jump\t// in\n    tag_127:\n      stop\n        /* \"contracts/STEMToken_flattened.sol\":24993:25022  uint256 public buyRate = 1e18 */\n    tag_29:\n      tag_130\n      tag_131\n      jump\t// in\n    tag_130:\n      mload(0x40)\n      tag_132\n      swap2\n      swap1\n      tag_56\n      jump\t// in\n    tag_132:\n      mload(0x40)\n      dup1\n      swap2\n      sub\n      swap1\n      return\n        /* \"contracts/STEMToken_flattened.sol\":12660:12749  function name() public view virtual returns (string memory) {... */\n    tag_37:\n        /* \"contracts/STEMToken_flattened.sol\":12705:12718  string memory */\n      0x60\n        /* \"contracts/STEMToken_flattened.sol\":12737:12742  _name */\n      0x03\n        /* \"contracts/STEMToken_flattened.sol\":12730:12742  return _name */\n      dup1\n      sload\n      tag_134\n      swap1\n      tag_135\n      jump\t// in\n    tag_134:\n      dup1\n      0x1f\n      add\n      0x20\n      dup1\n      swap2\n      div\n      mul\n      0x20\n      add\n      mload(0x40)\n      swap1\n      dup2\n      add\n      0x40\n      mstore\n      dup1\n      swap3\n      swap2\n      swap1\n      dup2\n      dup2\n      mstore\n      0x20\n      add\n      dup3\n      dup1\n      sload\n      tag_136\n      swap1\n      tag_135\n      jump\t// in\n    tag_136:\n      dup1\n      iszero\n      tag_137\n      jumpi\n      dup1\n      0x1f\n      lt\n      tag_138\n      jumpi\n      0x0100\n      dup1\n      dup4\n      sload\n      div\n      mul\n      dup4\n      mstore\n      swap2\n      0x20\n      add\n      swap2\n      jump(tag_137)\n    tag_138:\n      dup3\n      add\n      swap2\n      swap1\n      0x00\n      mstore\n      keccak256(0x00, 0x20)\n      swap1\n    tag_139:\n      dup2\n      sload\n      dup2\n      mstore\n      swap1\n      0x01\n      add\n      swap1\n      0x20\n      add\n      dup1\n      dup4\n      gt\n      tag_139\n      jumpi\n      dup3\n      swap1\n      sub\n      0x1f\n      and\n      dup3\n      add\n      swap2\n    tag_137:\n      pop\n      pop\n      pop\n      pop\n      pop\n      swap1\n      pop\n        /* \"contracts/STEMToken_flattened.sol\":12660:12749  function name() public view virtual returns (string memory) {... */\n      swap1\n      jump\t// out\n        /* \"contracts/STEMToken_flattened.sol\":14879:15065  function approve(address spender, uint256 value) public virtual returns (bool) {... */\n    tag_43:\n        /* \"contracts/STEMToken_flattened.sol\":14952:14956  bool */\n      0x00\n        /* \"contracts/STEMToken_flattened.sol\":14968:14981  address owner */\n      dup1\n        /* \"contracts/STEMToken_flattened.sol\":14984:14996  _msgSender() */\n      tag_141\n        /* \"contracts/STEMToken_flattened.sol\":14984:14994  _msgSender */\n      tag_142\n        /* \"contracts/STEMToken_flattened.sol\":14984:14996  _msgSender() */\n      jump\t// in\n    tag_141:\n        /* \"contracts/STEMToken_flattened.sol\":14968:14996  address owner = _msgSender() */\n      swap1\n      pop\n        /* \"contracts/STEMToken_flattened.sol\":15006:15037  _approve(owner, spender, value) */\n      tag_143\n        /* \"contracts/STEMToken_flattened.sol\":15015:15020  owner */\n      dup2\n        /* \"contracts/STEMToken_flattened.sol\":15022:15029  spender */\n      dup6\n        /* \"contracts/STEMToken_flattened.sol\":15031:15036  value */\n      dup6\n        /* \"contracts/STEMToken_flattened.sol\":15006:15014  _approve */\n      tag_144\n        /* \"contracts/STEMToken_flattened.sol\":15006:15037  _approve(owner, spender, value) */\n      jump\t// in\n    tag_143:\n        /* \"contracts/STEMToken_flattened.sol\":15054:15058  true */\n      0x01\n        /* \"contracts/STEMToken_flattened.sol\":15047:15058  return true */\n      swap2\n      pop\n      pop\n        /* \"contracts/STEMToken_flattened.sol\":14879:15065  function approve(address spender, uint256 value) public virtual returns (bool) {... */\n      swap3\n      swap2\n      pop\n      pop\n      jump\t// out\n        /* \"contracts/STEMToken_flattened.sol\":28997:29152  function setProfitTreasury(address _treasury) external onlyOwner {... */\n    tag_49:\n        /* \"contracts/STEMToken_flattened.sol\":23283:23296  _checkOwner() */\n      tag_146\n        /* \"contracts/STEMToken_flattened.sol\":23283:23294  _checkOwner */\n      tag_147\n        /* \"contracts/STEMToken_flattened.sol\":23283:23296  _checkOwner() */\n      jump\t// in\n    tag_146:\n        /* \"contracts/STEMToken_flattened.sol\":29089:29098  _treasury */\n      dup1\n        /* \"contracts/STEMToken_flattened.sol\":29072:29086  profitTreasury */\n      0x0a\n      0x00\n        /* \"contracts/STEMToken_flattened.sol\":29072:29098  profitTreasury = _treasury */\n      0x0100\n      exp\n      dup2\n      sload\n      dup2\n      0xffffffffffffffffffffffffffffffffffffffff\n      mul\n      not\n      and\n      swap1\n      dup4\n      0xffffffffffffffffffffffffffffffffffffffff\n      and\n      mul\n      or\n      swap1\n      sstore\n      pop\n        /* \"contracts/STEMToken_flattened.sol\":29135:29144  _treasury */\n      dup1\n        /* \"contracts/STEMToken_flattened.sol\":29113:29145  ProfitTreasuryChanged(_treasury) */\n      0xffffffffffffffffffffffffffffffffffffffff\n      and\n      0x56d7403454282c9d1b884c3bdcfe0c09772c704ad0b14978c55bf72867485b\n      mload(0x40)\n      mload(0x40)\n      dup1\n      swap2\n      sub\n      swap1\n      log2\n        /* \"contracts/STEMToken_flattened.sol\":28997:29152  function setProfitTreasury(address _treasury) external onlyOwner {... */\n      pop\n      jump\t// out\n        /* \"contracts/STEMToken_flattened.sol\":28568:28752  function withdrawUSDT(address to, uint256 amount) external onlyOwner {... */\n    tag_52:\n        /* \"contracts/STEMToken_flattened.sol\":23283:23296  _checkOwner() */\n      tag_150\n        /* \"contracts/STEMToken_flattened.sol\":23283:23294  _checkOwner */\n      tag_147\n        /* \"contracts/STEMToken_flattened.sol\":23283:23296  _checkOwner() */\n      jump\t// in\n    tag_150:\n        /* \"contracts/STEMToken_flattened.sol\":28655:28664  usdtToken */\n      0x06\n      0x00\n      swap1\n      sload\n      swap1\n      0x0100\n      exp\n      swap1\n      div\n      0xffffffffffffffffffffffffffffffffffffffff\n      and\n        /* \"contracts/STEMToken_flattened.sol\":28655:28673  usdtToken.transfer */\n      0xffffffffffffffffffffffffffffffffffffffff\n      and\n      0xa9059cbb\n        /* \"contracts/STEMToken_flattened.sol\":28674:28676  to */\n      dup4\n        /* \"contracts/STEMToken_flattened.sol\":28678:28684  amount */\n      dup4\n        /* \"contracts/STEMToken_flattened.sol\":28655:28685  usdtToken.transfer(to, amount) */\n      mload(0x40)\n      dup4\n      0xffffffff\n      and\n      0xe0\n      shl\n      dup2\n      mstore\n      0x04\n      add\n      tag_152\n      swap3\n      swap2\n      swap1\n      tag_153\n      jump\t// in\n    tag_152:\n      0x20\n      mload(0x40)\n      dup1\n      dup4\n      sub\n      dup2\n      0x00\n      dup8\n      gas\n      call\n      iszero\n      dup1\n      iszero\n      tag_155\n      jumpi\n      returndatasize\n      0x00\n      dup1\n      returndatacopy\n      revert(0x00, returndatasize)\n    tag_155:\n      pop\n      pop\n      pop\n      pop\n      mload(0x40)\n      returndatasize\n      not(0x1f)\n      0x1f\n      dup3\n      add\n      and\n      dup3\n      add\n      dup1\n      0x40\n      mstore\n      pop\n      dup2\n      add\n      swap1\n      tag_156\n      swap2\n      swap1\n      tag_157\n      jump\t// in\n    tag_156:\n        /* \"contracts/STEMToken_flattened.sol\":28647:28705  require(usdtToken.transfer(to, amount), \"Withdraw failed\") */\n      tag_158\n      jumpi\n      mload(0x40)\n      0x08c379a000000000000000000000000000000000000000000000000000000000\n      dup2\n      mstore\n      0x04\n      add\n      tag_159\n      swap1\n      tag_160\n      jump\t// in\n    tag_159:\n      mload(0x40)\n      dup1\n      swap2\n      sub\n      swap1\n      revert\n    tag_158:\n        /* \"contracts/STEMToken_flattened.sol\":28734:28736  to */\n      dup2\n        /* \"contracts/STEMToken_flattened.sol\":28720:28745  USDTWithdrawn(to, amount) */\n      0xffffffffffffffffffffffffffffffffffffffff\n      and\n      0xb0bd88cdae83f74f918eb6bf26d99dcb3c1530530f339233b029e3b6a00ac50b\n        /* \"contracts/STEMToken_flattened.sol\":28738:28744  amount */\n      dup3\n        /* \"contracts/STEMToken_flattened.sol\":28720:28745  USDTWithdrawn(to, amount) */\n      mload(0x40)\n      tag_161\n      swap2\n      swap1\n      tag_56\n      jump\t// in\n    tag_161:\n      mload(0x40)\n      dup1\n      swap2\n      sub\n      swap1\n      log2\n        /* \"contracts/STEMToken_flattened.sol\":28568:28752  function withdrawUSDT(address to, uint256 amount) external onlyOwner {... */\n      pop\n      pop\n      jump\t// out\n        /* \"contracts/STEMToken_flattened.sol\":13730:13827  function totalSupply() public view virtual returns (uint256) {... */\n    tag_54:\n        /* \"contracts/STEMToken_flattened.sol\":13782:13789  uint256 */\n      0x00\n        /* \"contracts/STEMToken_flattened.sol\":13808:13820  _totalSupply */\n      sload(0x02)\n        /* \"contracts/STEMToken_flattened.sol\":13801:13820  return _totalSupply */\n      swap1\n      pop\n        /* \"contracts/STEMToken_flattened.sol\":13730:13827  function totalSupply() public view virtual returns (uint256) {... */\n      swap1\n      jump\t// out\n        /* \"contracts/STEMToken_flattened.sol\":15657:15901  function transferFrom(address from, address to, uint256 value) public virtual returns (bool) {... */\n    tag_60:\n        /* \"contracts/STEMToken_flattened.sol\":15744:15748  bool */\n      0x00\n        /* \"contracts/STEMToken_flattened.sol\":15760:15775  address spender */\n      dup1\n        /* \"contracts/STEMToken_flattened.sol\":15778:15790  _msgSender() */\n      tag_164\n        /* \"contracts/STEMToken_flattened.sol\":15778:15788  _msgSender */\n      tag_142\n        /* \"contracts/STEMToken_flattened.sol\":15778:15790  _msgSender() */\n      jump\t// in\n    tag_164:\n        /* \"contracts/STEMToken_flattened.sol\":15760:15790  address spender = _msgSender() */\n      swap1\n      pop\n        /* \"contracts/STEMToken_flattened.sol\":15800:15837  _spendAllowance(from, spender, value) */\n      tag_165\n        /* \"contracts/STEMToken_flattened.sol\":15816:15820  from */\n      dup6\n        /* \"contracts/STEMToken_flattened.sol\":15822:15829  spender */\n      dup3\n        /* \"contracts/STEMToken_flattened.sol\":15831:15836  value */\n      dup6\n        /* \"contracts/STEMToken_flattened.sol\":15800:15815  _spendAllowance */\n      tag_166\n        /* \"contracts/STEMToken_flattened.sol\":15800:15837  _spendAllowance(from, spender, value) */\n      jump\t// in\n    tag_165:\n        /* \"contracts/STEMToken_flattened.sol\":15847:15873  _transfer(from, to, value) */\n      tag_167\n        /* \"contracts/STEMToken_flattened.sol\":15857:15861  from */\n      dup6\n        /* \"contracts/STEMToken_flattened.sol\":15863:15865  to */\n      dup6\n        /* \"contracts/STEMToken_flattened.sol\":15867:15872  value */\n      dup6\n        /* \"contracts/STEMToken_flattened.sol\":15847:15856  _transfer */\n      tag_168\n        /* \"contracts/STEMToken_flattened.sol\":15847:15873  _transfer(from, to, value) */\n      jump\t// in\n    tag_167:\n        /* \"contracts/STEMToken_flattened.sol\":15890:15894  true */\n      0x01\n        /* \"contracts/STEMToken_flattened.sol\":15883:15894  return true */\n      swap2\n      pop\n      pop\n        /* \"contracts/STEMToken_flattened.sol\":15657:15901  function transferFrom(address from, address to, uint256 value) public virtual returns (bool) {... */\n      swap4\n      swap3\n      pop\n      pop\n      pop\n      jump\t// out\n        /* \"contracts/STEMToken_flattened.sol\":13588:13670  function decimals() public view virtual returns (uint8) {... */\n    tag_63:\n        /* \"contracts/STEMToken_flattened.sol\":13637:13642  uint8 */\n      0x00\n        /* \"contracts/STEMToken_flattened.sol\":13661:13663  18 */\n      0x12\n        /* \"contracts/STEMToken_flattened.sol\":13654:13663  return 18 */\n      swap1\n      pop\n        /* \"contracts/STEMToken_flattened.sol\":13588:13670  function decimals() public view virtual returns (uint8) {... */\n      swap1\n      jump\t// out\n        /* \"contracts/STEMToken_flattened.sol\":27625:27760  function mint(address to, uint256 amount) external onlyOwner {... */\n    tag_68:\n        /* \"contracts/STEMToken_flattened.sol\":23283:23296  _checkOwner() */\n      tag_171\n        /* \"contracts/STEMToken_flattened.sol\":23283:23294  _checkOwner */\n      tag_147\n        /* \"contracts/STEMToken_flattened.sol\":23283:23296  _checkOwner() */\n      jump\t// in\n    tag_171:\n        /* \"contracts/STEMToken_flattened.sol\":27696:27720  _mint(to, amount * 1e18) */\n      tag_173\n        /* \"contracts/STEMToken_flattened.sol\":27702:27704  to */\n      dup3\n        /* \"contracts/STEMToken_flattened.sol\":27715:27719  1e18 */\n      0x0de0b6b3a7640000\n        /* \"contracts/STEMToken_flattened.sol\":27706:27712  amount */\n      dup4\n        /* \"contracts/STEMToken_flattened.sol\":27706:27719  amount * 1e18 */\n      tag_174\n      swap2\n      swap1\n      tag_175\n      jump\t// in\n    tag_174:\n        /* \"contracts/STEMToken_flattened.sol\":27696:27701  _mint */\n      tag_176\n        /* \"contracts/STEMToken_flattened.sol\":27696:27720  _mint(to, amount * 1e18) */\n      jump\t// in\n    tag_173:\n        /* \"contracts/STEMToken_flattened.sol\":27742:27744  to */\n      dup2\n        /* \"contracts/STEMToken_flattened.sol\":27735:27753  Minted(to, amount) */\n      0xffffffffffffffffffffffffffffffffffffffff\n      and\n      0x30385c845b448a36257a6a1716e6ad2e1bc2cbe333cde1e69fe849ad6511adfe\n        /* \"contracts/STEMToken_flattened.sol\":27746:27752  amount */\n      dup3\n        /* \"contracts/STEMToken_flattened.sol\":27735:27753  Minted(to, amount) */\n      mload(0x40)\n      tag_177\n      swap2\n      swap1\n      tag_56\n      jump\t// in\n    tag_177:\n      mload(0x40)\n      dup1\n      swap2\n      sub\n      swap1\n      log2\n        /* \"contracts/STEMToken_flattened.sol\":27625:27760  function mint(address to, uint256 amount) external onlyOwner {... */\n      pop\n      pop\n      jump\t// out\n        /* \"contracts/STEMToken_flattened.sol\":26627:27590  function sellStem(uint256 stemAmount) external {... */\n    tag_72:\n        /* \"contracts/STEMToken_flattened.sol\":26705:26706  0 */\n      0x00\n        /* \"contracts/STEMToken_flattened.sol\":26692:26702  stemAmount */\n      dup2\n        /* \"contracts/STEMToken_flattened.sol\":26692:26706  stemAmount > 0 */\n      gt\n        /* \"contracts/STEMToken_flattened.sol\":26684:26740  require(stemAmount > 0, \"Amount must be greater than 0\") */\n      tag_179\n      jumpi\n      mload(0x40)\n      0x08c379a000000000000000000000000000000000000000000000000000000000\n      dup2\n      mstore\n      0x04\n      add\n      tag_180\n      swap1\n      tag_181\n      jump\t// in\n    tag_180:\n      mload(0x40)\n      dup1\n      swap2\n      sub\n      swap1\n      revert\n    tag_179:\n        /* \"contracts/STEMToken_flattened.sol\":26802:26820  uint256 usdtAmount */\n      0x00\n        /* \"contracts/STEMToken_flattened.sol\":26845:26853  sellRate */\n      sload(0x08)\n        /* \"contracts/STEMToken_flattened.sol\":26837:26841  1e18 */\n      0x0de0b6b3a7640000\n        /* \"contracts/STEMToken_flattened.sol\":26824:26834  stemAmount */\n      dup4\n        /* \"contracts/STEMToken_flattened.sol\":26824:26841  stemAmount * 1e18 */\n      tag_182\n      swap2\n      swap1\n      tag_175\n      jump\t// in\n    tag_182:\n        /* \"contracts/STEMToken_flattened.sol\":26823:26853  (stemAmount * 1e18) / sellRate */\n      tag_183\n      swap2\n      swap1\n      tag_184\n      jump\t// in\n    tag_183:\n        /* \"contracts/STEMToken_flattened.sol\":26802:26853  uint256 usdtAmount = (stemAmount * 1e18) / sellRate */\n      swap1\n      pop\n        /* \"contracts/STEMToken_flattened.sol\":26960:26982  uint256 fairUsdtAmount */\n      0x00\n        /* \"contracts/STEMToken_flattened.sol\":26998:27002  1e18 */\n      0x0de0b6b3a7640000\n        /* \"contracts/STEMToken_flattened.sol\":26985:26995  stemAmount */\n      dup4\n        /* \"contracts/STEMToken_flattened.sol\":26985:27002  stemAmount / 1e18 */\n      tag_185\n      swap2\n      swap1\n      tag_184\n      jump\t// in\n    tag_185:\n        /* \"contracts/STEMToken_flattened.sol\":26960:27002  uint256 fairUsdtAmount = stemAmount / 1e18 */\n      swap1\n      pop\n        /* \"contracts/STEMToken_flattened.sol\":27012:27033  uint256 expectedStems */\n      0x00\n        /* \"contracts/STEMToken_flattened.sol\":27053:27061  sellRate */\n      sload(0x08)\n        /* \"contracts/STEMToken_flattened.sol\":27036:27050  fairUsdtAmount */\n      dup3\n        /* \"contracts/STEMToken_flattened.sol\":27036:27061  fairUsdtAmount * sellRate */\n      tag_186\n      swap2\n      swap1\n      tag_175\n      jump\t// in\n    tag_186:\n        /* \"contracts/STEMToken_flattened.sol\":27012:27061  uint256 expectedStems = fairUsdtAmount * sellRate */\n      swap1\n      pop\n        /* \"contracts/STEMToken_flattened.sol\":27071:27090  uint256 profitStems */\n      0x00\n        /* \"contracts/STEMToken_flattened.sol\":27109:27119  stemAmount */\n      dup5\n        /* \"contracts/STEMToken_flattened.sol\":27093:27106  expectedStems */\n      dup3\n        /* \"contracts/STEMToken_flattened.sol\":27093:27119  expectedStems > stemAmount */\n      gt\n        /* \"contracts/STEMToken_flattened.sol\":27093:27152  expectedStems > stemAmount ? expectedStems - stemAmount : 0 */\n      tag_187\n      jumpi\n        /* \"contracts/STEMToken_flattened.sol\":27151:27152  0 */\n      0x00\n        /* \"contracts/STEMToken_flattened.sol\":27093:27152  expectedStems > stemAmount ? expectedStems - stemAmount : 0 */\n      jump(tag_188)\n    tag_187:\n        /* \"contracts/STEMToken_flattened.sol\":27138:27148  stemAmount */\n      dup5\n        /* \"contracts/STEMToken_flattened.sol\":27122:27135  expectedStems */\n      dup3\n        /* \"contracts/STEMToken_flattened.sol\":27122:27148  expectedStems - stemAmount */\n      tag_189\n      swap2\n      swap1\n      tag_190\n      jump\t// in\n    tag_189:\n        /* \"contracts/STEMToken_flattened.sol\":27093:27152  expectedStems > stemAmount ? expectedStems - stemAmount : 0 */\n    tag_188:\n        /* \"contracts/STEMToken_flattened.sol\":27071:27152  uint256 profitStems = expectedStems > stemAmount ? expectedStems - stemAmount : 0 */\n      swap1\n      pop\n        /* \"contracts/STEMToken_flattened.sol\":27249:27292  _transfer(msg.sender, treasury, stemAmount) */\n      tag_191\n        /* \"contracts/STEMToken_flattened.sol\":27259:27269  msg.sender */\n      caller\n        /* \"contracts/STEMToken_flattened.sol\":27271:27279  treasury */\n      0x09\n      0x00\n      swap1\n      sload\n      swap1\n      0x0100\n      exp\n      swap1\n      div\n      0xffffffffffffffffffffffffffffffffffffffff\n      and\n        /* \"contracts/STEMToken_flattened.sol\":27281:27291  stemAmount */\n      dup8\n        /* \"contracts/STEMToken_flattened.sol\":27249:27258  _transfer */\n      tag_168\n        /* \"contracts/STEMToken_flattened.sol\":27249:27292  _transfer(msg.sender, treasury, stemAmount) */\n      jump\t// in\n    tag_191:\n        /* \"contracts/STEMToken_flattened.sol\":27320:27321  0 */\n      0x00\n        /* \"contracts/STEMToken_flattened.sol\":27306:27317  profitStems */\n      dup2\n        /* \"contracts/STEMToken_flattened.sol\":27306:27321  profitStems > 0 */\n      gt\n        /* \"contracts/STEMToken_flattened.sol\":27306:27353  profitStems > 0 && profitTreasury != address(0) */\n      dup1\n      iszero\n      tag_192\n      jumpi\n      pop\n        /* \"contracts/STEMToken_flattened.sol\":27351:27352  0 */\n      0x00\n        /* \"contracts/STEMToken_flattened.sol\":27325:27353  profitTreasury != address(0) */\n      0xffffffffffffffffffffffffffffffffffffffff\n      and\n        /* \"contracts/STEMToken_flattened.sol\":27325:27339  profitTreasury */\n      0x0a\n      0x00\n      swap1\n      sload\n      swap1\n      0x0100\n      exp\n      swap1\n      div\n      0xffffffffffffffffffffffffffffffffffffffff\n      and\n        /* \"contracts/STEMToken_flattened.sol\":27325:27353  profitTreasury != address(0) */\n      0xffffffffffffffffffffffffffffffffffffffff\n      and\n      eq\n      iszero\n        /* \"contracts/STEMToken_flattened.sol\":27306:27353  profitStems > 0 && profitTreasury != address(0) */\n    tag_192:\n        /* \"contracts/STEMToken_flattened.sol\":27302:27428  if (profitStems > 0 && profitTreasury != address(0)) {... */\n      iszero\n      tag_193\n      jumpi\n        /* \"contracts/STEMToken_flattened.sol\":27369:27417  _transfer(treasury, profitTreasury, profitStems) */\n      tag_194\n        /* \"contracts/STEMToken_flattened.sol\":27379:27387  treasury */\n      0x09\n      0x00\n      swap1\n      sload\n      swap1\n      0x0100\n      exp\n      swap1\n      div\n      0xffffffffffffffffffffffffffffffffffffffff\n      and\n        /* \"contracts/STEMToken_flattened.sol\":27389:27403  profitTreasury */\n      0x0a\n      0x00\n      swap1\n      sload\n      swap1\n      0x0100\n      exp\n      swap1\n      div\n      0xffffffffffffffffffffffffffffffffffffffff\n      and\n        /* \"contracts/STEMToken_flattened.sol\":27405:27416  profitStems */\n      dup4\n        /* \"contracts/STEMToken_flattened.sol\":27369:27378  _transfer */\n      tag_168\n        /* \"contracts/STEMToken_flattened.sol\":27369:27417  _transfer(treasury, profitTreasury, profitStems) */\n      jump\t// in\n    tag_194:\n        /* \"contracts/STEMToken_flattened.sol\":27302:27428  if (profitStems > 0 && profitTreasury != address(0)) {... */\n    tag_193:\n        /* \"contracts/STEMToken_flattened.sol\":27446:27455  usdtToken */\n      0x06\n      0x00\n      swap1\n      sload\n      swap1\n      0x0100\n      exp\n      swap1\n      div\n      0xffffffffffffffffffffffffffffffffffffffff\n      and\n        /* \"contracts/STEMToken_flattened.sol\":27446:27464  usdtToken.transfer */\n      0xffffffffffffffffffffffffffffffffffffffff\n      and\n      0xa9059cbb\n        /* \"contracts/STEMToken_flattened.sol\":27465:27475  msg.sender */\n      caller\n        /* \"contracts/STEMToken_flattened.sol\":27477:27487  usdtAmount */\n      dup7\n        /* \"contracts/STEMToken_flattened.sol\":27446:27488  usdtToken.transfer(msg.sender, usdtAmount) */\n      mload(0x40)\n      dup4\n      0xffffffff\n      and\n      0xe0\n      shl\n      dup2\n      mstore\n      0x04\n      add\n      tag_195\n      swap3\n      swap2\n      swap1\n      tag_153\n      jump\t// in\n    tag_195:\n      0x20\n      mload(0x40)\n      dup1\n      dup4\n      sub\n      dup2\n      0x00\n      dup8\n      gas\n      call\n      iszero\n      dup1\n      iszero\n      tag_197\n      jumpi\n      returndatasize\n      0x00\n      dup1\n      returndatacopy\n      revert(0x00, returndatasize)\n    tag_197:\n      pop\n      pop\n      pop\n      pop\n      mload(0x40)\n      returndatasize\n      not(0x1f)\n      0x1f\n      dup3\n      add\n      and\n      dup3\n      add\n      dup1\n      0x40\n      mstore\n      pop\n      dup2\n      add\n      swap1\n      tag_198\n      swap2\n      swap1\n      tag_157\n      jump\t// in\n    tag_198:\n        /* \"contracts/STEMToken_flattened.sol\":27438:27511  require(usdtToken.transfer(msg.sender, usdtAmount), \"USDT payout failed\") */\n      tag_199\n      jumpi\n      mload(0x40)\n      0x08c379a000000000000000000000000000000000000000000000000000000000\n      dup2\n      mstore\n      0x04\n      add\n      tag_200\n      swap1\n      tag_201\n      jump\t// in\n    tag_200:\n      mload(0x40)\n      dup1\n      swap2\n      sub\n      swap1\n      revert\n    tag_199:\n        /* \"contracts/STEMToken_flattened.sol\":27535:27545  msg.sender */\n      caller\n        /* \"contracts/STEMToken_flattened.sol\":27526:27583  SellStem(msg.sender, stemAmount, usdtAmount, profitStems) */\n      0xffffffffffffffffffffffffffffffffffffffff\n      and\n      0x91b69b546d2910ad29983da9d221cf0ebae5eb1929083361f4d6c95878cdb420\n        /* \"contracts/STEMToken_flattened.sol\":27547:27557  stemAmount */\n      dup7\n        /* \"contracts/STEMToken_flattened.sol\":27559:27569  usdtAmount */\n      dup7\n        /* \"contracts/STEMToken_flattened.sol\":27571:27582  profitStems */\n      dup5\n        /* \"contracts/STEMToken_flattened.sol\":27526:27583  SellStem(msg.sender, stemAmount, usdtAmount, profitStems) */\n      mload(0x40)\n      tag_202\n      swap4\n      swap3\n      swap2\n      swap1\n      tag_203\n      jump\t// in\n    tag_202:\n      mload(0x40)\n      dup1\n      swap2\n      sub\n      swap1\n      log2\n        /* \"contracts/STEMToken_flattened.sol\":26674:27590  {... */\n      pop\n      pop\n      pop\n      pop\n        /* \"contracts/STEMToken_flattened.sol\":26627:27590  function sellStem(uint256 stemAmount) external {... */\n      pop\n      jump\t// out\n        /* \"contracts/STEMToken_flattened.sol\":25141:25209  address public treasury = 0xfE09E35DfadF080A768f41df13e06629F5E80Eb9 */\n    tag_74:\n      0x09\n      0x00\n      swap1\n      sload\n      swap1\n      0x0100\n      exp\n      swap1\n      div\n      0xffffffffffffffffffffffffffffffffffffffff\n      and\n      dup2\n      jump\t// out\n        /* \"contracts/STEMToken_flattened.sol\":25059:25089  uint256 public sellRate = 1e18 */\n    tag_78:\n      sload(0x08)\n      dup2\n      jump\t// out\n        /* \"contracts/STEMToken_flattened.sol\":13885:14001  function balanceOf(address account) public view virtual returns (uint256) {... */\n    tag_82:\n        /* \"contracts/STEMToken_flattened.sol\":13950:13957  uint256 */\n      0x00\n        /* \"contracts/STEMToken_flattened.sol\":13976:13985  _balances */\n      dup1\n        /* \"contracts/STEMToken_flattened.sol\":13976:13994  _balances[account] */\n      0x00\n        /* \"contracts/STEMToken_flattened.sol\":13986:13993  account */\n      dup4\n        /* \"contracts/STEMToken_flattened.sol\":13976:13994  _balances[account] */\n      0xffffffffffffffffffffffffffffffffffffffff\n      and\n      0xffffffffffffffffffffffffffffffffffffffff\n      and\n      dup2\n      mstore\n      0x20\n      add\n      swap1\n      dup2\n      mstore\n      0x20\n      add\n      0x00\n      keccak256\n      sload\n        /* \"contracts/STEMToken_flattened.sol\":13969:13994  return _balances[account] */\n      swap1\n      pop\n        /* \"contracts/STEMToken_flattened.sol\":13885:14001  function balanceOf(address account) public view virtual returns (uint256) {... */\n      swap2\n      swap1\n      pop\n      jump\t// out\n        /* \"contracts/STEMToken_flattened.sol\":24045:24146  function renounceOwnership() public virtual onlyOwner {... */\n    tag_85:\n        /* \"contracts/STEMToken_flattened.sol\":23283:23296  _checkOwner() */\n      tag_206\n        /* \"contracts/STEMToken_flattened.sol\":23283:23294  _checkOwner */\n      tag_147\n        /* \"contracts/STEMToken_flattened.sol\":23283:23296  _checkOwner() */\n      jump\t// in\n    tag_206:\n        /* \"contracts/STEMToken_flattened.sol\":24109:24139  _transferOwnership(address(0)) */\n      tag_208\n        /* \"contracts/STEMToken_flattened.sol\":24136:24137  0 */\n      0x00\n        /* \"contracts/STEMToken_flattened.sol\":24109:24127  _transferOwnership */\n      tag_209\n        /* \"contracts/STEMToken_flattened.sol\":24109:24139  _transferOwnership(address(0)) */\n      jump\t// in\n    tag_208:\n        /* \"contracts/STEMToken_flattened.sol\":24045:24146  function renounceOwnership() public virtual onlyOwner {... */\n      jump\t// out\n        /* \"contracts/STEMToken_flattened.sol\":27983:28246  function setBuyRate(uint256 newRate) external onlyOwner {... */\n    tag_88:\n        /* \"contracts/STEMToken_flattened.sol\":23283:23296  _checkOwner() */\n      tag_211\n        /* \"contracts/STEMToken_flattened.sol\":23283:23294  _checkOwner */\n      tag_147\n        /* \"contracts/STEMToken_flattened.sol\":23283:23296  _checkOwner() */\n      jump\t// in\n    tag_211:\n        /* \"contracts/STEMToken_flattened.sol\":28068:28072  1e18 */\n      0x0de0b6b3a7640000\n        /* \"contracts/STEMToken_flattened.sol\":28057:28064  newRate */\n      dup2\n        /* \"contracts/STEMToken_flattened.sol\":28057:28072  newRate >= 1e18 */\n      lt\n      iszero\n        /* \"contracts/STEMToken_flattened.sol\":28049:28103  require(newRate >= 1e18, \"Buy rate must be >= 1 STEM\") */\n      tag_213\n      jumpi\n      mload(0x40)\n      0x08c379a000000000000000000000000000000000000000000000000000000000\n      dup2\n      mstore\n      0x04\n      add\n      tag_214\n      swap1\n      tag_215\n      jump\t// in\n    tag_214:\n      mload(0x40)\n      dup1\n      swap2\n      sub\n      swap1\n      revert\n    tag_213:\n        /* \"contracts/STEMToken_flattened.sol\":28132:28140  sellRate */\n      sload(0x08)\n        /* \"contracts/STEMToken_flattened.sol\":28121:28128  newRate */\n      dup2\n        /* \"contracts/STEMToken_flattened.sol\":28121:28140  newRate <= sellRate */\n      gt\n      iszero\n        /* \"contracts/STEMToken_flattened.sol\":28113:28174  require(newRate <= sellRate, \"Buy rate must be <= Sell rate\") */\n      tag_216\n      jumpi\n      mload(0x40)\n      0x08c379a000000000000000000000000000000000000000000000000000000000\n      dup2\n      mstore\n      0x04\n      add\n      tag_217\n      swap1\n      tag_218\n      jump\t// in\n    tag_217:\n      mload(0x40)\n      dup1\n      swap2\n      sub\n      swap1\n      revert\n    tag_216:\n        /* \"contracts/STEMToken_flattened.sol\":28194:28201  newRate */\n      dup1\n        /* \"contracts/STEMToken_flattened.sol\":28184:28191  buyRate */\n      0x07\n        /* \"contracts/STEMToken_flattened.sol\":28184:28201  buyRate = newRate */\n      dup2\n      swap1\n      sstore\n      pop\n        /* \"contracts/STEMToken_flattened.sol\":28216:28239  BuyRateUpdated(newRate) */\n      0xedd2200f5e00a665285f3c40e420ff44575a36d6abf0b366d132a22cc4fcb1\n        /* \"contracts/STEMToken_flattened.sol\":28231:28238  newRate */\n      dup2\n        /* \"contracts/STEMToken_flattened.sol\":28216:28239  BuyRateUpdated(newRate) */\n      mload(0x40)\n      tag_219\n      swap2\n      swap1\n      tag_56\n      jump\t// in\n    tag_219:\n      mload(0x40)\n      dup1\n      swap2\n      sub\n      swap1\n      log1\n        /* \"contracts/STEMToken_flattened.sol\":27983:28246  function setBuyRate(uint256 newRate) external onlyOwner {... */\n      pop\n      jump\t// out\n        /* \"contracts/STEMToken_flattened.sol\":23390:23475  function owner() public view virtual returns (address) {... */\n    tag_90:\n        /* \"contracts/STEMToken_flattened.sol\":23436:23443  address */\n      0x00\n        /* \"contracts/STEMToken_flattened.sol\":23462:23468  _owner */\n      0x05\n      0x00\n      swap1\n      sload\n      swap1\n      0x0100\n      exp\n      swap1\n      div\n      0xffffffffffffffffffffffffffffffffffffffff\n      and\n        /* \"contracts/STEMToken_flattened.sol\":23455:23468  return _owner */\n      swap1\n      pop\n        /* \"contracts/STEMToken_flattened.sol\":23390:23475  function owner() public view virtual returns (address) {... */\n      swap1\n      jump\t// out\n        /* \"contracts/STEMToken_flattened.sol\":28316:28529  function setSellRate(uint256 newRate) external onlyOwner {... */\n    tag_94:\n        /* \"contracts/STEMToken_flattened.sol\":23283:23296  _checkOwner() */\n      tag_222\n        /* \"contracts/STEMToken_flattened.sol\":23283:23294  _checkOwner */\n      tag_147\n        /* \"contracts/STEMToken_flattened.sol\":23283:23296  _checkOwner() */\n      jump\t// in\n    tag_222:\n        /* \"contracts/STEMToken_flattened.sol\":28402:28406  1e18 */\n      0x0de0b6b3a7640000\n        /* \"contracts/STEMToken_flattened.sol\":28391:28398  newRate */\n      dup2\n        /* \"contracts/STEMToken_flattened.sol\":28391:28406  newRate >= 1e18 */\n      lt\n      iszero\n        /* \"contracts/STEMToken_flattened.sol\":28383:28455  require(newRate >= 1e18, unicode\"Sell rate must be ≥ 1 STEM per USDT\") */\n      tag_224\n      jumpi\n      mload(0x40)\n      0x08c379a000000000000000000000000000000000000000000000000000000000\n      dup2\n      mstore\n      0x04\n      add\n      tag_225\n      swap1\n      tag_226\n      jump\t// in\n    tag_225:\n      mload(0x40)\n      dup1\n      swap2\n      sub\n      swap1\n      revert\n    tag_224:\n        /* \"contracts/STEMToken_flattened.sol\":28476:28483  newRate */\n      dup1\n        /* \"contracts/STEMToken_flattened.sol\":28465:28473  sellRate */\n      0x08\n        /* \"contracts/STEMToken_flattened.sol\":28465:28483  sellRate = newRate */\n      dup2\n      swap1\n      sstore\n      pop\n        /* \"contracts/STEMToken_flattened.sol\":28498:28522  SellRateUpdated(newRate) */\n      0xbd74ca4c80e5eafe62d339abf0f9676e065fe0f2ebca0689e97dd5730ce4d8ab\n        /* \"contracts/STEMToken_flattened.sol\":28514:28521  newRate */\n      dup2\n        /* \"contracts/STEMToken_flattened.sol\":28498:28522  SellRateUpdated(newRate) */\n      mload(0x40)\n      tag_227\n      swap2\n      swap1\n      tag_56\n      jump\t// in\n    tag_227:\n      mload(0x40)\n      dup1\n      swap2\n      sub\n      swap1\n      log1\n        /* \"contracts/STEMToken_flattened.sol\":28316:28529  function setSellRate(uint256 newRate) external onlyOwner {... */\n      pop\n      jump\t// out\n        /* \"contracts/STEMToken_flattened.sol\":12862:12955  function symbol() public view virtual returns (string memory) {... */\n    tag_96:\n        /* \"contracts/STEMToken_flattened.sol\":12909:12922  string memory */\n      0x60\n        /* \"contracts/STEMToken_flattened.sol\":12941:12948  _symbol */\n      0x04\n        /* \"contracts/STEMToken_flattened.sol\":12934:12948  return _symbol */\n      dup1\n      sload\n      tag_229\n      swap1\n      tag_135\n      jump\t// in\n    tag_229:\n      dup1\n      0x1f\n      add\n      0x20\n      dup1\n      swap2\n      div\n      mul\n      0x20\n      add\n      mload(0x40)\n      swap1\n      dup2\n      add\n      0x40\n      mstore\n      dup1\n      swap3\n      swap2\n      swap1\n      dup2\n      dup2\n      mstore\n      0x20\n      add\n      dup3\n      dup1\n      sload\n      tag_230\n      swap1\n      tag_135\n      jump\t// in\n    tag_230:\n      dup1\n      iszero\n      tag_231\n      jumpi\n      dup1\n      0x1f\n      lt\n      tag_232\n      jumpi\n      0x0100\n      dup1\n      dup4\n      sload\n      div\n      mul\n      dup4\n      mstore\n      swap2\n      0x20\n      add\n      swap2\n      jump(tag_231)\n    tag_232:\n      dup3\n      add\n      swap2\n      swap1\n      0x00\n      mstore\n      keccak256(0x00, 0x20)\n      swap1\n    tag_233:\n      dup2\n      sload\n      dup2\n      mstore\n      swap1\n      0x01\n      add\n      swap1\n      0x20\n      add\n      dup1\n      dup4\n      gt\n      tag_233\n      jumpi\n      dup3\n      swap1\n      sub\n      0x1f\n      and\n      dup3\n      add\n      swap2\n    tag_231:\n      pop\n      pop\n      pop\n      pop\n      pop\n      swap1\n      pop\n        /* \"contracts/STEMToken_flattened.sol\":12862:12955  function symbol() public view virtual returns (string memory) {... */\n      swap1\n      jump\t// out\n        /* \"contracts/STEMToken_flattened.sol\":27795:27936  function burn(address from, uint256 amount) external onlyOwner {... */\n    tag_100:\n        /* \"contracts/STEMToken_flattened.sol\":23283:23296  _checkOwner() */\n      tag_235\n        /* \"contracts/STEMToken_flattened.sol\":23283:23294  _checkOwner */\n      tag_147\n        /* \"contracts/STEMToken_flattened.sol\":23283:23296  _checkOwner() */\n      jump\t// in\n    tag_235:\n        /* \"contracts/STEMToken_flattened.sol\":27868:27894  _burn(from, amount * 1e18) */\n      tag_237\n        /* \"contracts/STEMToken_flattened.sol\":27874:27878  from */\n      dup3\n        /* \"contracts/STEMToken_flattened.sol\":27889:27893  1e18 */\n      0x0de0b6b3a7640000\n        /* \"contracts/STEMToken_flattened.sol\":27880:27886  amount */\n      dup4\n        /* \"contracts/STEMToken_flattened.sol\":27880:27893  amount * 1e18 */\n      tag_238\n      swap2\n      swap1\n      tag_175\n      jump\t// in\n    tag_238:\n        /* \"contracts/STEMToken_flattened.sol\":27868:27873  _burn */\n      tag_239\n        /* \"contracts/STEMToken_flattened.sol\":27868:27894  _burn(from, amount * 1e18) */\n      jump\t// in\n    tag_237:\n        /* \"contracts/STEMToken_flattened.sol\":27916:27920  from */\n      dup2\n        /* \"contracts/STEMToken_flattened.sol\":27909:27929  Burned(from, amount) */\n      0xffffffffffffffffffffffffffffffffffffffff\n      and\n      0x696de425f79f4a40bc6d2122ca50507f0efbeabbff86a84871b7196ab8ea8df7\n        /* \"contracts/STEMToken_flattened.sol\":27922:27928  amount */\n      dup3\n        /* \"contracts/STEMToken_flattened.sol\":27909:27929  Burned(from, amount) */\n      mload(0x40)\n      tag_240\n      swap2\n      swap1\n      tag_56\n      jump\t// in\n    tag_240:\n      mload(0x40)\n      dup1\n      swap2\n      sub\n      swap1\n      log2\n        /* \"contracts/STEMToken_flattened.sol\":27795:27936  function burn(address from, uint256 amount) external onlyOwner {... */\n      pop\n      pop\n      jump\t// out\n        /* \"contracts/STEMToken_flattened.sol\":14196:14374  function transfer(address to, uint256 value) public virtual returns (bool) {... */\n    tag_103:\n        /* \"contracts/STEMToken_flattened.sol\":14265:14269  bool */\n      0x00\n        /* \"contracts/STEMToken_flattened.sol\":14281:14294  address owner */\n      dup1\n        /* \"contracts/STEMToken_flattened.sol\":14297:14309  _msgSender() */\n      tag_242\n        /* \"contracts/STEMToken_flattened.sol\":14297:14307  _msgSender */\n      tag_142\n        /* \"contracts/STEMToken_flattened.sol\":14297:14309  _msgSender() */\n      jump\t// in\n    tag_242:\n        /* \"contracts/STEMToken_flattened.sol\":14281:14309  address owner = _msgSender() */\n      swap1\n      pop\n        /* \"contracts/STEMToken_flattened.sol\":14319:14346  _transfer(owner, to, value) */\n      tag_243\n        /* \"contracts/STEMToken_flattened.sol\":14329:14334  owner */\n      dup2\n        /* \"contracts/STEMToken_flattened.sol\":14336:14338  to */\n      dup6\n        /* \"contracts/STEMToken_flattened.sol\":14340:14345  value */\n      dup6\n        /* \"contracts/STEMToken_flattened.sol\":14319:14328  _transfer */\n      tag_168\n        /* \"contracts/STEMToken_flattened.sol\":14319:14346  _transfer(owner, to, value) */\n      jump\t// in\n    tag_243:\n        /* \"contracts/STEMToken_flattened.sol\":14363:14367  true */\n      0x01\n        /* \"contracts/STEMToken_flattened.sol\":14356:14367  return true */\n      swap2\n      pop\n      pop\n        /* \"contracts/STEMToken_flattened.sol\":14196:14374  function transfer(address to, uint256 value) public virtual returns (bool) {... */\n      swap3\n      swap2\n      pop\n      pop\n      jump\t// out\n        /* \"contracts/STEMToken_flattened.sol\":24963:24986  IERC20 public usdtToken */\n    tag_106:\n      0x06\n      0x00\n      swap1\n      sload\n      swap1\n      0x0100\n      exp\n      swap1\n      div\n      0xffffffffffffffffffffffffffffffffffffffff\n      and\n      dup2\n      jump\t// out\n        /* \"contracts/STEMToken_flattened.sol\":26206:26590  function buyStem(uint256 usdtAmount) external {... */\n    tag_111:\n        /* \"contracts/STEMToken_flattened.sol\":26283:26284  0 */\n      0x00\n        /* \"contracts/STEMToken_flattened.sol\":26270:26280  usdtAmount */\n      dup2\n        /* \"contracts/STEMToken_flattened.sol\":26270:26284  usdtAmount > 0 */\n      gt\n        /* \"contracts/STEMToken_flattened.sol\":26262:26318  require(usdtAmount > 0, \"Amount must be greater than 0\") */\n      tag_245\n      jumpi\n      mload(0x40)\n      0x08c379a000000000000000000000000000000000000000000000000000000000\n      dup2\n      mstore\n      0x04\n      add\n      tag_246\n      swap1\n      tag_181\n      jump\t// in\n    tag_246:\n      mload(0x40)\n      dup1\n      swap2\n      sub\n      swap1\n      revert\n    tag_245:\n        /* \"contracts/STEMToken_flattened.sol\":26329:26347  uint256 stemAmount */\n      0x00\n        /* \"contracts/STEMToken_flattened.sol\":26363:26367  1e18 */\n      0x0de0b6b3a7640000\n        /* \"contracts/STEMToken_flattened.sol\":26350:26360  usdtAmount */\n      dup3\n        /* \"contracts/STEMToken_flattened.sol\":26350:26367  usdtAmount * 1e18 */\n      tag_247\n      swap2\n      swap1\n      tag_175\n      jump\t// in\n    tag_247:\n        /* \"contracts/STEMToken_flattened.sol\":26329:26367  uint256 stemAmount = usdtAmount * 1e18 */\n      swap1\n      pop\n        /* \"contracts/STEMToken_flattened.sol\":26385:26394  usdtToken */\n      0x06\n      0x00\n      swap1\n      sload\n      swap1\n      0x0100\n      exp\n      swap1\n      div\n      0xffffffffffffffffffffffffffffffffffffffff\n      and\n        /* \"contracts/STEMToken_flattened.sol\":26385:26407  usdtToken.transferFrom */\n      0xffffffffffffffffffffffffffffffffffffffff\n      and\n      0x23b872dd\n        /* \"contracts/STEMToken_flattened.sol\":26408:26418  msg.sender */\n      caller\n        /* \"contracts/STEMToken_flattened.sol\":26428:26432  this */\n      address\n        /* \"contracts/STEMToken_flattened.sol\":26435:26445  usdtAmount */\n      dup6\n        /* \"contracts/STEMToken_flattened.sol\":26385:26446  usdtToken.transferFrom(msg.sender, address(this), usdtAmount) */\n      mload(0x40)\n      dup5\n      0xffffffff\n      and\n      0xe0\n      shl\n      dup2\n      mstore\n      0x04\n      add\n      tag_248\n      swap4\n      swap3\n      swap2\n      swap1\n      tag_249\n      jump\t// in\n    tag_248:\n      0x20\n      mload(0x40)\n      dup1\n      dup4\n      sub\n      dup2\n      0x00\n      dup8\n      gas\n      call\n      iszero\n      dup1\n      iszero\n      tag_251\n      jumpi\n      returndatasize\n      0x00\n      dup1\n      returndatacopy\n      revert(0x00, returndatasize)\n    tag_251:\n      pop\n      pop\n      pop\n      pop\n      mload(0x40)\n      returndatasize\n      not(0x1f)\n      0x1f\n      dup3\n      add\n      and\n      dup3\n      add\n      dup1\n      0x40\n      mstore\n      pop\n      dup2\n      add\n      swap1\n      tag_252\n      swap2\n      swap1\n      tag_157\n      jump\t// in\n    tag_252:\n        /* \"contracts/STEMToken_flattened.sol\":26377:26471  require(usdtToken.transferFrom(msg.sender, address(this), usdtAmount), \"USDT transfer failed\") */\n      tag_253\n      jumpi\n      mload(0x40)\n      0x08c379a000000000000000000000000000000000000000000000000000000000\n      dup2\n      mstore\n      0x04\n      add\n      tag_254\n      swap1\n      tag_255\n      jump\t// in\n    tag_254:\n      mload(0x40)\n      dup1\n      swap2\n      sub\n      swap1\n      revert\n    tag_253:\n        /* \"contracts/STEMToken_flattened.sol\":26482:26525  _transfer(treasury, msg.sender, stemAmount) */\n      tag_256\n        /* \"contracts/STEMToken_flattened.sol\":26492:26500  treasury */\n      0x09\n      0x00\n      swap1\n      sload\n      swap1\n      0x0100\n      exp\n      swap1\n      div\n      0xffffffffffffffffffffffffffffffffffffffff\n      and\n        /* \"contracts/STEMToken_flattened.sol\":26502:26512  msg.sender */\n      caller\n        /* \"contracts/STEMToken_flattened.sol\":26514:26524  stemAmount */\n      dup4\n        /* \"contracts/STEMToken_flattened.sol\":26482:26491  _transfer */\n      tag_168\n        /* \"contracts/STEMToken_flattened.sol\":26482:26525  _transfer(treasury, msg.sender, stemAmount) */\n      jump\t// in\n    tag_256:\n        /* \"contracts/STEMToken_flattened.sol\":26548:26558  msg.sender */\n      caller\n        /* \"contracts/STEMToken_flattened.sol\":26540:26583  BuyStem(msg.sender, usdtAmount, stemAmount) */\n      0xffffffffffffffffffffffffffffffffffffffff\n      and\n      0x59bb2bddff6a71f8747469b7104385348606a838f9a98de25c0793b2aa4dd0eb\n        /* \"contracts/STEMToken_flattened.sol\":26560:26570  usdtAmount */\n      dup4\n        /* \"contracts/STEMToken_flattened.sol\":26572:26582  stemAmount */\n      dup4\n        /* \"contracts/STEMToken_flattened.sol\":26540:26583  BuyStem(msg.sender, usdtAmount, stemAmount) */\n      mload(0x40)\n      tag_257\n      swap3\n      swap2\n      swap1\n      tag_258\n      jump\t// in\n    tag_257:\n      mload(0x40)\n      dup1\n      swap2\n      sub\n      swap1\n      log2\n        /* \"contracts/STEMToken_flattened.sol\":26252:26590  {... */\n      pop\n        /* \"contracts/STEMToken_flattened.sol\":26206:26590  function buyStem(uint256 usdtAmount) external {... */\n      pop\n      jump\t// out\n        /* \"contracts/STEMToken_flattened.sol\":29190:29896  function getConfig() external view returns (... */\n    tag_113:\n        /* \"contracts/STEMToken_flattened.sol\":29243:29259  uint256 _buyRate */\n      0x00\n        /* \"contracts/STEMToken_flattened.sol\":29269:29286  uint256 _sellRate */\n      dup1\n        /* \"contracts/STEMToken_flattened.sol\":29296:29313  address _treasury */\n      0x00\n        /* \"contracts/STEMToken_flattened.sol\":29323:29346  address _profitTreasury */\n      dup1\n        /* \"contracts/STEMToken_flattened.sol\":29356:29383  uint256 treasuryStemBalance */\n      0x00\n        /* \"contracts/STEMToken_flattened.sol\":29393:29418  uint256 profitStemBalance */\n      dup1\n        /* \"contracts/STEMToken_flattened.sol\":29428:29455  uint256 contractStemBalance */\n      0x00\n        /* \"contracts/STEMToken_flattened.sol\":29465:29492  uint256 contractUsdtBalance */\n      dup1\n        /* \"contracts/STEMToken_flattened.sol\":29502:29525  uint256 totalStemSupply */\n      0x00\n        /* \"contracts/STEMToken_flattened.sol\":29575:29582  buyRate */\n      sload(0x07)\n        /* \"contracts/STEMToken_flattened.sol\":29600:29608  sellRate */\n      sload(0x08)\n        /* \"contracts/STEMToken_flattened.sol\":29626:29634  treasury */\n      0x09\n      0x00\n      swap1\n      sload\n      swap1\n      0x0100\n      exp\n      swap1\n      div\n      0xffffffffffffffffffffffffffffffffffffffff\n      and\n        /* \"contracts/STEMToken_flattened.sol\":29652:29666  profitTreasury */\n      0x0a\n      0x00\n      swap1\n      sload\n      swap1\n      0x0100\n      exp\n      swap1\n      div\n      0xffffffffffffffffffffffffffffffffffffffff\n      and\n        /* \"contracts/STEMToken_flattened.sol\":29684:29703  balanceOf(treasury) */\n      tag_260\n        /* \"contracts/STEMToken_flattened.sol\":29694:29702  treasury */\n      0x09\n      0x00\n      swap1\n      sload\n      swap1\n      0x0100\n      exp\n      swap1\n      div\n      0xffffffffffffffffffffffffffffffffffffffff\n      and\n        /* \"contracts/STEMToken_flattened.sol\":29684:29693  balanceOf */\n      tag_82\n        /* \"contracts/STEMToken_flattened.sol\":29684:29703  balanceOf(treasury) */\n      jump\t// in\n    tag_260:\n        /* \"contracts/STEMToken_flattened.sol\":29721:29746  balanceOf(profitTreasury) */\n      tag_261\n        /* \"contracts/STEMToken_flattened.sol\":29731:29745  profitTreasury */\n      0x0a\n      0x00\n      swap1\n      sload\n      swap1\n      0x0100\n      exp\n      swap1\n      div\n      0xffffffffffffffffffffffffffffffffffffffff\n      and\n        /* \"contracts/STEMToken_flattened.sol\":29721:29730  balanceOf */\n      tag_82\n        /* \"contracts/STEMToken_flattened.sol\":29721:29746  balanceOf(profitTreasury) */\n      jump\t// in\n    tag_261:\n        /* \"contracts/STEMToken_flattened.sol\":29764:29788  balanceOf(address(this)) */\n      tag_262\n        /* \"contracts/STEMToken_flattened.sol\":29782:29786  this */\n      address\n        /* \"contracts/STEMToken_flattened.sol\":29764:29773  balanceOf */\n      tag_82\n        /* \"contracts/STEMToken_flattened.sol\":29764:29788  balanceOf(address(this)) */\n      jump\t// in\n    tag_262:\n        /* \"contracts/STEMToken_flattened.sol\":29806:29815  usdtToken */\n      0x06\n      0x00\n      swap1\n      sload\n      swap1\n      0x0100\n      exp\n      swap1\n      div\n      0xffffffffffffffffffffffffffffffffffffffff\n      and\n        /* \"contracts/STEMToken_flattened.sol\":29806:29825  usdtToken.balanceOf */\n      0xffffffffffffffffffffffffffffffffffffffff\n      and\n      0x70a08231\n        /* \"contracts/STEMToken_flattened.sol\":29834:29838  this */\n      address\n        /* \"contracts/STEMToken_flattened.sol\":29806:29840  usdtToken.balanceOf(address(this)) */\n      mload(0x40)\n      dup3\n      0xffffffff\n      and\n      0xe0\n      shl\n      dup2\n      mstore\n      0x04\n      add\n      tag_263\n      swap2\n      swap1\n      tag_76\n      jump\t// in\n    tag_263:\n      0x20\n      mload(0x40)\n      dup1\n      dup4\n      sub\n      dup2\n      dup7\n      gas\n      staticcall\n      iszero\n      dup1\n      iszero\n      tag_265\n      jumpi\n      returndatasize\n      0x00\n      dup1\n      returndatacopy\n      revert(0x00, returndatasize)\n    tag_265:\n      pop\n      pop\n      pop\n      pop\n      mload(0x40)\n      returndatasize\n      not(0x1f)\n      0x1f\n      dup3\n      add\n      and\n      dup3\n      add\n      dup1\n      0x40\n      mstore\n      pop\n      dup2\n      add\n      swap1\n      tag_266\n      swap2\n      swap1\n      tag_267\n      jump\t// in\n    tag_266:\n        /* \"contracts/STEMToken_flattened.sol\":29858:29871  totalSupply() */\n      tag_268\n        /* \"contracts/STEMToken_flattened.sol\":29858:29869  totalSupply */\n      tag_54\n        /* \"contracts/STEMToken_flattened.sol\":29858:29871  totalSupply() */\n      jump\t// in\n    tag_268:\n        /* \"contracts/STEMToken_flattened.sol\":29550:29885  return (... */\n      swap9\n      pop\n      swap9\n      pop\n      swap9\n      pop\n      swap9\n      pop\n      swap9\n      pop\n      swap9\n      pop\n      swap9\n      pop\n      swap9\n      pop\n      swap9\n      pop\n        /* \"contracts/STEMToken_flattened.sol\":29190:29896  function getConfig() external view returns (... */\n      swap1\n      swap2\n      swap3\n      swap4\n      swap5\n      swap6\n      swap7\n      swap8\n      swap9\n      jump\t// out\n        /* \"contracts/STEMToken_flattened.sol\":14432:14572  function allowance(address owner, address spender) public view virtual returns (uint256) {... */\n    tag_119:\n        /* \"contracts/STEMToken_flattened.sol\":14512:14519  uint256 */\n      0x00\n        /* \"contracts/STEMToken_flattened.sol\":14538:14549  _allowances */\n      0x01\n        /* \"contracts/STEMToken_flattened.sol\":14538:14556  _allowances[owner] */\n      0x00\n        /* \"contracts/STEMToken_flattened.sol\":14550:14555  owner */\n      dup5\n        /* \"contracts/STEMToken_flattened.sol\":14538:14556  _allowances[owner] */\n      0xffffffffffffffffffffffffffffffffffffffff\n      and\n      0xffffffffffffffffffffffffffffffffffffffff\n      and\n      dup2\n      mstore\n      0x20\n      add\n      swap1\n      dup2\n      mstore\n      0x20\n      add\n      0x00\n      keccak256\n        /* \"contracts/STEMToken_flattened.sol\":14538:14565  _allowances[owner][spender] */\n      0x00\n        /* \"contracts/STEMToken_flattened.sol\":14557:14564  spender */\n      dup4\n        /* \"contracts/STEMToken_flattened.sol\":14538:14565  _allowances[owner][spender] */\n      0xffffffffffffffffffffffffffffffffffffffff\n      and\n      0xffffffffffffffffffffffffffffffffffffffff\n      and\n      dup2\n      mstore\n      0x20\n      add\n      swap1\n      dup2\n      mstore\n      0x20\n      add\n      0x00\n      keccak256\n      sload\n        /* \"contracts/STEMToken_flattened.sol\":14531:14565  return _allowances[owner][spender] */\n      swap1\n      pop\n        /* \"contracts/STEMToken_flattened.sol\":14432:14572  function allowance(address owner, address spender) public view virtual returns (uint256) {... */\n      swap3\n      swap2\n      pop\n      pop\n      jump\t// out\n        /* \"contracts/STEMToken_flattened.sol\":28810:28947  function setTreasury(address _treasury) external onlyOwner {... */\n    tag_123:\n        /* \"contracts/STEMToken_flattened.sol\":23283:23296  _checkOwner() */\n      tag_271\n        /* \"contracts/STEMToken_flattened.sol\":23283:23294  _checkOwner */\n      tag_147\n        /* \"contracts/STEMToken_flattened.sol\":23283:23296  _checkOwner() */\n      jump\t// in\n    tag_271:\n        /* \"contracts/STEMToken_flattened.sol\":28890:28899  _treasury */\n      dup1\n        /* \"contracts/STEMToken_flattened.sol\":28879:28887  treasury */\n      0x09\n      0x00\n        /* \"contracts/STEMToken_flattened.sol\":28879:28899  treasury = _treasury */\n      0x0100\n      exp\n      dup2\n      sload\n      dup2\n      0xffffffffffffffffffffffffffffffffffffffff\n      mul\n      not\n      and\n      swap1\n      dup4\n      0xffffffffffffffffffffffffffffffffffffffff\n      and\n      mul\n      or\n      swap1\n      sstore\n      pop\n        /* \"contracts/STEMToken_flattened.sol\":28930:28939  _treasury */\n      dup1\n        /* \"contracts/STEMToken_flattened.sol\":28914:28940  TreasuryChanged(_treasury) */\n      0xffffffffffffffffffffffffffffffffffffffff\n      and\n      0xc714d22a2f08b695f81e7c707058db484aa5b4d6b4c9fd64beb10fe85832f608\n      mload(0x40)\n      mload(0x40)\n      dup1\n      swap2\n      sub\n      swap1\n      log2\n        /* \"contracts/STEMToken_flattened.sol\":28810:28947  function setTreasury(address _treasury) external onlyOwner {... */\n      pop\n      jump\t// out\n        /* \"contracts/STEMToken_flattened.sol\":25215:25289  address public profitTreasury = 0xeACa0253B95730F2ae2755Af09083d69840A683C */\n    tag_125:\n      0x0a\n      0x00\n      swap1\n      sload\n      swap1\n      0x0100\n      exp\n      swap1\n      div\n      0xffffffffffffffffffffffffffffffffffffffff\n      and\n      dup2\n      jump\t// out\n        /* \"contracts/STEMToken_flattened.sol\":24295:24510  function transferOwnership(address newOwner) public virtual onlyOwner {... */\n    tag_129:\n        /* \"contracts/STEMToken_flattened.sol\":23283:23296  _checkOwner() */\n      tag_274\n        /* \"contracts/STEMToken_flattened.sol\":23283:23294  _checkOwner */\n      tag_147\n        /* \"contracts/STEMToken_flattened.sol\":23283:23296  _checkOwner() */\n      jump\t// in\n    tag_274:\n        /* \"contracts/STEMToken_flattened.sol\":24399:24400  0 */\n      0x00\n        /* \"contracts/STEMToken_flattened.sol\":24379:24401  newOwner == address(0) */\n      0xffffffffffffffffffffffffffffffffffffffff\n      and\n        /* \"contracts/STEMToken_flattened.sol\":24379:24387  newOwner */\n      dup2\n        /* \"contracts/STEMToken_flattened.sol\":24379:24401  newOwner == address(0) */\n      0xffffffffffffffffffffffffffffffffffffffff\n      and\n      sub\n        /* \"contracts/STEMToken_flattened.sol\":24375:24466  if (newOwner == address(0)) {... */\n      tag_276\n      jumpi\n        /* \"contracts/STEMToken_flattened.sol\":24452:24453  0 */\n      0x00\n        /* \"contracts/STEMToken_flattened.sol\":24424:24455  OwnableInvalidOwner(address(0)) */\n      mload(0x40)\n      0x1e4fbdf700000000000000000000000000000000000000000000000000000000\n      dup2\n      mstore\n      0x04\n      add\n      tag_277\n      swap2\n      swap1\n      tag_76\n      jump\t// in\n    tag_277:\n      mload(0x40)\n      dup1\n      swap2\n      sub\n      swap1\n      revert\n        /* \"contracts/STEMToken_flattened.sol\":24375:24466  if (newOwner == address(0)) {... */\n    tag_276:\n        /* \"contracts/STEMToken_flattened.sol\":24475:24503  _transferOwnership(newOwner) */\n      tag_278\n        /* \"contracts/STEMToken_flattened.sol\":24494:24502  newOwner */\n      dup2\n        /* \"contracts/STEMToken_flattened.sol\":24475:24493  _transferOwnership */\n      tag_209\n        /* \"contracts/STEMToken_flattened.sol\":24475:24503  _transferOwnership(newOwner) */\n      jump\t// in\n    tag_278:\n        /* \"contracts/STEMToken_flattened.sol\":24295:24510  function transferOwnership(address newOwner) public virtual onlyOwner {... */\n      pop\n      jump\t// out\n        /* \"contracts/STEMToken_flattened.sol\":24993:25022  uint256 public buyRate = 1e18 */\n    tag_131:\n      sload(0x07)\n      dup2\n      jump\t// out\n        /* \"contracts/STEMToken_flattened.sol\":4208:4304  function _msgSender() internal view virtual returns (address) {... */\n    tag_142:\n        /* \"contracts/STEMToken_flattened.sol\":4261:4268  address */\n      0x00\n        /* \"contracts/STEMToken_flattened.sol\":4287:4297  msg.sender */\n      caller\n        /* \"contracts/STEMToken_flattened.sol\":4280:4297  return msg.sender */\n      swap1\n      pop\n        /* \"contracts/STEMToken_flattened.sol\":4208:4304  function _msgSender() internal view virtual returns (address) {... */\n      swap1\n      jump\t// out\n        /* \"contracts/STEMToken_flattened.sol\":19607:19735  function _approve(address owner, address spender, uint256 value) internal {... */\n    tag_144:\n        /* \"contracts/STEMToken_flattened.sol\":19691:19728  _approve(owner, spender, value, true) */\n      tag_281\n        /* \"contracts/STEMToken_flattened.sol\":19700:19705  owner */\n      dup4\n        /* \"contracts/STEMToken_flattened.sol\":19707:19714  spender */\n      dup4\n        /* \"contracts/STEMToken_flattened.sol\":19716:19721  value */\n      dup4\n        /* \"contracts/STEMToken_flattened.sol\":19723:19727  true */\n      0x01\n        /* \"contracts/STEMToken_flattened.sol\":19691:19699  _approve */\n      tag_282\n        /* \"contracts/STEMToken_flattened.sol\":19691:19728  _approve(owner, spender, value, true) */\n      jump\t// in\n    tag_281:\n        /* \"contracts/STEMToken_flattened.sol\":19607:19735  function _approve(address owner, address spender, uint256 value) internal {... */\n      pop\n      pop\n      pop\n      jump\t// out\n        /* \"contracts/STEMToken_flattened.sol\":23548:23710  function _checkOwner() internal view virtual {... */\n    tag_147:\n        /* \"contracts/STEMToken_flattened.sol\":23618:23630  _msgSender() */\n      tag_284\n        /* \"contracts/STEMToken_flattened.sol\":23618:23628  _msgSender */\n      tag_142\n        /* \"contracts/STEMToken_flattened.sol\":23618:23630  _msgSender() */\n      jump\t// in\n    tag_284:\n        /* \"contracts/STEMToken_flattened.sol\":23607:23630  owner() != _msgSender() */\n      0xffffffffffffffffffffffffffffffffffffffff\n      and\n        /* \"contracts/STEMToken_flattened.sol\":23607:23614  owner() */\n      tag_285\n        /* \"contracts/STEMToken_flattened.sol\":23607:23612  owner */\n      tag_90\n        /* \"contracts/STEMToken_flattened.sol\":23607:23614  owner() */\n      jump\t// in\n    tag_285:\n        /* \"contracts/STEMToken_flattened.sol\":23607:23630  owner() != _msgSender() */\n      0xffffffffffffffffffffffffffffffffffffffff\n      and\n      eq\n        /* \"contracts/STEMToken_flattened.sol\":23603:23704  if (owner() != _msgSender()) {... */\n      tag_286\n      jumpi\n        /* \"contracts/STEMToken_flattened.sol\":23680:23692  _msgSender() */\n      tag_287\n        /* \"contracts/STEMToken_flattened.sol\":23680:23690  _msgSender */\n      tag_142\n        /* \"contracts/STEMToken_flattened.sol\":23680:23692  _msgSender() */\n      jump\t// in\n    tag_287:\n        /* \"contracts/STEMToken_flattened.sol\":23653:23693  OwnableUnauthorizedAccount(_msgSender()) */\n      mload(0x40)\n      0x118cdaa700000000000000000000000000000000000000000000000000000000\n      dup2\n      mstore\n      0x04\n      add\n      tag_288\n      swap2\n      swap1\n      tag_76\n      jump\t// in\n    tag_288:\n      mload(0x40)\n      dup1\n      swap2\n      sub\n      swap1\n      revert\n        /* \"contracts/STEMToken_flattened.sol\":23603:23704  if (owner() != _msgSender()) {... */\n    tag_286:\n        /* \"contracts/STEMToken_flattened.sol\":23548:23710  function _checkOwner() internal view virtual {... */\n      jump\t// out\n        /* \"contracts/STEMToken_flattened.sol\":21296:21772  function _spendAllowance(address owner, address spender, uint256 value) internal virtual {... */\n    tag_166:\n        /* \"contracts/STEMToken_flattened.sol\":21395:21419  uint256 currentAllowance */\n      0x00\n        /* \"contracts/STEMToken_flattened.sol\":21422:21447  allowance(owner, spender) */\n      tag_290\n        /* \"contracts/STEMToken_flattened.sol\":21432:21437  owner */\n      dup5\n        /* \"contracts/STEMToken_flattened.sol\":21439:21446  spender */\n      dup5\n        /* \"contracts/STEMToken_flattened.sol\":21422:21431  allowance */\n      tag_119\n        /* \"contracts/STEMToken_flattened.sol\":21422:21447  allowance(owner, spender) */\n      jump\t// in\n    tag_290:\n        /* \"contracts/STEMToken_flattened.sol\":21395:21447  uint256 currentAllowance = allowance(owner, spender) */\n      swap1\n      pop\n        /* \"contracts/STEMToken_flattened.sol\":21480:21497  type(uint256).max */\n      0xffffffffffffffffffffffffffffffffffffffffffffffffffffffffffffffff\n        /* \"contracts/STEMToken_flattened.sol\":21461:21477  currentAllowance */\n      dup2\n        /* \"contracts/STEMToken_flattened.sol\":21461:21497  currentAllowance < type(uint256).max */\n      lt\n        /* \"contracts/STEMToken_flattened.sol\":21457:21766  if (currentAllowance < type(uint256).max) {... */\n      iszero\n      tag_291\n      jumpi\n        /* \"contracts/STEMToken_flattened.sol\":21536:21541  value */\n      dup2\n        /* \"contracts/STEMToken_flattened.sol\":21517:21533  currentAllowance */\n      dup2\n        /* \"contracts/STEMToken_flattened.sol\":21517:21541  currentAllowance < value */\n      lt\n        /* \"contracts/STEMToken_flattened.sol\":21513:21643  if (currentAllowance < value) {... */\n      iszero\n      tag_292\n      jumpi\n        /* \"contracts/STEMToken_flattened.sol\":21595:21602  spender */\n      dup3\n        /* \"contracts/STEMToken_flattened.sol\":21604:21620  currentAllowance */\n      dup2\n        /* \"contracts/STEMToken_flattened.sol\":21622:21627  value */\n      dup4\n        /* \"contracts/STEMToken_flattened.sol\":21568:21628  ERC20InsufficientAllowance(spender, currentAllowance, value) */\n      mload(0x40)\n      0xfb8f41b200000000000000000000000000000000000000000000000000000000\n      dup2\n      mstore\n      0x04\n      add\n      tag_293\n      swap4\n      swap3\n      swap2\n      swap1\n      tag_294\n      jump\t// in\n    tag_293:\n      mload(0x40)\n      dup1\n      swap2\n      sub\n      swap1\n      revert\n        /* \"contracts/STEMToken_flattened.sol\":21513:21643  if (currentAllowance < value) {... */\n    tag_292:\n        /* \"contracts/STEMToken_flattened.sol\":21684:21741  _approve(owner, spender, currentAllowance - value, false) */\n      tag_295\n        /* \"contracts/STEMToken_flattened.sol\":21693:21698  owner */\n      dup5\n        /* \"contracts/STEMToken_flattened.sol\":21700:21707  spender */\n      dup5\n        /* \"contracts/STEMToken_flattened.sol\":21728:21733  value */\n      dup5\n        /* \"contracts/STEMToken_flattened.sol\":21709:21725  currentAllowance */\n      dup5\n        /* \"contracts/STEMToken_flattened.sol\":21709:21733  currentAllowance - value */\n      sub\n        /* \"contracts/STEMToken_flattened.sol\":21735:21740  false */\n      0x00\n        /* \"contracts/STEMToken_flattened.sol\":21684:21692  _approve */\n      tag_282\n        /* \"contracts/STEMToken_flattened.sol\":21684:21741  _approve(owner, spender, currentAllowance - value, false) */\n      jump\t// in\n    tag_295:\n        /* \"contracts/STEMToken_flattened.sol\":21457:21766  if (currentAllowance < type(uint256).max) {... */\n    tag_291:\n        /* \"contracts/STEMToken_flattened.sol\":21385:21772  {... */\n      pop\n        /* \"contracts/STEMToken_flattened.sol\":21296:21772  function _spendAllowance(address owner, address spender, uint256 value) internal virtual {... */\n      pop\n      pop\n      pop\n      jump\t// out\n        /* \"contracts/STEMToken_flattened.sol\":16274:16574  function _transfer(address from, address to, uint256 value) internal {... */\n    tag_168:\n        /* \"contracts/STEMToken_flattened.sol\":16373:16374  0 */\n      0x00\n        /* \"contracts/STEMToken_flattened.sol\":16357:16375  from == address(0) */\n      0xffffffffffffffffffffffffffffffffffffffff\n      and\n        /* \"contracts/STEMToken_flattened.sol\":16357:16361  from */\n      dup4\n        /* \"contracts/STEMToken_flattened.sol\":16357:16375  from == address(0) */\n      0xffffffffffffffffffffffffffffffffffffffff\n      and\n      sub\n        /* \"contracts/STEMToken_flattened.sol\":16353:16439  if (from == address(0)) {... */\n      tag_297\n      jumpi\n        /* \"contracts/STEMToken_flattened.sol\":16425:16426  0 */\n      0x00\n        /* \"contracts/STEMToken_flattened.sol\":16398:16428  ERC20InvalidSender(address(0)) */\n      mload(0x40)\n      0x96c6fd1e00000000000000000000000000000000000000000000000000000000\n      dup2\n      mstore\n      0x04\n      add\n      tag_298\n      swap2\n      swap1\n      tag_76\n      jump\t// in\n    tag_298:\n      mload(0x40)\n      dup1\n      swap2\n      sub\n      swap1\n      revert\n        /* \"contracts/STEMToken_flattened.sol\":16353:16439  if (from == address(0)) {... */\n    tag_297:\n        /* \"contracts/STEMToken_flattened.sol\":16466:16467  0 */\n      0x00\n        /* \"contracts/STEMToken_flattened.sol\":16452:16468  to == address(0) */\n      0xffffffffffffffffffffffffffffffffffffffff\n      and\n        /* \"contracts/STEMToken_flattened.sol\":16452:16454  to */\n      dup3\n        /* \"contracts/STEMToken_flattened.sol\":16452:16468  to == address(0) */\n      0xffffffffffffffffffffffffffffffffffffffff\n      and\n      sub\n        /* \"contracts/STEMToken_flattened.sol\":16448:16534  if (to == address(0)) {... */\n      tag_299\n      jumpi\n        /* \"contracts/STEMToken_flattened.sol\":16520:16521  0 */\n      0x00\n        /* \"contracts/STEMToken_flattened.sol\":16491:16523  ERC20InvalidReceiver(address(0)) */\n      mload(0x40)\n      0xec442f0500000000000000000000000000000000000000000000000000000000\n      dup2\n      mstore\n      0x04\n      add\n      tag_300\n      swap2\n      swap1\n      tag_76\n      jump\t// in\n    tag_300:\n      mload(0x40)\n      dup1\n      swap2\n      sub\n      swap1\n      revert\n        /* \"contracts/STEMToken_flattened.sol\":16448:16534  if (to == address(0)) {... */\n    tag_299:\n        /* \"contracts/STEMToken_flattened.sol\":16543:16567  _update(from, to, value) */\n      tag_301\n        /* \"contracts/STEMToken_flattened.sol\":16551:16555  from */\n      dup4\n        /* \"contracts/STEMToken_flattened.sol\":16557:16559  to */\n      dup4\n        /* \"contracts/STEMToken_flattened.sol\":16561:16566  value */\n      dup4\n        /* \"contracts/STEMToken_flattened.sol\":16543:16550  _update */\n      tag_302\n        /* \"contracts/STEMToken_flattened.sol\":16543:16567  _update(from, to, value) */\n      jump\t// in\n    tag_301:\n        /* \"contracts/STEMToken_flattened.sol\":16274:16574  function _transfer(address from, address to, uint256 value) internal {... */\n      pop\n      pop\n      pop\n      jump\t// out\n        /* \"contracts/STEMToken_flattened.sol\":18339:18547  function _mint(address account, uint256 value) internal {... */\n    tag_176:\n        /* \"contracts/STEMToken_flattened.sol\":18428:18429  0 */\n      0x00\n        /* \"contracts/STEMToken_flattened.sol\":18409:18430  account == address(0) */\n      0xffffffffffffffffffffffffffffffffffffffff\n      and\n        /* \"contracts/STEMToken_flattened.sol\":18409:18416  account */\n      dup3\n        /* \"contracts/STEMToken_flattened.sol\":18409:18430  account == address(0) */\n      0xffffffffffffffffffffffffffffffffffffffff\n      and\n      sub\n        /* \"contracts/STEMToken_flattened.sol\":18405:18496  if (account == address(0)) {... */\n      tag_304\n      jumpi\n        /* \"contracts/STEMToken_flattened.sol\":18482:18483  0 */\n      0x00\n        /* \"contracts/STEMToken_flattened.sol\":18453:18485  ERC20InvalidReceiver(address(0)) */\n      mload(0x40)\n      0xec442f0500000000000000000000000000000000000000000000000000000000\n      dup2\n      mstore\n      0x04\n      add\n      tag_305\n      swap2\n      swap1\n      tag_76\n      jump\t// in\n    tag_305:\n      mload(0x40)\n      dup1\n      swap2\n      sub\n      swap1\n      revert\n        /* \"contracts/STEMToken_flattened.sol\":18405:18496  if (account == address(0)) {... */\n    tag_304:\n        /* \"contracts/STEMToken_flattened.sol\":18505:18540  _update(address(0), account, value) */\n      tag_306\n        /* \"contracts/STEMToken_flattened.sol\":18521:18522  0 */\n      0x00\n        /* \"contracts/STEMToken_flattened.sol\":18525:18532  account */\n      dup4\n        /* \"contracts/STEMToken_flattened.sol\":18534:18539  value */\n      dup4\n        /* \"contracts/STEMToken_flattened.sol\":18505:18512  _update */\n      tag_302\n        /* \"contracts/STEMToken_flattened.sol\":18505:18540  _update(address(0), account, value) */\n      jump\t// in\n    tag_306:\n        /* \"contracts/STEMToken_flattened.sol\":18339:18547  function _mint(address account, uint256 value) internal {... */\n      pop\n      pop\n      jump\t// out\n        /* \"contracts/STEMToken_flattened.sol\":24664:24851  function _transferOwnership(address newOwner) internal virtual {... */\n    tag_209:\n        /* \"contracts/STEMToken_flattened.sol\":24737:24753  address oldOwner */\n      0x00\n        /* \"contracts/STEMToken_flattened.sol\":24756:24762  _owner */\n      0x05\n      0x00\n      swap1\n      sload\n      swap1\n      0x0100\n      exp\n      swap1\n      div\n      0xffffffffffffffffffffffffffffffffffffffff\n      and\n        /* \"contracts/STEMToken_flattened.sol\":24737:24762  address oldOwner = _owner */\n      swap1\n      pop\n        /* \"contracts/STEMToken_flattened.sol\":24781:24789  newOwner */\n      dup2\n        /* \"contracts/STEMToken_flattened.sol\":24772:24778  _owner */\n      0x05\n      0x00\n        /* \"contracts/STEMToken_flattened.sol\":24772:24789  _owner = newOwner */\n      0x0100\n      exp\n      dup2\n      sload\n      dup2\n      0xffffffffffffffffffffffffffffffffffffffff\n      mul\n      not\n      and\n      swap1\n      dup4\n      0xffffffffffffffffffffffffffffffffffffffff\n      and\n      mul\n      or\n      swap1\n      sstore\n      pop\n        /* \"contracts/STEMToken_flattened.sol\":24835:24843  newOwner */\n      dup2\n        /* \"contracts/STEMToken_flattened.sol\":24804:24844  OwnershipTransferred(oldOwner, newOwner) */\n      0xffffffffffffffffffffffffffffffffffffffff\n      and\n        /* \"contracts/STEMToken_flattened.sol\":24825:24833  oldOwner */\n      dup2\n        /* \"contracts/STEMToken_flattened.sol\":24804:24844  OwnershipTransferred(oldOwner, newOwner) */\n      0xffffffffffffffffffffffffffffffffffffffff\n      and\n      0x8be0079c531659141344cd1fd0a4f28419497f9722a3daafe3b4186f6b6457e0\n      mload(0x40)\n      mload(0x40)\n      dup1\n      swap2\n      sub\n      swap1\n      log3\n        /* \"contracts/STEMToken_flattened.sol\":24727:24851  {... */\n      pop\n        /* \"contracts/STEMToken_flattened.sol\":24664:24851  function _transferOwnership(address newOwner) internal virtual {... */\n      pop\n      jump\t// out\n        /* \"contracts/STEMToken_flattened.sol\":18865:19071  function _burn(address account, uint256 value) internal {... */\n    tag_239:\n        /* \"contracts/STEMToken_flattened.sol\":18954:18955  0 */\n      0x00\n        /* \"contracts/STEMToken_flattened.sol\":18935:18956  account == address(0) */\n      0xffffffffffffffffffffffffffffffffffffffff\n      and\n        /* \"contracts/STEMToken_flattened.sol\":18935:18942  account */\n      dup3\n        /* \"contracts/STEMToken_flattened.sol\":18935:18956  account == address(0) */\n      0xffffffffffffffffffffffffffffffffffffffff\n      and\n      sub\n        /* \"contracts/STEMToken_flattened.sol\":18931:19020  if (account == address(0)) {... */\n      tag_309\n      jumpi\n        /* \"contracts/STEMToken_flattened.sol\":19006:19007  0 */\n      0x00\n        /* \"contracts/STEMToken_flattened.sol\":18979:19009  ERC20InvalidSender(address(0)) */\n      mload(0x40)\n      0x96c6fd1e00000000000000000000000000000000000000000000000000000000\n      dup2\n      mstore\n      0x04\n      add\n      tag_310\n      swap2\n      swap1\n      tag_76\n      jump\t// in\n    tag_310:\n      mload(0x40)\n      dup1\n      swap2\n      sub\n      swap1\n      revert\n        /* \"contracts/STEMToken_flattened.sol\":18931:19020  if (account == address(0)) {... */\n    tag_309:\n        /* \"contracts/STEMToken_flattened.sol\":19029:19064  _update(account, address(0), value) */\n      tag_311\n        /* \"contracts/STEMToken_flattened.sol\":19037:19044  account */\n      dup3\n        /* \"contracts/STEMToken_flattened.sol\":19054:19055  0 */\n      0x00\n        /* \"contracts/STEMToken_flattened.sol\":19058:19063  value */\n      dup4\n        /* \"contracts/STEMToken_flattened.sol\":19029:19036  _update */\n      tag_302\n        /* \"contracts/STEMToken_flattened.sol\":19029:19064  _update(account, address(0), value) */\n      jump\t// in\n    tag_311:\n        /* \"contracts/STEMToken_flattened.sol\":18865:19071  function _burn(address account, uint256 value) internal {... */\n      pop\n      pop\n      jump\t// out\n        /* \"contracts/STEMToken_flattened.sol\":20582:21014  function _approve(address owner, address spender, uint256 value, bool emitEvent) internal virtual {... */\n    tag_282:\n        /* \"contracts/STEMToken_flattened.sol\":20711:20712  0 */\n      0x00\n        /* \"contracts/STEMToken_flattened.sol\":20694:20713  owner == address(0) */\n      0xffffffffffffffffffffffffffffffffffffffff\n      and\n        /* \"contracts/STEMToken_flattened.sol\":20694:20699  owner */\n      dup5\n        /* \"contracts/STEMToken_flattened.sol\":20694:20713  owner == address(0) */\n      0xffffffffffffffffffffffffffffffffffffffff\n      and\n      sub\n        /* \"contracts/STEMToken_flattened.sol\":20690:20779  if (owner == address(0)) {... */\n      tag_313\n      jumpi\n        /* \"contracts/STEMToken_flattened.sol\":20765:20766  0 */\n      0x00\n        /* \"contracts/STEMToken_flattened.sol\":20736:20768  ERC20InvalidApprover(address(0)) */\n      mload(0x40)\n      0xe602df0500000000000000000000000000000000000000000000000000000000\n      dup2\n      mstore\n      0x04\n      add\n      tag_314\n      swap2\n      swap1\n      tag_76\n      jump\t// in\n    tag_314:\n      mload(0x40)\n      dup1\n      swap2\n      sub\n      swap1\n      revert\n        /* \"contracts/STEMToken_flattened.sol\":20690:20779  if (owner == address(0)) {... */\n    tag_313:\n        /* \"contracts/STEMToken_flattened.sol\":20811:20812  0 */\n      0x00\n        /* \"contracts/STEMToken_flattened.sol\":20792:20813  spender == address(0) */\n      0xffffffffffffffffffffffffffffffffffffffff\n      and\n        /* \"contracts/STEMToken_flattened.sol\":20792:20799  spender */\n      dup4\n        /* \"contracts/STEMToken_flattened.sol\":20792:20813  spender == address(0) */\n      0xffffffffffffffffffffffffffffffffffffffff\n      and\n      sub\n        /* \"contracts/STEMToken_flattened.sol\":20788:20878  if (spender == address(0)) {... */\n      tag_315\n      jumpi\n        /* \"contracts/STEMToken_flattened.sol\":20864:20865  0 */\n      0x00\n        /* \"contracts/STEMToken_flattened.sol\":20836:20867  ERC20InvalidSpender(address(0)) */\n      mload(0x40)\n      0x94280d6200000000000000000000000000000000000000000000000000000000\n      dup2\n      mstore\n      0x04\n      add\n      tag_316\n      swap2\n      swap1\n      tag_76\n      jump\t// in\n    tag_316:\n      mload(0x40)\n      dup1\n      swap2\n      sub\n      swap1\n      revert\n        /* \"contracts/STEMToken_flattened.sol\":20788:20878  if (spender == address(0)) {... */\n    tag_315:\n        /* \"contracts/STEMToken_flattened.sol\":20917:20922  value */\n      dup2\n        /* \"contracts/STEMToken_flattened.sol\":20887:20898  _allowances */\n      0x01\n        /* \"contracts/STEMToken_flattened.sol\":20887:20905  _allowances[owner] */\n      0x00\n        /* \"contracts/STEMToken_flattened.sol\":20899:20904  owner */\n      dup7\n        /* \"contracts/STEMToken_flattened.sol\":20887:20905  _allowances[owner] */\n      0xffffffffffffffffffffffffffffffffffffffff\n      and\n      0xffffffffffffffffffffffffffffffffffffffff\n      and\n      dup2\n      mstore\n      0x20\n      add\n      swap1\n      dup2\n      mstore\n      0x20\n      add\n      0x00\n      keccak256\n        /* \"contracts/STEMToken_flattened.sol\":20887:20914  _allowances[owner][spender] */\n      0x00\n        /* \"contracts/STEMToken_flattened.sol\":20906:20913  spender */\n      dup6\n        /* \"contracts/STEMToken_flattened.sol\":20887:20914  _allowances[owner][spender] */\n      0xffffffffffffffffffffffffffffffffffffffff\n      and\n      0xffffffffffffffffffffffffffffffffffffffff\n      and\n      dup2\n      mstore\n      0x20\n      add\n      swap1\n      dup2\n      mstore\n      0x20\n      add\n      0x00\n      keccak256\n        /* \"contracts/STEMToken_flattened.sol\":20887:20922  _allowances[owner][spender] = value */\n      dup2\n      swap1\n      sstore\n      pop\n        /* \"contracts/STEMToken_flattened.sol\":20936:20945  emitEvent */\n      dup1\n        /* \"contracts/STEMToken_flattened.sol\":20932:21008  if (emitEvent) {... */\n      iszero\n      tag_317\n      jumpi\n        /* \"contracts/STEMToken_flattened.sol\":20982:20989  spender */\n      dup3\n        /* \"contracts/STEMToken_flattened.sol\":20966:20997  Approval(owner, spender, value) */\n      0xffffffffffffffffffffffffffffffffffffffff\n      and\n        /* \"contracts/STEMToken_flattened.sol\":20975:20980  owner */\n      dup5\n        /* \"contracts/STEMToken_flattened.sol\":20966:20997  Approval(owner, spender, value) */\n      0xffffffffffffffffffffffffffffffffffffffff\n      and\n      0x8c5be1e5ebec7d5bd14f71427d1e84f3dd0314c0f7b2291e5b200ac8c7c3b925\n        /* \"contracts/STEMToken_flattened.sol\":20991:20996  value */\n      dup5\n        /* \"contracts/STEMToken_flattened.sol\":20966:20997  Approval(owner, spender, value) */\n      mload(0x40)\n      tag_318\n      swap2\n      swap1\n      tag_56\n      jump\t// in\n    tag_318:\n      mload(0x40)\n      dup1\n      swap2\n      sub\n      swap1\n      log3\n        /* \"contracts/STEMToken_flattened.sol\":20932:21008  if (emitEvent) {... */\n    tag_317:\n        /* \"contracts/STEMToken_flattened.sol\":20582:21014  function _approve(address owner, address spender, uint256 value, bool emitEvent) internal virtual {... */\n      pop\n      pop\n      pop\n      pop\n      jump\t// out\n        /* \"contracts/STEMToken_flattened.sol\":16889:17996  function _update(address from, address to, uint256 value) internal virtual {... */\n    tag_302:\n        /* \"contracts/STEMToken_flattened.sol\":16994:16995  0 */\n      0x00\n        /* \"contracts/STEMToken_flattened.sol\":16978:16996  from == address(0) */\n      0xffffffffffffffffffffffffffffffffffffffff\n      and\n        /* \"contracts/STEMToken_flattened.sol\":16978:16982  from */\n      dup4\n        /* \"contracts/STEMToken_flattened.sol\":16978:16996  from == address(0) */\n      0xffffffffffffffffffffffffffffffffffffffff\n      and\n      sub\n        /* \"contracts/STEMToken_flattened.sol\":16974:17514  if (from == address(0)) {... */\n      tag_320\n      jumpi\n        /* \"contracts/STEMToken_flattened.sol\":17130:17135  value */\n      dup1\n        /* \"contracts/STEMToken_flattened.sol\":17114:17126  _totalSupply */\n      0x02\n      0x00\n        /* \"contracts/STEMToken_flattened.sol\":17114:17135  _totalSupply += value */\n      dup3\n      dup3\n      sload\n      tag_321\n      swap2\n      swap1\n      tag_322\n      jump\t// in\n    tag_321:\n      swap3\n      pop\n      pop\n      dup2\n      swap1\n      sstore\n      pop\n        /* \"contracts/STEMToken_flattened.sol\":16974:17514  if (from == address(0)) {... */\n      jump(tag_323)\n    tag_320:\n        /* \"contracts/STEMToken_flattened.sol\":17166:17185  uint256 fromBalance */\n      0x00\n        /* \"contracts/STEMToken_flattened.sol\":17188:17197  _balances */\n      dup1\n        /* \"contracts/STEMToken_flattened.sol\":17188:17203  _balances[from] */\n      0x00\n        /* \"contracts/STEMToken_flattened.sol\":17198:17202  from */\n      dup6\n        /* \"contracts/STEMToken_flattened.sol\":17188:17203  _balances[from] */\n      0xffffffffffffffffffffffffffffffffffffffff\n      and\n      0xffffffffffffffffffffffffffffffffffffffff\n      and\n      dup2\n      mstore\n      0x20\n      add\n      swap1\n      dup2\n      mstore\n      0x20\n      add\n      0x00\n      keccak256\n      sload\n        /* \"contracts/STEMToken_flattened.sol\":17166:17203  uint256 fromBalance = _balances[from] */\n      swap1\n      pop\n        /* \"contracts/STEMToken_flattened.sol\":17235:17240  value */\n      dup2\n        /* \"contracts/STEMToken_flattened.sol\":17221:17232  fromBalance */\n      dup2\n        /* \"contracts/STEMToken_flattened.sol\":17221:17240  fromBalance < value */\n      lt\n        /* \"contracts/STEMToken_flattened.sol\":17217:17332  if (fromBalance < value) {... */\n      iszero\n      tag_324\n      jumpi\n        /* \"contracts/STEMToken_flattened.sol\":17292:17296  from */\n      dup4\n        /* \"contracts/STEMToken_flattened.sol\":17298:17309  fromBalance */\n      dup2\n        /* \"contracts/STEMToken_flattened.sol\":17311:17316  value */\n      dup4\n        /* \"contracts/STEMToken_flattened.sol\":17267:17317  ERC20InsufficientBalance(from, fromBalance, value) */\n      mload(0x40)\n      0xe450d38c00000000000000000000000000000000000000000000000000000000\n      dup2\n      mstore\n      0x04\n      add\n      tag_325\n      swap4\n      swap3\n      swap2\n      swap1\n      tag_294\n      jump\t// in\n    tag_325:\n      mload(0x40)\n      dup1\n      swap2\n      sub\n      swap1\n      revert\n        /* \"contracts/STEMToken_flattened.sol\":17217:17332  if (fromBalance < value) {... */\n    tag_324:\n        /* \"contracts/STEMToken_flattened.sol\":17484:17489  value */\n      dup2\n        /* \"contracts/STEMToken_flattened.sol\":17470:17481  fromBalance */\n      dup2\n        /* \"contracts/STEMToken_flattened.sol\":17470:17489  fromBalance - value */\n      sub\n        /* \"contracts/STEMToken_flattened.sol\":17452:17461  _balances */\n      0x00\n        /* \"contracts/STEMToken_flattened.sol\":17452:17467  _balances[from] */\n      dup1\n        /* \"contracts/STEMToken_flattened.sol\":17462:17466  from */\n      dup7\n        /* \"contracts/STEMToken_flattened.sol\":17452:17467  _balances[from] */\n      0xffffffffffffffffffffffffffffffffffffffff\n      and\n      0xffffffffffffffffffffffffffffffffffffffff\n      and\n      dup2\n      mstore\n      0x20\n      add\n      swap1\n      dup2\n      mstore\n      0x20\n      add\n      0x00\n      keccak256\n        /* \"contracts/STEMToken_flattened.sol\":17452:17489  _balances[from] = fromBalance - value */\n      dup2\n      swap1\n      sstore\n      pop\n        /* \"contracts/STEMToken_flattened.sol\":17152:17514  {... */\n      pop\n        /* \"contracts/STEMToken_flattened.sol\":16974:17514  if (from == address(0)) {... */\n    tag_323:\n        /* \"contracts/STEMToken_flattened.sol\":17542:17543  0 */\n      0x00\n        /* \"contracts/STEMToken_flattened.sol\":17528:17544  to == address(0) */\n      0xffffffffffffffffffffffffffffffffffffffff\n      and\n        /* \"contracts/STEMToken_flattened.sol\":17528:17530  to */\n      dup3\n        /* \"contracts/STEMToken_flattened.sol\":17528:17544  to == address(0) */\n      0xffffffffffffffffffffffffffffffffffffffff\n      and\n      sub\n        /* \"contracts/STEMToken_flattened.sol\":17524:17949  if (to == address(0)) {... */\n      tag_326\n      jumpi\n        /* \"contracts/STEMToken_flattened.sol\":17707:17712  value */\n      dup1\n        /* \"contracts/STEMToken_flattened.sol\":17691:17703  _totalSupply */\n      0x02\n      0x00\n        /* \"contracts/STEMToken_flattened.sol\":17691:17712  _totalSupply -= value */\n      dup3\n      dup3\n      sload\n      sub\n      swap3\n      pop\n      pop\n      dup2\n      swap1\n      sstore\n      pop\n        /* \"contracts/STEMToken_flattened.sol\":17524:17949  if (to == address(0)) {... */\n      jump(tag_327)\n    tag_326:\n        /* \"contracts/STEMToken_flattened.sol\":17919:17924  value */\n      dup1\n        /* \"contracts/STEMToken_flattened.sol\":17902:17911  _balances */\n      0x00\n        /* \"contracts/STEMToken_flattened.sol\":17902:17915  _balances[to] */\n      dup1\n        /* \"contracts/STEMToken_flattened.sol\":17912:17914  to */\n      dup5\n        /* \"contracts/STEMToken_flattened.sol\":17902:17915  _balances[to] */\n      0xffffffffffffffffffffffffffffffffffffffff\n      and\n      0xffffffffffffffffffffffffffffffffffffffff\n      and\n      dup2\n      mstore\n      0x20\n      add\n      swap1\n      dup2\n      mstore\n      0x20\n      add\n      0x00\n      keccak256\n      0x00\n        /* \"contracts/STEMToken_flattened.sol\":17902:17924  _balances[to] += value */\n      dup3\n      dup3\n      sload\n      add\n      swap3\n      pop\n      pop\n      dup2\n      swap1\n      sstore\n      pop\n        /* \"contracts/STEMToken_flattened.sol\":17524:17949  if (to == address(0)) {... */\n    tag_327:\n        /* \"contracts/STEMToken_flattened.sol\":17979:17981  to */\n      dup2\n        /* \"contracts/STEMToken_flattened.sol\":17964:17989  Transfer(from, to, value) */\n      0xffffffffffffffffffffffffffffffffffffffff\n      and\n        /* \"contracts/STEMToken_flattened.sol\":17973:17977  from */\n      dup4\n        /* \"contracts/STEMToken_flattened.sol\":17964:17989  Transfer(from, to, value) */\n      0xffffffffffffffffffffffffffffffffffffffff\n      and\n      0xddf252ad1be2c89b69c2b068fc378daa952ba7f163c4a11628f55a4df523b3ef\n        /* \"contracts/STEMToken_flattened.sol\":17983:17988  value */\n      dup4\n        /* \"contracts/STEMToken_flattened.sol\":17964:17989  Transfer(from, to, value) */\n      mload(0x40)\n      tag_328\n      swap2\n      swap1\n      tag_56\n      jump\t// in\n    tag_328:\n      mload(0x40)\n      dup1\n      swap2\n      sub\n      swap1\n      log3\n        /* \"contracts/STEMToken_flattened.sol\":16889:17996  function _update(address from, address to, uint256 value) internal virtual {... */\n      pop\n      pop\n      pop\n      jump\t// out\n        /* \"#utility.yul\":7:106   */\n    tag_329:\n        /* \"#utility.yul\":59:65   */\n      0x00\n        /* \"#utility.yul\":93:98   */\n      dup2\n        /* \"#utility.yul\":87:99   */\n      mload\n        /* \"#utility.yul\":77:99   */\n      swap1\n      pop\n        /* \"#utility.yul\":7:106   */\n      swap2\n      swap1\n      pop\n      jump\t// out\n        /* \"#utility.yul\":112:281   */\n    tag_330:\n        /* \"#utility.yul\":196:207   */\n      0x00\n        /* \"#utility.yul\":230:236   */\n      dup3\n        /* \"#utility.yul\":225:228   */\n      dup3\n        /* \"#utility.yul\":218:237   */\n      mstore\n        /* \"#utility.yul\":270:274   */\n      0x20\n        /* \"#utility.yul\":265:268   */\n      dup3\n        /* \"#utility.yul\":261:275   */\n      add\n        /* \"#utility.yul\":246:275   */\n      swap1\n      pop\n        /* \"#utility.yul\":112:281   */\n      swap3\n      swap2\n      pop\n      pop\n      jump\t// out\n        /* \"#utility.yul\":287:533   */\n    tag_331:\n        /* \"#utility.yul\":368:369   */\n      0x00\n        /* \"#utility.yul\":378:491   */\n    tag_379:\n        /* \"#utility.yul\":392:398   */\n      dup4\n        /* \"#utility.yul\":389:390   */\n      dup2\n        /* \"#utility.yul\":386:399   */\n      lt\n        /* \"#utility.yul\":378:491   */\n      iszero\n      tag_381\n      jumpi\n        /* \"#utility.yul\":477:478   */\n      dup1\n        /* \"#utility.yul\":472:475   */\n      dup3\n        /* \"#utility.yul\":468:479   */\n      add\n        /* \"#utility.yul\":462:480   */\n      mload\n        /* \"#utility.yul\":458:459   */\n      dup2\n        /* \"#utility.yul\":453:456   */\n      dup5\n        /* \"#utility.yul\":449:460   */\n      add\n        /* \"#utility.yul\":442:481   */\n      mstore\n        /* \"#utility.yul\":414:416   */\n      0x20\n        /* \"#utility.yul\":411:412   */\n      dup2\n        /* \"#utility.yul\":407:417   */\n      add\n        /* \"#utility.yul\":402:417   */\n      swap1\n      pop\n        /* \"#utility.yul\":378:491   */\n      jump(tag_379)\n    tag_381:\n        /* \"#utility.yul\":525:526   */\n      0x00\n        /* \"#utility.yul\":516:522   */\n      dup5\n        /* \"#utility.yul\":511:514   */\n      dup5\n        /* \"#utility.yul\":507:523   */\n      add\n        /* \"#utility.yul\":500:527   */\n      mstore\n        /* \"#utility.yul\":349:533   */\n      pop\n        /* \"#utility.yul\":287:533   */\n      pop\n      pop\n      pop\n      jump\t// out\n        /* \"#utility.yul\":539:641   */\n    tag_332:\n        /* \"#utility.yul\":580:586   */\n      0x00\n        /* \"#utility.yul\":631:633   */\n      0x1f\n        /* \"#utility.yul\":627:634   */\n      not\n        /* \"#utility.yul\":622:624   */\n      0x1f\n        /* \"#utility.yul\":615:620   */\n      dup4\n        /* \"#utility.yul\":611:625   */\n      add\n        /* \"#utility.yul\":607:635   */\n      and\n        /* \"#utility.yul\":597:635   */\n      swap1\n      pop\n        /* \"#utility.yul\":539:641   */\n      swap2\n      swap1\n      pop\n      jump\t// out\n        /* \"#utility.yul\":647:1024   */\n    tag_333:\n        /* \"#utility.yul\":735:738   */\n      0x00\n        /* \"#utility.yul\":763:802   */\n      tag_384\n        /* \"#utility.yul\":796:801   */\n      dup3\n        /* \"#utility.yul\":763:802   */\n      tag_329\n      jump\t// in\n    tag_384:\n        /* \"#utility.yul\":818:889   */\n      tag_385\n        /* \"#utility.yul\":882:888   */\n      dup2\n        /* \"#utility.yul\":877:880   */\n      dup6\n        /* \"#utility.yul\":818:889   */\n      tag_330\n      jump\t// in\n    tag_385:\n        /* \"#utility.yul\":811:889   */\n      swap4\n      pop\n        /* \"#utility.yul\":898:963   */\n      tag_386\n        /* \"#utility.yul\":956:962   */\n      dup2\n        /* \"#utility.yul\":951:954   */\n      dup6\n        /* \"#utility.yul\":944:948   */\n      0x20\n        /* \"#utility.yul\":937:942   */\n      dup7\n        /* \"#utility.yul\":933:949   */\n      add\n        /* \"#utility.yul\":898:963   */\n      tag_331\n      jump\t// in\n    tag_386:\n        /* \"#utility.yul\":988:1017   */\n      tag_387\n        /* \"#utility.yul\":1010:1016   */\n      dup2\n        /* \"#utility.yul\":988:1017   */\n      tag_332\n      jump\t// in\n    tag_387:\n        /* \"#utility.yul\":983:986   */\n      dup5\n        /* \"#utility.yul\":979:1018   */\n      add\n        /* \"#utility.yul\":972:1018   */\n      swap2\n      pop\n        /* \"#utility.yul\":739:1024   */\n      pop\n        /* \"#utility.yul\":647:1024   */\n      swap3\n      swap2\n      pop\n      pop\n      jump\t// out\n        /* \"#utility.yul\":1030:1343   */\n    tag_39:\n        /* \"#utility.yul\":1143:1147   */\n      0x00\n        /* \"#utility.yul\":1181:1183   */\n      0x20\n        /* \"#utility.yul\":1170:1179   */\n      dup3\n        /* \"#utility.yul\":1166:1184   */\n      add\n        /* \"#utility.yul\":1158:1184   */\n      swap1\n      pop\n        /* \"#utility.yul\":1230:1239   */\n      dup2\n        /* \"#utility.yul\":1224:1228   */\n      dup2\n        /* \"#utility.yul\":1220:1240   */\n      sub\n        /* \"#utility.yul\":1216:1217   */\n      0x00\n        /* \"#utility.yul\":1205:1214   */\n      dup4\n        /* \"#utility.yul\":1201:1218   */\n      add\n        /* \"#utility.yul\":1194:1241   */\n      mstore\n        /* \"#utility.yul\":1258:1336   */\n      tag_389\n        /* \"#utility.yul\":1331:1335   */\n      dup2\n        /* \"#utility.yul\":1322:1328   */\n      dup5\n        /* \"#utility.yul\":1258:1336   */\n      tag_333\n      jump\t// in\n    tag_389:\n        /* \"#utility.yul\":1250:1336   */\n      swap1\n      pop\n        /* \"#utility.yul\":1030:1343   */\n      swap3\n      swap2\n      pop\n      pop\n      jump\t// out\n        /* \"#utility.yul\":1430:1547   */\n    tag_335:\n        /* \"#utility.yul\":1539:1540   */\n      0x00\n        /* \"#utility.yul\":1536:1537   */\n      dup1\n        /* \"#utility.yul\":1529:1541   */\n      revert\n        /* \"#utility.yul\":1676:1802   */\n    tag_337:\n        /* \"#utility.yul\":1713:1720   */\n      0x00\n        /* \"#utility.yul\":1753:1795   */\n      0xffffffffffffffffffffffffffffffffffffffff\n        /* \"#utility.yul\":1746:1751   */\n      dup3\n        /* \"#utility.yul\":1742:1796   */\n      and\n        /* \"#utility.yul\":1731:1796   */\n      swap1\n      pop\n        /* \"#utility.yul\":1676:1802   */\n      swap2\n      swap1\n      pop\n      jump\t// out\n        /* \"#utility.yul\":1808:1904   */\n    tag_338:\n        /* \"#utility.yul\":1845:1852   */\n      0x00\n        /* \"#utility.yul\":1874:1898   */\n      tag_395\n        /* \"#utility.yul\":1892:1897   */\n      dup3\n        /* \"#utility.yul\":1874:1898   */\n      tag_337\n      jump\t// in\n    tag_395:\n        /* \"#utility.yul\":1863:1898   */\n      swap1\n      pop\n        /* \"#utility.yul\":1808:1904   */\n      swap2\n      swap1\n      pop\n      jump\t// out\n        /* \"#utility.yul\":1910:2032   */\n    tag_339:\n        /* \"#utility.yul\":1983:2007   */\n      tag_397\n        /* \"#utility.yul\":2001:2006   */\n      dup2\n        /* \"#utility.yul\":1983:2007   */\n      tag_338\n      jump\t// in\n    tag_397:\n        /* \"#utility.yul\":1976:1981   */\n      dup2\n        /* \"#utility.yul\":1973:2008   */\n      eq\n        /* \"#utility.yul\":1963:2026   */\n      tag_398\n      jumpi\n        /* \"#utility.yul\":2022:2023   */\n      0x00\n        /* \"#utility.yul\":2019:2020   */\n      dup1\n        /* \"#utility.yul\":2012:2024   */\n      revert\n        /* \"#utility.yul\":1963:2026   */\n    tag_398:\n        /* \"#utility.yul\":1910:2032   */\n      pop\n      jump\t// out\n        /* \"#utility.yul\":2038:2177   */\n    tag_340:\n        /* \"#utility.yul\":2084:2089   */\n      0x00\n        /* \"#utility.yul\":2122:2128   */\n      dup2\n        /* \"#utility.yul\":2109:2129   */\n      calldataload\n        /* \"#utility.yul\":2100:2129   */\n      swap1\n      pop\n        /* \"#utility.yul\":2138:2171   */\n      tag_400\n        /* \"#utility.yul\":2165:2170   */\n      dup2\n        /* \"#utility.yul\":2138:2171   */\n      tag_339\n      jump\t// in\n    tag_400:\n        /* \"#utility.yul\":2038:2177   */\n      swap3\n      swap2\n      pop\n      pop\n      jump\t// out\n        /* \"#utility.yul\":2183:2260   */\n    tag_341:\n        /* \"#utility.yul\":2220:2227   */\n      0x00\n        /* \"#utility.yul\":2249:2254   */\n      dup2\n        /* \"#utility.yul\":2238:2254   */\n      swap1\n      pop\n        /* \"#utility.yul\":2183:2260   */\n      swap2\n      swap1\n      pop\n      jump\t// out\n        /* \"#utility.yul\":2266:2388   */\n    tag_342:\n        /* \"#utility.yul\":2339:2363   */\n      tag_403\n        /* \"#utility.yul\":2357:2362   */\n      dup2\n        /* \"#utility.yul\":2339:2363   */\n      tag_341\n      jump\t// in\n    tag_403:\n        /* \"#utility.yul\":2332:2337   */\n      dup2\n        /* \"#utility.yul\":2329:2364   */\n      eq\n        /* \"#utility.yul\":2319:2382   */\n      tag_404\n      jumpi\n        /* \"#utility.yul\":2378:2379   */\n      0x00\n        /* \"#utility.yul\":2375:2376   */\n      dup1\n        /* \"#utility.yul\":2368:2380   */\n      revert\n        /* \"#utility.yul\":2319:2382   */\n    tag_404:\n        /* \"#utility.yul\":2266:2388   */\n      pop\n      jump\t// out\n        /* \"#utility.yul\":2394:2533   */\n    tag_343:\n        /* \"#utility.yul\":2440:2445   */\n      0x00\n        /* \"#utility.yul\":2478:2484   */\n      dup2\n        /* \"#utility.yul\":2465:2485   */\n      calldataload\n        /* \"#utility.yul\":2456:2485   */\n      swap1\n      pop\n        /* \"#utility.yul\":2494:2527   */\n      tag_406\n        /* \"#utility.yul\":2521:2526   */\n      dup2\n        /* \"#utility.yul\":2494:2527   */\n      tag_342\n      jump\t// in\n    tag_406:\n        /* \"#utility.yul\":2394:2533   */\n      swap3\n      swap2\n      pop\n      pop\n      jump\t// out\n        /* \"#utility.yul\":2539:3013   */\n    tag_42:\n        /* \"#utility.yul\":2607:2613   */\n      0x00\n        /* \"#utility.yul\":2615:2621   */\n      dup1\n        /* \"#utility.yul\":2664:2666   */\n      0x40\n        /* \"#utility.yul\":2652:2661   */\n      dup4\n        /* \"#utility.yul\":2643:2650   */\n      dup6\n        /* \"#utility.yul\":2639:2662   */\n      sub\n        /* \"#utility.yul\":2635:2667   */\n      slt\n        /* \"#utility.yul\":2632:2751   */\n      iszero\n      tag_408\n      jumpi\n        /* \"#utility.yul\":2670:2749   */\n      tag_409\n      tag_335\n      jump\t// in\n    tag_409:\n        /* \"#utility.yul\":2632:2751   */\n    tag_408:\n        /* \"#utility.yul\":2790:2791   */\n      0x00\n        /* \"#utility.yul\":2815:2868   */\n      tag_410\n        /* \"#utility.yul\":2860:2867   */\n      dup6\n        /* \"#utility.yul\":2851:2857   */\n      dup3\n        /* \"#utility.yul\":2840:2849   */\n      dup7\n        /* \"#utility.yul\":2836:2858   */\n      add\n        /* \"#utility.yul\":2815:2868   */\n      tag_340\n      jump\t// in\n    tag_410:\n        /* \"#utility.yul\":2805:2868   */\n      swap3\n      pop\n        /* \"#utility.yul\":2761:2878   */\n      pop\n        /* \"#utility.yul\":2917:2919   */\n      0x20\n        /* \"#utility.yul\":2943:2996   */\n      tag_411\n        /* \"#utility.yul\":2988:2995   */\n      dup6\n        /* \"#utility.yul\":2979:2985   */\n      dup3\n        /* \"#utility.yul\":2968:2977   */\n      dup7\n        /* \"#utility.yul\":2964:2986   */\n      add\n        /* \"#utility.yul\":2943:2996   */\n      tag_343\n      jump\t// in\n    tag_411:\n        /* \"#utility.yul\":2933:2996   */\n      swap2\n      pop\n        /* \"#utility.yul\":2888:3006   */\n      pop\n        /* \"#utility.yul\":2539:3013   */\n      swap3\n      pop\n      swap3\n      swap1\n      pop\n      jump\t// out\n        /* \"#utility.yul\":3019:3109   */\n    tag_344:\n        /* \"#utility.yul\":3053:3060   */\n      0x00\n        /* \"#utility.yul\":3096:3101   */\n      dup2\n        /* \"#utility.yul\":3089:3102   */\n      iszero\n        /* \"#utility.yul\":3082:3103   */\n      iszero\n        /* \"#utility.yul\":3071:3103   */\n      swap1\n      pop\n        /* \"#utility.yul\":3019:3109   */\n      swap2\n      swap1\n      pop\n      jump\t// out\n        /* \"#utility.yul\":3115:3224   */\n    tag_345:\n        /* \"#utility.yul\":3196:3217   */\n      tag_414\n        /* \"#utility.yul\":3211:3216   */\n      dup2\n        /* \"#utility.yul\":3196:3217   */\n      tag_344\n      jump\t// in\n    tag_414:\n        /* \"#utility.yul\":3191:3194   */\n      dup3\n        /* \"#utility.yul\":3184:3218   */\n      mstore\n        /* \"#utility.yul\":3115:3224   */\n      pop\n      pop\n      jump\t// out\n        /* \"#utility.yul\":3230:3440   */\n    tag_45:\n        /* \"#utility.yul\":3317:3321   */\n      0x00\n        /* \"#utility.yul\":3355:3357   */\n      0x20\n        /* \"#utility.yul\":3344:3353   */\n      dup3\n        /* \"#utility.yul\":3340:3358   */\n      add\n        /* \"#utility.yul\":3332:3358   */\n      swap1\n      pop\n        /* \"#utility.yul\":3368:3433   */\n      tag_416\n        /* \"#utility.yul\":3430:3431   */\n      0x00\n        /* \"#utility.yul\":3419:3428   */\n      dup4\n        /* \"#utility.yul\":3415:3432   */\n      add\n        /* \"#utility.yul\":3406:3412   */\n      dup5\n        /* \"#utility.yul\":3368:3433   */\n      tag_345\n      jump\t// in\n    tag_416:\n        /* \"#utility.yul\":3230:3440   */\n      swap3\n      swap2\n      pop\n      pop\n      jump\t// out\n        /* \"#utility.yul\":3446:3775   */\n    tag_48:\n        /* \"#utility.yul\":3505:3511   */\n      0x00\n        /* \"#utility.yul\":3554:3556   */\n      0x20\n        /* \"#utility.yul\":3542:3551   */\n      dup3\n        /* \"#utility.yul\":3533:3540   */\n      dup5\n        /* \"#utility.yul\":3529:3552   */\n      sub\n        /* \"#utility.yul\":3525:3557   */\n      slt\n        /* \"#utility.yul\":3522:3641   */\n      iszero\n      tag_418\n      jumpi\n        /* \"#utility.yul\":3560:3639   */\n      tag_419\n      tag_335\n      jump\t// in\n    tag_419:\n        /* \"#utility.yul\":3522:3641   */\n    tag_418:\n        /* \"#utility.yul\":3680:3681   */\n      0x00\n        /* \"#utility.yul\":3705:3758   */\n      tag_420\n        /* \"#utility.yul\":3750:3757   */\n      dup5\n        /* \"#utility.yul\":3741:3747   */\n      dup3\n        /* \"#utility.yul\":3730:3739   */\n      dup6\n        /* \"#utility.yul\":3726:3748   */\n      add\n        /* \"#utility.yul\":3705:3758   */\n      tag_340\n      jump\t// in\n    tag_420:\n        /* \"#utility.yul\":3695:3758   */\n      swap2\n      pop\n        /* \"#utility.yul\":3651:3768   */\n      pop\n        /* \"#utility.yul\":3446:3775   */\n      swap3\n      swap2\n      pop\n      pop\n      jump\t// out\n        /* \"#utility.yul\":3781:3899   */\n    tag_346:\n        /* \"#utility.yul\":3868:3892   */\n      tag_422\n        /* \"#utility.yul\":3886:3891   */\n      dup2\n        /* \"#utility.yul\":3868:3892   */\n      tag_341\n      jump\t// in\n    tag_422:\n        /* \"#utility.yul\":3863:3866   */\n      dup3\n        /* \"#utility.yul\":3856:3893   */\n      mstore\n        /* \"#utility.yul\":3781:3899   */\n      pop\n      pop\n      jump\t// out\n        /* \"#utility.yul\":3905:4127   */\n    tag_56:\n        /* \"#utility.yul\":3998:4002   */\n      0x00\n        /* \"#utility.yul\":4036:4038   */\n      0x20\n        /* \"#utility.yul\":4025:4034   */\n      dup3\n        /* \"#utility.yul\":4021:4039   */\n      add\n        /* \"#utility.yul\":4013:4039   */\n      swap1\n      pop\n        /* \"#utility.yul\":4049:4120   */\n      tag_424\n        /* \"#utility.yul\":4117:4118   */\n      0x00\n        /* \"#utility.yul\":4106:4115   */\n      dup4\n        /* \"#utility.yul\":4102:4119   */\n      add\n        /* \"#utility.yul\":4093:4099   */\n      dup5\n        /* \"#utility.yul\":4049:4120   */\n      tag_346\n      jump\t// in\n    tag_424:\n        /* \"#utility.yul\":3905:4127   */\n      swap3\n      swap2\n      pop\n      pop\n      jump\t// out\n        /* \"#utility.yul\":4133:4752   */\n    tag_59:\n        /* \"#utility.yul\":4210:4216   */\n      0x00\n        /* \"#utility.yul\":4218:4224   */\n      dup1\n        /* \"#utility.yul\":4226:4232   */\n      0x00\n        /* \"#utility.yul\":4275:4277   */\n      0x60\n        /* \"#utility.yul\":4263:4272   */\n      dup5\n        /* \"#utility.yul\":4254:4261   */\n      dup7\n        /* \"#utility.yul\":4250:4273   */\n      sub\n        /* \"#utility.yul\":4246:4278   */\n      slt\n        /* \"#utility.yul\":4243:4362   */\n      iszero\n      tag_426\n      jumpi\n        /* \"#utility.yul\":4281:4360   */\n      tag_427\n      tag_335\n      jump\t// in\n    tag_427:\n        /* \"#utility.yul\":4243:4362   */\n    tag_426:\n        /* \"#utility.yul\":4401:4402   */\n      0x00\n        /* \"#utility.yul\":4426:4479   */\n      tag_428\n        /* \"#utility.yul\":4471:4478   */\n      dup7\n        /* \"#utility.yul\":4462:4468   */\n      dup3\n        /* \"#utility.yul\":4451:4460   */\n      dup8\n        /* \"#utility.yul\":4447:4469   */\n      add\n        /* \"#utility.yul\":4426:4479   */\n      tag_340\n      jump\t// in\n    tag_428:\n        /* \"#utility.yul\":4416:4479   */\n      swap4\n      pop\n        /* \"#utility.yul\":4372:4489   */\n      pop\n        /* \"#utility.yul\":4528:4530   */\n      0x20\n        /* \"#utility.yul\":4554:4607   */\n      tag_429\n        /* \"#utility.yul\":4599:4606   */\n      dup7\n        /* \"#utility.yul\":4590:4596   */\n      dup3\n        /* \"#utility.yul\":4579:4588   */\n      dup8\n        /* \"#utility.yul\":4575:4597   */\n      add\n        /* \"#utility.yul\":4554:4607   */\n      tag_340\n      jump\t// in\n    tag_429:\n        /* \"#utility.yul\":4544:4607   */\n      swap3\n      pop\n        /* \"#utility.yul\":4499:4617   */\n      pop\n        /* \"#utility.yul\":4656:4658   */\n      0x40\n        /* \"#utility.yul\":4682:4735   */\n      tag_430\n        /* \"#utility.yul\":4727:4734   */\n      dup7\n        /* \"#utility.yul\":4718:4724   */\n      dup3\n        /* \"#utility.yul\":4707:4716   */\n      dup8\n        /* \"#utility.yul\":4703:4725   */\n      add\n        /* \"#utility.yul\":4682:4735   */\n      tag_343\n      jump\t// in\n    tag_430:\n        /* \"#utility.yul\":4672:4735   */\n      swap2\n      pop\n        /* \"#utility.yul\":4627:4745   */\n      pop\n        /* \"#utility.yul\":4133:4752   */\n      swap3\n      pop\n      swap3\n      pop\n      swap3\n      jump\t// out\n        /* \"#utility.yul\":4758:4844   */\n    tag_347:\n        /* \"#utility.yul\":4793:4800   */\n      0x00\n        /* \"#utility.yul\":4833:4837   */\n      0xff\n        /* \"#utility.yul\":4826:4831   */\n      dup3\n        /* \"#utility.yul\":4822:4838   */\n      and\n        /* \"#utility.yul\":4811:4838   */\n      swap1\n      pop\n        /* \"#utility.yul\":4758:4844   */\n      swap2\n      swap1\n      pop\n      jump\t// out\n        /* \"#utility.yul\":4850:4962   */\n    tag_348:\n        /* \"#utility.yul\":4933:4955   */\n      tag_433\n        /* \"#utility.yul\":4949:4954   */\n      dup2\n        /* \"#utility.yul\":4933:4955   */\n      tag_347\n      jump\t// in\n    tag_433:\n        /* \"#utility.yul\":4928:4931   */\n      dup3\n        /* \"#utility.yul\":4921:4956   */\n      mstore\n        /* \"#utility.yul\":4850:4962   */\n      pop\n      pop\n      jump\t// out\n        /* \"#utility.yul\":4968:5182   */\n    tag_65:\n        /* \"#utility.yul\":5057:5061   */\n      0x00\n        /* \"#utility.yul\":5095:5097   */\n      0x20\n        /* \"#utility.yul\":5084:5093   */\n      dup3\n        /* \"#utility.yul\":5080:5098   */\n      add\n        /* \"#utility.yul\":5072:5098   */\n      swap1\n      pop\n        /* \"#utility.yul\":5108:5175   */\n      tag_435\n        /* \"#utility.yul\":5172:5173   */\n      0x00\n        /* \"#utility.yul\":5161:5170   */\n      dup4\n        /* \"#utility.yul\":5157:5174   */\n      add\n        /* \"#utility.yul\":5148:5154   */\n      dup5\n        /* \"#utility.yul\":5108:5175   */\n      tag_348\n      jump\t// in\n    tag_435:\n        /* \"#utility.yul\":4968:5182   */\n      swap3\n      swap2\n      pop\n      pop\n      jump\t// out\n        /* \"#utility.yul\":5188:5517   */\n    tag_71:\n        /* \"#utility.yul\":5247:5253   */\n      0x00\n        /* \"#utility.yul\":5296:5298   */\n      0x20\n        /* \"#utility.yul\":5284:5293   */\n      dup3\n        /* \"#utility.yul\":5275:5282   */\n      dup5\n        /* \"#utility.yul\":5271:5294   */\n      sub\n        /* \"#utility.yul\":5267:5299   */\n      slt\n        /* \"#utility.yul\":5264:5383   */\n      iszero\n      tag_437\n      jumpi\n        /* \"#utility.yul\":5302:5381   */\n      tag_438\n      tag_335\n      jump\t// in\n    tag_438:\n        /* \"#utility.yul\":5264:5383   */\n    tag_437:\n        /* \"#utility.yul\":5422:5423   */\n      0x00\n        /* \"#utility.yul\":5447:5500   */\n      tag_439\n        /* \"#utility.yul\":5492:5499   */\n      dup5\n        /* \"#utility.yul\":5483:5489   */\n      dup3\n        /* \"#utility.yul\":5472:5481   */\n      dup6\n        /* \"#utility.yul\":5468:5490   */\n      add\n        /* \"#utility.yul\":5447:5500   */\n      tag_343\n      jump\t// in\n    tag_439:\n        /* \"#utility.yul\":5437:5500   */\n      swap2\n      pop\n        /* \"#utility.yul\":5393:5510   */\n      pop\n        /* \"#utility.yul\":5188:5517   */\n      swap3\n      swap2\n      pop\n      pop\n      jump\t// out\n        /* \"#utility.yul\":5523:5641   */\n    tag_349:\n        /* \"#utility.yul\":5610:5634   */\n      tag_441\n        /* \"#utility.yul\":5628:5633   */\n      dup2\n        /* \"#utility.yul\":5610:5634   */\n      tag_338\n      jump\t// in\n    tag_441:\n        /* \"#utility.yul\":5605:5608   */\n      dup3\n        /* \"#utility.yul\":5598:5635   */\n      mstore\n        /* \"#utility.yul\":5523:5641   */\n      pop\n      pop\n      jump\t// out\n        /* \"#utility.yul\":5647:5869   */\n    tag_76:\n        /* \"#utility.yul\":5740:5744   */\n      0x00\n        /* \"#utility.yul\":5778:5780   */\n      0x20\n        /* \"#utility.yul\":5767:5776   */\n      dup3\n        /* \"#utility.yul\":5763:5781   */\n      add\n        /* \"#utility.yul\":5755:5781   */\n      swap1\n      pop\n        /* \"#utility.yul\":5791:5862   */\n      tag_443\n        /* \"#utility.yul\":5859:5860   */\n      0x00\n        /* \"#utility.yul\":5848:5857   */\n      dup4\n        /* \"#utility.yul\":5844:5861   */\n      add\n        /* \"#utility.yul\":5835:5841   */\n      dup5\n        /* \"#utility.yul\":5791:5862   */\n      tag_349\n      jump\t// in\n    tag_443:\n        /* \"#utility.yul\":5647:5869   */\n      swap3\n      swap2\n      pop\n      pop\n      jump\t// out\n        /* \"#utility.yul\":5875:5935   */\n    tag_350:\n        /* \"#utility.yul\":5903:5906   */\n      0x00\n        /* \"#utility.yul\":5924:5929   */\n      dup2\n        /* \"#utility.yul\":5917:5929   */\n      swap1\n      pop\n        /* \"#utility.yul\":5875:5935   */\n      swap2\n      swap1\n      pop\n      jump\t// out\n        /* \"#utility.yul\":5941:6083   */\n    tag_351:\n        /* \"#utility.yul\":5991:6000   */\n      0x00\n        /* \"#utility.yul\":6024:6077   */\n      tag_446\n        /* \"#utility.yul\":6042:6076   */\n      tag_447\n        /* \"#utility.yul\":6051:6075   */\n      tag_448\n        /* \"#utility.yul\":6069:6074   */\n      dup5\n        /* \"#utility.yul\":6051:6075   */\n      tag_337\n      jump\t// in\n    tag_448:\n        /* \"#utility.yul\":6042:6076   */\n      tag_350\n      jump\t// in\n    tag_447:\n        /* \"#utility.yul\":6024:6077   */\n      tag_337\n      jump\t// in\n    tag_446:\n        /* \"#utility.yul\":6011:6077   */\n      swap1\n      pop\n        /* \"#utility.yul\":5941:6083   */\n      swap2\n      swap1\n      pop\n      jump\t// out\n        /* \"#utility.yul\":6089:6215   */\n    tag_352:\n        /* \"#utility.yul\":6139:6148   */\n      0x00\n        /* \"#utility.yul\":6172:6209   */\n      tag_450\n        /* \"#utility.yul\":6203:6208   */\n      dup3\n        /* \"#utility.yul\":6172:6209   */\n      tag_351\n      jump\t// in\n    tag_450:\n        /* \"#utility.yul\":6159:6209   */\n      swap1\n      pop\n        /* \"#utility.yul\":6089:6215   */\n      swap2\n      swap1\n      pop\n      jump\t// out\n        /* \"#utility.yul\":6221:6360   */\n    tag_353:\n        /* \"#utility.yul\":6284:6293   */\n      0x00\n        /* \"#utility.yul\":6317:6354   */\n      tag_452\n        /* \"#utility.yul\":6348:6353   */\n      dup3\n        /* \"#utility.yul\":6317:6354   */\n      tag_352\n      jump\t// in\n    tag_452:\n        /* \"#utility.yul\":6304:6354   */\n      swap1\n      pop\n        /* \"#utility.yul\":6221:6360   */\n      swap2\n      swap1\n      pop\n      jump\t// out\n        /* \"#utility.yul\":6366:6523   */\n    tag_354:\n        /* \"#utility.yul\":6466:6516   */\n      tag_454\n        /* \"#utility.yul\":6510:6515   */\n      dup2\n        /* \"#utility.yul\":6466:6516   */\n      tag_353\n      jump\t// in\n    tag_454:\n        /* \"#utility.yul\":6461:6464   */\n      dup3\n        /* \"#utility.yul\":6454:6517   */\n      mstore\n        /* \"#utility.yul\":6366:6523   */\n      pop\n      pop\n      jump\t// out\n        /* \"#utility.yul\":6529:6777   */\n    tag_108:\n        /* \"#utility.yul\":6635:6639   */\n      0x00\n        /* \"#utility.yul\":6673:6675   */\n      0x20\n        /* \"#utility.yul\":6662:6671   */\n      dup3\n        /* \"#utility.yul\":6658:6676   */\n      add\n        /* \"#utility.yul\":6650:6676   */\n      swap1\n      pop\n        /* \"#utility.yul\":6686:6770   */\n      tag_456\n        /* \"#utility.yul\":6767:6768   */\n      0x00\n        /* \"#utility.yul\":6756:6765   */\n      dup4\n        /* \"#utility.yul\":6752:6769   */\n      add\n        /* \"#utility.yul\":6743:6749   */\n      dup5\n        /* \"#utility.yul\":6686:6770   */\n      tag_354\n      jump\t// in\n    tag_456:\n        /* \"#utility.yul\":6529:6777   */\n      swap3\n      swap2\n      pop\n      pop\n      jump\t// out\n        /* \"#utility.yul\":6783:7891   */\n    tag_115:\n        /* \"#utility.yul\":7100:7104   */\n      0x00\n        /* \"#utility.yul\":7138:7141   */\n      0x0120\n        /* \"#utility.yul\":7127:7136   */\n      dup3\n        /* \"#utility.yul\":7123:7142   */\n      add\n        /* \"#utility.yul\":7115:7142   */\n      swap1\n      pop\n        /* \"#utility.yul\":7152:7223   */\n      tag_458\n        /* \"#utility.yul\":7220:7221   */\n      0x00\n        /* \"#utility.yul\":7209:7218   */\n      dup4\n        /* \"#utility.yul\":7205:7222   */\n      add\n        /* \"#utility.yul\":7196:7202   */\n      dup13\n        /* \"#utility.yul\":7152:7223   */\n      tag_346\n      jump\t// in\n    tag_458:\n        /* \"#utility.yul\":7233:7305   */\n      tag_459\n        /* \"#utility.yul\":7301:7303   */\n      0x20\n        /* \"#utility.yul\":7290:7299   */\n      dup4\n        /* \"#utility.yul\":7286:7304   */\n      add\n        /* \"#utility.yul\":7277:7283   */\n      dup12\n        /* \"#utility.yul\":7233:7305   */\n      tag_346\n      jump\t// in\n    tag_459:\n        /* \"#utility.yul\":7315:7387   */\n      tag_460\n        /* \"#utility.yul\":7383:7385   */\n      0x40\n        /* \"#utility.yul\":7372:7381   */\n      dup4\n        /* \"#utility.yul\":7368:7386   */\n      add\n        /* \"#utility.yul\":7359:7365   */\n      dup11\n        /* \"#utility.yul\":7315:7387   */\n      tag_349\n      jump\t// in\n    tag_460:\n        /* \"#utility.yul\":7397:7469   */\n      tag_461\n        /* \"#utility.yul\":7465:7467   */\n      0x60\n        /* \"#utility.yul\":7454:7463   */\n      dup4\n        /* \"#utility.yul\":7450:7468   */\n      add\n        /* \"#utility.yul\":7441:7447   */\n      dup10\n        /* \"#utility.yul\":7397:7469   */\n      tag_349\n      jump\t// in\n    tag_461:\n        /* \"#utility.yul\":7479:7552   */\n      tag_462\n        /* \"#utility.yul\":7547:7550   */\n      0x80\n        /* \"#utility.yul\":7536:7545   */\n      dup4\n        /* \"#utility.yul\":7532:7551   */\n      add\n        /* \"#utility.yul\":7523:7529   */\n      dup9\n        /* \"#utility.yul\":7479:7552   */\n      tag_346\n      jump\t// in\n    tag_462:\n        /* \"#utility.yul\":7562:7635   */\n      tag_463\n        /* \"#utility.yul\":7630:7633   */\n      0xa0\n        /* \"#utility.yul\":7619:7628   */\n      dup4\n        /* \"#utility.yul\":7615:7634   */\n      add\n        /* \"#utility.yul\":7606:7612   */\n      dup8\n        /* \"#utility.yul\":7562:7635   */\n      tag_346\n      jump\t// in\n    tag_463:\n        /* \"#utility.yul\":7645:7718   */\n      tag_464\n        /* \"#utility.yul\":7713:7716   */\n      0xc0\n        /* \"#utility.yul\":7702:7711   */\n      dup4\n        /* \"#utility.yul\":7698:7717   */\n      add\n        /* \"#utility.yul\":7689:7695   */\n      dup7\n        /* \"#utility.yul\":7645:7718   */\n      tag_346\n      jump\t// in\n    tag_464:\n        /* \"#utility.yul\":7728:7801   */\n      tag_465\n        /* \"#utility.yul\":7796:7799   */\n      0xe0\n        /* \"#utility.yul\":7785:7794   */\n      dup4\n        /* \"#utility.yul\":7781:7800   */\n      add\n        /* \"#utility.yul\":7772:7778   */\n      dup6\n        /* \"#utility.yul\":7728:7801   */\n      tag_346\n      jump\t// in\n    tag_465:\n        /* \"#utility.yul\":7811:7884   */\n      tag_466\n        /* \"#utility.yul\":7879:7882   */\n      0x0100\n        /* \"#utility.yul\":7868:7877   */\n      dup4\n        /* \"#utility.yul\":7864:7883   */\n      add\n        /* \"#utility.yul\":7855:7861   */\n      dup5\n        /* \"#utility.yul\":7811:7884   */\n      tag_346\n      jump\t// in\n    tag_466:\n        /* \"#utility.yul\":6783:7891   */\n      swap11\n      swap10\n      pop\n      pop\n      pop\n      pop\n      pop\n      pop\n      pop\n      pop\n      pop\n      pop\n      jump\t// out\n        /* \"#utility.yul\":7897:8371   */\n    tag_118:\n        /* \"#utility.yul\":7965:7971   */\n      0x00\n        /* \"#utility.yul\":7973:7979   */\n      dup1\n        /* \"#utility.yul\":8022:8024   */\n      0x40\n        /* \"#utility.yul\":8010:8019   */\n      dup4\n        /* \"#utility.yul\":8001:8008   */\n      dup6\n        /* \"#utility.yul\":7997:8020   */\n      sub\n        /* \"#utility.yul\":7993:8025   */\n      slt\n        /* \"#utility.yul\":7990:8109   */\n      iszero\n      tag_468\n      jumpi\n        /* \"#utility.yul\":8028:8107   */\n      tag_469\n      tag_335\n      jump\t// in\n    tag_469:\n        /* \"#utility.yul\":7990:8109   */\n    tag_468:\n        /* \"#utility.yul\":8148:8149   */\n      0x00\n        /* \"#utility.yul\":8173:8226   */\n      tag_470\n        /* \"#utility.yul\":8218:8225   */\n      dup6\n        /* \"#utility.yul\":8209:8215   */\n      dup3\n        /* \"#utility.yul\":8198:8207   */\n      dup7\n        /* \"#utility.yul\":8194:8216   */\n      add\n        /* \"#utility.yul\":8173:8226   */\n      tag_340\n      jump\t// in\n    tag_470:\n        /* \"#utility.yul\":8163:8226   */\n      swap3\n      pop\n        /* \"#utility.yul\":8119:8236   */\n      pop\n        /* \"#utility.yul\":8275:8277   */\n      0x20\n        /* \"#utility.yul\":8301:8354   */\n      tag_471\n        /* \"#utility.yul\":8346:8353   */\n      dup6\n        /* \"#utility.yul\":8337:8343   */\n      dup3\n        /* \"#utility.yul\":8326:8335   */\n      dup7\n        /* \"#utility.yul\":8322:8344   */\n      add\n        /* \"#utility.yul\":8301:8354   */\n      tag_340\n      jump\t// in\n    tag_471:\n        /* \"#utility.yul\":8291:8354   */\n      swap2\n      pop\n        /* \"#utility.yul\":8246:8364   */\n      pop\n        /* \"#utility.yul\":7897:8371   */\n      swap3\n      pop\n      swap3\n      swap1\n      pop\n      jump\t// out\n        /* \"#utility.yul\":8377:8557   */\n    tag_355:\n        /* \"#utility.yul\":8425:8502   */\n      0x4e487b7100000000000000000000000000000000000000000000000000000000\n        /* \"#utility.yul\":8422:8423   */\n      0x00\n        /* \"#utility.yul\":8415:8503   */\n      mstore\n        /* \"#utility.yul\":8522:8526   */\n      0x22\n        /* \"#utility.yul\":8519:8520   */\n      0x04\n        /* \"#utility.yul\":8512:8527   */\n      mstore\n        /* \"#utility.yul\":8546:8550   */\n      0x24\n        /* \"#utility.yul\":8543:8544   */\n      0x00\n        /* \"#utility.yul\":8536:8551   */\n      revert\n        /* \"#utility.yul\":8563:8883   */\n    tag_135:\n        /* \"#utility.yul\":8607:8613   */\n      0x00\n        /* \"#utility.yul\":8644:8645   */\n      0x02\n        /* \"#utility.yul\":8638:8642   */\n      dup3\n        /* \"#utility.yul\":8634:8646   */\n      div\n        /* \"#utility.yul\":8624:8646   */\n      swap1\n      pop\n        /* \"#utility.yul\":8691:8692   */\n      0x01\n        /* \"#utility.yul\":8685:8689   */\n      dup3\n        /* \"#utility.yul\":8681:8693   */\n      and\n        /* \"#utility.yul\":8712:8730   */\n      dup1\n        /* \"#utility.yul\":8702:8783   */\n      tag_474\n      jumpi\n        /* \"#utility.yul\":8768:8772   */\n      0x7f\n        /* \"#utility.yul\":8760:8766   */\n      dup3\n        /* \"#utility.yul\":8756:8773   */\n      and\n        /* \"#utility.yul\":8746:8773   */\n      swap2\n      pop\n        /* \"#utility.yul\":8702:8783   */\n    tag_474:\n        /* \"#utility.yul\":8830:8832   */\n      0x20\n        /* \"#utility.yul\":8822:8828   */\n      dup3\n        /* \"#utility.yul\":8819:8833   */\n      lt\n        /* \"#utility.yul\":8799:8817   */\n      dup2\n        /* \"#utility.yul\":8796:8834   */\n      sub\n        /* \"#utility.yul\":8793:8877   */\n      tag_475\n      jumpi\n        /* \"#utility.yul\":8849:8867   */\n      tag_476\n      tag_355\n      jump\t// in\n    tag_476:\n        /* \"#utility.yul\":8793:8877   */\n    tag_475:\n        /* \"#utility.yul\":8614:8883   */\n      pop\n        /* \"#utility.yul\":8563:8883   */\n      swap2\n      swap1\n      pop\n      jump\t// out\n        /* \"#utility.yul\":8889:9221   */\n    tag_153:\n        /* \"#utility.yul\":9010:9014   */\n      0x00\n        /* \"#utility.yul\":9048:9050   */\n      0x40\n        /* \"#utility.yul\":9037:9046   */\n      dup3\n        /* \"#utility.yul\":9033:9051   */\n      add\n        /* \"#utility.yul\":9025:9051   */\n      swap1\n      pop\n        /* \"#utility.yul\":9061:9132   */\n      tag_478\n        /* \"#utility.yul\":9129:9130   */\n      0x00\n        /* \"#utility.yul\":9118:9127   */\n      dup4\n        /* \"#utility.yul\":9114:9131   */\n      add\n        /* \"#utility.yul\":9105:9111   */\n      dup6\n        /* \"#utility.yul\":9061:9132   */\n      tag_349\n      jump\t// in\n    tag_478:\n        /* \"#utility.yul\":9142:9214   */\n      tag_479\n        /* \"#utility.yul\":9210:9212   */\n      0x20\n        /* \"#utility.yul\":9199:9208   */\n      dup4\n        /* \"#utility.yul\":9195:9213   */\n      add\n        /* \"#utility.yul\":9186:9192   */\n      dup5\n        /* \"#utility.yul\":9142:9214   */\n      tag_346\n      jump\t// in\n    tag_479:\n        /* \"#utility.yul\":8889:9221   */\n      swap4\n      swap3\n      pop\n      pop\n      pop\n      jump\t// out\n        /* \"#utility.yul\":9227:9343   */\n    tag_356:\n        /* \"#utility.yul\":9297:9318   */\n      tag_481\n        /* \"#utility.yul\":9312:9317   */\n      dup2\n        /* \"#utility.yul\":9297:9318   */\n      tag_344\n      jump\t// in\n    tag_481:\n        /* \"#utility.yul\":9290:9295   */\n      dup2\n        /* \"#utility.yul\":9287:9319   */\n      eq\n        /* \"#utility.yul\":9277:9337   */\n      tag_482\n      jumpi\n        /* \"#utility.yul\":9333:9334   */\n      0x00\n        /* \"#utility.yul\":9330:9331   */\n      dup1\n        /* \"#utility.yul\":9323:9335   */\n      revert\n        /* \"#utility.yul\":9277:9337   */\n    tag_482:\n        /* \"#utility.yul\":9227:9343   */\n      pop\n      jump\t// out\n        /* \"#utility.yul\":9349:9486   */\n    tag_357:\n        /* \"#utility.yul\":9403:9408   */\n      0x00\n        /* \"#utility.yul\":9434:9440   */\n      dup2\n        /* \"#utility.yul\":9428:9441   */\n      mload\n        /* \"#utility.yul\":9419:9441   */\n      swap1\n      pop\n        /* \"#utility.yul\":9450:9480   */\n      tag_484\n        /* \"#utility.yul\":9474:9479   */\n      dup2\n        /* \"#utility.yul\":9450:9480   */\n      tag_356\n      jump\t// in\n    tag_484:\n        /* \"#utility.yul\":9349:9486   */\n      swap3\n      swap2\n      pop\n      pop\n      jump\t// out\n        /* \"#utility.yul\":9492:9837   */\n    tag_157:\n        /* \"#utility.yul\":9559:9565   */\n      0x00\n        /* \"#utility.yul\":9608:9610   */\n      0x20\n        /* \"#utility.yul\":9596:9605   */\n      dup3\n        /* \"#utility.yul\":9587:9594   */\n      dup5\n        /* \"#utility.yul\":9583:9606   */\n      sub\n        /* \"#utility.yul\":9579:9611   */\n      slt\n        /* \"#utility.yul\":9576:9695   */\n      iszero\n      tag_486\n      jumpi\n        /* \"#utility.yul\":9614:9693   */\n      tag_487\n      tag_335\n      jump\t// in\n    tag_487:\n        /* \"#utility.yul\":9576:9695   */\n    tag_486:\n        /* \"#utility.yul\":9734:9735   */\n      0x00\n        /* \"#utility.yul\":9759:9820   */\n      tag_488\n        /* \"#utility.yul\":9812:9819   */\n      dup5\n        /* \"#utility.yul\":9803:9809   */\n      dup3\n        /* \"#utility.yul\":9792:9801   */\n      dup6\n        /* \"#utility.yul\":9788:9810   */\n      add\n        /* \"#utility.yul\":9759:9820   */\n      tag_357\n      jump\t// in\n    tag_488:\n        /* \"#utility.yul\":9749:9820   */\n      swap2\n      pop\n        /* \"#utility.yul\":9705:9830   */\n      pop\n        /* \"#utility.yul\":9492:9837   */\n      swap3\n      swap2\n      pop\n      pop\n      jump\t// out\n        /* \"#utility.yul\":9843:10008   */\n    tag_358:\n        /* \"#utility.yul\":9983:10000   */\n      0x5769746864726177206661696c65640000000000000000000000000000000000\n        /* \"#utility.yul\":9979:9980   */\n      0x00\n        /* \"#utility.yul\":9971:9977   */\n      dup3\n        /* \"#utility.yul\":9967:9981   */\n      add\n        /* \"#utility.yul\":9960:10001   */\n      mstore\n        /* \"#utility.yul\":9843:10008   */\n      pop\n      jump\t// out\n        /* \"#utility.yul\":10014:10380   */\n    tag_359:\n        /* \"#utility.yul\":10156:10159   */\n      0x00\n        /* \"#utility.yul\":10177:10244   */\n      tag_491\n        /* \"#utility.yul\":10241:10243   */\n      0x0f\n        /* \"#utility.yul\":10236:10239   */\n      dup4\n        /* \"#utility.yul\":10177:10244   */\n      tag_330\n      jump\t// in\n    tag_491:\n        /* \"#utility.yul\":10170:10244   */\n      swap2\n      pop\n        /* \"#utility.yul\":10253:10346   */\n      tag_492\n        /* \"#utility.yul\":10342:10345   */\n      dup3\n        /* \"#utility.yul\":10253:10346   */\n      tag_358\n      jump\t// in\n    tag_492:\n        /* \"#utility.yul\":10371:10373   */\n      0x20\n        /* \"#utility.yul\":10366:10369   */\n      dup3\n        /* \"#utility.yul\":10362:10374   */\n      add\n        /* \"#utility.yul\":10355:10374   */\n      swap1\n      pop\n        /* \"#utility.yul\":10014:10380   */\n      swap2\n      swap1\n      pop\n      jump\t// out\n        /* \"#utility.yul\":10386:10805   */\n    tag_160:\n        /* \"#utility.yul\":10552:10556   */\n      0x00\n        /* \"#utility.yul\":10590:10592   */\n      0x20\n        /* \"#utility.yul\":10579:10588   */\n      dup3\n        /* \"#utility.yul\":10575:10593   */\n      add\n        /* \"#utility.yul\":10567:10593   */\n      swap1\n      pop\n        /* \"#utility.yul\":10639:10648   */\n      dup2\n        /* \"#utility.yul\":10633:10637   */\n      dup2\n        /* \"#utility.yul\":10629:10649   */\n      sub\n        /* \"#utility.yul\":10625:10626   */\n      0x00\n        /* \"#utility.yul\":10614:10623   */\n      dup4\n        /* \"#utility.yul\":10610:10627   */\n      add\n        /* \"#utility.yul\":10603:10650   */\n      mstore\n        /* \"#utility.yul\":10667:10798   */\n      tag_494\n        /* \"#utility.yul\":10793:10797   */\n      dup2\n        /* \"#utility.yul\":10667:10798   */\n      tag_359\n      jump\t// in\n    tag_494:\n        /* \"#utility.yul\":10659:10798   */\n      swap1\n      pop\n        /* \"#utility.yul\":10386:10805   */\n      swap2\n      swap1\n      pop\n      jump\t// out\n        /* \"#utility.yul\":10811:10991   */\n    tag_360:\n        /* \"#utility.yul\":10859:10936   */\n      0x4e487b7100000000000000000000000000000000000000000000000000000000\n        /* \"#utility.yul\":10856:10857   */\n      0x00\n        /* \"#utility.yul\":10849:10937   */\n      mstore\n        /* \"#utility.yul\":10956:10960   */\n      0x11\n        /* \"#utility.yul\":10953:10954   */\n      0x04\n        /* \"#utility.yul\":10946:10961   */\n      mstore\n        /* \"#utility.yul\":10980:10984   */\n      0x24\n        /* \"#utility.yul\":10977:10978   */\n      0x00\n        /* \"#utility.yul\":10970:10985   */\n      revert\n        /* \"#utility.yul\":10997:11407   */\n    tag_175:\n        /* \"#utility.yul\":11037:11044   */\n      0x00\n        /* \"#utility.yul\":11060:11080   */\n      tag_497\n        /* \"#utility.yul\":11078:11079   */\n      dup3\n        /* \"#utility.yul\":11060:11080   */\n      tag_341\n      jump\t// in\n    tag_497:\n        /* \"#utility.yul\":11055:11080   */\n      swap2\n      pop\n        /* \"#utility.yul\":11094:11114   */\n      tag_498\n        /* \"#utility.yul\":11112:11113   */\n      dup4\n        /* \"#utility.yul\":11094:11114   */\n      tag_341\n      jump\t// in\n    tag_498:\n        /* \"#utility.yul\":11089:11114   */\n      swap3\n      pop\n        /* \"#utility.yul\":11149:11150   */\n      dup3\n        /* \"#utility.yul\":11146:11147   */\n      dup3\n        /* \"#utility.yul\":11142:11151   */\n      mul\n        /* \"#utility.yul\":11171:11201   */\n      tag_499\n        /* \"#utility.yul\":11189:11200   */\n      dup2\n        /* \"#utility.yul\":11171:11201   */\n      tag_341\n      jump\t// in\n    tag_499:\n        /* \"#utility.yul\":11160:11201   */\n      swap2\n      pop\n        /* \"#utility.yul\":11350:11351   */\n      dup3\n        /* \"#utility.yul\":11341:11348   */\n      dup3\n        /* \"#utility.yul\":11337:11352   */\n      div\n        /* \"#utility.yul\":11334:11335   */\n      dup5\n        /* \"#utility.yul\":11331:11353   */\n      eq\n        /* \"#utility.yul\":11311:11312   */\n      dup4\n        /* \"#utility.yul\":11304:11313   */\n      iszero\n        /* \"#utility.yul\":11284:11367   */\n      or\n        /* \"#utility.yul\":11261:11400   */\n      tag_500\n      jumpi\n        /* \"#utility.yul\":11380:11398   */\n      tag_501\n      tag_360\n      jump\t// in\n    tag_501:\n        /* \"#utility.yul\":11261:11400   */\n    tag_500:\n        /* \"#utility.yul\":11045:11407   */\n      pop\n        /* \"#utility.yul\":10997:11407   */\n      swap3\n      swap2\n      pop\n      pop\n      jump\t// out\n        /* \"#utility.yul\":11413:11592   */\n    tag_361:\n        /* \"#utility.yul\":11553:11584   */\n      0x416d6f756e74206d7573742062652067726561746572207468616e2030000000\n        /* \"#utility.yul\":11549:11550   */\n      0x00\n        /* \"#utility.yul\":11541:11547   */\n      dup3\n        /* \"#utility.yul\":11537:11551   */\n      add\n        /* \"#utility.yul\":11530:11585   */\n      mstore\n        /* \"#utility.yul\":11413:11592   */\n      pop\n      jump\t// out\n        /* \"#utility.yul\":11598:11964   */\n    tag_362:\n        /* \"#utility.yul\":11740:11743   */\n      0x00\n        /* \"#utility.yul\":11761:11828   */\n      tag_504\n        /* \"#utility.yul\":11825:11827   */\n      0x1d\n        /* \"#utility.yul\":11820:11823   */\n      dup4\n        /* \"#utility.yul\":11761:11828   */\n      tag_330\n      jump\t// in\n    tag_504:\n        /* \"#utility.yul\":11754:11828   */\n      swap2\n      pop\n        /* \"#utility.yul\":11837:11930   */\n      tag_505\n        /* \"#utility.yul\":11926:11929   */\n      dup3\n        /* \"#utility.yul\":11837:11930   */\n      tag_361\n      jump\t// in\n    tag_505:\n        /* \"#utility.yul\":11955:11957   */\n      0x20\n        /* \"#utility.yul\":11950:11953   */\n      dup3\n        /* \"#utility.yul\":11946:11958   */\n      add\n        /* \"#utility.yul\":11939:11958   */\n      swap1\n      pop\n        /* \"#utility.yul\":11598:11964   */\n      swap2\n      swap1\n      pop\n      jump\t// out\n        /* \"#utility.yul\":11970:12389   */\n    tag_181:\n        /* \"#utility.yul\":12136:12140   */\n      0x00\n        /* \"#utility.yul\":12174:12176   */\n      0x20\n        /* \"#utility.yul\":12163:12172   */\n      dup3\n        /* \"#utility.yul\":12159:12177   */\n      add\n        /* \"#utility.yul\":12151:12177   */\n      swap1\n      pop\n        /* \"#utility.yul\":12223:12232   */\n      dup2\n        /* \"#utility.yul\":12217:12221   */\n      dup2\n        /* \"#utility.yul\":12213:12233   */\n      sub\n        /* \"#utility.yul\":12209:12210   */\n      0x00\n        /* \"#utility.yul\":12198:12207   */\n      dup4\n        /* \"#utility.yul\":12194:12211   */\n      add\n        /* \"#utility.yul\":12187:12234   */\n      mstore\n        /* \"#utility.yul\":12251:12382   */\n      tag_507\n        /* \"#utility.yul\":12377:12381   */\n      dup2\n        /* \"#utility.yul\":12251:12382   */\n      tag_362\n      jump\t// in\n    tag_507:\n        /* \"#utility.yul\":12243:12382   */\n      swap1\n      pop\n        /* \"#utility.yul\":11970:12389   */\n      swap2\n      swap1\n      pop\n      jump\t// out\n        /* \"#utility.yul\":12395:12575   */\n    tag_363:\n        /* \"#utility.yul\":12443:12520   */\n      0x4e487b7100000000000000000000000000000000000000000000000000000000\n        /* \"#utility.yul\":12440:12441   */\n      0x00\n        /* \"#utility.yul\":12433:12521   */\n      mstore\n        /* \"#utility.yul\":12540:12544   */\n      0x12\n        /* \"#utility.yul\":12537:12538   */\n      0x04\n        /* \"#utility.yul\":12530:12545   */\n      mstore\n        /* \"#utility.yul\":12564:12568   */\n      0x24\n        /* \"#utility.yul\":12561:12562   */\n      0x00\n        /* \"#utility.yul\":12554:12569   */\n      revert\n        /* \"#utility.yul\":12581:12766   */\n    tag_184:\n        /* \"#utility.yul\":12621:12622   */\n      0x00\n        /* \"#utility.yul\":12638:12658   */\n      tag_510\n        /* \"#utility.yul\":12656:12657   */\n      dup3\n        /* \"#utility.yul\":12638:12658   */\n      tag_341\n      jump\t// in\n    tag_510:\n        /* \"#utility.yul\":12633:12658   */\n      swap2\n      pop\n        /* \"#utility.yul\":12672:12692   */\n      tag_511\n        /* \"#utility.yul\":12690:12691   */\n      dup4\n        /* \"#utility.yul\":12672:12692   */\n      tag_341\n      jump\t// in\n    tag_511:\n        /* \"#utility.yul\":12667:12692   */\n      swap3\n      pop\n        /* \"#utility.yul\":12711:12712   */\n      dup3\n        /* \"#utility.yul\":12701:12736   */\n      tag_512\n      jumpi\n        /* \"#utility.yul\":12716:12734   */\n      tag_513\n      tag_363\n      jump\t// in\n    tag_513:\n        /* \"#utility.yul\":12701:12736   */\n    tag_512:\n        /* \"#utility.yul\":12758:12759   */\n      dup3\n        /* \"#utility.yul\":12755:12756   */\n      dup3\n        /* \"#utility.yul\":12751:12760   */\n      div\n        /* \"#utility.yul\":12746:12760   */\n      swap1\n      pop\n        /* \"#utility.yul\":12581:12766   */\n      swap3\n      swap2\n      pop\n      pop\n      jump\t// out\n        /* \"#utility.yul\":12772:12966   */\n    tag_190:\n        /* \"#utility.yul\":12812:12816   */\n      0x00\n        /* \"#utility.yul\":12832:12852   */\n      tag_515\n        /* \"#utility.yul\":12850:12851   */\n      dup3\n        /* \"#utility.yul\":12832:12852   */\n      tag_341\n      jump\t// in\n    tag_515:\n        /* \"#utility.yul\":12827:12852   */\n      swap2\n      pop\n        /* \"#utility.yul\":12866:12886   */\n      tag_516\n        /* \"#utility.yul\":12884:12885   */\n      dup4\n        /* \"#utility.yul\":12866:12886   */\n      tag_341\n      jump\t// in\n    tag_516:\n        /* \"#utility.yul\":12861:12886   */\n      swap3\n      pop\n        /* \"#utility.yul\":12910:12911   */\n      dup3\n        /* \"#utility.yul\":12907:12908   */\n      dup3\n        /* \"#utility.yul\":12903:12912   */\n      sub\n        /* \"#utility.yul\":12895:12912   */\n      swap1\n      pop\n        /* \"#utility.yul\":12934:12935   */\n      dup2\n        /* \"#utility.yul\":12928:12932   */\n      dup2\n        /* \"#utility.yul\":12925:12936   */\n      gt\n        /* \"#utility.yul\":12922:12959   */\n      iszero\n      tag_517\n      jumpi\n        /* \"#utility.yul\":12939:12957   */\n      tag_518\n      tag_360\n      jump\t// in\n    tag_518:\n        /* \"#utility.yul\":12922:12959   */\n    tag_517:\n        /* \"#utility.yul\":12772:12966   */\n      swap3\n      swap2\n      pop\n      pop\n      jump\t// out\n        /* \"#utility.yul\":12972:13140   */\n    tag_364:\n        /* \"#utility.yul\":13112:13132   */\n      0x55534454207061796f7574206661696c65640000000000000000000000000000\n        /* \"#utility.yul\":13108:13109   */\n      0x00\n        /* \"#utility.yul\":13100:13106   */\n      dup3\n        /* \"#utility.yul\":13096:13110   */\n      add\n        /* \"#utility.yul\":13089:13133   */\n      mstore\n        /* \"#utility.yul\":12972:13140   */\n      pop\n      jump\t// out\n        /* \"#utility.yul\":13146:13512   */\n    tag_365:\n        /* \"#utility.yul\":13288:13291   */\n      0x00\n        /* \"#utility.yul\":13309:13376   */\n      tag_521\n        /* \"#utility.yul\":13373:13375   */\n      0x12\n        /* \"#utility.yul\":13368:13371   */\n      dup4\n        /* \"#utility.yul\":13309:13376   */\n      tag_330\n      jump\t// in\n    tag_521:\n        /* \"#utility.yul\":13302:13376   */\n      swap2\n      pop\n        /* \"#utility.yul\":13385:13478   */\n      tag_522\n        /* \"#utility.yul\":13474:13477   */\n      dup3\n        /* \"#utility.yul\":13385:13478   */\n      tag_364\n      jump\t// in\n    tag_522:\n        /* \"#utility.yul\":13503:13505   */\n      0x20\n        /* \"#utility.yul\":13498:13501   */\n      dup3\n        /* \"#utility.yul\":13494:13506   */\n      add\n        /* \"#utility.yul\":13487:13506   */\n      swap1\n      pop\n        /* \"#utility.yul\":13146:13512   */\n      swap2\n      swap1\n      pop\n      jump\t// out\n        /* \"#utility.yul\":13518:13937   */\n    tag_201:\n        /* \"#utility.yul\":13684:13688   */\n      0x00\n        /* \"#utility.yul\":13722:13724   */\n      0x20\n        /* \"#utility.yul\":13711:13720   */\n      dup3\n        /* \"#utility.yul\":13707:13725   */\n      add\n        /* \"#utility.yul\":13699:13725   */\n      swap1\n      pop\n        /* \"#utility.yul\":13771:13780   */\n      dup2\n        /* \"#utility.yul\":13765:13769   */\n      dup2\n        /* \"#utility.yul\":13761:13781   */\n      sub\n        /* \"#utility.yul\":13757:13758   */\n      0x00\n        /* \"#utility.yul\":13746:13755   */\n      dup4\n        /* \"#utility.yul\":13742:13759   */\n      add\n        /* \"#utility.yul\":13735:13782   */\n      mstore\n        /* \"#utility.yul\":13799:13930   */\n      tag_524\n        /* \"#utility.yul\":13925:13929   */\n      dup2\n        /* \"#utility.yul\":13799:13930   */\n      tag_365\n      jump\t// in\n    tag_524:\n        /* \"#utility.yul\":13791:13930   */\n      swap1\n      pop\n        /* \"#utility.yul\":13518:13937   */\n      swap2\n      swap1\n      pop\n      jump\t// out\n        /* \"#utility.yul\":13943:14385   */\n    tag_203:\n        /* \"#utility.yul\":14092:14096   */\n      0x00\n        /* \"#utility.yul\":14130:14132   */\n      0x60\n        /* \"#utility.yul\":14119:14128   */\n      dup3\n        /* \"#utility.yul\":14115:14133   */\n      add\n        /* \"#utility.yul\":14107:14133   */\n      swap1\n      pop\n        /* \"#utility.yul\":14143:14214   */\n      tag_526\n        /* \"#utility.yul\":14211:14212   */\n      0x00\n        /* \"#utility.yul\":14200:14209   */\n      dup4\n        /* \"#utility.yul\":14196:14213   */\n      add\n        /* \"#utility.yul\":14187:14193   */\n      dup7\n        /* \"#utility.yul\":14143:14214   */\n      tag_346\n      jump\t// in\n    tag_526:\n        /* \"#utility.yul\":14224:14296   */\n      tag_527\n        /* \"#utility.yul\":14292:14294   */\n      0x20\n        /* \"#utility.yul\":14281:14290   */\n      dup4\n        /* \"#utility.yul\":14277:14295   */\n      add\n        /* \"#utility.yul\":14268:14274   */\n      dup6\n        /* \"#utility.yul\":14224:14296   */\n      tag_346\n      jump\t// in\n    tag_527:\n        /* \"#utility.yul\":14306:14378   */\n      tag_528\n        /* \"#utility.yul\":14374:14376   */\n      0x40\n        /* \"#utility.yul\":14363:14372   */\n      dup4\n        /* \"#utility.yul\":14359:14377   */\n      add\n        /* \"#utility.yul\":14350:14356   */\n      dup5\n        /* \"#utility.yul\":14306:14378   */\n      tag_346\n      jump\t// in\n    tag_528:\n        /* \"#utility.yul\":13943:14385   */\n      swap5\n      swap4\n      pop\n      pop\n      pop\n      pop\n      jump\t// out\n        /* \"#utility.yul\":14391:14567   */\n    tag_366:\n        /* \"#utility.yul\":14531:14559   */\n      0x4275792072617465206d757374206265203e3d2031205354454d000000000000\n        /* \"#utility.yul\":14527:14528   */\n      0x00\n        /* \"#utility.yul\":14519:14525   */\n      dup3\n        /* \"#utility.yul\":14515:14529   */\n      add\n        /* \"#utility.yul\":14508:14560   */\n      mstore\n        /* \"#utility.yul\":14391:14567   */\n      pop\n      jump\t// out\n        /* \"#utility.yul\":14573:14939   */\n    tag_367:\n        /* \"#utility.yul\":14715:14718   */\n      0x00\n        /* \"#utility.yul\":14736:14803   */\n      tag_531\n        /* \"#utility.yul\":14800:14802   */\n      0x1a\n        /* \"#utility.yul\":14795:14798   */\n      dup4\n        /* \"#utility.yul\":14736:14803   */\n      tag_330\n      jump\t// in\n    tag_531:\n        /* \"#utility.yul\":14729:14803   */\n      swap2\n      pop\n        /* \"#utility.yul\":14812:14905   */\n      tag_532\n        /* \"#utility.yul\":14901:14904   */\n      dup3\n        /* \"#utility.yul\":14812:14905   */\n      tag_366\n      jump\t// in\n    tag_532:\n        /* \"#utility.yul\":14930:14932   */\n      0x20\n        /* \"#utility.yul\":14925:14928   */\n      dup3\n        /* \"#utility.yul\":14921:14933   */\n      add\n        /* \"#utility.yul\":14914:14933   */\n      swap1\n      pop\n        /* \"#utility.yul\":14573:14939   */\n      swap2\n      swap1\n      pop\n      jump\t// out\n        /* \"#utility.yul\":14945:15364   */\n    tag_215:\n        /* \"#utility.yul\":15111:15115   */\n      0x00\n        /* \"#utility.yul\":15149:15151   */\n      0x20\n        /* \"#utility.yul\":15138:15147   */\n      dup3\n        /* \"#utility.yul\":15134:15152   */\n      add\n        /* \"#utility.yul\":15126:15152   */\n      swap1\n      pop\n        /* \"#utility.yul\":15198:15207   */\n      dup2\n        /* \"#utility.yul\":15192:15196   */\n      dup2\n        /* \"#utility.yul\":15188:15208   */\n      sub\n        /* \"#utility.yul\":15184:15185   */\n      0x00\n        /* \"#utility.yul\":15173:15182   */\n      dup4\n        /* \"#utility.yul\":15169:15186   */\n      add\n        /* \"#utility.yul\":15162:15209   */\n      mstore\n        /* \"#utility.yul\":15226:15357   */\n      tag_534\n        /* \"#utility.yul\":15352:15356   */\n      dup2\n        /* \"#utility.yul\":15226:15357   */\n      tag_367\n      jump\t// in\n    tag_534:\n        /* \"#utility.yul\":15218:15357   */\n      swap1\n      pop\n        /* \"#utility.yul\":14945:15364   */\n      swap2\n      swap1\n      pop\n      jump\t// out\n        /* \"#utility.yul\":15370:15549   */\n    tag_368:\n        /* \"#utility.yul\":15510:15541   */\n      0x4275792072617465206d757374206265203c3d2053656c6c2072617465000000\n        /* \"#utility.yul\":15506:15507   */\n      0x00\n        /* \"#utility.yul\":15498:15504   */\n      dup3\n        /* \"#utility.yul\":15494:15508   */\n      add\n        /* \"#utility.yul\":15487:15542   */\n      mstore\n        /* \"#utility.yul\":15370:15549   */\n      pop\n      jump\t// out\n        /* \"#utility.yul\":15555:15921   */\n    tag_369:\n        /* \"#utility.yul\":15697:15700   */\n      0x00\n        /* \"#utility.yul\":15718:15785   */\n      tag_537\n        /* \"#utility.yul\":15782:15784   */\n      0x1d\n        /* \"#utility.yul\":15777:15780   */\n      dup4\n        /* \"#utility.yul\":15718:15785   */\n      tag_330\n      jump\t// in\n    tag_537:\n        /* \"#utility.yul\":15711:15785   */\n      swap2\n      pop\n        /* \"#utility.yul\":15794:15887   */\n      tag_538\n        /* \"#utility.yul\":15883:15886   */\n      dup3\n        /* \"#utility.yul\":15794:15887   */\n      tag_368\n      jump\t// in\n    tag_538:\n        /* \"#utility.yul\":15912:15914   */\n      0x20\n        /* \"#utility.yul\":15907:15910   */\n      dup3\n        /* \"#utility.yul\":15903:15915   */\n      add\n        /* \"#utility.yul\":15896:15915   */\n      swap1\n      pop\n        /* \"#utility.yul\":15555:15921   */\n      swap2\n      swap1\n      pop\n      jump\t// out\n        /* \"#utility.yul\":15927:16346   */\n    tag_218:\n        /* \"#utility.yul\":16093:16097   */\n      0x00\n        /* \"#utility.yul\":16131:16133   */\n      0x20\n        /* \"#utility.yul\":16120:16129   */\n      dup3\n        /* \"#utility.yul\":16116:16134   */\n      add\n        /* \"#utility.yul\":16108:16134   */\n      swap1\n      pop\n        /* \"#utility.yul\":16180:16189   */\n      dup2\n        /* \"#utility.yul\":16174:16178   */\n      dup2\n        /* \"#utility.yul\":16170:16190   */\n      sub\n        /* \"#utility.yul\":16166:16167   */\n      0x00\n        /* \"#utility.yul\":16155:16164   */\n      dup4\n        /* \"#utility.yul\":16151:16168   */\n      add\n        /* \"#utility.yul\":16144:16191   */\n      mstore\n        /* \"#utility.yul\":16208:16339   */\n      tag_540\n        /* \"#utility.yul\":16334:16338   */\n      dup2\n        /* \"#utility.yul\":16208:16339   */\n      tag_369\n      jump\t// in\n    tag_540:\n        /* \"#utility.yul\":16200:16339   */\n      swap1\n      pop\n        /* \"#utility.yul\":15927:16346   */\n      swap2\n      swap1\n      pop\n      jump\t// out\n        /* \"#utility.yul\":16352:16608   */\n    tag_370:\n        /* \"#utility.yul\":16492:16558   */\n      0x53656c6c2072617465206d75737420626520e289a52031205354454d20706572\n        /* \"#utility.yul\":16488:16489   */\n      0x00\n        /* \"#utility.yul\":16480:16486   */\n      dup3\n        /* \"#utility.yul\":16476:16490   */\n      add\n        /* \"#utility.yul\":16469:16559   */\n      mstore\n        /* \"#utility.yul\":16593:16600   */\n      0x2055534454000000000000000000000000000000000000000000000000000000\n        /* \"#utility.yul\":16588:16590   */\n      0x20\n        /* \"#utility.yul\":16580:16586   */\n      dup3\n        /* \"#utility.yul\":16576:16591   */\n      add\n        /* \"#utility.yul\":16569:16601   */\n      mstore\n        /* \"#utility.yul\":16352:16608   */\n      pop\n      jump\t// out\n        /* \"#utility.yul\":16614:16980   */\n    tag_371:\n        /* \"#utility.yul\":16756:16759   */\n      0x00\n        /* \"#utility.yul\":16777:16844   */\n      tag_543\n        /* \"#utility.yul\":16841:16843   */\n      0x25\n        /* \"#utility.yul\":16836:16839   */\n      dup4\n        /* \"#utility.yul\":16777:16844   */\n      tag_330\n      jump\t// in\n    tag_543:\n        /* \"#utility.yul\":16770:16844   */\n      swap2\n      pop\n        /* \"#utility.yul\":16853:16946   */\n      tag_544\n        /* \"#utility.yul\":16942:16945   */\n      dup3\n        /* \"#utility.yul\":16853:16946   */\n      tag_370\n      jump\t// in\n    tag_544:\n        /* \"#utility.yul\":16971:16973   */\n      0x40\n        /* \"#utility.yul\":16966:16969   */\n      dup3\n        /* \"#utility.yul\":16962:16974   */\n      add\n        /* \"#utility.yul\":16955:16974   */\n      swap1\n      pop\n        /* \"#utility.yul\":16614:16980   */\n      swap2\n      swap1\n      pop\n      jump\t// out\n        /* \"#utility.yul\":16986:17405   */\n    tag_226:\n        /* \"#utility.yul\":17152:17156   */\n      0x00\n        /* \"#utility.yul\":17190:17192   */\n      0x20\n        /* \"#utility.yul\":17179:17188   */\n      dup3\n        /* \"#utility.yul\":17175:17193   */\n      add\n        /* \"#utility.yul\":17167:17193   */\n      swap1\n      pop\n        /* \"#utility.yul\":17239:17248   */\n      dup2\n        /* \"#utility.yul\":17233:17237   */\n      dup2\n        /* \"#utility.yul\":17229:17249   */\n      sub\n        /* \"#utility.yul\":17225:17226   */\n      0x00\n        /* \"#utility.yul\":17214:17223   */\n      dup4\n        /* \"#utility.yul\":17210:17227   */\n      add\n        /* \"#utility.yul\":17203:17250   */\n      mstore\n        /* \"#utility.yul\":17267:17398   */\n      tag_546\n        /* \"#utility.yul\":17393:17397   */\n      dup2\n        /* \"#utility.yul\":17267:17398   */\n      tag_371\n      jump\t// in\n    tag_546:\n        /* \"#utility.yul\":17259:17398   */\n      swap1\n      pop\n        /* \"#utility.yul\":16986:17405   */\n      swap2\n      swap1\n      pop\n      jump\t// out\n        /* \"#utility.yul\":17411:17853   */\n    tag_249:\n        /* \"#utility.yul\":17560:17564   */\n      0x00\n        /* \"#utility.yul\":17598:17600   */\n      0x60\n        /* \"#utility.yul\":17587:17596   */\n      dup3\n        /* \"#utility.yul\":17583:17601   */\n      add\n        /* \"#utility.yul\":17575:17601   */\n      swap1\n      pop\n        /* \"#utility.yul\":17611:17682   */\n      tag_548\n        /* \"#utility.yul\":17679:17680   */\n      0x00\n        /* \"#utility.yul\":17668:17677   */\n      dup4\n        /* \"#utility.yul\":17664:17681   */\n      add\n        /* \"#utility.yul\":17655:17661   */\n      dup7\n        /* \"#utility.yul\":17611:17682   */\n      tag_349\n      jump\t// in\n    tag_548:\n        /* \"#utility.yul\":17692:17764   */\n      tag_549\n        /* \"#utility.yul\":17760:17762   */\n      0x20\n        /* \"#utility.yul\":17749:17758   */\n      dup4\n        /* \"#utility.yul\":17745:17763   */\n      add\n        /* \"#utility.yul\":17736:17742   */\n      dup6\n        /* \"#utility.yul\":17692:17764   */\n      tag_349\n      jump\t// in\n    tag_549:\n        /* \"#utility.yul\":17774:17846   */\n      tag_550\n        /* \"#utility.yul\":17842:17844   */\n      0x40\n        /* \"#utility.yul\":17831:17840   */\n      dup4\n        /* \"#utility.yul\":17827:17845   */\n      add\n        /* \"#utility.yul\":17818:17824   */\n      dup5\n        /* \"#utility.yul\":17774:17846   */\n      tag_346\n      jump\t// in\n    tag_550:\n        /* \"#utility.yul\":17411:17853   */\n      swap5\n      swap4\n      pop\n      pop\n      pop\n      pop\n      jump\t// out\n        /* \"#utility.yul\":17859:18029   */\n    tag_372:\n        /* \"#utility.yul\":17999:18021   */\n      0x55534454207472616e73666572206661696c6564000000000000000000000000\n        /* \"#utility.yul\":17995:17996   */\n      0x00\n        /* \"#utility.yul\":17987:17993   */\n      dup3\n        /* \"#utility.yul\":17983:17997   */\n      add\n        /* \"#utility.yul\":17976:18022   */\n      mstore\n        /* \"#utility.yul\":17859:18029   */\n      pop\n      jump\t// out\n        /* \"#utility.yul\":18035:18401   */\n    tag_373:\n        /* \"#utility.yul\":18177:18180   */\n      0x00\n        /* \"#utility.yul\":18198:18265   */\n      tag_553\n        /* \"#utility.yul\":18262:18264   */\n      0x14\n        /* \"#utility.yul\":18257:18260   */\n      dup4\n        /* \"#utility.yul\":18198:18265   */\n      tag_330\n      jump\t// in\n    tag_553:\n        /* \"#utility.yul\":18191:18265   */\n      swap2\n      pop\n        /* \"#utility.yul\":18274:18367   */\n      tag_554\n        /* \"#utility.yul\":18363:18366   */\n      dup3\n        /* \"#utility.yul\":18274:18367   */\n      tag_372\n      jump\t// in\n    tag_554:\n        /* \"#utility.yul\":18392:18394   */\n      0x20\n        /* \"#utility.yul\":18387:18390   */\n      dup3\n        /* \"#utility.yul\":18383:18395   */\n      add\n        /* \"#utility.yul\":18376:18395   */\n      swap1\n      pop\n        /* \"#utility.yul\":18035:18401   */\n      swap2\n      swap1\n      pop\n      jump\t// out\n        /* \"#utility.yul\":18407:18826   */\n    tag_255:\n        /* \"#utility.yul\":18573:18577   */\n      0x00\n        /* \"#utility.yul\":18611:18613   */\n      0x20\n        /* \"#utility.yul\":18600:18609   */\n      dup3\n        /* \"#utility.yul\":18596:18614   */\n      add\n        /* \"#utility.yul\":18588:18614   */\n      swap1\n      pop\n        /* \"#utility.yul\":18660:18669   */\n      dup2\n        /* \"#utility.yul\":18654:18658   */\n      dup2\n        /* \"#utility.yul\":18650:18670   */\n      sub\n        /* \"#utility.yul\":18646:18647   */\n      0x00\n        /* \"#utility.yul\":18635:18644   */\n      dup4\n        /* \"#utility.yul\":18631:18648   */\n      add\n        /* \"#utility.yul\":18624:18671   */\n      mstore\n        /* \"#utility.yul\":18688:18819   */\n      tag_556\n        /* \"#utility.yul\":18814:18818   */\n      dup2\n        /* \"#utility.yul\":18688:18819   */\n      tag_373\n      jump\t// in\n    tag_556:\n        /* \"#utility.yul\":18680:18819   */\n      swap1\n      pop\n        /* \"#utility.yul\":18407:18826   */\n      swap2\n      swap1\n      pop\n      jump\t// out\n        /* \"#utility.yul\":18832:19164   */\n    tag_258:\n        /* \"#utility.yul\":18953:18957   */\n      0x00\n        /* \"#utility.yul\":18991:18993   */\n      0x40\n        /* \"#utility.yul\":18980:18989   */\n      dup3\n        /* \"#utility.yul\":18976:18994   */\n      add\n        /* \"#utility.yul\":18968:18994   */\n      swap1\n      pop\n        /* \"#utility.yul\":19004:19075   */\n      tag_558\n        /* \"#utility.yul\":19072:19073   */\n      0x00\n        /* \"#utility.yul\":19061:19070   */\n      dup4\n        /* \"#utility.yul\":19057:19074   */\n      add\n        /* \"#utility.yul\":19048:19054   */\n      dup6\n        /* \"#utility.yul\":19004:19075   */\n      tag_346\n      jump\t// in\n    tag_558:\n        /* \"#utility.yul\":19085:19157   */\n      tag_559\n        /* \"#utility.yul\":19153:19155   */\n      0x20\n        /* \"#utility.yul\":19142:19151   */\n      dup4\n        /* \"#utility.yul\":19138:19156   */\n      add\n        /* \"#utility.yul\":19129:19135   */\n      dup5\n        /* \"#utility.yul\":19085:19157   */\n      tag_346\n      jump\t// in\n    tag_559:\n        /* \"#utility.yul\":18832:19164   */\n      swap4\n      swap3\n      pop\n      pop\n      pop\n      jump\t// out\n        /* \"#utility.yul\":19170:19313   */\n    tag_374:\n        /* \"#utility.yul\":19227:19232   */\n      0x00\n        /* \"#utility.yul\":19258:19264   */\n      dup2\n        /* \"#utility.yul\":19252:19265   */\n      mload\n        /* \"#utility.yul\":19243:19265   */\n      swap1\n      pop\n        /* \"#utility.yul\":19274:19307   */\n      tag_561\n        /* \"#utility.yul\":19301:19306   */\n      dup2\n        /* \"#utility.yul\":19274:19307   */\n      tag_342\n      jump\t// in\n    tag_561:\n        /* \"#utility.yul\":19170:19313   */\n      swap3\n      swap2\n      pop\n      pop\n      jump\t// out\n        /* \"#utility.yul\":19319:19670   */\n    tag_267:\n        /* \"#utility.yul\":19389:19395   */\n      0x00\n        /* \"#utility.yul\":19438:19440   */\n      0x20\n        /* \"#utility.yul\":19426:19435   */\n      dup3\n        /* \"#utility.yul\":19417:19424   */\n      dup5\n        /* \"#utility.yul\":19413:19436   */\n      sub\n        /* \"#utility.yul\":19409:19441   */\n      slt\n        /* \"#utility.yul\":19406:19525   */\n      iszero\n      tag_563\n      jumpi\n        /* \"#utility.yul\":19444:19523   */\n      tag_564\n      tag_335\n      jump\t// in\n    tag_564:\n        /* \"#utility.yul\":19406:19525   */\n    tag_563:\n        /* \"#utility.yul\":19564:19565   */\n      0x00\n        /* \"#utility.yul\":19589:19653   */\n      tag_565\n        /* \"#utility.yul\":19645:19652   */\n      dup5\n        /* \"#utility.yul\":19636:19642   */\n      dup3\n        /* \"#utility.yul\":19625:19634   */\n      dup6\n        /* \"#utility.yul\":19621:19643   */\n      add\n        /* \"#utility.yul\":19589:19653   */\n      tag_374\n      jump\t// in\n    tag_565:\n        /* \"#utility.yul\":19579:19653   */\n      swap2\n      pop\n        /* \"#utility.yul\":19535:19663   */\n      pop\n        /* \"#utility.yul\":19319:19670   */\n      swap3\n      swap2\n      pop\n      pop\n      jump\t// out\n        /* \"#utility.yul\":19676:20118   */\n    tag_294:\n        /* \"#utility.yul\":19825:19829   */\n      0x00\n        /* \"#utility.yul\":19863:19865   */\n      0x60\n        /* \"#utility.yul\":19852:19861   */\n      dup3\n        /* \"#utility.yul\":19848:19866   */\n      add\n        /* \"#utility.yul\":19840:19866   */\n      swap1\n      pop\n        /* \"#utility.yul\":19876:19947   */\n      tag_567\n        /* \"#utility.yul\":19944:19945   */\n      0x00\n        /* \"#utility.yul\":19933:19942   */\n      dup4\n        /* \"#utility.yul\":19929:19946   */\n      add\n        /* \"#utility.yul\":19920:19926   */\n      dup7\n        /* \"#utility.yul\":19876:19947   */\n      tag_349\n      jump\t// in\n    tag_567:\n        /* \"#utility.yul\":19957:20029   */\n      tag_568\n        /* \"#utility.yul\":20025:20027   */\n      0x20\n        /* \"#utility.yul\":20014:20023   */\n      dup4\n        /* \"#utility.yul\":20010:20028   */\n      add\n        /* \"#utility.yul\":20001:20007   */\n      dup6\n        /* \"#utility.yul\":19957:20029   */\n      tag_346\n      jump\t// in\n    tag_568:\n        /* \"#utility.yul\":20039:20111   */\n      tag_569\n        /* \"#utility.yul\":20107:20109   */\n      0x40\n        /* \"#utility.yul\":20096:20105   */\n      dup4\n        /* \"#utility.yul\":20092:20110   */\n      add\n        /* \"#utility.yul\":20083:20089   */\n      dup5\n        /* \"#utility.yul\":20039:20111   */\n      tag_346\n      jump\t// in\n    tag_569:\n        /* \"#utility.yul\":19676:20118   */\n      swap5\n      swap4\n      pop\n      pop\n      pop\n      pop\n      jump\t// out\n        /* \"#utility.yul\":20124:20315   */\n    tag_322:\n        /* \"#utility.yul\":20164:20167   */\n      0x00\n        /* \"#utility.yul\":20183:20203   */\n      tag_571\n        /* \"#utility.yul\":20201:20202   */\n      dup3\n        /* \"#utility.yul\":20183:20203   */\n      tag_341\n      jump\t// in\n    tag_571:\n        /* \"#utility.yul\":20178:20203   */\n      swap2\n      pop\n        /* \"#utility.yul\":20217:20237   */\n      tag_572\n        /* \"#utility.yul\":20235:20236   */\n      dup4\n        /* \"#utility.yul\":20217:20237   */\n      tag_341\n      jump\t// in\n    tag_572:\n        /* \"#utility.yul\":20212:20237   */\n      swap3\n      pop\n        /* \"#utility.yul\":20260:20261   */\n      dup3\n        /* \"#utility.yul\":20257:20258   */\n      dup3\n        /* \"#utility.yul\":20253:20262   */\n      add\n        /* \"#utility.yul\":20246:20262   */\n      swap1\n      pop\n        /* \"#utility.yul\":20281:20284   */\n      dup1\n        /* \"#utility.yul\":20278:20279   */\n      dup3\n        /* \"#utility.yul\":20275:20285   */\n      gt\n        /* \"#utility.yul\":20272:20308   */\n      iszero\n      tag_573\n      jumpi\n        /* \"#utility.yul\":20288:20306   */\n      tag_574\n      tag_360\n      jump\t// in\n    tag_574:\n        /* \"#utility.yul\":20272:20308   */\n    tag_573:\n        /* \"#utility.yul\":20124:20315   */\n      swap3\n      swap2\n      pop\n      pop\n      jump\t// out\n\n    auxdata: 0xa264697066735822122032557e277b4dadeae6f6913fe25a0cfbb6fc859d2f6ad6afbf8caf5ea0a886af64736f6c63430008140033\n}\n",
				"bytecode": {
					"linkReferences": {},
					"object": "6080604052670de0b6b3a7640000600755670de0b6b3a764000060085573fe09e35dfadf080a768f41df13e06629f5e80eb960095f6101000a81548173ffffffffffffffffffffffffffffffffffffffff021916908373ffffffffffffffffffffffffffffffffffffffff16021790555073eaca0253b95730f2ae2755af09083d69840a683c600a5f6101000a81548173ffffffffffffffffffffffffffffffffffffffff021916908373ffffffffffffffffffffffffffffffffffffffff160217905550348015620000d0575f80fd5b50604051620030df380380620030df8339818101604052810190620000f69190620006ac565b336040518060400160405280600a81526020017f5354454d20546f6b656e000000000000000000000000000000000000000000008152506040518060400160405280600481526020017f5354454d0000000000000000000000000000000000000000000000000000000081525081600390816200017491906200094c565b5080600490816200018691906200094c565b5050505f73ffffffffffffffffffffffffffffffffffffffff168173ffffffffffffffffffffffffffffffffffffffff1603620001fc575f6040517f1e4fbdf7000000000000000000000000000000000000000000000000000000008152600401620001f3919062000a41565b60405180910390fd5b6200020d816200029e60201b60201c565b508160065f6101000a81548173ffffffffffffffffffffffffffffffffffffffff021916908373ffffffffffffffffffffffffffffffffffffffff1602179055506200029660095f9054906101000a900473ffffffffffffffffffffffffffffffffffffffff16670de0b6b3a7640000836200028a919062000a89565b6200036160201b60201c565b505062000b74565b5f60055f9054906101000a900473ffffffffffffffffffffffffffffffffffffffff1690508160055f6101000a81548173ffffffffffffffffffffffffffffffffffffffff021916908373ffffffffffffffffffffffffffffffffffffffff1602179055508173ffffffffffffffffffffffffffffffffffffffff168173ffffffffffffffffffffffffffffffffffffffff167f8be0079c531659141344cd1fd0a4f28419497f9722a3daafe3b4186f6b6457e060405160405180910390a35050565b5f73ffffffffffffffffffffffffffffffffffffffff168273ffffffffffffffffffffffffffffffffffffffff1603620003d4575f6040517fec442f05000000000000000000000000000000000000000000000000000000008152600401620003cb919062000a41565b60405180910390fd5b620003e75f8383620003eb60201b60201c565b5050565b5f73ffffffffffffffffffffffffffffffffffffffff168373ffffffffffffffffffffffffffffffffffffffff16036200043f578060025f82825462000432919062000ad3565b9250508190555062000510565b5f805f8573ffffffffffffffffffffffffffffffffffffffff1673ffffffffffffffffffffffffffffffffffffffff1681526020019081526020015f2054905081811015620004cb578381836040517fe450d38c000000000000000000000000000000000000000000000000000000008152600401620004c29392919062000b1e565b60405180910390fd5b8181035f808673ffffffffffffffffffffffffffffffffffffffff1673ffffffffffffffffffffffffffffffffffffffff1681526020019081526020015f2081905550505b5f73ffffffffffffffffffffffffffffffffffffffff168273ffffffffffffffffffffffffffffffffffffffff160362000559578060025f8282540392505081905550620005a3565b805f808473ffffffffffffffffffffffffffffffffffffffff1673ffffffffffffffffffffffffffffffffffffffff1681526020019081526020015f205f82825401925050819055505b8173ffffffffffffffffffffffffffffffffffffffff168373ffffffffffffffffffffffffffffffffffffffff167fddf252ad1be2c89b69c2b068fc378daa952ba7f163c4a11628f55a4df523b3ef8360405162000602919062000b59565b60405180910390a3505050565b5f80fd5b5f73ffffffffffffffffffffffffffffffffffffffff82169050919050565b5f6200063e8262000613565b9050919050565b620006508162000632565b81146200065b575f80fd5b50565b5f815190506200066e8162000645565b92915050565b5f819050919050565b620006888162000674565b811462000693575f80fd5b50565b5f81519050620006a6816200067d565b92915050565b5f8060408385031215620006c557620006c46200060f565b5b5f620006d4858286016200065e565b9250506020620006e78582860162000696565b9150509250929050565b5f81519050919050565b7f4e487b71000000000000000000000000000000000000000000000000000000005f52604160045260245ffd5b7f4e487b71000000000000000000000000000000000000000000000000000000005f52602260045260245ffd5b5f60028204905060018216806200076d57607f821691505b60208210810362000783576200078262000728565b5b50919050565b5f819050815f5260205f209050919050565b5f6020601f8301049050919050565b5f82821b905092915050565b5f60088302620007e77fffffffffffffffffffffffffffffffffffffffffffffffffffffffffffffffff82620007aa565b620007f38683620007aa565b95508019841693508086168417925050509392505050565b5f819050919050565b5f620008346200082e620008288462000674565b6200080b565b62000674565b9050919050565b5f819050919050565b6200084f8362000814565b620008676200085e826200083b565b848454620007b6565b825550505050565b5f90565b6200087d6200086f565b6200088a81848462000844565b505050565b5b81811015620008b157620008a55f8262000873565b60018101905062000890565b5050565b601f8211156200090057620008ca8162000789565b620008d5846200079b565b81016020851015620008e5578190505b620008fd620008f4856200079b565b8301826200088f565b50505b505050565b5f82821c905092915050565b5f620009225f198460080262000905565b1980831691505092915050565b5f6200093c838362000911565b9150826002028217905092915050565b6200095782620006f1565b67ffffffffffffffff811115620009735762000972620006fb565b5b6200097f825462000755565b6200098c828285620008b5565b5f60209050601f831160018114620009c2575f8415620009ad578287015190505b620009b985826200092f565b86555062000a28565b601f198416620009d28662000789565b5f5b82811015620009fb57848901518255600182019150602085019450602081019050620009d4565b8683101562000a1b578489015162000a17601f89168262000911565b8355505b6001600288020188555050505b505050505050565b62000a3b8162000632565b82525050565b5f60208201905062000a565f83018462000a30565b92915050565b7f4e487b71000000000000000000000000000000000000000000000000000000005f52601160045260245ffd5b5f62000a958262000674565b915062000aa28362000674565b925082820262000ab28162000674565b9150828204841483151762000acc5762000acb62000a5c565b5b5092915050565b5f62000adf8262000674565b915062000aec8362000674565b925082820190508082111562000b075762000b0662000a5c565b5b92915050565b62000b188162000674565b82525050565b5f60608201905062000b335f83018662000a30565b62000b42602083018562000b0d565b62000b51604083018462000b0d565b949350505050565b5f60208201905062000b6e5f83018462000b0d565b92915050565b61255d8062000b825f395ff3fe608060405234801561000f575f80fd5b50600436106101a7575f3560e01c806385e436bf116100f7578063bb28555411610095578063f0f442601161006f578063f0f442601461049b578063f203787c146104b7578063f2fde38b146104d5578063fc37987b146104f1576101a7565b8063bb28555414610429578063c3f909d414610445578063dd62ed3e1461046b576101a7565b806395d89b41116100d157806395d89b41146103a15780639dc29fac146103bf578063a9059cbb146103db578063a98ad46c1461040b576101a7565b806385e436bf1461034b5780638da5cb5b146103675780638e0b017d14610385576101a7565b8063313ce5671161016457806361d027b31161013e57806361d027b3146102d55780636217229b146102f357806370a0823114610311578063715018a614610341576101a7565b8063313ce5671461027f57806340c10f191461029d5780635d91e3f8146102b9576101a7565b806306fdde03146101ab578063095ea7b3146101c95780630f7e730b146101f95780631481794e1461021557806318160ddd1461023157806323b872dd1461024f575b5f80fd5b6101b361050f565b6040516101c09190611b91565b60405180910390f35b6101e360048036038101906101de9190611c42565b61059f565b6040516101f09190611c9a565b60405180910390f35b610213600480360381019061020e9190611cb3565b6105c1565b005b61022f600480360381019061022a9190611c42565b61064e565b005b610239610783565b6040516102469190611ced565b60405180910390f35b61026960048036038101906102649190611d06565b61078c565b6040516102769190611c9a565b60405180910390f35b6102876107ba565b6040516102949190611d71565b60405180910390f35b6102b760048036038101906102b29190611c42565b6107c2565b005b6102d360048036038101906102ce9190611d8a565b610839565b005b6102dd610af3565b6040516102ea9190611dc4565b60405180910390f35b6102fb610b18565b6040516103089190611ced565b60405180910390f35b61032b60048036038101906103269190611cb3565b610b1e565b6040516103389190611ced565b60405180910390f35b610349610b63565b005b61036560048036038101906103609190611d8a565b610b76565b005b61036f610c4e565b60405161037c9190611dc4565b60405180910390f35b61039f600480360381019061039a9190611d8a565b610c76565b005b6103a9610d0a565b6040516103b69190611b91565b60405180910390f35b6103d960048036038101906103d49190611c42565b610d9a565b005b6103f560048036038101906103f09190611c42565b610e11565b6040516104029190611c9a565b60405180910390f35b610413610e33565b6040516104209190611e38565b60405180910390f35b610443600480360381019061043e9190611d8a565b610e58565b005b61044d61100e565b60405161046299989796959493929190611e51565b60405180910390f35b61048560048036038101906104809190611edc565b61117c565b6040516104929190611ced565b60405180910390f35b6104b560048036038101906104b09190611cb3565b6111fe565b005b6104bf61128c565b6040516104cc9190611dc4565b60405180910390f35b6104ef60048036038101906104ea9190611cb3565b6112b1565b005b6104f9611335565b6040516105069190611ced565b60405180910390f35b60606003805461051e90611f47565b80601f016020809104026020016040519081016040528092919081815260200182805461054a90611f47565b80156105955780601f1061056c57610100808354040283529160200191610595565b820191905f5260205f20905b81548152906001019060200180831161057857829003601f168201915b5050505050905090565b5f806105a961133b565b90506105b6818585611342565b600191505092915050565b6105c9611354565b80600a5f6101000a81548173ffffffffffffffffffffffffffffffffffffffff021916908373ffffffffffffffffffffffffffffffffffffffff1602179055508073ffffffffffffffffffffffffffffffffffffffff167e56d7403454282c9d1b884c3bdcfe0c09772c704ad0b14978c55bf72867485b60405160405180910390a250565b610656611354565b60065f9054906101000a900473ffffffffffffffffffffffffffffffffffffffff1673ffffffffffffffffffffffffffffffffffffffff1663a9059cbb83836040518363ffffffff1660e01b81526004016106b2929190611f77565b6020604051808303815f875af11580156106ce573d5f803e3d5ffd5b505050506040513d601f19601f820116820180604052508101906106f29190611fc8565b610731576040517f08c379a00000000000000000000000000000000000000000000000000000000081526004016107289061203d565b60405180910390fd5b8173ffffffffffffffffffffffffffffffffffffffff167fb0bd88cdae83f74f918eb6bf26d99dcb3c1530530f339233b029e3b6a00ac50b826040516107779190611ced565b60405180910390a25050565b5f600254905090565b5f8061079661133b565b90506107a38582856113db565b6107ae85858561146e565b60019150509392505050565b5f6012905090565b6107ca611354565b6107e782670de0b6b3a7640000836107e29190612088565b61155e565b8173ffffffffffffffffffffffffffffffffffffffff167f30385c845b448a36257a6a1716e6ad2e1bc2cbe333cde1e69fe849ad6511adfe8260405161082d9190611ced565b60405180910390a25050565b5f811161087b576040517f08c379a000000000000000000000000000000000000000000000000000000000815260040161087290612113565b60405180910390fd5b5f600854670de0b6b3a7640000836108939190612088565b61089d919061215e565b90505f670de0b6b3a7640000836108b4919061215e565b90505f600854826108c59190612088565b90505f8482116108d5575f6108e2565b84826108e1919061218e565b5b90506109103360095f9054906101000a900473ffffffffffffffffffffffffffffffffffffffff168761146e565b5f8111801561096c57505f73ffffffffffffffffffffffffffffffffffffffff16600a5f9054906101000a900473ffffffffffffffffffffffffffffffffffffffff1673ffffffffffffffffffffffffffffffffffffffff1614155b156109bf576109be60095f9054906101000a900473ffffffffffffffffffffffffffffffffffffffff16600a5f9054906101000a900473ffffffffffffffffffffffffffffffffffffffff168361146e565b5b60065f9054906101000a900473ffffffffffffffffffffffffffffffffffffffff1673ffffffffffffffffffffffffffffffffffffffff1663a9059cbb33866040518363ffffffff1660e01b8152600401610a1b929190611f77565b6020604051808303815f875af1158015610a37573d5f803e3d5ffd5b505050506040513d601f19601f82011682018060405250810190610a5b9190611fc8565b610a9a576040517f08c379a0000000000000000000000000000000000000000000000000000000008152600401610a919061220b565b60405180910390fd5b3373ffffffffffffffffffffffffffffffffffffffff167f91b69b546d2910ad29983da9d221cf0ebae5eb1929083361f4d6c95878cdb420868684604051610ae493929190612229565b60405180910390a25050505050565b60095f9054906101000a900473ffffffffffffffffffffffffffffffffffffffff1681565b60085481565b5f805f8373ffffffffffffffffffffffffffffffffffffffff1673ffffffffffffffffffffffffffffffffffffffff1681526020019081526020015f20549050919050565b610b6b611354565b610b745f6115dd565b565b610b7e611354565b670de0b6b3a7640000811015610bc9576040517f08c379a0000000000000000000000000000000000000000000000000000000008152600401610bc0906122a8565b60405180910390fd5b600854811115610c0e576040517f08c379a0000000000000000000000000000000000000000000000000000000008152600401610c0590612310565b60405180910390fd5b806007819055507eedd2200f5e00a665285f3c40e420ff44575a36d6abf0b366d132a22cc4fcb181604051610c439190611ced565b60405180910390a150565b5f60055f9054906101000a900473ffffffffffffffffffffffffffffffffffffffff16905090565b610c7e611354565b670de0b6b3a7640000811015610cc9576040517f08c379a0000000000000000000000000000000000000000000000000000000008152600401610cc09061239e565b60405180910390fd5b806008819055507fbd74ca4c80e5eafe62d339abf0f9676e065fe0f2ebca0689e97dd5730ce4d8ab81604051610cff9190611ced565b60405180910390a150565b606060048054610d1990611f47565b80601f0160208091040260200160405190810160405280929190818152602001828054610d4590611f47565b8015610d905780601f10610d6757610100808354040283529160200191610d90565b820191905f5260205f20905b815481529060010190602001808311610d7357829003601f168201915b5050505050905090565b610da2611354565b610dbf82670de0b6b3a764000083610dba9190612088565b6116a0565b8173ffffffffffffffffffffffffffffffffffffffff167f696de425f79f4a40bc6d2122ca50507f0efbeabbff86a84871b7196ab8ea8df782604051610e059190611ced565b60405180910390a25050565b5f80610e1b61133b565b9050610e2881858561146e565b600191505092915050565b60065f9054906101000a900473ffffffffffffffffffffffffffffffffffffffff1681565b5f8111610e9a576040517f08c379a0000000000000000000000000000000000000000000000000000000008152600401610e9190612113565b60405180910390fd5b5f670de0b6b3a764000082610eaf9190612088565b905060065f9054906101000a900473ffffffffffffffffffffffffffffffffffffffff1673ffffffffffffffffffffffffffffffffffffffff166323b872dd3330856040518463ffffffff1660e01b8152600401610f0f939291906123bc565b6020604051808303815f875af1158015610f2b573d5f803e3d5ffd5b505050506040513d601f19601f82011682018060405250810190610f4f9190611fc8565b610f8e576040517f08c379a0000000000000000000000000000000000000000000000000000000008152600401610f859061243b565b60405180910390fd5b610fba60095f9054906101000a900473ffffffffffffffffffffffffffffffffffffffff16338361146e565b3373ffffffffffffffffffffffffffffffffffffffff167f59bb2bddff6a71f8747469b7104385348606a838f9a98de25c0793b2aa4dd0eb8383604051611002929190612459565b60405180910390a25050565b5f805f805f805f805f60075460085460095f9054906101000a900473ffffffffffffffffffffffffffffffffffffffff16600a5f9054906101000a900473ffffffffffffffffffffffffffffffffffffffff1661108b60095f9054906101000a900473ffffffffffffffffffffffffffffffffffffffff16610b1e565b6110b5600a5f9054906101000a900473ffffffffffffffffffffffffffffffffffffffff16610b1e565b6110be30610b1e565b60065f9054906101000a900473ffffffffffffffffffffffffffffffffffffffff1673ffffffffffffffffffffffffffffffffffffffff166370a08231306040518263ffffffff1660e01b81526004016111189190611dc4565b602060405180830381865afa158015611133573d5f803e3d5ffd5b505050506040513d601f19601f820116820180604052508101906111579190612494565b61115f610783565b985098509850985098509850985098509850909192939495969798565b5f60015f8473ffffffffffffffffffffffffffffffffffffffff1673ffffffffffffffffffffffffffffffffffffffff1681526020019081526020015f205f8373ffffffffffffffffffffffffffffffffffffffff1673ffffffffffffffffffffffffffffffffffffffff1681526020019081526020015f2054905092915050565b611206611354565b8060095f6101000a81548173ffffffffffffffffffffffffffffffffffffffff021916908373ffffffffffffffffffffffffffffffffffffffff1602179055508073ffffffffffffffffffffffffffffffffffffffff167fc714d22a2f08b695f81e7c707058db484aa5b4d6b4c9fd64beb10fe85832f60860405160405180910390a250565b600a5f9054906101000a900473ffffffffffffffffffffffffffffffffffffffff1681565b6112b9611354565b5f73ffffffffffffffffffffffffffffffffffffffff168173ffffffffffffffffffffffffffffffffffffffff1603611329575f6040517f1e4fbdf70000000000000000000000000000000000000000000000000000000081526004016113209190611dc4565b60405180910390fd5b611332816115dd565b50565b60075481565b5f33905090565b61134f838383600161171f565b505050565b61135c61133b565b73ffffffffffffffffffffffffffffffffffffffff1661137a610c4e565b73ffffffffffffffffffffffffffffffffffffffff16146113d95761139d61133b565b6040517f118cdaa70000000000000000000000000000000000000000000000000000000081526004016113d09190611dc4565b60405180910390fd5b565b5f6113e6848461117c565b90507fffffffffffffffffffffffffffffffffffffffffffffffffffffffffffffffff8110156114685781811015611459578281836040517ffb8f41b2000000000000000000000000000000000000000000000000000000008152600401611450939291906124bf565b60405180910390fd5b61146784848484035f61171f565b5b50505050565b5f73ffffffffffffffffffffffffffffffffffffffff168373ffffffffffffffffffffffffffffffffffffffff16036114de575f6040517f96c6fd1e0000000000000000000000000000000000000000000000000000000081526004016114d59190611dc4565b60405180910390fd5b5f73ffffffffffffffffffffffffffffffffffffffff168273ffffffffffffffffffffffffffffffffffffffff160361154e575f6040517fec442f050000000000000000000000000000000000000000000000000000000081526004016115459190611dc4565b60405180910390fd5b6115598383836118ee565b505050565b5f73ffffffffffffffffffffffffffffffffffffffff168273ffffffffffffffffffffffffffffffffffffffff16036115ce575f6040517fec442f050000000000000000000000000000000000000000000000000000000081526004016115c59190611dc4565b60405180910390fd5b6115d95f83836118ee565b5050565b5f60055f9054906101000a900473ffffffffffffffffffffffffffffffffffffffff1690508160055f6101000a81548173ffffffffffffffffffffffffffffffffffffffff021916908373ffffffffffffffffffffffffffffffffffffffff1602179055508173ffffffffffffffffffffffffffffffffffffffff168173ffffffffffffffffffffffffffffffffffffffff167f8be0079c531659141344cd1fd0a4f28419497f9722a3daafe3b4186f6b6457e060405160405180910390a35050565b5f73ffffffffffffffffffffffffffffffffffffffff168273ffffffffffffffffffffffffffffffffffffffff1603611710575f6040517f96c6fd1e0000000000000000000000000000000000000000000000000000000081526004016117079190611dc4565b60405180910390fd5b61171b825f836118ee565b5050565b5f73ffffffffffffffffffffffffffffffffffffffff168473ffffffffffffffffffffffffffffffffffffffff160361178f575f6040517fe602df050000000000000000000000000000000000000000000000000000000081526004016117869190611dc4565b60405180910390fd5b5f73ffffffffffffffffffffffffffffffffffffffff168373ffffffffffffffffffffffffffffffffffffffff16036117ff575f6040517f94280d620000000000000000000000000000000000000000000000000000000081526004016117f69190611dc4565b60405180910390fd5b8160015f8673ffffffffffffffffffffffffffffffffffffffff1673ffffffffffffffffffffffffffffffffffffffff1681526020019081526020015f205f8573ffffffffffffffffffffffffffffffffffffffff1673ffffffffffffffffffffffffffffffffffffffff1681526020019081526020015f208190555080156118e8578273ffffffffffffffffffffffffffffffffffffffff168473ffffffffffffffffffffffffffffffffffffffff167f8c5be1e5ebec7d5bd14f71427d1e84f3dd0314c0f7b2291e5b200ac8c7c3b925846040516118df9190611ced565b60405180910390a35b50505050565b5f73ffffffffffffffffffffffffffffffffffffffff168373ffffffffffffffffffffffffffffffffffffffff160361193e578060025f82825461193291906124f4565b92505081905550611a0c565b5f805f8573ffffffffffffffffffffffffffffffffffffffff1673ffffffffffffffffffffffffffffffffffffffff1681526020019081526020015f20549050818110156119c7578381836040517fe450d38c0000000000000000000000000000000000000000000000000000000081526004016119be939291906124bf565b60405180910390fd5b8181035f808673ffffffffffffffffffffffffffffffffffffffff1673ffffffffffffffffffffffffffffffffffffffff1681526020019081526020015f2081905550505b5f73ffffffffffffffffffffffffffffffffffffffff168273ffffffffffffffffffffffffffffffffffffffff1603611a53578060025f8282540392505081905550611a9d565b805f808473ffffffffffffffffffffffffffffffffffffffff1673ffffffffffffffffffffffffffffffffffffffff1681526020019081526020015f205f82825401925050819055505b8173ffffffffffffffffffffffffffffffffffffffff168373ffffffffffffffffffffffffffffffffffffffff167fddf252ad1be2c89b69c2b068fc378daa952ba7f163c4a11628f55a4df523b3ef83604051611afa9190611ced565b60405180910390a3505050565b5f81519050919050565b5f82825260208201905092915050565b5f5b83811015611b3e578082015181840152602081019050611b23565b5f8484015250505050565b5f601f19601f8301169050919050565b5f611b6382611b07565b611b6d8185611b11565b9350611b7d818560208601611b21565b611b8681611b49565b840191505092915050565b5f6020820190508181035f830152611ba98184611b59565b905092915050565b5f80fd5b5f73ffffffffffffffffffffffffffffffffffffffff82169050919050565b5f611bde82611bb5565b9050919050565b611bee81611bd4565b8114611bf8575f80fd5b50565b5f81359050611c0981611be5565b92915050565b5f819050919050565b611c2181611c0f565b8114611c2b575f80fd5b50565b5f81359050611c3c81611c18565b92915050565b5f8060408385031215611c5857611c57611bb1565b5b5f611c6585828601611bfb565b9250506020611c7685828601611c2e565b9150509250929050565b5f8115159050919050565b611c9481611c80565b82525050565b5f602082019050611cad5f830184611c8b565b92915050565b5f60208284031215611cc857611cc7611bb1565b5b5f611cd584828501611bfb565b91505092915050565b611ce781611c0f565b82525050565b5f602082019050611d005f830184611cde565b92915050565b5f805f60608486031215611d1d57611d1c611bb1565b5b5f611d2a86828701611bfb565b9350506020611d3b86828701611bfb565b9250506040611d4c86828701611c2e565b9150509250925092565b5f60ff82169050919050565b611d6b81611d56565b82525050565b5f602082019050611d845f830184611d62565b92915050565b5f60208284031215611d9f57611d9e611bb1565b5b5f611dac84828501611c2e565b91505092915050565b611dbe81611bd4565b82525050565b5f602082019050611dd75f830184611db5565b92915050565b5f819050919050565b5f611e00611dfb611df684611bb5565b611ddd565b611bb5565b9050919050565b5f611e1182611de6565b9050919050565b5f611e2282611e07565b9050919050565b611e3281611e18565b82525050565b5f602082019050611e4b5f830184611e29565b92915050565b5f61012082019050611e655f83018c611cde565b611e72602083018b611cde565b611e7f604083018a611db5565b611e8c6060830189611db5565b611e996080830188611cde565b611ea660a0830187611cde565b611eb360c0830186611cde565b611ec060e0830185611cde565b611ece610100830184611cde565b9a9950505050505050505050565b5f8060408385031215611ef257611ef1611bb1565b5b5f611eff85828601611bfb565b9250506020611f1085828601611bfb565b9150509250929050565b7f4e487b71000000000000000000000000000000000000000000000000000000005f52602260045260245ffd5b5f6002820490506001821680611f5e57607f821691505b602082108103611f7157611f70611f1a565b5b50919050565b5f604082019050611f8a5f830185611db5565b611f976020830184611cde565b9392505050565b611fa781611c80565b8114611fb1575f80fd5b50565b5f81519050611fc281611f9e565b92915050565b5f60208284031215611fdd57611fdc611bb1565b5b5f611fea84828501611fb4565b91505092915050565b7f5769746864726177206661696c656400000000000000000000000000000000005f82015250565b5f612027600f83611b11565b915061203282611ff3565b602082019050919050565b5f6020820190508181035f8301526120548161201b565b9050919050565b7f4e487b71000000000000000000000000000000000000000000000000000000005f52601160045260245ffd5b5f61209282611c0f565b915061209d83611c0f565b92508282026120ab81611c0f565b915082820484148315176120c2576120c161205b565b5b5092915050565b7f416d6f756e74206d7573742062652067726561746572207468616e20300000005f82015250565b5f6120fd601d83611b11565b9150612108826120c9565b602082019050919050565b5f6020820190508181035f83015261212a816120f1565b9050919050565b7f4e487b71000000000000000000000000000000000000000000000000000000005f52601260045260245ffd5b5f61216882611c0f565b915061217383611c0f565b92508261218357612182612131565b5b828204905092915050565b5f61219882611c0f565b91506121a383611c0f565b92508282039050818111156121bb576121ba61205b565b5b92915050565b7f55534454207061796f7574206661696c656400000000000000000000000000005f82015250565b5f6121f5601283611b11565b9150612200826121c1565b602082019050919050565b5f6020820190508181035f830152612222816121e9565b9050919050565b5f60608201905061223c5f830186611cde565b6122496020830185611cde565b6122566040830184611cde565b949350505050565b7f4275792072617465206d757374206265203e3d2031205354454d0000000000005f82015250565b5f612292601a83611b11565b915061229d8261225e565b602082019050919050565b5f6020820190508181035f8301526122bf81612286565b9050919050565b7f4275792072617465206d757374206265203c3d2053656c6c20726174650000005f82015250565b5f6122fa601d83611b11565b9150612305826122c6565b602082019050919050565b5f6020820190508181035f830152612327816122ee565b9050919050565b7f53656c6c2072617465206d75737420626520e289a52031205354454d207065725f8201527f2055534454000000000000000000000000000000000000000000000000000000602082015250565b5f612388602583611b11565b91506123938261232e565b604082019050919050565b5f6020820190508181035f8301526123b58161237c565b9050919050565b5f6060820190506123cf5f830186611db5565b6123dc6020830185611db5565b6123e96040830184611cde565b949350505050565b7f55534454207472616e73666572206661696c65640000000000000000000000005f82015250565b5f612425601483611b11565b9150612430826123f1565b602082019050919050565b5f6020820190508181035f83015261245281612419565b9050919050565b5f60408201905061246c5f830185611cde565b6124796020830184611cde565b9392505050565b5f8151905061248e81611c18565b92915050565b5f602082840312156124a9576124a8611bb1565b5b5f6124b684828501612480565b91505092915050565b5f6060820190506124d25f830186611db5565b6124df6020830185611cde565b6124ec6040830184611cde565b949350505050565b5f6124fe82611c0f565b915061250983611c0f565b92508282019050808211156125215761252061205b565b5b9291505056fea264697066735822122032557e277b4dadeae6f6913fe25a0cfbb6fc859d2f6ad6afbf8caf5ea0a886af64736f6c63430008140033",
					"opcodes": "PUSH1 0x80 PUSH1 0x40 MSTORE PUSH8 0xDE0B6B3A7640000 PUSH1 0x7 SSTORE PUSH8 0xDE0B6B3A7640000 PUSH1 0x8 SSTORE PUSH20 0xFE09E35DFADF080A768F41DF13E06629F5E80EB9 PUSH1 0x9 PUSH0 PUSH2 0x100 EXP DUP2 SLOAD DUP2 PUSH20 0xFFFFFFFFFFFFFFFFFFFFFFFFFFFFFFFFFFFFFFFF MUL NOT AND SWAP1 DUP4 PUSH20 0xFFFFFFFFFFFFFFFFFFFFFFFFFFFFFFFFFFFFFFFF AND MUL OR SWAP1 SSTORE POP PUSH20 0xEACA0253B95730F2AE2755AF09083D69840A683C PUSH1 0xA PUSH0 PUSH2 0x100 EXP DUP2 SLOAD DUP2 PUSH20 0xFFFFFFFFFFFFFFFFFFFFFFFFFFFFFFFFFFFFFFFF MUL NOT AND SWAP1 DUP4 PUSH20 0xFFFFFFFFFFFFFFFFFFFFFFFFFFFFFFFFFFFFFFFF AND MUL OR SWAP1 SSTORE POP CALLVALUE DUP1 ISZERO PUSH3 0xD0 JUMPI PUSH0 DUP1 REVERT JUMPDEST POP PUSH1 0x40 MLOAD PUSH3 0x30DF CODESIZE SUB DUP1 PUSH3 0x30DF DUP4 CODECOPY DUP2 DUP2 ADD PUSH1 0x40 MSTORE DUP2 ADD SWAP1 PUSH3 0xF6 SWAP2 SWAP1 PUSH3 0x6AC JUMP JUMPDEST CALLER PUSH1 0x40 MLOAD DUP1 PUSH1 0x40 ADD PUSH1 0x40 MSTORE DUP1 PUSH1 0xA DUP2 MSTORE PUSH1 0x20 ADD PUSH32 0x5354454D20546F6B656E00000000000000000000000000000000000000000000 DUP2 MSTORE POP PUSH1 0x40 MLOAD DUP1 PUSH1 0x40 ADD PUSH1 0x40 MSTORE DUP1 PUSH1 0x4 DUP2 MSTORE PUSH1 0x20 ADD PUSH32 0x5354454D00000000000000000000000000000000000000000000000000000000 DUP2 MSTORE POP DUP2 PUSH1 0x3 SWAP1 DUP2 PUSH3 0x174 SWAP2 SWAP1 PUSH3 0x94C JUMP JUMPDEST POP DUP1 PUSH1 0x4 SWAP1 DUP2 PUSH3 0x186 SWAP2 SWAP1 PUSH3 0x94C JUMP JUMPDEST POP POP POP PUSH0 PUSH20 0xFFFFFFFFFFFFFFFFFFFFFFFFFFFFFFFFFFFFFFFF AND DUP2 PUSH20 0xFFFFFFFFFFFFFFFFFFFFFFFFFFFFFFFFFFFFFFFF AND SUB PUSH3 0x1FC JUMPI PUSH0 PUSH1 0x40 MLOAD PUSH32 0x1E4FBDF700000000000000000000000000000000000000000000000000000000 DUP2 MSTORE PUSH1 0x4 ADD PUSH3 0x1F3 SWAP2 SWAP1 PUSH3 0xA41 JUMP JUMPDEST PUSH1 0x40 MLOAD DUP1 SWAP2 SUB SWAP1 REVERT JUMPDEST PUSH3 0x20D DUP2 PUSH3 0x29E PUSH1 0x20 SHL PUSH1 0x20 SHR JUMP JUMPDEST POP DUP2 PUSH1 0x6 PUSH0 PUSH2 0x100 EXP DUP2 SLOAD DUP2 PUSH20 0xFFFFFFFFFFFFFFFFFFFFFFFFFFFFFFFFFFFFFFFF MUL NOT AND SWAP1 DUP4 PUSH20 0xFFFFFFFFFFFFFFFFFFFFFFFFFFFFFFFFFFFFFFFF AND MUL OR SWAP1 SSTORE POP PUSH3 0x296 PUSH1 0x9 PUSH0 SWAP1 SLOAD SWAP1 PUSH2 0x100 EXP SWAP1 DIV PUSH20 0xFFFFFFFFFFFFFFFFFFFFFFFFFFFFFFFFFFFFFFFF AND PUSH8 0xDE0B6B3A7640000 DUP4 PUSH3 0x28A SWAP2 SWAP1 PUSH3 0xA89 JUMP JUMPDEST PUSH3 0x361 PUSH1 0x20 SHL PUSH1 0x20 SHR JUMP JUMPDEST POP POP PUSH3 0xB74 JUMP JUMPDEST PUSH0 PUSH1 0x5 PUSH0 SWAP1 SLOAD SWAP1 PUSH2 0x100 EXP SWAP1 DIV PUSH20 0xFFFFFFFFFFFFFFFFFFFFFFFFFFFFFFFFFFFFFFFF AND SWAP1 POP DUP2 PUSH1 0x5 PUSH0 PUSH2 0x100 EXP DUP2 SLOAD DUP2 PUSH20 0xFFFFFFFFFFFFFFFFFFFFFFFFFFFFFFFFFFFFFFFF MUL NOT AND SWAP1 DUP4 PUSH20 0xFFFFFFFFFFFFFFFFFFFFFFFFFFFFFFFFFFFFFFFF AND MUL OR SWAP1 SSTORE POP DUP2 PUSH20 0xFFFFFFFFFFFFFFFFFFFFFFFFFFFFFFFFFFFFFFFF AND DUP2 PUSH20 0xFFFFFFFFFFFFFFFFFFFFFFFFFFFFFFFFFFFFFFFF AND PUSH32 0x8BE0079C531659141344CD1FD0A4F28419497F9722A3DAAFE3B4186F6B6457E0 PUSH1 0x40 MLOAD PUSH1 0x40 MLOAD DUP1 SWAP2 SUB SWAP1 LOG3 POP POP JUMP JUMPDEST PUSH0 PUSH20 0xFFFFFFFFFFFFFFFFFFFFFFFFFFFFFFFFFFFFFFFF AND DUP3 PUSH20 0xFFFFFFFFFFFFFFFFFFFFFFFFFFFFFFFFFFFFFFFF AND SUB PUSH3 0x3D4 JUMPI PUSH0 PUSH1 0x40 MLOAD PUSH32 0xEC442F0500000000000000000000000000000000000000000000000000000000 DUP2 MSTORE PUSH1 0x4 ADD PUSH3 0x3CB SWAP2 SWAP1 PUSH3 0xA41 JUMP JUMPDEST PUSH1 0x40 MLOAD DUP1 SWAP2 SUB SWAP1 REVERT JUMPDEST PUSH3 0x3E7 PUSH0 DUP4 DUP4 PUSH3 0x3EB PUSH1 0x20 SHL PUSH1 0x20 SHR JUMP JUMPDEST POP POP JUMP JUMPDEST PUSH0 PUSH20 0xFFFFFFFFFFFFFFFFFFFFFFFFFFFFFFFFFFFFFFFF AND DUP4 PUSH20 0xFFFFFFFFFFFFFFFFFFFFFFFFFFFFFFFFFFFFFFFF AND SUB PUSH3 0x43F JUMPI DUP1 PUSH1 0x2 PUSH0 DUP3 DUP3 SLOAD PUSH3 0x432 SWAP2 SWAP1 PUSH3 0xAD3 JUMP JUMPDEST SWAP3 POP POP DUP2 SWAP1 SSTORE POP PUSH3 0x510 JUMP JUMPDEST PUSH0 DUP1 PUSH0 DUP6 PUSH20 0xFFFFFFFFFFFFFFFFFFFFFFFFFFFFFFFFFFFFFFFF AND PUSH20 0xFFFFFFFFFFFFFFFFFFFFFFFFFFFFFFFFFFFFFFFF AND DUP2 MSTORE PUSH1 0x20 ADD SWAP1 DUP2 MSTORE PUSH1 0x20 ADD PUSH0 KECCAK256 SLOAD SWAP1 POP DUP2 DUP2 LT ISZERO PUSH3 0x4CB JUMPI DUP4 DUP2 DUP4 PUSH1 0x40 MLOAD PUSH32 0xE450D38C00000000000000000000000000000000000000000000000000000000 DUP2 MSTORE PUSH1 0x4 ADD PUSH3 0x4C2 SWAP4 SWAP3 SWAP2 SWAP1 PUSH3 0xB1E JUMP JUMPDEST PUSH1 0x40 MLOAD DUP1 SWAP2 SUB SWAP1 REVERT JUMPDEST DUP2 DUP2 SUB PUSH0 DUP1 DUP7 PUSH20 0xFFFFFFFFFFFFFFFFFFFFFFFFFFFFFFFFFFFFFFFF AND PUSH20 0xFFFFFFFFFFFFFFFFFFFFFFFFFFFFFFFFFFFFFFFF AND DUP2 MSTORE PUSH1 0x20 ADD SWAP1 DUP2 MSTORE PUSH1 0x20 ADD PUSH0 KECCAK256 DUP2 SWAP1 SSTORE POP POP JUMPDEST PUSH0 PUSH20 0xFFFFFFFFFFFFFFFFFFFFFFFFFFFFFFFFFFFFFFFF AND DUP3 PUSH20 0xFFFFFFFFFFFFFFFFFFFFFFFFFFFFFFFFFFFFFFFF AND SUB PUSH3 0x559 JUMPI DUP1 PUSH1 0x2 PUSH0 DUP3 DUP3 SLOAD SUB SWAP3 POP POP DUP2 SWAP1 SSTORE POP PUSH3 0x5A3 JUMP JUMPDEST DUP1 PUSH0 DUP1 DUP5 PUSH20 0xFFFFFFFFFFFFFFFFFFFFFFFFFFFFFFFFFFFFFFFF AND PUSH20 0xFFFFFFFFFFFFFFFFFFFFFFFFFFFFFFFFFFFFFFFF AND DUP2 MSTORE PUSH1 0x20 ADD SWAP1 DUP2 MSTORE PUSH1 0x20 ADD PUSH0 KECCAK256 PUSH0 DUP3 DUP3 SLOAD ADD SWAP3 POP POP DUP2 SWAP1 SSTORE POP JUMPDEST DUP2 PUSH20 0xFFFFFFFFFFFFFFFFFFFFFFFFFFFFFFFFFFFFFFFF AND DUP4 PUSH20 0xFFFFFFFFFFFFFFFFFFFFFFFFFFFFFFFFFFFFFFFF AND PUSH32 0xDDF252AD1BE2C89B69C2B068FC378DAA952BA7F163C4A11628F55A4DF523B3EF DUP4 PUSH1 0x40 MLOAD PUSH3 0x602 SWAP2 SWAP1 PUSH3 0xB59 JUMP JUMPDEST PUSH1 0x40 MLOAD DUP1 SWAP2 SUB SWAP1 LOG3 POP POP POP JUMP JUMPDEST PUSH0 DUP1 REVERT JUMPDEST PUSH0 PUSH20 0xFFFFFFFFFFFFFFFFFFFFFFFFFFFFFFFFFFFFFFFF DUP3 AND SWAP1 POP SWAP2 SWAP1 POP JUMP JUMPDEST PUSH0 PUSH3 0x63E DUP3 PUSH3 0x613 JUMP JUMPDEST SWAP1 POP SWAP2 SWAP1 POP JUMP JUMPDEST PUSH3 0x650 DUP2 PUSH3 0x632 JUMP JUMPDEST DUP2 EQ PUSH3 0x65B JUMPI PUSH0 DUP1 REVERT JUMPDEST POP JUMP JUMPDEST PUSH0 DUP2 MLOAD SWAP1 POP PUSH3 0x66E DUP2 PUSH3 0x645 JUMP JUMPDEST SWAP3 SWAP2 POP POP JUMP JUMPDEST PUSH0 DUP2 SWAP1 POP SWAP2 SWAP1 POP JUMP JUMPDEST PUSH3 0x688 DUP2 PUSH3 0x674 JUMP JUMPDEST DUP2 EQ PUSH3 0x693 JUMPI PUSH0 DUP1 REVERT JUMPDEST POP JUMP JUMPDEST PUSH0 DUP2 MLOAD SWAP1 POP PUSH3 0x6A6 DUP2 PUSH3 0x67D JUMP JUMPDEST SWAP3 SWAP2 POP POP JUMP JUMPDEST PUSH0 DUP1 PUSH1 0x40 DUP4 DUP6 SUB SLT ISZERO PUSH3 0x6C5 JUMPI PUSH3 0x6C4 PUSH3 0x60F JUMP JUMPDEST JUMPDEST PUSH0 PUSH3 0x6D4 DUP6 DUP3 DUP7 ADD PUSH3 0x65E JUMP JUMPDEST SWAP3 POP POP PUSH1 0x20 PUSH3 0x6E7 DUP6 DUP3 DUP7 ADD PUSH3 0x696 JUMP JUMPDEST SWAP2 POP POP SWAP3 POP SWAP3 SWAP1 POP JUMP JUMPDEST PUSH0 DUP2 MLOAD SWAP1 POP SWAP2 SWAP1 POP JUMP JUMPDEST PUSH32 0x4E487B7100000000000000000000000000000000000000000000000000000000 PUSH0 MSTORE PUSH1 0x41 PUSH1 0x4 MSTORE PUSH1 0x24 PUSH0 REVERT JUMPDEST PUSH32 0x4E487B7100000000000000000000000000000000000000000000000000000000 PUSH0 MSTORE PUSH1 0x22 PUSH1 0x4 MSTORE PUSH1 0x24 PUSH0 REVERT JUMPDEST PUSH0 PUSH1 0x2 DUP3 DIV SWAP1 POP PUSH1 0x1 DUP3 AND DUP1 PUSH3 0x76D JUMPI PUSH1 0x7F DUP3 AND SWAP2 POP JUMPDEST PUSH1 0x20 DUP3 LT DUP2 SUB PUSH3 0x783 JUMPI PUSH3 0x782 PUSH3 0x728 JUMP JUMPDEST JUMPDEST POP SWAP2 SWAP1 POP JUMP JUMPDEST PUSH0 DUP2 SWAP1 POP DUP2 PUSH0 MSTORE PUSH1 0x20 PUSH0 KECCAK256 SWAP1 POP SWAP2 SWAP1 POP JUMP JUMPDEST PUSH0 PUSH1 0x20 PUSH1 0x1F DUP4 ADD DIV SWAP1 POP SWAP2 SWAP1 POP JUMP JUMPDEST PUSH0 DUP3 DUP3 SHL SWAP1 POP SWAP3 SWAP2 POP POP JUMP JUMPDEST PUSH0 PUSH1 0x8 DUP4 MUL PUSH3 0x7E7 PUSH32 0xFFFFFFFFFFFFFFFFFFFFFFFFFFFFFFFFFFFFFFFFFFFFFFFFFFFFFFFFFFFFFFFF DUP3 PUSH3 0x7AA JUMP JUMPDEST PUSH3 0x7F3 DUP7 DUP4 PUSH3 0x7AA JUMP JUMPDEST SWAP6 POP DUP1 NOT DUP5 AND SWAP4 POP DUP1 DUP7 AND DUP5 OR SWAP3 POP POP POP SWAP4 SWAP3 POP POP POP JUMP JUMPDEST PUSH0 DUP2 SWAP1 POP SWAP2 SWAP1 POP JUMP JUMPDEST PUSH0 PUSH3 0x834 PUSH3 0x82E PUSH3 0x828 DUP5 PUSH3 0x674 JUMP JUMPDEST PUSH3 0x80B JUMP JUMPDEST PUSH3 0x674 JUMP JUMPDEST SWAP1 POP SWAP2 SWAP1 POP JUMP JUMPDEST PUSH0 DUP2 SWAP1 POP SWAP2 SWAP1 POP JUMP JUMPDEST PUSH3 0x84F DUP4 PUSH3 0x814 JUMP JUMPDEST PUSH3 0x867 PUSH3 0x85E DUP3 PUSH3 0x83B JUMP JUMPDEST DUP5 DUP5 SLOAD PUSH3 0x7B6 JUMP JUMPDEST DUP3 SSTORE POP POP POP POP JUMP JUMPDEST PUSH0 SWAP1 JUMP JUMPDEST PUSH3 0x87D PUSH3 0x86F JUMP JUMPDEST PUSH3 0x88A DUP2 DUP5 DUP5 PUSH3 0x844 JUMP JUMPDEST POP POP POP JUMP JUMPDEST JUMPDEST DUP2 DUP2 LT ISZERO PUSH3 0x8B1 JUMPI PUSH3 0x8A5 PUSH0 DUP3 PUSH3 0x873 JUMP JUMPDEST PUSH1 0x1 DUP2 ADD SWAP1 POP PUSH3 0x890 JUMP JUMPDEST POP POP JUMP JUMPDEST PUSH1 0x1F DUP3 GT ISZERO PUSH3 0x900 JUMPI PUSH3 0x8CA DUP2 PUSH3 0x789 JUMP JUMPDEST PUSH3 0x8D5 DUP5 PUSH3 0x79B JUMP JUMPDEST DUP2 ADD PUSH1 0x20 DUP6 LT ISZERO PUSH3 0x8E5 JUMPI DUP2 SWAP1 POP JUMPDEST PUSH3 0x8FD PUSH3 0x8F4 DUP6 PUSH3 0x79B JUMP JUMPDEST DUP4 ADD DUP3 PUSH3 0x88F JUMP JUMPDEST POP POP JUMPDEST POP POP POP JUMP JUMPDEST PUSH0 DUP3 DUP3 SHR SWAP1 POP SWAP3 SWAP2 POP POP JUMP JUMPDEST PUSH0 PUSH3 0x922 PUSH0 NOT DUP5 PUSH1 0x8 MUL PUSH3 0x905 JUMP JUMPDEST NOT DUP1 DUP4 AND SWAP2 POP POP SWAP3 SWAP2 POP POP JUMP JUMPDEST PUSH0 PUSH3 0x93C DUP4 DUP4 PUSH3 0x911 JUMP JUMPDEST SWAP2 POP DUP3 PUSH1 0x2 MUL DUP3 OR SWAP1 POP SWAP3 SWAP2 POP POP JUMP JUMPDEST PUSH3 0x957 DUP3 PUSH3 0x6F1 JUMP JUMPDEST PUSH8 0xFFFFFFFFFFFFFFFF DUP2 GT ISZERO PUSH3 0x973 JUMPI PUSH3 0x972 PUSH3 0x6FB JUMP JUMPDEST JUMPDEST PUSH3 0x97F DUP3 SLOAD PUSH3 0x755 JUMP JUMPDEST PUSH3 0x98C DUP3 DUP3 DUP6 PUSH3 0x8B5 JUMP JUMPDEST PUSH0 PUSH1 0x20 SWAP1 POP PUSH1 0x1F DUP4 GT PUSH1 0x1 DUP2 EQ PUSH3 0x9C2 JUMPI PUSH0 DUP5 ISZERO PUSH3 0x9AD JUMPI DUP3 DUP8 ADD MLOAD SWAP1 POP JUMPDEST PUSH3 0x9B9 DUP6 DUP3 PUSH3 0x92F JUMP JUMPDEST DUP7 SSTORE POP PUSH3 0xA28 JUMP JUMPDEST PUSH1 0x1F NOT DUP5 AND PUSH3 0x9D2 DUP7 PUSH3 0x789 JUMP JUMPDEST PUSH0 JUMPDEST DUP3 DUP2 LT ISZERO PUSH3 0x9FB JUMPI DUP5 DUP10 ADD MLOAD DUP3 SSTORE PUSH1 0x1 DUP3 ADD SWAP2 POP PUSH1 0x20 DUP6 ADD SWAP5 POP PUSH1 0x20 DUP2 ADD SWAP1 POP PUSH3 0x9D4 JUMP JUMPDEST DUP7 DUP4 LT ISZERO PUSH3 0xA1B JUMPI DUP5 DUP10 ADD MLOAD PUSH3 0xA17 PUSH1 0x1F DUP10 AND DUP3 PUSH3 0x911 JUMP JUMPDEST DUP4 SSTORE POP JUMPDEST PUSH1 0x1 PUSH1 0x2 DUP9 MUL ADD DUP9 SSTORE POP POP POP JUMPDEST POP POP POP POP POP POP JUMP JUMPDEST PUSH3 0xA3B DUP2 PUSH3 0x632 JUMP JUMPDEST DUP3 MSTORE POP POP JUMP JUMPDEST PUSH0 PUSH1 0x20 DUP3 ADD SWAP1 POP PUSH3 0xA56 PUSH0 DUP4 ADD DUP5 PUSH3 0xA30 JUMP JUMPDEST SWAP3 SWAP2 POP POP JUMP JUMPDEST PUSH32 0x4E487B7100000000000000000000000000000000000000000000000000000000 PUSH0 MSTORE PUSH1 0x11 PUSH1 0x4 MSTORE PUSH1 0x24 PUSH0 REVERT JUMPDEST PUSH0 PUSH3 0xA95 DUP3 PUSH3 0x674 JUMP JUMPDEST SWAP2 POP PUSH3 0xAA2 DUP4 PUSH3 0x674 JUMP JUMPDEST SWAP3 POP DUP3 DUP3 MUL PUSH3 0xAB2 DUP2 PUSH3 0x674 JUMP JUMPDEST SWAP2 POP DUP3 DUP3 DIV DUP5 EQ DUP4 ISZERO OR PUSH3 0xACC JUMPI PUSH3 0xACB PUSH3 0xA5C JUMP JUMPDEST JUMPDEST POP SWAP3 SWAP2 POP POP JUMP JUMPDEST PUSH0 PUSH3 0xADF DUP3 PUSH3 0x674 JUMP JUMPDEST SWAP2 POP PUSH3 0xAEC DUP4 PUSH3 0x674 JUMP JUMPDEST SWAP3 POP DUP3 DUP3 ADD SWAP1 POP DUP1 DUP3 GT ISZERO PUSH3 0xB07 JUMPI PUSH3 0xB06 PUSH3 0xA5C JUMP JUMPDEST JUMPDEST SWAP3 SWAP2 POP POP JUMP JUMPDEST PUSH3 0xB18 DUP2 PUSH3 0x674 JUMP JUMPDEST DUP3 MSTORE POP POP JUMP JUMPDEST PUSH0 PUSH1 0x60 DUP3 ADD SWAP1 POP PUSH3 0xB33 PUSH0 DUP4 ADD DUP7 PUSH3 0xA30 JUMP JUMPDEST PUSH3 0xB42 PUSH1 0x20 DUP4 ADD DUP6 PUSH3 0xB0D JUMP JUMPDEST PUSH3 0xB51 PUSH1 0x40 DUP4 ADD DUP5 PUSH3 0xB0D JUMP JUMPDEST SWAP5 SWAP4 POP POP POP POP JUMP JUMPDEST PUSH0 PUSH1 0x20 DUP3 ADD SWAP1 POP PUSH3 0xB6E PUSH0 DUP4 ADD DUP5 PUSH3 0xB0D JUMP JUMPDEST SWAP3 SWAP2 POP POP JUMP JUMPDEST PUSH2 0x255D DUP1 PUSH3 0xB82 PUSH0 CODECOPY PUSH0 RETURN INVALID PUSH1 0x80 PUSH1 0x40 MSTORE CALLVALUE DUP1 ISZERO PUSH2 0xF JUMPI PUSH0 DUP1 REVERT JUMPDEST POP PUSH1 0x4 CALLDATASIZE LT PUSH2 0x1A7 JUMPI PUSH0 CALLDATALOAD PUSH1 0xE0 SHR DUP1 PUSH4 0x85E436BF GT PUSH2 0xF7 JUMPI DUP1 PUSH4 0xBB285554 GT PUSH2 0x95 JUMPI DUP1 PUSH4 0xF0F44260 GT PUSH2 0x6F JUMPI DUP1 PUSH4 0xF0F44260 EQ PUSH2 0x49B JUMPI DUP1 PUSH4 0xF203787C EQ PUSH2 0x4B7 JUMPI DUP1 PUSH4 0xF2FDE38B EQ PUSH2 0x4D5 JUMPI DUP1 PUSH4 0xFC37987B EQ PUSH2 0x4F1 JUMPI PUSH2 0x1A7 JUMP JUMPDEST DUP1 PUSH4 0xBB285554 EQ PUSH2 0x429 JUMPI DUP1 PUSH4 0xC3F909D4 EQ PUSH2 0x445 JUMPI DUP1 PUSH4 0xDD62ED3E EQ PUSH2 0x46B JUMPI PUSH2 0x1A7 JUMP JUMPDEST DUP1 PUSH4 0x95D89B41 GT PUSH2 0xD1 JUMPI DUP1 PUSH4 0x95D89B41 EQ PUSH2 0x3A1 JUMPI DUP1 PUSH4 0x9DC29FAC EQ PUSH2 0x3BF JUMPI DUP1 PUSH4 0xA9059CBB EQ PUSH2 0x3DB JUMPI DUP1 PUSH4 0xA98AD46C EQ PUSH2 0x40B JUMPI PUSH2 0x1A7 JUMP JUMPDEST DUP1 PUSH4 0x85E436BF EQ PUSH2 0x34B JUMPI DUP1 PUSH4 0x8DA5CB5B EQ PUSH2 0x367 JUMPI DUP1 PUSH4 0x8E0B017D EQ PUSH2 0x385 JUMPI PUSH2 0x1A7 JUMP JUMPDEST DUP1 PUSH4 0x313CE567 GT PUSH2 0x164 JUMPI DUP1 PUSH4 0x61D027B3 GT PUSH2 0x13E JUMPI DUP1 PUSH4 0x61D027B3 EQ PUSH2 0x2D5 JUMPI DUP1 PUSH4 0x6217229B EQ PUSH2 0x2F3 JUMPI DUP1 PUSH4 0x70A08231 EQ PUSH2 0x311 JUMPI DUP1 PUSH4 0x715018A6 EQ PUSH2 0x341 JUMPI PUSH2 0x1A7 JUMP JUMPDEST DUP1 PUSH4 0x313CE567 EQ PUSH2 0x27F JUMPI DUP1 PUSH4 0x40C10F19 EQ PUSH2 0x29D JUMPI DUP1 PUSH4 0x5D91E3F8 EQ PUSH2 0x2B9 JUMPI PUSH2 0x1A7 JUMP JUMPDEST DUP1 PUSH4 0x6FDDE03 EQ PUSH2 0x1AB JUMPI DUP1 PUSH4 0x95EA7B3 EQ PUSH2 0x1C9 JUMPI DUP1 PUSH4 0xF7E730B EQ PUSH2 0x1F9 JUMPI DUP1 PUSH4 0x1481794E EQ PUSH2 0x215 JUMPI DUP1 PUSH4 0x18160DDD EQ PUSH2 0x231 JUMPI DUP1 PUSH4 0x23B872DD EQ PUSH2 0x24F JUMPI JUMPDEST PUSH0 DUP1 REVERT JUMPDEST PUSH2 0x1B3 PUSH2 0x50F JUMP JUMPDEST PUSH1 0x40 MLOAD PUSH2 0x1C0 SWAP2 SWAP1 PUSH2 0x1B91 JUMP JUMPDEST PUSH1 0x40 MLOAD DUP1 SWAP2 SUB SWAP1 RETURN JUMPDEST PUSH2 0x1E3 PUSH1 0x4 DUP1 CALLDATASIZE SUB DUP2 ADD SWAP1 PUSH2 0x1DE SWAP2 SWAP1 PUSH2 0x1C42 JUMP JUMPDEST PUSH2 0x59F JUMP JUMPDEST PUSH1 0x40 MLOAD PUSH2 0x1F0 SWAP2 SWAP1 PUSH2 0x1C9A JUMP JUMPDEST PUSH1 0x40 MLOAD DUP1 SWAP2 SUB SWAP1 RETURN JUMPDEST PUSH2 0x213 PUSH1 0x4 DUP1 CALLDATASIZE SUB DUP2 ADD SWAP1 PUSH2 0x20E SWAP2 SWAP1 PUSH2 0x1CB3 JUMP JUMPDEST PUSH2 0x5C1 JUMP JUMPDEST STOP JUMPDEST PUSH2 0x22F PUSH1 0x4 DUP1 CALLDATASIZE SUB DUP2 ADD SWAP1 PUSH2 0x22A SWAP2 SWAP1 PUSH2 0x1C42 JUMP JUMPDEST PUSH2 0x64E JUMP JUMPDEST STOP JUMPDEST PUSH2 0x239 PUSH2 0x783 JUMP JUMPDEST PUSH1 0x40 MLOAD PUSH2 0x246 SWAP2 SWAP1 PUSH2 0x1CED JUMP JUMPDEST PUSH1 0x40 MLOAD DUP1 SWAP2 SUB SWAP1 RETURN JUMPDEST PUSH2 0x269 PUSH1 0x4 DUP1 CALLDATASIZE SUB DUP2 ADD SWAP1 PUSH2 0x264 SWAP2 SWAP1 PUSH2 0x1D06 JUMP JUMPDEST PUSH2 0x78C JUMP JUMPDEST PUSH1 0x40 MLOAD PUSH2 0x276 SWAP2 SWAP1 PUSH2 0x1C9A JUMP JUMPDEST PUSH1 0x40 MLOAD DUP1 SWAP2 SUB SWAP1 RETURN JUMPDEST PUSH2 0x287 PUSH2 0x7BA JUMP JUMPDEST PUSH1 0x40 MLOAD PUSH2 0x294 SWAP2 SWAP1 PUSH2 0x1D71 JUMP JUMPDEST PUSH1 0x40 MLOAD DUP1 SWAP2 SUB SWAP1 RETURN JUMPDEST PUSH2 0x2B7 PUSH1 0x4 DUP1 CALLDATASIZE SUB DUP2 ADD SWAP1 PUSH2 0x2B2 SWAP2 SWAP1 PUSH2 0x1C42 JUMP JUMPDEST PUSH2 0x7C2 JUMP JUMPDEST STOP JUMPDEST PUSH2 0x2D3 PUSH1 0x4 DUP1 CALLDATASIZE SUB DUP2 ADD SWAP1 PUSH2 0x2CE SWAP2 SWAP1 PUSH2 0x1D8A JUMP JUMPDEST PUSH2 0x839 JUMP JUMPDEST STOP JUMPDEST PUSH2 0x2DD PUSH2 0xAF3 JUMP JUMPDEST PUSH1 0x40 MLOAD PUSH2 0x2EA SWAP2 SWAP1 PUSH2 0x1DC4 JUMP JUMPDEST PUSH1 0x40 MLOAD DUP1 SWAP2 SUB SWAP1 RETURN JUMPDEST PUSH2 0x2FB PUSH2 0xB18 JUMP JUMPDEST PUSH1 0x40 MLOAD PUSH2 0x308 SWAP2 SWAP1 PUSH2 0x1CED JUMP JUMPDEST PUSH1 0x40 MLOAD DUP1 SWAP2 SUB SWAP1 RETURN JUMPDEST PUSH2 0x32B PUSH1 0x4 DUP1 CALLDATASIZE SUB DUP2 ADD SWAP1 PUSH2 0x326 SWAP2 SWAP1 PUSH2 0x1CB3 JUMP JUMPDEST PUSH2 0xB1E JUMP JUMPDEST PUSH1 0x40 MLOAD PUSH2 0x338 SWAP2 SWAP1 PUSH2 0x1CED JUMP JUMPDEST PUSH1 0x40 MLOAD DUP1 SWAP2 SUB SWAP1 RETURN JUMPDEST PUSH2 0x349 PUSH2 0xB63 JUMP JUMPDEST STOP JUMPDEST PUSH2 0x365 PUSH1 0x4 DUP1 CALLDATASIZE SUB DUP2 ADD SWAP1 PUSH2 0x360 SWAP2 SWAP1 PUSH2 0x1D8A JUMP JUMPDEST PUSH2 0xB76 JUMP JUMPDEST STOP JUMPDEST PUSH2 0x36F PUSH2 0xC4E JUMP JUMPDEST PUSH1 0x40 MLOAD PUSH2 0x37C SWAP2 SWAP1 PUSH2 0x1DC4 JUMP JUMPDEST PUSH1 0x40 MLOAD DUP1 SWAP2 SUB SWAP1 RETURN JUMPDEST PUSH2 0x39F PUSH1 0x4 DUP1 CALLDATASIZE SUB DUP2 ADD SWAP1 PUSH2 0x39A SWAP2 SWAP1 PUSH2 0x1D8A JUMP JUMPDEST PUSH2 0xC76 JUMP JUMPDEST STOP JUMPDEST PUSH2 0x3A9 PUSH2 0xD0A JUMP JUMPDEST PUSH1 0x40 MLOAD PUSH2 0x3B6 SWAP2 SWAP1 PUSH2 0x1B91 JUMP JUMPDEST PUSH1 0x40 MLOAD DUP1 SWAP2 SUB SWAP1 RETURN JUMPDEST PUSH2 0x3D9 PUSH1 0x4 DUP1 CALLDATASIZE SUB DUP2 ADD SWAP1 PUSH2 0x3D4 SWAP2 SWAP1 PUSH2 0x1C42 JUMP JUMPDEST PUSH2 0xD9A JUMP JUMPDEST STOP JUMPDEST PUSH2 0x3F5 PUSH1 0x4 DUP1 CALLDATASIZE SUB DUP2 ADD SWAP1 PUSH2 0x3F0 SWAP2 SWAP1 PUSH2 0x1C42 JUMP JUMPDEST PUSH2 0xE11 JUMP JUMPDEST PUSH1 0x40 MLOAD PUSH2 0x402 SWAP2 SWAP1 PUSH2 0x1C9A JUMP JUMPDEST PUSH1 0x40 MLOAD DUP1 SWAP2 SUB SWAP1 RETURN JUMPDEST PUSH2 0x413 PUSH2 0xE33 JUMP JUMPDEST PUSH1 0x40 MLOAD PUSH2 0x420 SWAP2 SWAP1 PUSH2 0x1E38 JUMP JUMPDEST PUSH1 0x40 MLOAD DUP1 SWAP2 SUB SWAP1 RETURN JUMPDEST PUSH2 0x443 PUSH1 0x4 DUP1 CALLDATASIZE SUB DUP2 ADD SWAP1 PUSH2 0x43E SWAP2 SWAP1 PUSH2 0x1D8A JUMP JUMPDEST PUSH2 0xE58 JUMP JUMPDEST STOP JUMPDEST PUSH2 0x44D PUSH2 0x100E JUMP JUMPDEST PUSH1 0x40 MLOAD PUSH2 0x462 SWAP10 SWAP9 SWAP8 SWAP7 SWAP6 SWAP5 SWAP4 SWAP3 SWAP2 SWAP1 PUSH2 0x1E51 JUMP JUMPDEST PUSH1 0x40 MLOAD DUP1 SWAP2 SUB SWAP1 RETURN JUMPDEST PUSH2 0x485 PUSH1 0x4 DUP1 CALLDATASIZE SUB DUP2 ADD SWAP1 PUSH2 0x480 SWAP2 SWAP1 PUSH2 0x1EDC JUMP JUMPDEST PUSH2 0x117C JUMP JUMPDEST PUSH1 0x40 MLOAD PUSH2 0x492 SWAP2 SWAP1 PUSH2 0x1CED JUMP JUMPDEST PUSH1 0x40 MLOAD DUP1 SWAP2 SUB SWAP1 RETURN JUMPDEST PUSH2 0x4B5 PUSH1 0x4 DUP1 CALLDATASIZE SUB DUP2 ADD SWAP1 PUSH2 0x4B0 SWAP2 SWAP1 PUSH2 0x1CB3 JUMP JUMPDEST PUSH2 0x11FE JUMP JUMPDEST STOP JUMPDEST PUSH2 0x4BF PUSH2 0x128C JUMP JUMPDEST PUSH1 0x40 MLOAD PUSH2 0x4CC SWAP2 SWAP1 PUSH2 0x1DC4 JUMP JUMPDEST PUSH1 0x40 MLOAD DUP1 SWAP2 SUB SWAP1 RETURN JUMPDEST PUSH2 0x4EF PUSH1 0x4 DUP1 CALLDATASIZE SUB DUP2 ADD SWAP1 PUSH2 0x4EA SWAP2 SWAP1 PUSH2 0x1CB3 JUMP JUMPDEST PUSH2 0x12B1 JUMP JUMPDEST STOP JUMPDEST PUSH2 0x4F9 PUSH2 0x1335 JUMP JUMPDEST PUSH1 0x40 MLOAD PUSH2 0x506 SWAP2 SWAP1 PUSH2 0x1CED JUMP JUMPDEST PUSH1 0x40 MLOAD DUP1 SWAP2 SUB SWAP1 RETURN JUMPDEST PUSH1 0x60 PUSH1 0x3 DUP1 SLOAD PUSH2 0x51E SWAP1 PUSH2 0x1F47 JUMP JUMPDEST DUP1 PUSH1 0x1F ADD PUSH1 0x20 DUP1 SWAP2 DIV MUL PUSH1 0x20 ADD PUSH1 0x40 MLOAD SWAP1 DUP2 ADD PUSH1 0x40 MSTORE DUP1 SWAP3 SWAP2 SWAP1 DUP2 DUP2 MSTORE PUSH1 0x20 ADD DUP3 DUP1 SLOAD PUSH2 0x54A SWAP1 PUSH2 0x1F47 JUMP JUMPDEST DUP1 ISZERO PUSH2 0x595 JUMPI DUP1 PUSH1 0x1F LT PUSH2 0x56C JUMPI PUSH2 0x100 DUP1 DUP4 SLOAD DIV MUL DUP4 MSTORE SWAP2 PUSH1 0x20 ADD SWAP2 PUSH2 0x595 JUMP JUMPDEST DUP3 ADD SWAP2 SWAP1 PUSH0 MSTORE PUSH1 0x20 PUSH0 KECCAK256 SWAP1 JUMPDEST DUP2 SLOAD DUP2 MSTORE SWAP1 PUSH1 0x1 ADD SWAP1 PUSH1 0x20 ADD DUP1 DUP4 GT PUSH2 0x578 JUMPI DUP3 SWAP1 SUB PUSH1 0x1F AND DUP3 ADD SWAP2 JUMPDEST POP POP POP POP POP SWAP1 POP SWAP1 JUMP JUMPDEST PUSH0 DUP1 PUSH2 0x5A9 PUSH2 0x133B JUMP JUMPDEST SWAP1 POP PUSH2 0x5B6 DUP2 DUP6 DUP6 PUSH2 0x1342 JUMP JUMPDEST PUSH1 0x1 SWAP2 POP POP SWAP3 SWAP2 POP POP JUMP JUMPDEST PUSH2 0x5C9 PUSH2 0x1354 JUMP JUMPDEST DUP1 PUSH1 0xA PUSH0 PUSH2 0x100 EXP DUP2 SLOAD DUP2 PUSH20 0xFFFFFFFFFFFFFFFFFFFFFFFFFFFFFFFFFFFFFFFF MUL NOT AND SWAP1 DUP4 PUSH20 0xFFFFFFFFFFFFFFFFFFFFFFFFFFFFFFFFFFFFFFFF AND MUL OR SWAP1 SSTORE POP DUP1 PUSH20 0xFFFFFFFFFFFFFFFFFFFFFFFFFFFFFFFFFFFFFFFF AND PUSH31 0x56D7403454282C9D1B884C3BDCFE0C09772C704AD0B14978C55BF72867485B PUSH1 0x40 MLOAD PUSH1 0x40 MLOAD DUP1 SWAP2 SUB SWAP1 LOG2 POP JUMP JUMPDEST PUSH2 0x656 PUSH2 0x1354 JUMP JUMPDEST PUSH1 0x6 PUSH0 SWAP1 SLOAD SWAP1 PUSH2 0x100 EXP SWAP1 DIV PUSH20 0xFFFFFFFFFFFFFFFFFFFFFFFFFFFFFFFFFFFFFFFF AND PUSH20 0xFFFFFFFFFFFFFFFFFFFFFFFFFFFFFFFFFFFFFFFF AND PUSH4 0xA9059CBB DUP4 DUP4 PUSH1 0x40 MLOAD DUP4 PUSH4 0xFFFFFFFF AND PUSH1 0xE0 SHL DUP2 MSTORE PUSH1 0x4 ADD PUSH2 0x6B2 SWAP3 SWAP2 SWAP1 PUSH2 0x1F77 JUMP JUMPDEST PUSH1 0x20 PUSH1 0x40 MLOAD DUP1 DUP4 SUB DUP2 PUSH0 DUP8 GAS CALL ISZERO DUP1 ISZERO PUSH2 0x6CE JUMPI RETURNDATASIZE PUSH0 DUP1 RETURNDATACOPY RETURNDATASIZE PUSH0 REVERT JUMPDEST POP POP POP POP PUSH1 0x40 MLOAD RETURNDATASIZE PUSH1 0x1F NOT PUSH1 0x1F DUP3 ADD AND DUP3 ADD DUP1 PUSH1 0x40 MSTORE POP DUP2 ADD SWAP1 PUSH2 0x6F2 SWAP2 SWAP1 PUSH2 0x1FC8 JUMP JUMPDEST PUSH2 0x731 JUMPI PUSH1 0x40 MLOAD PUSH32 0x8C379A000000000000000000000000000000000000000000000000000000000 DUP2 MSTORE PUSH1 0x4 ADD PUSH2 0x728 SWAP1 PUSH2 0x203D JUMP JUMPDEST PUSH1 0x40 MLOAD DUP1 SWAP2 SUB SWAP1 REVERT JUMPDEST DUP2 PUSH20 0xFFFFFFFFFFFFFFFFFFFFFFFFFFFFFFFFFFFFFFFF AND PUSH32 0xB0BD88CDAE83F74F918EB6BF26D99DCB3C1530530F339233B029E3B6A00AC50B DUP3 PUSH1 0x40 MLOAD PUSH2 0x777 SWAP2 SWAP1 PUSH2 0x1CED JUMP JUMPDEST PUSH1 0x40 MLOAD DUP1 SWAP2 SUB SWAP1 LOG2 POP POP JUMP JUMPDEST PUSH0 PUSH1 0x2 SLOAD SWAP1 POP SWAP1 JUMP JUMPDEST PUSH0 DUP1 PUSH2 0x796 PUSH2 0x133B JUMP JUMPDEST SWAP1 POP PUSH2 0x7A3 DUP6 DUP3 DUP6 PUSH2 0x13DB JUMP JUMPDEST PUSH2 0x7AE DUP6 DUP6 DUP6 PUSH2 0x146E JUMP JUMPDEST PUSH1 0x1 SWAP2 POP POP SWAP4 SWAP3 POP POP POP JUMP JUMPDEST PUSH0 PUSH1 0x12 SWAP1 POP SWAP1 JUMP JUMPDEST PUSH2 0x7CA PUSH2 0x1354 JUMP JUMPDEST PUSH2 0x7E7 DUP3 PUSH8 0xDE0B6B3A7640000 DUP4 PUSH2 0x7E2 SWAP2 SWAP1 PUSH2 0x2088 JUMP JUMPDEST PUSH2 0x155E JUMP JUMPDEST DUP2 PUSH20 0xFFFFFFFFFFFFFFFFFFFFFFFFFFFFFFFFFFFFFFFF AND PUSH32 0x30385C845B448A36257A6A1716E6AD2E1BC2CBE333CDE1E69FE849AD6511ADFE DUP3 PUSH1 0x40 MLOAD PUSH2 0x82D SWAP2 SWAP1 PUSH2 0x1CED JUMP JUMPDEST PUSH1 0x40 MLOAD DUP1 SWAP2 SUB SWAP1 LOG2 POP POP JUMP JUMPDEST PUSH0 DUP2 GT PUSH2 0x87B JUMPI PUSH1 0x40 MLOAD PUSH32 0x8C379A000000000000000000000000000000000000000000000000000000000 DUP2 MSTORE PUSH1 0x4 ADD PUSH2 0x872 SWAP1 PUSH2 0x2113 JUMP JUMPDEST PUSH1 0x40 MLOAD DUP1 SWAP2 SUB SWAP1 REVERT JUMPDEST PUSH0 PUSH1 0x8 SLOAD PUSH8 0xDE0B6B3A7640000 DUP4 PUSH2 0x893 SWAP2 SWAP1 PUSH2 0x2088 JUMP JUMPDEST PUSH2 0x89D SWAP2 SWAP1 PUSH2 0x215E JUMP JUMPDEST SWAP1 POP PUSH0 PUSH8 0xDE0B6B3A7640000 DUP4 PUSH2 0x8B4 SWAP2 SWAP1 PUSH2 0x215E JUMP JUMPDEST SWAP1 POP PUSH0 PUSH1 0x8 SLOAD DUP3 PUSH2 0x8C5 SWAP2 SWAP1 PUSH2 0x2088 JUMP JUMPDEST SWAP1 POP PUSH0 DUP5 DUP3 GT PUSH2 0x8D5 JUMPI PUSH0 PUSH2 0x8E2 JUMP JUMPDEST DUP5 DUP3 PUSH2 0x8E1 SWAP2 SWAP1 PUSH2 0x218E JUMP JUMPDEST JUMPDEST SWAP1 POP PUSH2 0x910 CALLER PUSH1 0x9 PUSH0 SWAP1 SLOAD SWAP1 PUSH2 0x100 EXP SWAP1 DIV PUSH20 0xFFFFFFFFFFFFFFFFFFFFFFFFFFFFFFFFFFFFFFFF AND DUP8 PUSH2 0x146E JUMP JUMPDEST PUSH0 DUP2 GT DUP1 ISZERO PUSH2 0x96C JUMPI POP PUSH0 PUSH20 0xFFFFFFFFFFFFFFFFFFFFFFFFFFFFFFFFFFFFFFFF AND PUSH1 0xA PUSH0 SWAP1 SLOAD SWAP1 PUSH2 0x100 EXP SWAP1 DIV PUSH20 0xFFFFFFFFFFFFFFFFFFFFFFFFFFFFFFFFFFFFFFFF AND PUSH20 0xFFFFFFFFFFFFFFFFFFFFFFFFFFFFFFFFFFFFFFFF AND EQ ISZERO JUMPDEST ISZERO PUSH2 0x9BF JUMPI PUSH2 0x9BE PUSH1 0x9 PUSH0 SWAP1 SLOAD SWAP1 PUSH2 0x100 EXP SWAP1 DIV PUSH20 0xFFFFFFFFFFFFFFFFFFFFFFFFFFFFFFFFFFFFFFFF AND PUSH1 0xA PUSH0 SWAP1 SLOAD SWAP1 PUSH2 0x100 EXP SWAP1 DIV PUSH20 0xFFFFFFFFFFFFFFFFFFFFFFFFFFFFFFFFFFFFFFFF AND DUP4 PUSH2 0x146E JUMP JUMPDEST JUMPDEST PUSH1 0x6 PUSH0 SWAP1 SLOAD SWAP1 PUSH2 0x100 EXP SWAP1 DIV PUSH20 0xFFFFFFFFFFFFFFFFFFFFFFFFFFFFFFFFFFFFFFFF AND PUSH20 0xFFFFFFFFFFFFFFFFFFFFFFFFFFFFFFFFFFFFFFFF AND PUSH4 0xA9059CBB CALLER DUP7 PUSH1 0x40 MLOAD DUP4 PUSH4 0xFFFFFFFF AND PUSH1 0xE0 SHL DUP2 MSTORE PUSH1 0x4 ADD PUSH2 0xA1B SWAP3 SWAP2 SWAP1 PUSH2 0x1F77 JUMP JUMPDEST PUSH1 0x20 PUSH1 0x40 MLOAD DUP1 DUP4 SUB DUP2 PUSH0 DUP8 GAS CALL ISZERO DUP1 ISZERO PUSH2 0xA37 JUMPI RETURNDATASIZE PUSH0 DUP1 RETURNDATACOPY RETURNDATASIZE PUSH0 REVERT JUMPDEST POP POP POP POP PUSH1 0x40 MLOAD RETURNDATASIZE PUSH1 0x1F NOT PUSH1 0x1F DUP3 ADD AND DUP3 ADD DUP1 PUSH1 0x40 MSTORE POP DUP2 ADD SWAP1 PUSH2 0xA5B SWAP2 SWAP1 PUSH2 0x1FC8 JUMP JUMPDEST PUSH2 0xA9A JUMPI PUSH1 0x40 MLOAD PUSH32 0x8C379A000000000000000000000000000000000000000000000000000000000 DUP2 MSTORE PUSH1 0x4 ADD PUSH2 0xA91 SWAP1 PUSH2 0x220B JUMP JUMPDEST PUSH1 0x40 MLOAD DUP1 SWAP2 SUB SWAP1 REVERT JUMPDEST CALLER PUSH20 0xFFFFFFFFFFFFFFFFFFFFFFFFFFFFFFFFFFFFFFFF AND PUSH32 0x91B69B546D2910AD29983DA9D221CF0EBAE5EB1929083361F4D6C95878CDB420 DUP7 DUP7 DUP5 PUSH1 0x40 MLOAD PUSH2 0xAE4 SWAP4 SWAP3 SWAP2 SWAP1 PUSH2 0x2229 JUMP JUMPDEST PUSH1 0x40 MLOAD DUP1 SWAP2 SUB SWAP1 LOG2 POP POP POP POP POP JUMP JUMPDEST PUSH1 0x9 PUSH0 SWAP1 SLOAD SWAP1 PUSH2 0x100 EXP SWAP1 DIV PUSH20 0xFFFFFFFFFFFFFFFFFFFFFFFFFFFFFFFFFFFFFFFF AND DUP2 JUMP JUMPDEST PUSH1 0x8 SLOAD DUP2 JUMP JUMPDEST PUSH0 DUP1 PUSH0 DUP4 PUSH20 0xFFFFFFFFFFFFFFFFFFFFFFFFFFFFFFFFFFFFFFFF AND PUSH20 0xFFFFFFFFFFFFFFFFFFFFFFFFFFFFFFFFFFFFFFFF AND DUP2 MSTORE PUSH1 0x20 ADD SWAP1 DUP2 MSTORE PUSH1 0x20 ADD PUSH0 KECCAK256 SLOAD SWAP1 POP SWAP2 SWAP1 POP JUMP JUMPDEST PUSH2 0xB6B PUSH2 0x1354 JUMP JUMPDEST PUSH2 0xB74 PUSH0 PUSH2 0x15DD JUMP JUMPDEST JUMP JUMPDEST PUSH2 0xB7E PUSH2 0x1354 JUMP JUMPDEST PUSH8 0xDE0B6B3A7640000 DUP2 LT ISZERO PUSH2 0xBC9 JUMPI PUSH1 0x40 MLOAD PUSH32 0x8C379A000000000000000000000000000000000000000000000000000000000 DUP2 MSTORE PUSH1 0x4 ADD PUSH2 0xBC0 SWAP1 PUSH2 0x22A8 JUMP JUMPDEST PUSH1 0x40 MLOAD DUP1 SWAP2 SUB SWAP1 REVERT JUMPDEST PUSH1 0x8 SLOAD DUP2 GT ISZERO PUSH2 0xC0E JUMPI PUSH1 0x40 MLOAD PUSH32 0x8C379A000000000000000000000000000000000000000000000000000000000 DUP2 MSTORE PUSH1 0x4 ADD PUSH2 0xC05 SWAP1 PUSH2 0x2310 JUMP JUMPDEST PUSH1 0x40 MLOAD DUP1 SWAP2 SUB SWAP1 REVERT JUMPDEST DUP1 PUSH1 0x7 DUP2 SWAP1 SSTORE POP PUSH31 0xEDD2200F5E00A665285F3C40E420FF44575A36D6ABF0B366D132A22CC4FCB1 DUP2 PUSH1 0x40 MLOAD PUSH2 0xC43 SWAP2 SWAP1 PUSH2 0x1CED JUMP JUMPDEST PUSH1 0x40 MLOAD DUP1 SWAP2 SUB SWAP1 LOG1 POP JUMP JUMPDEST PUSH0 PUSH1 0x5 PUSH0 SWAP1 SLOAD SWAP1 PUSH2 0x100 EXP SWAP1 DIV PUSH20 0xFFFFFFFFFFFFFFFFFFFFFFFFFFFFFFFFFFFFFFFF AND SWAP1 POP SWAP1 JUMP JUMPDEST PUSH2 0xC7E PUSH2 0x1354 JUMP JUMPDEST PUSH8 0xDE0B6B3A7640000 DUP2 LT ISZERO PUSH2 0xCC9 JUMPI PUSH1 0x40 MLOAD PUSH32 0x8C379A000000000000000000000000000000000000000000000000000000000 DUP2 MSTORE PUSH1 0x4 ADD PUSH2 0xCC0 SWAP1 PUSH2 0x239E JUMP JUMPDEST PUSH1 0x40 MLOAD DUP1 SWAP2 SUB SWAP1 REVERT JUMPDEST DUP1 PUSH1 0x8 DUP2 SWAP1 SSTORE POP PUSH32 0xBD74CA4C80E5EAFE62D339ABF0F9676E065FE0F2EBCA0689E97DD5730CE4D8AB DUP2 PUSH1 0x40 MLOAD PUSH2 0xCFF SWAP2 SWAP1 PUSH2 0x1CED JUMP JUMPDEST PUSH1 0x40 MLOAD DUP1 SWAP2 SUB SWAP1 LOG1 POP JUMP JUMPDEST PUSH1 0x60 PUSH1 0x4 DUP1 SLOAD PUSH2 0xD19 SWAP1 PUSH2 0x1F47 JUMP JUMPDEST DUP1 PUSH1 0x1F ADD PUSH1 0x20 DUP1 SWAP2 DIV MUL PUSH1 0x20 ADD PUSH1 0x40 MLOAD SWAP1 DUP2 ADD PUSH1 0x40 MSTORE DUP1 SWAP3 SWAP2 SWAP1 DUP2 DUP2 MSTORE PUSH1 0x20 ADD DUP3 DUP1 SLOAD PUSH2 0xD45 SWAP1 PUSH2 0x1F47 JUMP JUMPDEST DUP1 ISZERO PUSH2 0xD90 JUMPI DUP1 PUSH1 0x1F LT PUSH2 0xD67 JUMPI PUSH2 0x100 DUP1 DUP4 SLOAD DIV MUL DUP4 MSTORE SWAP2 PUSH1 0x20 ADD SWAP2 PUSH2 0xD90 JUMP JUMPDEST DUP3 ADD SWAP2 SWAP1 PUSH0 MSTORE PUSH1 0x20 PUSH0 KECCAK256 SWAP1 JUMPDEST DUP2 SLOAD DUP2 MSTORE SWAP1 PUSH1 0x1 ADD SWAP1 PUSH1 0x20 ADD DUP1 DUP4 GT PUSH2 0xD73 JUMPI DUP3 SWAP1 SUB PUSH1 0x1F AND DUP3 ADD SWAP2 JUMPDEST POP POP POP POP POP SWAP1 POP SWAP1 JUMP JUMPDEST PUSH2 0xDA2 PUSH2 0x1354 JUMP JUMPDEST PUSH2 0xDBF DUP3 PUSH8 0xDE0B6B3A7640000 DUP4 PUSH2 0xDBA SWAP2 SWAP1 PUSH2 0x2088 JUMP JUMPDEST PUSH2 0x16A0 JUMP JUMPDEST DUP2 PUSH20 0xFFFFFFFFFFFFFFFFFFFFFFFFFFFFFFFFFFFFFFFF AND PUSH32 0x696DE425F79F4A40BC6D2122CA50507F0EFBEABBFF86A84871B7196AB8EA8DF7 DUP3 PUSH1 0x40 MLOAD PUSH2 0xE05 SWAP2 SWAP1 PUSH2 0x1CED JUMP JUMPDEST PUSH1 0x40 MLOAD DUP1 SWAP2 SUB SWAP1 LOG2 POP POP JUMP JUMPDEST PUSH0 DUP1 PUSH2 0xE1B PUSH2 0x133B JUMP JUMPDEST SWAP1 POP PUSH2 0xE28 DUP2 DUP6 DUP6 PUSH2 0x146E JUMP JUMPDEST PUSH1 0x1 SWAP2 POP POP SWAP3 SWAP2 POP POP JUMP JUMPDEST PUSH1 0x6 PUSH0 SWAP1 SLOAD SWAP1 PUSH2 0x100 EXP SWAP1 DIV PUSH20 0xFFFFFFFFFFFFFFFFFFFFFFFFFFFFFFFFFFFFFFFF AND DUP2 JUMP JUMPDEST PUSH0 DUP2 GT PUSH2 0xE9A JUMPI PUSH1 0x40 MLOAD PUSH32 0x8C379A000000000000000000000000000000000000000000000000000000000 DUP2 MSTORE PUSH1 0x4 ADD PUSH2 0xE91 SWAP1 PUSH2 0x2113 JUMP JUMPDEST PUSH1 0x40 MLOAD DUP1 SWAP2 SUB SWAP1 REVERT JUMPDEST PUSH0 PUSH8 0xDE0B6B3A7640000 DUP3 PUSH2 0xEAF SWAP2 SWAP1 PUSH2 0x2088 JUMP JUMPDEST SWAP1 POP PUSH1 0x6 PUSH0 SWAP1 SLOAD SWAP1 PUSH2 0x100 EXP SWAP1 DIV PUSH20 0xFFFFFFFFFFFFFFFFFFFFFFFFFFFFFFFFFFFFFFFF AND PUSH20 0xFFFFFFFFFFFFFFFFFFFFFFFFFFFFFFFFFFFFFFFF AND PUSH4 0x23B872DD CALLER ADDRESS DUP6 PUSH1 0x40 MLOAD DUP5 PUSH4 0xFFFFFFFF AND PUSH1 0xE0 SHL DUP2 MSTORE PUSH1 0x4 ADD PUSH2 0xF0F SWAP4 SWAP3 SWAP2 SWAP1 PUSH2 0x23BC JUMP JUMPDEST PUSH1 0x20 PUSH1 0x40 MLOAD DUP1 DUP4 SUB DUP2 PUSH0 DUP8 GAS CALL ISZERO DUP1 ISZERO PUSH2 0xF2B JUMPI RETURNDATASIZE PUSH0 DUP1 RETURNDATACOPY RETURNDATASIZE PUSH0 REVERT JUMPDEST POP POP POP POP PUSH1 0x40 MLOAD RETURNDATASIZE PUSH1 0x1F NOT PUSH1 0x1F DUP3 ADD AND DUP3 ADD DUP1 PUSH1 0x40 MSTORE POP DUP2 ADD SWAP1 PUSH2 0xF4F SWAP2 SWAP1 PUSH2 0x1FC8 JUMP JUMPDEST PUSH2 0xF8E JUMPI PUSH1 0x40 MLOAD PUSH32 0x8C379A000000000000000000000000000000000000000000000000000000000 DUP2 MSTORE PUSH1 0x4 ADD PUSH2 0xF85 SWAP1 PUSH2 0x243B JUMP JUMPDEST PUSH1 0x40 MLOAD DUP1 SWAP2 SUB SWAP1 REVERT JUMPDEST PUSH2 0xFBA PUSH1 0x9 PUSH0 SWAP1 SLOAD SWAP1 PUSH2 0x100 EXP SWAP1 DIV PUSH20 0xFFFFFFFFFFFFFFFFFFFFFFFFFFFFFFFFFFFFFFFF AND CALLER DUP4 PUSH2 0x146E JUMP JUMPDEST CALLER PUSH20 0xFFFFFFFFFFFFFFFFFFFFFFFFFFFFFFFFFFFFFFFF AND PUSH32 0x59BB2BDDFF6A71F8747469B7104385348606A838F9A98DE25C0793B2AA4DD0EB DUP4 DUP4 PUSH1 0x40 MLOAD PUSH2 0x1002 SWAP3 SWAP2 SWAP1 PUSH2 0x2459 JUMP JUMPDEST PUSH1 0x40 MLOAD DUP1 SWAP2 SUB SWAP1 LOG2 POP POP JUMP JUMPDEST PUSH0 DUP1 PUSH0 DUP1 PUSH0 DUP1 PUSH0 DUP1 PUSH0 PUSH1 0x7 SLOAD PUSH1 0x8 SLOAD PUSH1 0x9 PUSH0 SWAP1 SLOAD SWAP1 PUSH2 0x100 EXP SWAP1 DIV PUSH20 0xFFFFFFFFFFFFFFFFFFFFFFFFFFFFFFFFFFFFFFFF AND PUSH1 0xA PUSH0 SWAP1 SLOAD SWAP1 PUSH2 0x100 EXP SWAP1 DIV PUSH20 0xFFFFFFFFFFFFFFFFFFFFFFFFFFFFFFFFFFFFFFFF AND PUSH2 0x108B PUSH1 0x9 PUSH0 SWAP1 SLOAD SWAP1 PUSH2 0x100 EXP SWAP1 DIV PUSH20 0xFFFFFFFFFFFFFFFFFFFFFFFFFFFFFFFFFFFFFFFF AND PUSH2 0xB1E JUMP JUMPDEST PUSH2 0x10B5 PUSH1 0xA PUSH0 SWAP1 SLOAD SWAP1 PUSH2 0x100 EXP SWAP1 DIV PUSH20 0xFFFFFFFFFFFFFFFFFFFFFFFFFFFFFFFFFFFFFFFF AND PUSH2 0xB1E JUMP JUMPDEST PUSH2 0x10BE ADDRESS PUSH2 0xB1E JUMP JUMPDEST PUSH1 0x6 PUSH0 SWAP1 SLOAD SWAP1 PUSH2 0x100 EXP SWAP1 DIV PUSH20 0xFFFFFFFFFFFFFFFFFFFFFFFFFFFFFFFFFFFFFFFF AND PUSH20 0xFFFFFFFFFFFFFFFFFFFFFFFFFFFFFFFFFFFFFFFF AND PUSH4 0x70A08231 ADDRESS PUSH1 0x40 MLOAD DUP3 PUSH4 0xFFFFFFFF AND PUSH1 0xE0 SHL DUP2 MSTORE PUSH1 0x4 ADD PUSH2 0x1118 SWAP2 SWAP1 PUSH2 0x1DC4 JUMP JUMPDEST PUSH1 0x20 PUSH1 0x40 MLOAD DUP1 DUP4 SUB DUP2 DUP7 GAS STATICCALL ISZERO DUP1 ISZERO PUSH2 0x1133 JUMPI RETURNDATASIZE PUSH0 DUP1 RETURNDATACOPY RETURNDATASIZE PUSH0 REVERT JUMPDEST POP POP POP POP PUSH1 0x40 MLOAD RETURNDATASIZE PUSH1 0x1F NOT PUSH1 0x1F DUP3 ADD AND DUP3 ADD DUP1 PUSH1 0x40 MSTORE POP DUP2 ADD SWAP1 PUSH2 0x1157 SWAP2 SWAP1 PUSH2 0x2494 JUMP JUMPDEST PUSH2 0x115F PUSH2 0x783 JUMP JUMPDEST SWAP9 POP SWAP9 POP SWAP9 POP SWAP9 POP SWAP9 POP SWAP9 POP SWAP9 POP SWAP9 POP SWAP9 POP SWAP1 SWAP2 SWAP3 SWAP4 SWAP5 SWAP6 SWAP7 SWAP8 SWAP9 JUMP JUMPDEST PUSH0 PUSH1 0x1 PUSH0 DUP5 PUSH20 0xFFFFFFFFFFFFFFFFFFFFFFFFFFFFFFFFFFFFFFFF AND PUSH20 0xFFFFFFFFFFFFFFFFFFFFFFFFFFFFFFFFFFFFFFFF AND DUP2 MSTORE PUSH1 0x20 ADD SWAP1 DUP2 MSTORE PUSH1 0x20 ADD PUSH0 KECCAK256 PUSH0 DUP4 PUSH20 0xFFFFFFFFFFFFFFFFFFFFFFFFFFFFFFFFFFFFFFFF AND PUSH20 0xFFFFFFFFFFFFFFFFFFFFFFFFFFFFFFFFFFFFFFFF AND DUP2 MSTORE PUSH1 0x20 ADD SWAP1 DUP2 MSTORE PUSH1 0x20 ADD PUSH0 KECCAK256 SLOAD SWAP1 POP SWAP3 SWAP2 POP POP JUMP JUMPDEST PUSH2 0x1206 PUSH2 0x1354 JUMP JUMPDEST DUP1 PUSH1 0x9 PUSH0 PUSH2 0x100 EXP DUP2 SLOAD DUP2 PUSH20 0xFFFFFFFFFFFFFFFFFFFFFFFFFFFFFFFFFFFFFFFF MUL NOT AND SWAP1 DUP4 PUSH20 0xFFFFFFFFFFFFFFFFFFFFFFFFFFFFFFFFFFFFFFFF AND MUL OR SWAP1 SSTORE POP DUP1 PUSH20 0xFFFFFFFFFFFFFFFFFFFFFFFFFFFFFFFFFFFFFFFF AND PUSH32 0xC714D22A2F08B695F81E7C707058DB484AA5B4D6B4C9FD64BEB10FE85832F608 PUSH1 0x40 MLOAD PUSH1 0x40 MLOAD DUP1 SWAP2 SUB SWAP1 LOG2 POP JUMP JUMPDEST PUSH1 0xA PUSH0 SWAP1 SLOAD SWAP1 PUSH2 0x100 EXP SWAP1 DIV PUSH20 0xFFFFFFFFFFFFFFFFFFFFFFFFFFFFFFFFFFFFFFFF AND DUP2 JUMP JUMPDEST PUSH2 0x12B9 PUSH2 0x1354 JUMP JUMPDEST PUSH0 PUSH20 0xFFFFFFFFFFFFFFFFFFFFFFFFFFFFFFFFFFFFFFFF AND DUP2 PUSH20 0xFFFFFFFFFFFFFFFFFFFFFFFFFFFFFFFFFFFFFFFF AND SUB PUSH2 0x1329 JUMPI PUSH0 PUSH1 0x40 MLOAD PUSH32 0x1E4FBDF700000000000000000000000000000000000000000000000000000000 DUP2 MSTORE PUSH1 0x4 ADD PUSH2 0x1320 SWAP2 SWAP1 PUSH2 0x1DC4 JUMP JUMPDEST PUSH1 0x40 MLOAD DUP1 SWAP2 SUB SWAP1 REVERT JUMPDEST PUSH2 0x1332 DUP2 PUSH2 0x15DD JUMP JUMPDEST POP JUMP JUMPDEST PUSH1 0x7 SLOAD DUP2 JUMP JUMPDEST PUSH0 CALLER SWAP1 POP SWAP1 JUMP JUMPDEST PUSH2 0x134F DUP4 DUP4 DUP4 PUSH1 0x1 PUSH2 0x171F JUMP JUMPDEST POP POP POP JUMP JUMPDEST PUSH2 0x135C PUSH2 0x133B JUMP JUMPDEST PUSH20 0xFFFFFFFFFFFFFFFFFFFFFFFFFFFFFFFFFFFFFFFF AND PUSH2 0x137A PUSH2 0xC4E JUMP JUMPDEST PUSH20 0xFFFFFFFFFFFFFFFFFFFFFFFFFFFFFFFFFFFFFFFF AND EQ PUSH2 0x13D9 JUMPI PUSH2 0x139D PUSH2 0x133B JUMP JUMPDEST PUSH1 0x40 MLOAD PUSH32 0x118CDAA700000000000000000000000000000000000000000000000000000000 DUP2 MSTORE PUSH1 0x4 ADD PUSH2 0x13D0 SWAP2 SWAP1 PUSH2 0x1DC4 JUMP JUMPDEST PUSH1 0x40 MLOAD DUP1 SWAP2 SUB SWAP1 REVERT JUMPDEST JUMP JUMPDEST PUSH0 PUSH2 0x13E6 DUP5 DUP5 PUSH2 0x117C JUMP JUMPDEST SWAP1 POP PUSH32 0xFFFFFFFFFFFFFFFFFFFFFFFFFFFFFFFFFFFFFFFFFFFFFFFFFFFFFFFFFFFFFFFF DUP2 LT ISZERO PUSH2 0x1468 JUMPI DUP2 DUP2 LT ISZERO PUSH2 0x1459 JUMPI DUP3 DUP2 DUP4 PUSH1 0x40 MLOAD PUSH32 0xFB8F41B200000000000000000000000000000000000000000000000000000000 DUP2 MSTORE PUSH1 0x4 ADD PUSH2 0x1450 SWAP4 SWAP3 SWAP2 SWAP1 PUSH2 0x24BF JUMP JUMPDEST PUSH1 0x40 MLOAD DUP1 SWAP2 SUB SWAP1 REVERT JUMPDEST PUSH2 0x1467 DUP5 DUP5 DUP5 DUP5 SUB PUSH0 PUSH2 0x171F JUMP JUMPDEST JUMPDEST POP POP POP POP JUMP JUMPDEST PUSH0 PUSH20 0xFFFFFFFFFFFFFFFFFFFFFFFFFFFFFFFFFFFFFFFF AND DUP4 PUSH20 0xFFFFFFFFFFFFFFFFFFFFFFFFFFFFFFFFFFFFFFFF AND SUB PUSH2 0x14DE JUMPI PUSH0 PUSH1 0x40 MLOAD PUSH32 0x96C6FD1E00000000000000000000000000000000000000000000000000000000 DUP2 MSTORE PUSH1 0x4 ADD PUSH2 0x14D5 SWAP2 SWAP1 PUSH2 0x1DC4 JUMP JUMPDEST PUSH1 0x40 MLOAD DUP1 SWAP2 SUB SWAP1 REVERT JUMPDEST PUSH0 PUSH20 0xFFFFFFFFFFFFFFFFFFFFFFFFFFFFFFFFFFFFFFFF AND DUP3 PUSH20 0xFFFFFFFFFFFFFFFFFFFFFFFFFFFFFFFFFFFFFFFF AND SUB PUSH2 0x154E JUMPI PUSH0 PUSH1 0x40 MLOAD PUSH32 0xEC442F0500000000000000000000000000000000000000000000000000000000 DUP2 MSTORE PUSH1 0x4 ADD PUSH2 0x1545 SWAP2 SWAP1 PUSH2 0x1DC4 JUMP JUMPDEST PUSH1 0x40 MLOAD DUP1 SWAP2 SUB SWAP1 REVERT JUMPDEST PUSH2 0x1559 DUP4 DUP4 DUP4 PUSH2 0x18EE JUMP JUMPDEST POP POP POP JUMP JUMPDEST PUSH0 PUSH20 0xFFFFFFFFFFFFFFFFFFFFFFFFFFFFFFFFFFFFFFFF AND DUP3 PUSH20 0xFFFFFFFFFFFFFFFFFFFFFFFFFFFFFFFFFFFFFFFF AND SUB PUSH2 0x15CE JUMPI PUSH0 PUSH1 0x40 MLOAD PUSH32 0xEC442F0500000000000000000000000000000000000000000000000000000000 DUP2 MSTORE PUSH1 0x4 ADD PUSH2 0x15C5 SWAP2 SWAP1 PUSH2 0x1DC4 JUMP JUMPDEST PUSH1 0x40 MLOAD DUP1 SWAP2 SUB SWAP1 REVERT JUMPDEST PUSH2 0x15D9 PUSH0 DUP4 DUP4 PUSH2 0x18EE JUMP JUMPDEST POP POP JUMP JUMPDEST PUSH0 PUSH1 0x5 PUSH0 SWAP1 SLOAD SWAP1 PUSH2 0x100 EXP SWAP1 DIV PUSH20 0xFFFFFFFFFFFFFFFFFFFFFFFFFFFFFFFFFFFFFFFF AND SWAP1 POP DUP2 PUSH1 0x5 PUSH0 PUSH2 0x100 EXP DUP2 SLOAD DUP2 PUSH20 0xFFFFFFFFFFFFFFFFFFFFFFFFFFFFFFFFFFFFFFFF MUL NOT AND SWAP1 DUP4 PUSH20 0xFFFFFFFFFFFFFFFFFFFFFFFFFFFFFFFFFFFFFFFF AND MUL OR SWAP1 SSTORE POP DUP2 PUSH20 0xFFFFFFFFFFFFFFFFFFFFFFFFFFFFFFFFFFFFFFFF AND DUP2 PUSH20 0xFFFFFFFFFFFFFFFFFFFFFFFFFFFFFFFFFFFFFFFF AND PUSH32 0x8BE0079C531659141344CD1FD0A4F28419497F9722A3DAAFE3B4186F6B6457E0 PUSH1 0x40 MLOAD PUSH1 0x40 MLOAD DUP1 SWAP2 SUB SWAP1 LOG3 POP POP JUMP JUMPDEST PUSH0 PUSH20 0xFFFFFFFFFFFFFFFFFFFFFFFFFFFFFFFFFFFFFFFF AND DUP3 PUSH20 0xFFFFFFFFFFFFFFFFFFFFFFFFFFFFFFFFFFFFFFFF AND SUB PUSH2 0x1710 JUMPI PUSH0 PUSH1 0x40 MLOAD PUSH32 0x96C6FD1E00000000000000000000000000000000000000000000000000000000 DUP2 MSTORE PUSH1 0x4 ADD PUSH2 0x1707 SWAP2 SWAP1 PUSH2 0x1DC4 JUMP JUMPDEST PUSH1 0x40 MLOAD DUP1 SWAP2 SUB SWAP1 REVERT JUMPDEST PUSH2 0x171B DUP3 PUSH0 DUP4 PUSH2 0x18EE JUMP JUMPDEST POP POP JUMP JUMPDEST PUSH0 PUSH20 0xFFFFFFFFFFFFFFFFFFFFFFFFFFFFFFFFFFFFFFFF AND DUP5 PUSH20 0xFFFFFFFFFFFFFFFFFFFFFFFFFFFFFFFFFFFFFFFF AND SUB PUSH2 0x178F JUMPI PUSH0 PUSH1 0x40 MLOAD PUSH32 0xE602DF0500000000000000000000000000000000000000000000000000000000 DUP2 MSTORE PUSH1 0x4 ADD PUSH2 0x1786 SWAP2 SWAP1 PUSH2 0x1DC4 JUMP JUMPDEST PUSH1 0x40 MLOAD DUP1 SWAP2 SUB SWAP1 REVERT JUMPDEST PUSH0 PUSH20 0xFFFFFFFFFFFFFFFFFFFFFFFFFFFFFFFFFFFFFFFF AND DUP4 PUSH20 0xFFFFFFFFFFFFFFFFFFFFFFFFFFFFFFFFFFFFFFFF AND SUB PUSH2 0x17FF JUMPI PUSH0 PUSH1 0x40 MLOAD PUSH32 0x94280D6200000000000000000000000000000000000000000000000000000000 DUP2 MSTORE PUSH1 0x4 ADD PUSH2 0x17F6 SWAP2 SWAP1 PUSH2 0x1DC4 JUMP JUMPDEST PUSH1 0x40 MLOAD DUP1 SWAP2 SUB SWAP1 REVERT JUMPDEST DUP2 PUSH1 0x1 PUSH0 DUP7 PUSH20 0xFFFFFFFFFFFFFFFFFFFFFFFFFFFFFFFFFFFFFFFF AND PUSH20 0xFFFFFFFFFFFFFFFFFFFFFFFFFFFFFFFFFFFFFFFF AND DUP2 MSTORE PUSH1 0x20 ADD SWAP1 DUP2 MSTORE PUSH1 0x20 ADD PUSH0 KECCAK256 PUSH0 DUP6 PUSH20 0xFFFFFFFFFFFFFFFFFFFFFFFFFFFFFFFFFFFFFFFF AND PUSH20 0xFFFFFFFFFFFFFFFFFFFFFFFFFFFFFFFFFFFFFFFF AND DUP2 MSTORE PUSH1 0x20 ADD SWAP1 DUP2 MSTORE PUSH1 0x20 ADD PUSH0 KECCAK256 DUP2 SWAP1 SSTORE POP DUP1 ISZERO PUSH2 0x18E8 JUMPI DUP3 PUSH20 0xFFFFFFFFFFFFFFFFFFFFFFFFFFFFFFFFFFFFFFFF AND DUP5 PUSH20 0xFFFFFFFFFFFFFFFFFFFFFFFFFFFFFFFFFFFFFFFF AND PUSH32 0x8C5BE1E5EBEC7D5BD14F71427D1E84F3DD0314C0F7B2291E5B200AC8C7C3B925 DUP5 PUSH1 0x40 MLOAD PUSH2 0x18DF SWAP2 SWAP1 PUSH2 0x1CED JUMP JUMPDEST PUSH1 0x40 MLOAD DUP1 SWAP2 SUB SWAP1 LOG3 JUMPDEST POP POP POP POP JUMP JUMPDEST PUSH0 PUSH20 0xFFFFFFFFFFFFFFFFFFFFFFFFFFFFFFFFFFFFFFFF AND DUP4 PUSH20 0xFFFFFFFFFFFFFFFFFFFFFFFFFFFFFFFFFFFFFFFF AND SUB PUSH2 0x193E JUMPI DUP1 PUSH1 0x2 PUSH0 DUP3 DUP3 SLOAD PUSH2 0x1932 SWAP2 SWAP1 PUSH2 0x24F4 JUMP JUMPDEST SWAP3 POP POP DUP2 SWAP1 SSTORE POP PUSH2 0x1A0C JUMP JUMPDEST PUSH0 DUP1 PUSH0 DUP6 PUSH20 0xFFFFFFFFFFFFFFFFFFFFFFFFFFFFFFFFFFFFFFFF AND PUSH20 0xFFFFFFFFFFFFFFFFFFFFFFFFFFFFFFFFFFFFFFFF AND DUP2 MSTORE PUSH1 0x20 ADD SWAP1 DUP2 MSTORE PUSH1 0x20 ADD PUSH0 KECCAK256 SLOAD SWAP1 POP DUP2 DUP2 LT ISZERO PUSH2 0x19C7 JUMPI DUP4 DUP2 DUP4 PUSH1 0x40 MLOAD PUSH32 0xE450D38C00000000000000000000000000000000000000000000000000000000 DUP2 MSTORE PUSH1 0x4 ADD PUSH2 0x19BE SWAP4 SWAP3 SWAP2 SWAP1 PUSH2 0x24BF JUMP JUMPDEST PUSH1 0x40 MLOAD DUP1 SWAP2 SUB SWAP1 REVERT JUMPDEST DUP2 DUP2 SUB PUSH0 DUP1 DUP7 PUSH20 0xFFFFFFFFFFFFFFFFFFFFFFFFFFFFFFFFFFFFFFFF AND PUSH20 0xFFFFFFFFFFFFFFFFFFFFFFFFFFFFFFFFFFFFFFFF AND DUP2 MSTORE PUSH1 0x20 ADD SWAP1 DUP2 MSTORE PUSH1 0x20 ADD PUSH0 KECCAK256 DUP2 SWAP1 SSTORE POP POP JUMPDEST PUSH0 PUSH20 0xFFFFFFFFFFFFFFFFFFFFFFFFFFFFFFFFFFFFFFFF AND DUP3 PUSH20 0xFFFFFFFFFFFFFFFFFFFFFFFFFFFFFFFFFFFFFFFF AND SUB PUSH2 0x1A53 JUMPI DUP1 PUSH1 0x2 PUSH0 DUP3 DUP3 SLOAD SUB SWAP3 POP POP DUP2 SWAP1 SSTORE POP PUSH2 0x1A9D JUMP JUMPDEST DUP1 PUSH0 DUP1 DUP5 PUSH20 0xFFFFFFFFFFFFFFFFFFFFFFFFFFFFFFFFFFFFFFFF AND PUSH20 0xFFFFFFFFFFFFFFFFFFFFFFFFFFFFFFFFFFFFFFFF AND DUP2 MSTORE PUSH1 0x20 ADD SWAP1 DUP2 MSTORE PUSH1 0x20 ADD PUSH0 KECCAK256 PUSH0 DUP3 DUP3 SLOAD ADD SWAP3 POP POP DUP2 SWAP1 SSTORE POP JUMPDEST DUP2 PUSH20 0xFFFFFFFFFFFFFFFFFFFFFFFFFFFFFFFFFFFFFFFF AND DUP4 PUSH20 0xFFFFFFFFFFFFFFFFFFFFFFFFFFFFFFFFFFFFFFFF AND PUSH32 0xDDF252AD1BE2C89B69C2B068FC378DAA952BA7F163C4A11628F55A4DF523B3EF DUP4 PUSH1 0x40 MLOAD PUSH2 0x1AFA SWAP2 SWAP1 PUSH2 0x1CED JUMP JUMPDEST PUSH1 0x40 MLOAD DUP1 SWAP2 SUB SWAP1 LOG3 POP POP POP JUMP JUMPDEST PUSH0 DUP2 MLOAD SWAP1 POP SWAP2 SWAP1 POP JUMP JUMPDEST PUSH0 DUP3 DUP3 MSTORE PUSH1 0x20 DUP3 ADD SWAP1 POP SWAP3 SWAP2 POP POP JUMP JUMPDEST PUSH0 JUMPDEST DUP4 DUP2 LT ISZERO PUSH2 0x1B3E JUMPI DUP1 DUP3 ADD MLOAD DUP2 DUP5 ADD MSTORE PUSH1 0x20 DUP2 ADD SWAP1 POP PUSH2 0x1B23 JUMP JUMPDEST PUSH0 DUP5 DUP5 ADD MSTORE POP POP POP POP JUMP JUMPDEST PUSH0 PUSH1 0x1F NOT PUSH1 0x1F DUP4 ADD AND SWAP1 POP SWAP2 SWAP1 POP JUMP JUMPDEST PUSH0 PUSH2 0x1B63 DUP3 PUSH2 0x1B07 JUMP JUMPDEST PUSH2 0x1B6D DUP2 DUP6 PUSH2 0x1B11 JUMP JUMPDEST SWAP4 POP PUSH2 0x1B7D DUP2 DUP6 PUSH1 0x20 DUP7 ADD PUSH2 0x1B21 JUMP JUMPDEST PUSH2 0x1B86 DUP2 PUSH2 0x1B49 JUMP JUMPDEST DUP5 ADD SWAP2 POP POP SWAP3 SWAP2 POP POP JUMP JUMPDEST PUSH0 PUSH1 0x20 DUP3 ADD SWAP1 POP DUP2 DUP2 SUB PUSH0 DUP4 ADD MSTORE PUSH2 0x1BA9 DUP2 DUP5 PUSH2 0x1B59 JUMP JUMPDEST SWAP1 POP SWAP3 SWAP2 POP POP JUMP JUMPDEST PUSH0 DUP1 REVERT JUMPDEST PUSH0 PUSH20 0xFFFFFFFFFFFFFFFFFFFFFFFFFFFFFFFFFFFFFFFF DUP3 AND SWAP1 POP SWAP2 SWAP1 POP JUMP JUMPDEST PUSH0 PUSH2 0x1BDE DUP3 PUSH2 0x1BB5 JUMP JUMPDEST SWAP1 POP SWAP2 SWAP1 POP JUMP JUMPDEST PUSH2 0x1BEE DUP2 PUSH2 0x1BD4 JUMP JUMPDEST DUP2 EQ PUSH2 0x1BF8 JUMPI PUSH0 DUP1 REVERT JUMPDEST POP JUMP JUMPDEST PUSH0 DUP2 CALLDATALOAD SWAP1 POP PUSH2 0x1C09 DUP2 PUSH2 0x1BE5 JUMP JUMPDEST SWAP3 SWAP2 POP POP JUMP JUMPDEST PUSH0 DUP2 SWAP1 POP SWAP2 SWAP1 POP JUMP JUMPDEST PUSH2 0x1C21 DUP2 PUSH2 0x1C0F JUMP JUMPDEST DUP2 EQ PUSH2 0x1C2B JUMPI PUSH0 DUP1 REVERT JUMPDEST POP JUMP JUMPDEST PUSH0 DUP2 CALLDATALOAD SWAP1 POP PUSH2 0x1C3C DUP2 PUSH2 0x1C18 JUMP JUMPDEST SWAP3 SWAP2 POP POP JUMP JUMPDEST PUSH0 DUP1 PUSH1 0x40 DUP4 DUP6 SUB SLT ISZERO PUSH2 0x1C58 JUMPI PUSH2 0x1C57 PUSH2 0x1BB1 JUMP JUMPDEST JUMPDEST PUSH0 PUSH2 0x1C65 DUP6 DUP3 DUP7 ADD PUSH2 0x1BFB JUMP JUMPDEST SWAP3 POP POP PUSH1 0x20 PUSH2 0x1C76 DUP6 DUP3 DUP7 ADD PUSH2 0x1C2E JUMP JUMPDEST SWAP2 POP POP SWAP3 POP SWAP3 SWAP1 POP JUMP JUMPDEST PUSH0 DUP2 ISZERO ISZERO SWAP1 POP SWAP2 SWAP1 POP JUMP JUMPDEST PUSH2 0x1C94 DUP2 PUSH2 0x1C80 JUMP JUMPDEST DUP3 MSTORE POP POP JUMP JUMPDEST PUSH0 PUSH1 0x20 DUP3 ADD SWAP1 POP PUSH2 0x1CAD PUSH0 DUP4 ADD DUP5 PUSH2 0x1C8B JUMP JUMPDEST SWAP3 SWAP2 POP POP JUMP JUMPDEST PUSH0 PUSH1 0x20 DUP3 DUP5 SUB SLT ISZERO PUSH2 0x1CC8 JUMPI PUSH2 0x1CC7 PUSH2 0x1BB1 JUMP JUMPDEST JUMPDEST PUSH0 PUSH2 0x1CD5 DUP5 DUP3 DUP6 ADD PUSH2 0x1BFB JUMP JUMPDEST SWAP2 POP POP SWAP3 SWAP2 POP POP JUMP JUMPDEST PUSH2 0x1CE7 DUP2 PUSH2 0x1C0F JUMP JUMPDEST DUP3 MSTORE POP POP JUMP JUMPDEST PUSH0 PUSH1 0x20 DUP3 ADD SWAP1 POP PUSH2 0x1D00 PUSH0 DUP4 ADD DUP5 PUSH2 0x1CDE JUMP JUMPDEST SWAP3 SWAP2 POP POP JUMP JUMPDEST PUSH0 DUP1 PUSH0 PUSH1 0x60 DUP5 DUP7 SUB SLT ISZERO PUSH2 0x1D1D JUMPI PUSH2 0x1D1C PUSH2 0x1BB1 JUMP JUMPDEST JUMPDEST PUSH0 PUSH2 0x1D2A DUP7 DUP3 DUP8 ADD PUSH2 0x1BFB JUMP JUMPDEST SWAP4 POP POP PUSH1 0x20 PUSH2 0x1D3B DUP7 DUP3 DUP8 ADD PUSH2 0x1BFB JUMP JUMPDEST SWAP3 POP POP PUSH1 0x40 PUSH2 0x1D4C DUP7 DUP3 DUP8 ADD PUSH2 0x1C2E JUMP JUMPDEST SWAP2 POP POP SWAP3 POP SWAP3 POP SWAP3 JUMP JUMPDEST PUSH0 PUSH1 0xFF DUP3 AND SWAP1 POP SWAP2 SWAP1 POP JUMP JUMPDEST PUSH2 0x1D6B DUP2 PUSH2 0x1D56 JUMP JUMPDEST DUP3 MSTORE POP POP JUMP JUMPDEST PUSH0 PUSH1 0x20 DUP3 ADD SWAP1 POP PUSH2 0x1D84 PUSH0 DUP4 ADD DUP5 PUSH2 0x1D62 JUMP JUMPDEST SWAP3 SWAP2 POP POP JUMP JUMPDEST PUSH0 PUSH1 0x20 DUP3 DUP5 SUB SLT ISZERO PUSH2 0x1D9F JUMPI PUSH2 0x1D9E PUSH2 0x1BB1 JUMP JUMPDEST JUMPDEST PUSH0 PUSH2 0x1DAC DUP5 DUP3 DUP6 ADD PUSH2 0x1C2E JUMP JUMPDEST SWAP2 POP POP SWAP3 SWAP2 POP POP JUMP JUMPDEST PUSH2 0x1DBE DUP2 PUSH2 0x1BD4 JUMP JUMPDEST DUP3 MSTORE POP POP JUMP JUMPDEST PUSH0 PUSH1 0x20 DUP3 ADD SWAP1 POP PUSH2 0x1DD7 PUSH0 DUP4 ADD DUP5 PUSH2 0x1DB5 JUMP JUMPDEST SWAP3 SWAP2 POP POP JUMP JUMPDEST PUSH0 DUP2 SWAP1 POP SWAP2 SWAP1 POP JUMP JUMPDEST PUSH0 PUSH2 0x1E00 PUSH2 0x1DFB PUSH2 0x1DF6 DUP5 PUSH2 0x1BB5 JUMP JUMPDEST PUSH2 0x1DDD JUMP JUMPDEST PUSH2 0x1BB5 JUMP JUMPDEST SWAP1 POP SWAP2 SWAP1 POP JUMP JUMPDEST PUSH0 PUSH2 0x1E11 DUP3 PUSH2 0x1DE6 JUMP JUMPDEST SWAP1 POP SWAP2 SWAP1 POP JUMP JUMPDEST PUSH0 PUSH2 0x1E22 DUP3 PUSH2 0x1E07 JUMP JUMPDEST SWAP1 POP SWAP2 SWAP1 POP JUMP JUMPDEST PUSH2 0x1E32 DUP2 PUSH2 0x1E18 JUMP JUMPDEST DUP3 MSTORE POP POP JUMP JUMPDEST PUSH0 PUSH1 0x20 DUP3 ADD SWAP1 POP PUSH2 0x1E4B PUSH0 DUP4 ADD DUP5 PUSH2 0x1E29 JUMP JUMPDEST SWAP3 SWAP2 POP POP JUMP JUMPDEST PUSH0 PUSH2 0x120 DUP3 ADD SWAP1 POP PUSH2 0x1E65 PUSH0 DUP4 ADD DUP13 PUSH2 0x1CDE JUMP JUMPDEST PUSH2 0x1E72 PUSH1 0x20 DUP4 ADD DUP12 PUSH2 0x1CDE JUMP JUMPDEST PUSH2 0x1E7F PUSH1 0x40 DUP4 ADD DUP11 PUSH2 0x1DB5 JUMP JUMPDEST PUSH2 0x1E8C PUSH1 0x60 DUP4 ADD DUP10 PUSH2 0x1DB5 JUMP JUMPDEST PUSH2 0x1E99 PUSH1 0x80 DUP4 ADD DUP9 PUSH2 0x1CDE JUMP JUMPDEST PUSH2 0x1EA6 PUSH1 0xA0 DUP4 ADD DUP8 PUSH2 0x1CDE JUMP JUMPDEST PUSH2 0x1EB3 PUSH1 0xC0 DUP4 ADD DUP7 PUSH2 0x1CDE JUMP JUMPDEST PUSH2 0x1EC0 PUSH1 0xE0 DUP4 ADD DUP6 PUSH2 0x1CDE JUMP JUMPDEST PUSH2 0x1ECE PUSH2 0x100 DUP4 ADD DUP5 PUSH2 0x1CDE JUMP JUMPDEST SWAP11 SWAP10 POP POP POP POP POP POP POP POP POP POP JUMP JUMPDEST PUSH0 DUP1 PUSH1 0x40 DUP4 DUP6 SUB SLT ISZERO PUSH2 0x1EF2 JUMPI PUSH2 0x1EF1 PUSH2 0x1BB1 JUMP JUMPDEST JUMPDEST PUSH0 PUSH2 0x1EFF DUP6 DUP3 DUP7 ADD PUSH2 0x1BFB JUMP JUMPDEST SWAP3 POP POP PUSH1 0x20 PUSH2 0x1F10 DUP6 DUP3 DUP7 ADD PUSH2 0x1BFB JUMP JUMPDEST SWAP2 POP POP SWAP3 POP SWAP3 SWAP1 POP JUMP JUMPDEST PUSH32 0x4E487B7100000000000000000000000000000000000000000000000000000000 PUSH0 MSTORE PUSH1 0x22 PUSH1 0x4 MSTORE PUSH1 0x24 PUSH0 REVERT JUMPDEST PUSH0 PUSH1 0x2 DUP3 DIV SWAP1 POP PUSH1 0x1 DUP3 AND DUP1 PUSH2 0x1F5E JUMPI PUSH1 0x7F DUP3 AND SWAP2 POP JUMPDEST PUSH1 0x20 DUP3 LT DUP2 SUB PUSH2 0x1F71 JUMPI PUSH2 0x1F70 PUSH2 0x1F1A JUMP JUMPDEST JUMPDEST POP SWAP2 SWAP1 POP JUMP JUMPDEST PUSH0 PUSH1 0x40 DUP3 ADD SWAP1 POP PUSH2 0x1F8A PUSH0 DUP4 ADD DUP6 PUSH2 0x1DB5 JUMP JUMPDEST PUSH2 0x1F97 PUSH1 0x20 DUP4 ADD DUP5 PUSH2 0x1CDE JUMP JUMPDEST SWAP4 SWAP3 POP POP POP JUMP JUMPDEST PUSH2 0x1FA7 DUP2 PUSH2 0x1C80 JUMP JUMPDEST DUP2 EQ PUSH2 0x1FB1 JUMPI PUSH0 DUP1 REVERT JUMPDEST POP JUMP JUMPDEST PUSH0 DUP2 MLOAD SWAP1 POP PUSH2 0x1FC2 DUP2 PUSH2 0x1F9E JUMP JUMPDEST SWAP3 SWAP2 POP POP JUMP JUMPDEST PUSH0 PUSH1 0x20 DUP3 DUP5 SUB SLT ISZERO PUSH2 0x1FDD JUMPI PUSH2 0x1FDC PUSH2 0x1BB1 JUMP JUMPDEST JUMPDEST PUSH0 PUSH2 0x1FEA DUP5 DUP3 DUP6 ADD PUSH2 0x1FB4 JUMP JUMPDEST SWAP2 POP POP SWAP3 SWAP2 POP POP JUMP JUMPDEST PUSH32 0x5769746864726177206661696C65640000000000000000000000000000000000 PUSH0 DUP3 ADD MSTORE POP JUMP JUMPDEST PUSH0 PUSH2 0x2027 PUSH1 0xF DUP4 PUSH2 0x1B11 JUMP JUMPDEST SWAP2 POP PUSH2 0x2032 DUP3 PUSH2 0x1FF3 JUMP JUMPDEST PUSH1 0x20 DUP3 ADD SWAP1 POP SWAP2 SWAP1 POP JUMP JUMPDEST PUSH0 PUSH1 0x20 DUP3 ADD SWAP1 POP DUP2 DUP2 SUB PUSH0 DUP4 ADD MSTORE PUSH2 0x2054 DUP2 PUSH2 0x201B JUMP JUMPDEST SWAP1 POP SWAP2 SWAP1 POP JUMP JUMPDEST PUSH32 0x4E487B7100000000000000000000000000000000000000000000000000000000 PUSH0 MSTORE PUSH1 0x11 PUSH1 0x4 MSTORE PUSH1 0x24 PUSH0 REVERT JUMPDEST PUSH0 PUSH2 0x2092 DUP3 PUSH2 0x1C0F JUMP JUMPDEST SWAP2 POP PUSH2 0x209D DUP4 PUSH2 0x1C0F JUMP JUMPDEST SWAP3 POP DUP3 DUP3 MUL PUSH2 0x20AB DUP2 PUSH2 0x1C0F JUMP JUMPDEST SWAP2 POP DUP3 DUP3 DIV DUP5 EQ DUP4 ISZERO OR PUSH2 0x20C2 JUMPI PUSH2 0x20C1 PUSH2 0x205B JUMP JUMPDEST JUMPDEST POP SWAP3 SWAP2 POP POP JUMP JUMPDEST PUSH32 0x416D6F756E74206D7573742062652067726561746572207468616E2030000000 PUSH0 DUP3 ADD MSTORE POP JUMP JUMPDEST PUSH0 PUSH2 0x20FD PUSH1 0x1D DUP4 PUSH2 0x1B11 JUMP JUMPDEST SWAP2 POP PUSH2 0x2108 DUP3 PUSH2 0x20C9 JUMP JUMPDEST PUSH1 0x20 DUP3 ADD SWAP1 POP SWAP2 SWAP1 POP JUMP JUMPDEST PUSH0 PUSH1 0x20 DUP3 ADD SWAP1 POP DUP2 DUP2 SUB PUSH0 DUP4 ADD MSTORE PUSH2 0x212A DUP2 PUSH2 0x20F1 JUMP JUMPDEST SWAP1 POP SWAP2 SWAP1 POP JUMP JUMPDEST PUSH32 0x4E487B7100000000000000000000000000000000000000000000000000000000 PUSH0 MSTORE PUSH1 0x12 PUSH1 0x4 MSTORE PUSH1 0x24 PUSH0 REVERT JUMPDEST PUSH0 PUSH2 0x2168 DUP3 PUSH2 0x1C0F JUMP JUMPDEST SWAP2 POP PUSH2 0x2173 DUP4 PUSH2 0x1C0F JUMP JUMPDEST SWAP3 POP DUP3 PUSH2 0x2183 JUMPI PUSH2 0x2182 PUSH2 0x2131 JUMP JUMPDEST JUMPDEST DUP3 DUP3 DIV SWAP1 POP SWAP3 SWAP2 POP POP JUMP JUMPDEST PUSH0 PUSH2 0x2198 DUP3 PUSH2 0x1C0F JUMP JUMPDEST SWAP2 POP PUSH2 0x21A3 DUP4 PUSH2 0x1C0F JUMP JUMPDEST SWAP3 POP DUP3 DUP3 SUB SWAP1 POP DUP2 DUP2 GT ISZERO PUSH2 0x21BB JUMPI PUSH2 0x21BA PUSH2 0x205B JUMP JUMPDEST JUMPDEST SWAP3 SWAP2 POP POP JUMP JUMPDEST PUSH32 0x55534454207061796F7574206661696C65640000000000000000000000000000 PUSH0 DUP3 ADD MSTORE POP JUMP JUMPDEST PUSH0 PUSH2 0x21F5 PUSH1 0x12 DUP4 PUSH2 0x1B11 JUMP JUMPDEST SWAP2 POP PUSH2 0x2200 DUP3 PUSH2 0x21C1 JUMP JUMPDEST PUSH1 0x20 DUP3 ADD SWAP1 POP SWAP2 SWAP1 POP JUMP JUMPDEST PUSH0 PUSH1 0x20 DUP3 ADD SWAP1 POP DUP2 DUP2 SUB PUSH0 DUP4 ADD MSTORE PUSH2 0x2222 DUP2 PUSH2 0x21E9 JUMP JUMPDEST SWAP1 POP SWAP2 SWAP1 POP JUMP JUMPDEST PUSH0 PUSH1 0x60 DUP3 ADD SWAP1 POP PUSH2 0x223C PUSH0 DUP4 ADD DUP7 PUSH2 0x1CDE JUMP JUMPDEST PUSH2 0x2249 PUSH1 0x20 DUP4 ADD DUP6 PUSH2 0x1CDE JUMP JUMPDEST PUSH2 0x2256 PUSH1 0x40 DUP4 ADD DUP5 PUSH2 0x1CDE JUMP JUMPDEST SWAP5 SWAP4 POP POP POP POP JUMP JUMPDEST PUSH32 0x4275792072617465206D757374206265203E3D2031205354454D000000000000 PUSH0 DUP3 ADD MSTORE POP JUMP JUMPDEST PUSH0 PUSH2 0x2292 PUSH1 0x1A DUP4 PUSH2 0x1B11 JUMP JUMPDEST SWAP2 POP PUSH2 0x229D DUP3 PUSH2 0x225E JUMP JUMPDEST PUSH1 0x20 DUP3 ADD SWAP1 POP SWAP2 SWAP1 POP JUMP JUMPDEST PUSH0 PUSH1 0x20 DUP3 ADD SWAP1 POP DUP2 DUP2 SUB PUSH0 DUP4 ADD MSTORE PUSH2 0x22BF DUP2 PUSH2 0x2286 JUMP JUMPDEST SWAP1 POP SWAP2 SWAP1 POP JUMP JUMPDEST PUSH32 0x4275792072617465206D757374206265203C3D2053656C6C2072617465000000 PUSH0 DUP3 ADD MSTORE POP JUMP JUMPDEST PUSH0 PUSH2 0x22FA PUSH1 0x1D DUP4 PUSH2 0x1B11 JUMP JUMPDEST SWAP2 POP PUSH2 0x2305 DUP3 PUSH2 0x22C6 JUMP JUMPDEST PUSH1 0x20 DUP3 ADD SWAP1 POP SWAP2 SWAP1 POP JUMP JUMPDEST PUSH0 PUSH1 0x20 DUP3 ADD SWAP1 POP DUP2 DUP2 SUB PUSH0 DUP4 ADD MSTORE PUSH2 0x2327 DUP2 PUSH2 0x22EE JUMP JUMPDEST SWAP1 POP SWAP2 SWAP1 POP JUMP JUMPDEST PUSH32 0x53656C6C2072617465206D75737420626520E289A52031205354454D20706572 PUSH0 DUP3 ADD MSTORE PUSH32 0x2055534454000000000000000000000000000000000000000000000000000000 PUSH1 0x20 DUP3 ADD MSTORE POP JUMP JUMPDEST PUSH0 PUSH2 0x2388 PUSH1 0x25 DUP4 PUSH2 0x1B11 JUMP JUMPDEST SWAP2 POP PUSH2 0x2393 DUP3 PUSH2 0x232E JUMP JUMPDEST PUSH1 0x40 DUP3 ADD SWAP1 POP SWAP2 SWAP1 POP JUMP JUMPDEST PUSH0 PUSH1 0x20 DUP3 ADD SWAP1 POP DUP2 DUP2 SUB PUSH0 DUP4 ADD MSTORE PUSH2 0x23B5 DUP2 PUSH2 0x237C JUMP JUMPDEST SWAP1 POP SWAP2 SWAP1 POP JUMP JUMPDEST PUSH0 PUSH1 0x60 DUP3 ADD SWAP1 POP PUSH2 0x23CF PUSH0 DUP4 ADD DUP7 PUSH2 0x1DB5 JUMP JUMPDEST PUSH2 0x23DC PUSH1 0x20 DUP4 ADD DUP6 PUSH2 0x1DB5 JUMP JUMPDEST PUSH2 0x23E9 PUSH1 0x40 DUP4 ADD DUP5 PUSH2 0x1CDE JUMP JUMPDEST SWAP5 SWAP4 POP POP POP POP JUMP JUMPDEST PUSH32 0x55534454207472616E73666572206661696C6564000000000000000000000000 PUSH0 DUP3 ADD MSTORE POP JUMP JUMPDEST PUSH0 PUSH2 0x2425 PUSH1 0x14 DUP4 PUSH2 0x1B11 JUMP JUMPDEST SWAP2 POP PUSH2 0x2430 DUP3 PUSH2 0x23F1 JUMP JUMPDEST PUSH1 0x20 DUP3 ADD SWAP1 POP SWAP2 SWAP1 POP JUMP JUMPDEST PUSH0 PUSH1 0x20 DUP3 ADD SWAP1 POP DUP2 DUP2 SUB PUSH0 DUP4 ADD MSTORE PUSH2 0x2452 DUP2 PUSH2 0x2419 JUMP JUMPDEST SWAP1 POP SWAP2 SWAP1 POP JUMP JUMPDEST PUSH0 PUSH1 0x40 DUP3 ADD SWAP1 POP PUSH2 0x246C PUSH0 DUP4 ADD DUP6 PUSH2 0x1CDE JUMP JUMPDEST PUSH2 0x2479 PUSH1 0x20 DUP4 ADD DUP5 PUSH2 0x1CDE JUMP JUMPDEST SWAP4 SWAP3 POP POP POP JUMP JUMPDEST PUSH0 DUP2 MLOAD SWAP1 POP PUSH2 0x248E DUP2 PUSH2 0x1C18 JUMP JUMPDEST SWAP3 SWAP2 POP POP JUMP JUMPDEST PUSH0 PUSH1 0x20 DUP3 DUP5 SUB SLT ISZERO PUSH2 0x24A9 JUMPI PUSH2 0x24A8 PUSH2 0x1BB1 JUMP JUMPDEST JUMPDEST PUSH0 PUSH2 0x24B6 DUP5 DUP3 DUP6 ADD PUSH2 0x2480 JUMP JUMPDEST SWAP2 POP POP SWAP3 SWAP2 POP POP JUMP JUMPDEST PUSH0 PUSH1 0x60 DUP3 ADD SWAP1 POP PUSH2 0x24D2 PUSH0 DUP4 ADD DUP7 PUSH2 0x1DB5 JUMP JUMPDEST PUSH2 0x24DF PUSH1 0x20 DUP4 ADD DUP6 PUSH2 0x1CDE JUMP JUMPDEST PUSH2 0x24EC PUSH1 0x40 DUP4 ADD DUP5 PUSH2 0x1CDE JUMP JUMPDEST SWAP5 SWAP4 POP POP POP POP JUMP JUMPDEST PUSH0 PUSH2 0x24FE DUP3 PUSH2 0x1C0F JUMP JUMPDEST SWAP2 POP PUSH2 0x2509 DUP4 PUSH2 0x1C0F JUMP JUMPDEST SWAP3 POP DUP3 DUP3 ADD SWAP1 POP DUP1 DUP3 GT ISZERO PUSH2 0x2521 JUMPI PUSH2 0x2520 PUSH2 0x205B JUMP JUMPDEST JUMPDEST SWAP3 SWAP2 POP POP JUMP INVALID LOG2 PUSH5 0x6970667358 0x22 SLT KECCAK256 ORIGIN SSTORE PUSH31 0x277B4DADEAE6F6913FE25A0CFBB6FC859D2F6AD6AFBF8CAF5EA0A886AF6473 PUSH16 0x6C634300081400330000000000000000 "
				},
				"gasEstimates": {
					"creation": {
						"codeDepositCost": "1913000",
						"executionCost": "infinite",
						"totalCost": "infinite"
					},
					"external": {
						"allowance(address,address)": "infinite",
						"approve(address,uint256)": "infinite",
						"balanceOf(address)": "2918",
						"burn(address,uint256)": "infinite",
						"buyRate()": "2535",
						"buyStem(uint256)": "infinite",
						"decimals()": "384",
						"getConfig()": "infinite",
						"mint(address,uint256)": "infinite",
						"name()": "infinite",
						"owner()": "2583",
						"profitTreasury()": "2574",
						"renounceOwnership()": "infinite",
						"sellRate()": "2492",
						"sellStem(uint256)": "infinite",
						"setBuyRate(uint256)": "infinite",
						"setProfitTreasury(address)": "infinite",
						"setSellRate(uint256)": "infinite",
						"setTreasury(address)": "infinite",
						"symbol()": "infinite",
						"totalSupply()": "2544",
						"transfer(address,uint256)": "infinite",
						"transferFrom(address,address,uint256)": "infinite",
						"transferOwnership(address)": "infinite",
						"treasury()": "2553",
						"usdtToken()": "infinite",
						"withdrawUSDT(address,uint256)": "infinite"
					}
				},
				"methodIdentifiers": {
					"allowance(address,address)": "dd62ed3e",
					"approve(address,uint256)": "095ea7b3",
					"balanceOf(address)": "70a08231",
					"burn(address,uint256)": "9dc29fac",
					"buyRate()": "fc37987b",
					"buyStem(uint256)": "bb285554",
					"decimals()": "313ce567",
					"getConfig()": "c3f909d4",
					"mint(address,uint256)": "40c10f19",
					"name()": "06fdde03",
					"owner()": "8da5cb5b",
					"profitTreasury()": "f203787c",
					"renounceOwnership()": "715018a6",
					"sellRate()": "6217229b",
					"sellStem(uint256)": "5d91e3f8",
					"setBuyRate(uint256)": "85e436bf",
					"setProfitTreasury(address)": "0f7e730b",
					"setSellRate(uint256)": "8e0b017d",
					"setTreasury(address)": "f0f44260",
					"symbol()": "95d89b41",
					"totalSupply()": "18160ddd",
					"transfer(address,uint256)": "a9059cbb",
					"transferFrom(address,address,uint256)": "23b872dd",
					"transferOwnership(address)": "f2fde38b",
					"treasury()": "61d027b3",
					"usdtToken()": "a98ad46c",
					"withdrawUSDT(address,uint256)": "1481794e"
				}
			},
			"storageLayout": {
				"storage": [
					{
						"astId": 279,
						"contract": "contracts/STEMToken_flattened.sol:STEMToken",
						"label": "_balances",
						"offset": 0,
						"slot": "0",
						"type": "t_mapping(t_address,t_uint256)"
					},
					{
						"astId": 285,
						"contract": "contracts/STEMToken_flattened.sol:STEMToken",
						"label": "_allowances",
						"offset": 0,
						"slot": "1",
						"type": "t_mapping(t_address,t_mapping(t_address,t_uint256))"
					},
					{
						"astId": 287,
						"contract": "contracts/STEMToken_flattened.sol:STEMToken",
						"label": "_totalSupply",
						"offset": 0,
						"slot": "2",
						"type": "t_uint256"
					},
					{
						"astId": 289,
						"contract": "contracts/STEMToken_flattened.sol:STEMToken",
						"label": "_name",
						"offset": 0,
						"slot": "3",
						"type": "t_string_storage"
					},
					{
						"astId": 291,
						"contract": "contracts/STEMToken_flattened.sol:STEMToken",
						"label": "_symbol",
						"offset": 0,
						"slot": "4",
						"type": "t_string_storage"
					},
					{
						"astId": 777,
						"contract": "contracts/STEMToken_flattened.sol:STEMToken",
						"label": "_owner",
						"offset": 0,
						"slot": "5",
						"type": "t_address"
					},
					{
						"astId": 924,
						"contract": "contracts/STEMToken_flattened.sol:STEMToken",
						"label": "usdtToken",
						"offset": 0,
						"slot": "6",
						"type": "t_contract(IERC20)77"
					},
					{
						"astId": 927,
						"contract": "contracts/STEMToken_flattened.sol:STEMToken",
						"label": "buyRate",
						"offset": 0,
						"slot": "7",
						"type": "t_uint256"
					},
					{
						"astId": 930,
						"contract": "contracts/STEMToken_flattened.sol:STEMToken",
						"label": "sellRate",
						"offset": 0,
						"slot": "8",
						"type": "t_uint256"
					},
					{
						"astId": 933,
						"contract": "contracts/STEMToken_flattened.sol:STEMToken",
						"label": "treasury",
						"offset": 0,
						"slot": "9",
						"type": "t_address"
					},
					{
						"astId": 936,
						"contract": "contracts/STEMToken_flattened.sol:STEMToken",
						"label": "profitTreasury",
						"offset": 0,
						"slot": "10",
						"type": "t_address"
					}
				],
				"types": {
					"t_address": {
						"encoding": "inplace",
						"label": "address",
						"numberOfBytes": "20"
					},
					"t_contract(IERC20)77": {
						"encoding": "inplace",
						"label": "contract IERC20",
						"numberOfBytes": "20"
					},
					"t_mapping(t_address,t_mapping(t_address,t_uint256))": {
						"encoding": "mapping",
						"key": "t_address",
						"label": "mapping(address => mapping(address => uint256))",
						"numberOfBytes": "32",
						"value": "t_mapping(t_address,t_uint256)"
					},
					"t_mapping(t_address,t_uint256)": {
						"encoding": "mapping",
						"key": "t_address",
						"label": "mapping(address => uint256)",
						"numberOfBytes": "32",
						"value": "t_uint256"
					},
					"t_string_storage": {
						"encoding": "bytes",
						"label": "string",
						"numberOfBytes": "32"
					},
					"t_uint256": {
						"encoding": "inplace",
						"label": "uint256",
						"numberOfBytes": "32"
					}
				}
			},
			"userdoc": {
				"kind": "user",
				"methods": {},
				"version": 1
			}
		}
	}
}