{
	"contracts/STEMMER_flattened.sol": {
		"STEMMER": {
			"abi": [
				{
					"inputs": [
						{
							"internalType": "address",
							"name": "_usdtTokenAddress",
							"type": "address"
						},
						{
							"internalType": "address",
							"name": "_treasury",
							"type": "address"
						},
						{
							"internalType": "address",
							"name": "_profitTreasury",
							"type": "address"
						},
						{
							"internalType": "uint256",
							"name": "initialSupply",
							"type": "uint256"
						},
						{
							"internalType": "uint256",
							"name": "_profitThreshold",
							"type": "uint256"
						}
					],
					"stateMutability": "nonpayable",
					"type": "constructor"
				},
				{
					"inputs": [
						{
							"internalType": "address",
							"name": "spender",
							"type": "address"
						},
						{
							"internalType": "uint256",
							"name": "allowance",
							"type": "uint256"
						},
						{
							"internalType": "uint256",
							"name": "needed",
							"type": "uint256"
						}
					],
					"name": "ERC20InsufficientAllowance",
					"type": "error"
				},
				{
					"inputs": [
						{
							"internalType": "address",
							"name": "sender",
							"type": "address"
						},
						{
							"internalType": "uint256",
							"name": "balance",
							"type": "uint256"
						},
						{
							"internalType": "uint256",
							"name": "needed",
							"type": "uint256"
						}
					],
					"name": "ERC20InsufficientBalance",
					"type": "error"
				},
				{
					"inputs": [
						{
							"internalType": "address",
							"name": "approver",
							"type": "address"
						}
					],
					"name": "ERC20InvalidApprover",
					"type": "error"
				},
				{
					"inputs": [
						{
							"internalType": "address",
							"name": "receiver",
							"type": "address"
						}
					],
					"name": "ERC20InvalidReceiver",
					"type": "error"
				},
				{
					"inputs": [
						{
							"internalType": "address",
							"name": "sender",
							"type": "address"
						}
					],
					"name": "ERC20InvalidSender",
					"type": "error"
				},
				{
					"inputs": [
						{
							"internalType": "address",
							"name": "spender",
							"type": "address"
						}
					],
					"name": "ERC20InvalidSpender",
					"type": "error"
				},
				{
					"inputs": [
						{
							"internalType": "address",
							"name": "owner",
							"type": "address"
						}
					],
					"name": "OwnableInvalidOwner",
					"type": "error"
				},
				{
					"inputs": [
						{
							"internalType": "address",
							"name": "account",
							"type": "address"
						}
					],
					"name": "OwnableUnauthorizedAccount",
					"type": "error"
				},
				{
					"anonymous": false,
					"inputs": [
						{
							"indexed": false,
							"internalType": "uint256",
							"name": "amount",
							"type": "uint256"
						}
					],
					"name": "AccumulatedProfitWithdrawn",
					"type": "event"
				},
				{
					"anonymous": false,
					"inputs": [
						{
							"indexed": true,
							"internalType": "address",
							"name": "owner",
							"type": "address"
						},
						{
							"indexed": true,
							"internalType": "address",
							"name": "spender",
							"type": "address"
						},
						{
							"indexed": false,
							"internalType": "uint256",
							"name": "value",
							"type": "uint256"
						}
					],
					"name": "Approval",
					"type": "event"
				},
				{
					"anonymous": false,
					"inputs": [
						{
							"indexed": true,
							"internalType": "address",
							"name": "from",
							"type": "address"
						},
						{
							"indexed": false,
							"internalType": "uint256",
							"name": "amount",
							"type": "uint256"
						}
					],
					"name": "Burned",
					"type": "event"
				},
				{
					"anonymous": false,
					"inputs": [
						{
							"indexed": false,
							"internalType": "uint256",
							"name": "newBuyRate",
							"type": "uint256"
						}
					],
					"name": "BuyRateUpdated",
					"type": "event"
				},
				{
					"anonymous": false,
					"inputs": [
						{
							"indexed": true,
							"internalType": "address",
							"name": "buyer",
							"type": "address"
						},
						{
							"indexed": false,
							"internalType": "uint256",
							"name": "usdtAmount",
							"type": "uint256"
						},
						{
							"indexed": false,
							"internalType": "uint256",
							"name": "stemAmount",
							"type": "uint256"
						}
					],
					"name": "BuyStem",
					"type": "event"
				},
				{
					"anonymous": false,
					"inputs": [
						{
							"indexed": true,
							"internalType": "address",
							"name": "to",
							"type": "address"
						},
						{
							"indexed": false,
							"internalType": "uint256",
							"name": "amount",
							"type": "uint256"
						}
					],
					"name": "Minted",
					"type": "event"
				},
				{
					"anonymous": false,
					"inputs": [
						{
							"indexed": true,
							"internalType": "address",
							"name": "previousOwner",
							"type": "address"
						},
						{
							"indexed": true,
							"internalType": "address",
							"name": "newOwner",
							"type": "address"
						}
					],
					"name": "OwnershipTransferred",
					"type": "event"
				},
				{
					"anonymous": false,
					"inputs": [
						{
							"indexed": false,
							"internalType": "uint256",
							"name": "newThreshold",
							"type": "uint256"
						}
					],
					"name": "ProfitThresholdUpdated",
					"type": "event"
				},
				{
					"anonymous": false,
					"inputs": [
						{
							"indexed": true,
							"internalType": "address",
							"name": "newProfitTreasury",
							"type": "address"
						}
					],
					"name": "ProfitTreasuryChanged",
					"type": "event"
				},
				{
					"anonymous": false,
					"inputs": [
						{
							"indexed": false,
							"internalType": "uint256",
							"name": "newSellRate",
							"type": "uint256"
						}
					],
					"name": "SellRateUpdated",
					"type": "event"
				},
				{
					"anonymous": false,
					"inputs": [
						{
							"indexed": true,
							"internalType": "address",
							"name": "seller",
							"type": "address"
						},
						{
							"indexed": false,
							"internalType": "uint256",
							"name": "stemAmount",
							"type": "uint256"
						},
						{
							"indexed": false,
							"internalType": "uint256",
							"name": "usdtAmount",
							"type": "uint256"
						},
						{
							"indexed": false,
							"internalType": "uint256",
							"name": "profitStems",
							"type": "uint256"
						}
					],
					"name": "SellStem",
					"type": "event"
				},
				{
					"anonymous": false,
					"inputs": [
						{
							"indexed": true,
							"internalType": "address",
							"name": "from",
							"type": "address"
						},
						{
							"indexed": true,
							"internalType": "address",
							"name": "to",
							"type": "address"
						},
						{
							"indexed": false,
							"internalType": "uint256",
							"name": "value",
							"type": "uint256"
						}
					],
					"name": "Transfer",
					"type": "event"
				},
				{
					"anonymous": false,
					"inputs": [
						{
							"indexed": true,
							"internalType": "address",
							"name": "newTreasury",
							"type": "address"
						}
					],
					"name": "TreasuryChanged",
					"type": "event"
				},
				{
					"anonymous": false,
					"inputs": [
						{
							"indexed": true,
							"internalType": "address",
							"name": "to",
							"type": "address"
						},
						{
							"indexed": false,
							"internalType": "uint256",
							"name": "amount",
							"type": "uint256"
						}
					],
					"name": "USDTWithdrawn",
					"type": "event"
				},
				{
					"inputs": [],
					"name": "accumulatedProfit",
					"outputs": [
						{
							"internalType": "uint256",
							"name": "",
							"type": "uint256"
						}
					],
					"stateMutability": "view",
					"type": "function"
				},
				{
					"inputs": [
						{
							"internalType": "address",
							"name": "owner",
							"type": "address"
						},
						{
							"internalType": "address",
							"name": "spender",
							"type": "address"
						}
					],
					"name": "allowance",
					"outputs": [
						{
							"internalType": "uint256",
							"name": "",
							"type": "uint256"
						}
					],
					"stateMutability": "view",
					"type": "function"
				},
				{
					"inputs": [
						{
							"internalType": "address",
							"name": "spender",
							"type": "address"
						},
						{
							"internalType": "uint256",
							"name": "value",
							"type": "uint256"
						}
					],
					"name": "approve",
					"outputs": [
						{
							"internalType": "bool",
							"name": "",
							"type": "bool"
						}
					],
					"stateMutability": "nonpayable",
					"type": "function"
				},
				{
					"inputs": [
						{
							"internalType": "address",
							"name": "account",
							"type": "address"
						}
					],
					"name": "balanceOf",
					"outputs": [
						{
							"internalType": "uint256",
							"name": "",
							"type": "uint256"
						}
					],
					"stateMutability": "view",
					"type": "function"
				},
				{
					"inputs": [
						{
							"internalType": "address",
							"name": "from",
							"type": "address"
						},
						{
							"internalType": "uint256",
							"name": "amount",
							"type": "uint256"
						}
					],
					"name": "burn",
					"outputs": [],
					"stateMutability": "nonpayable",
					"type": "function"
				},
				{
					"inputs": [],
					"name": "buyRate",
					"outputs": [
						{
							"internalType": "uint256",
							"name": "",
							"type": "uint256"
						}
					],
					"stateMutability": "view",
					"type": "function"
				},
				{
					"inputs": [
						{
							"internalType": "uint256",
							"name": "usdtAmount",
							"type": "uint256"
						}
					],
					"name": "buyStem",
					"outputs": [],
					"stateMutability": "nonpayable",
					"type": "function"
				},
				{
					"inputs": [],
					"name": "decimals",
					"outputs": [
						{
							"internalType": "uint8",
							"name": "",
							"type": "uint8"
						}
					],
					"stateMutability": "view",
					"type": "function"
				},
				{
					"inputs": [],
					"name": "getConfig",
					"outputs": [
						{
							"internalType": "uint256",
							"name": "_buyRate",
							"type": "uint256"
						},
						{
							"internalType": "uint256",
							"name": "_sellRate",
							"type": "uint256"
						},
						{
							"internalType": "address",
							"name": "_treasury",
							"type": "address"
						},
						{
							"internalType": "address",
							"name": "_profitTreasury",
							"type": "address"
						},
						{
							"internalType": "uint256",
							"name": "treasuryStemBalance",
							"type": "uint256"
						},
						{
							"internalType": "uint256",
							"name": "profitStemBalance",
							"type": "uint256"
						},
						{
							"internalType": "uint256",
							"name": "contractStemBalance",
							"type": "uint256"
						},
						{
							"internalType": "uint256",
							"name": "contractUsdtBalance",
							"type": "uint256"
						},
						{
							"internalType": "uint256",
							"name": "totalStemSupply",
							"type": "uint256"
						},
						{
							"internalType": "uint256",
							"name": "_accumulatedProfit",
							"type": "uint256"
						},
						{
							"internalType": "uint256",
							"name": "_profitThreshold",
							"type": "uint256"
						}
					],
					"stateMutability": "view",
					"type": "function"
				},
				{
					"inputs": [
						{
							"internalType": "address",
							"name": "to",
							"type": "address"
						},
						{
							"internalType": "uint256",
							"name": "amount",
							"type": "uint256"
						}
					],
					"name": "mint",
					"outputs": [],
					"stateMutability": "nonpayable",
					"type": "function"
				},
				{
					"inputs": [],
					"name": "name",
					"outputs": [
						{
							"internalType": "string",
							"name": "",
							"type": "string"
						}
					],
					"stateMutability": "view",
					"type": "function"
				},
				{
					"inputs": [],
					"name": "owner",
					"outputs": [
						{
							"internalType": "address",
							"name": "",
							"type": "address"
						}
					],
					"stateMutability": "view",
					"type": "function"
				},
				{
					"inputs": [],
					"name": "profitThreshold",
					"outputs": [
						{
							"internalType": "uint256",
							"name": "",
							"type": "uint256"
						}
					],
					"stateMutability": "view",
					"type": "function"
				},
				{
					"inputs": [],
					"name": "profitTreasury",
					"outputs": [
						{
							"internalType": "address",
							"name": "",
							"type": "address"
						}
					],
					"stateMutability": "view",
					"type": "function"
				},
				{
					"inputs": [],
					"name": "renounceOwnership",
					"outputs": [],
					"stateMutability": "nonpayable",
					"type": "function"
				},
				{
					"inputs": [],
					"name": "sellRate",
					"outputs": [
						{
							"internalType": "uint256",
							"name": "",
							"type": "uint256"
						}
					],
					"stateMutability": "view",
					"type": "function"
				},
				{
					"inputs": [
						{
							"internalType": "uint256",
							"name": "stemAmount",
							"type": "uint256"
						}
					],
					"name": "sellStem",
					"outputs": [],
					"stateMutability": "nonpayable",
					"type": "function"
				},
				{
					"inputs": [
						{
							"internalType": "uint256",
							"name": "newRate",
							"type": "uint256"
						}
					],
					"name": "setBuyRate",
					"outputs": [],
					"stateMutability": "nonpayable",
					"type": "function"
				},
				{
					"inputs": [
						{
							"internalType": "uint256",
							"name": "newThreshold",
							"type": "uint256"
						}
					],
					"name": "setProfitThreshold",
					"outputs": [],
					"stateMutability": "nonpayable",
					"type": "function"
				},
				{
					"inputs": [
						{
							"internalType": "address",
							"name": "_treasury",
							"type": "address"
						}
					],
					"name": "setProfitTreasury",
					"outputs": [],
					"stateMutability": "nonpayable",
					"type": "function"
				},
				{
					"inputs": [
						{
							"internalType": "uint256",
							"name": "newRate",
							"type": "uint256"
						}
					],
					"name": "setSellRate",
					"outputs": [],
					"stateMutability": "nonpayable",
					"type": "function"
				},
				{
					"inputs": [
						{
							"internalType": "address",
							"name": "_treasury",
							"type": "address"
						}
					],
					"name": "setTreasury",
					"outputs": [],
					"stateMutability": "nonpayable",
					"type": "function"
				},
				{
					"inputs": [],
					"name": "symbol",
					"outputs": [
						{
							"internalType": "string",
							"name": "",
							"type": "string"
						}
					],
					"stateMutability": "view",
					"type": "function"
				},
				{
					"inputs": [],
					"name": "totalSupply",
					"outputs": [
						{
							"internalType": "uint256",
							"name": "",
							"type": "uint256"
						}
					],
					"stateMutability": "view",
					"type": "function"
				},
				{
					"inputs": [
						{
							"internalType": "address",
							"name": "to",
							"type": "address"
						},
						{
							"internalType": "uint256",
							"name": "value",
							"type": "uint256"
						}
					],
					"name": "transfer",
					"outputs": [
						{
							"internalType": "bool",
							"name": "",
							"type": "bool"
						}
					],
					"stateMutability": "nonpayable",
					"type": "function"
				},
				{
					"inputs": [
						{
							"internalType": "address",
							"name": "from",
							"type": "address"
						},
						{
							"internalType": "address",
							"name": "to",
							"type": "address"
						},
						{
							"internalType": "uint256",
							"name": "value",
							"type": "uint256"
						}
					],
					"name": "transferFrom",
					"outputs": [
						{
							"internalType": "bool",
							"name": "",
							"type": "bool"
						}
					],
					"stateMutability": "nonpayable",
					"type": "function"
				},
				{
					"inputs": [
						{
							"internalType": "address",
							"name": "newOwner",
							"type": "address"
						}
					],
					"name": "transferOwnership",
					"outputs": [],
					"stateMutability": "nonpayable",
					"type": "function"
				},
				{
					"inputs": [],
					"name": "treasury",
					"outputs": [
						{
							"internalType": "address",
							"name": "",
							"type": "address"
						}
					],
					"stateMutability": "view",
					"type": "function"
				},
				{
					"inputs": [],
					"name": "usdtToken",
					"outputs": [
						{
							"internalType": "contract IERC20",
							"name": "",
							"type": "address"
						}
					],
					"stateMutability": "view",
					"type": "function"
				},
				{
					"inputs": [],
					"name": "withdrawAccumulatedProfit",
					"outputs": [],
					"stateMutability": "nonpayable",
					"type": "function"
				},
				{
					"inputs": [
						{
							"internalType": "address",
							"name": "to",
							"type": "address"
						},
						{
							"internalType": "uint256",
							"name": "amount",
							"type": "uint256"
						}
					],
					"name": "withdrawUSDT",
					"outputs": [],
					"stateMutability": "nonpayable",
					"type": "function"
				}
			],
			"devdoc": {
				"errors": {
					"ERC20InsufficientAllowance(address,uint256,uint256)": [
						{
							"details": "Indicates a failure with the `spender`â€™s `allowance`. Used in transfers.",
							"params": {
								"allowance": "Amount of tokens a `spender` is allowed to operate with.",
								"needed": "Minimum amount required to perform a transfer.",
								"spender": "Address that may be allowed to operate on tokens without being their owner."
							}
						}
					],
					"ERC20InsufficientBalance(address,uint256,uint256)": [
						{
							"details": "Indicates an error related to the current `balance` of a `sender`. Used in transfers.",
							"params": {
								"balance": "Current balance for the interacting account.",
								"needed": "Minimum amount required to perform a transfer.",
								"sender": "Address whose tokens are being transferred."
							}
						}
					],
					"ERC20InvalidApprover(address)": [
						{
							"details": "Indicates a failure with the `approver` of a token to be approved. Used in approvals.",
							"params": {
								"approver": "Address initiating an approval operation."
							}
						}
					],
					"ERC20InvalidReceiver(address)": [
						{
							"details": "Indicates a failure with the token `receiver`. Used in transfers.",
							"params": {
								"receiver": "Address to which tokens are being transferred."
							}
						}
					],
					"ERC20InvalidSender(address)": [
						{
							"details": "Indicates a failure with the token `sender`. Used in transfers.",
							"params": {
								"sender": "Address whose tokens are being transferred."
							}
						}
					],
					"ERC20InvalidSpender(address)": [
						{
							"details": "Indicates a failure with the `spender` to be approved. Used in approvals.",
							"params": {
								"spender": "Address that may be allowed to operate on tokens without being their owner."
							}
						}
					],
					"OwnableInvalidOwner(address)": [
						{
							"details": "The owner is not a valid owner account. (eg. `address(0)`)"
						}
					],
					"OwnableUnauthorizedAccount(address)": [
						{
							"details": "The caller account is not authorized to perform an operation."
						}
					]
				},
				"events": {
					"Approval(address,address,uint256)": {
						"details": "Emitted when the allowance of a `spender` for an `owner` is set by a call to {approve}. `value` is the new allowance."
					},
					"Transfer(address,address,uint256)": {
						"details": "Emitted when `value` tokens are moved from one account (`from`) to another (`to`). Note that `value` may be zero."
					}
				},
				"kind": "dev",
				"methods": {
					"allowance(address,address)": {
						"details": "See {IERC20-allowance}."
					},
					"approve(address,uint256)": {
						"details": "See {IERC20-approve}. NOTE: If `value` is the maximum `uint256`, the allowance is not updated on `transferFrom`. This is semantically equivalent to an infinite approval. Requirements: - `spender` cannot be the zero address."
					},
					"balanceOf(address)": {
						"details": "See {IERC20-balanceOf}."
					},
					"decimals()": {
						"details": "Returns the number of decimals used to get its user representation. For example, if `decimals` equals `2`, a balance of `505` tokens should be displayed to a user as `5.05` (`505 / 10 ** 2`). Tokens usually opt for a value of 18, imitating the relationship between Ether and Wei. This is the default value returned by this function, unless it's overridden. NOTE: This information is only used for _display_ purposes: it in no way affects any of the arithmetic of the contract, including {IERC20-balanceOf} and {IERC20-transfer}."
					},
					"name()": {
						"details": "Returns the name of the token."
					},
					"owner()": {
						"details": "Returns the address of the current owner."
					},
					"renounceOwnership()": {
						"details": "Leaves the contract without owner. It will not be possible to call `onlyOwner` functions. Can only be called by the current owner. NOTE: Renouncing ownership will leave the contract without an owner, thereby disabling any functionality that is only available to the owner."
					},
					"symbol()": {
						"details": "Returns the symbol of the token, usually a shorter version of the name."
					},
					"totalSupply()": {
						"details": "See {IERC20-totalSupply}."
					},
					"transfer(address,uint256)": {
						"details": "See {IERC20-transfer}. Requirements: - `to` cannot be the zero address. - the caller must have a balance of at least `value`."
					},
					"transferFrom(address,address,uint256)": {
						"details": "See {IERC20-transferFrom}. Skips emitting an {Approval} event indicating an allowance update. This is not required by the ERC. See {xref-ERC20-_approve-address-address-uint256-bool-}[_approve]. NOTE: Does not update the allowance if the current allowance is the maximum `uint256`. Requirements: - `from` and `to` cannot be the zero address. - `from` must have a balance of at least `value`. - the caller must have allowance for ``from``'s tokens of at least `value`."
					},
					"transferOwnership(address)": {
						"details": "Transfers ownership of the contract to a new account (`newOwner`). Can only be called by the current owner."
					}
				},
				"version": 1
			},
			"evm": {
				"assembly": "    /* \"contracts/STEMMER_flattened.sol\":24917:30973  contract STEMMER is ERC20, Ownable {... */\n  mstore(0x40, 0x80)\n    /* \"contracts/STEMMER_flattened.sol\":25014:25018  1e18 */\n  0x0de0b6b3a7640000\n    /* \"contracts/STEMMER_flattened.sol\":24989:25018  uint256 public buyRate = 1e18 */\n  0x07\n  sstore\n    /* \"contracts/STEMMER_flattened.sol\":25081:25085  1e18 */\n  0x0de0b6b3a7640000\n    /* \"contracts/STEMMER_flattened.sol\":25055:25085  uint256 public sellRate = 1e18 */\n  0x08\n  sstore\n    /* \"contracts/STEMMER_flattened.sol\":26006:26446  constructor(... */\n  callvalue\n  dup1\n  iszero\n  tag_1\n  jumpi\n  0x00\n  dup1\n  revert\ntag_1:\n  pop\n  mload(0x40)\n  sub(codesize, bytecodeSize)\n  dup1\n  bytecodeSize\n  dup4\n  codecopy\n  dup2\n  dup2\n  add\n  0x40\n  mstore\n  dup2\n  add\n  swap1\n  tag_2\n  swap2\n  swap1\n  tag_3\n  jump\t// in\ntag_2:\n    /* \"contracts/STEMMER_flattened.sol\":26217:26227  msg.sender */\n  caller\n    /* \"contracts/STEMMER_flattened.sol\":12482:12595  constructor(string memory name_, string memory symbol_) {... */\n  mload(0x40)\n  dup1\n  0x40\n  add\n  0x40\n  mstore\n  dup1\n  0x07\n  dup2\n  mstore\n  0x20\n  add\n  0x5354454d4d455200000000000000000000000000000000000000000000000000\n  dup2\n  mstore\n  pop\n  mload(0x40)\n  dup1\n  0x40\n  add\n  0x40\n  mstore\n  dup1\n  0x04\n  dup2\n  mstore\n  0x20\n  add\n  0x5354454d00000000000000000000000000000000000000000000000000000000\n  dup2\n  mstore\n  pop\n    /* \"contracts/STEMMER_flattened.sol\":12556:12561  name_ */\n  dup2\n    /* \"contracts/STEMMER_flattened.sol\":12548:12553  _name */\n  0x03\n    /* \"contracts/STEMMER_flattened.sol\":12548:12561  _name = name_ */\n  swap1\n  dup2\n  tag_8\n  swap2\n  swap1\n  tag_9\n  jump\t// in\ntag_8:\n  pop\n    /* \"contracts/STEMMER_flattened.sol\":12581:12588  symbol_ */\n  dup1\n    /* \"contracts/STEMMER_flattened.sol\":12571:12578  _symbol */\n  0x04\n    /* \"contracts/STEMMER_flattened.sol\":12571:12588  _symbol = symbol_ */\n  swap1\n  dup2\n  tag_10\n  swap2\n  swap1\n  tag_9\n  jump\t// in\ntag_10:\n  pop\n    /* \"contracts/STEMMER_flattened.sol\":12482:12595  constructor(string memory name_, string memory symbol_) {... */\n  pop\n  pop\n    /* \"contracts/STEMMER_flattened.sol\":23049:23050  0 */\n  0x00\n    /* \"contracts/STEMMER_flattened.sol\":23025:23051  initialOwner == address(0) */\n  0xffffffffffffffffffffffffffffffffffffffff\n  and\n    /* \"contracts/STEMMER_flattened.sol\":23025:23037  initialOwner */\n  dup2\n    /* \"contracts/STEMMER_flattened.sol\":23025:23051  initialOwner == address(0) */\n  0xffffffffffffffffffffffffffffffffffffffff\n  and\n  sub\n    /* \"contracts/STEMMER_flattened.sol\":23021:23116  if (initialOwner == address(0)) {... */\n  tag_12\n  jumpi\n    /* \"contracts/STEMMER_flattened.sol\":23102:23103  0 */\n  0x00\n    /* \"contracts/STEMMER_flattened.sol\":23074:23105  OwnableInvalidOwner(address(0)) */\n  mload(0x40)\n  0x1e4fbdf700000000000000000000000000000000000000000000000000000000\n  dup2\n  mstore\n  0x04\n  add\n  tag_13\n  swap2\n  swap1\n  tag_14\n  jump\t// in\ntag_13:\n  mload(0x40)\n  dup1\n  swap2\n  sub\n  swap1\n  revert\n    /* \"contracts/STEMMER_flattened.sol\":23021:23116  if (initialOwner == address(0)) {... */\ntag_12:\n    /* \"contracts/STEMMER_flattened.sol\":23125:23157  _transferOwnership(initialOwner) */\n  tag_15\n    /* \"contracts/STEMMER_flattened.sol\":23144:23156  initialOwner */\n  dup2\n    /* \"contracts/STEMMER_flattened.sol\":23125:23143  _transferOwnership */\n  shl(0x20, tag_16)\n    /* \"contracts/STEMMER_flattened.sol\":23125:23157  _transferOwnership(initialOwner) */\n  0x20\n  shr\n  jump\t// in\ntag_15:\n    /* \"contracts/STEMMER_flattened.sol\":22977:23164  constructor(address initialOwner) {... */\n  pop\n    /* \"contracts/STEMMER_flattened.sol\":26258:26275  _usdtTokenAddress */\n  dup5\n    /* \"contracts/STEMMER_flattened.sol\":26239:26248  usdtToken */\n  0x06\n  0x00\n    /* \"contracts/STEMMER_flattened.sol\":26239:26276  usdtToken = IERC20(_usdtTokenAddress) */\n  0x0100\n  exp\n  dup2\n  sload\n  dup2\n  0xffffffffffffffffffffffffffffffffffffffff\n  mul\n  not\n  and\n  swap1\n  dup4\n  0xffffffffffffffffffffffffffffffffffffffff\n  and\n  mul\n  or\n  swap1\n  sstore\n  pop\n    /* \"contracts/STEMMER_flattened.sol\":26297:26306  _treasury */\n  dup4\n    /* \"contracts/STEMMER_flattened.sol\":26286:26294  treasury */\n  0x09\n  0x00\n    /* \"contracts/STEMMER_flattened.sol\":26286:26306  treasury = _treasury */\n  0x0100\n  exp\n  dup2\n  sload\n  dup2\n  0xffffffffffffffffffffffffffffffffffffffff\n  mul\n  not\n  and\n  swap1\n  dup4\n  0xffffffffffffffffffffffffffffffffffffffff\n  and\n  mul\n  or\n  swap1\n  sstore\n  pop\n    /* \"contracts/STEMMER_flattened.sol\":26333:26348  _profitTreasury */\n  dup3\n    /* \"contracts/STEMMER_flattened.sol\":26316:26330  profitTreasury */\n  0x0a\n  0x00\n    /* \"contracts/STEMMER_flattened.sol\":26316:26348  profitTreasury = _profitTreasury */\n  0x0100\n  exp\n  dup2\n  sload\n  dup2\n  0xffffffffffffffffffffffffffffffffffffffff\n  mul\n  not\n  and\n  swap1\n  dup4\n  0xffffffffffffffffffffffffffffffffffffffff\n  and\n  mul\n  or\n  swap1\n  sstore\n  pop\n    /* \"contracts/STEMMER_flattened.sol\":26376:26392  _profitThreshold */\n  dup1\n    /* \"contracts/STEMMER_flattened.sol\":26358:26373  profitThreshold */\n  0x0b\n    /* \"contracts/STEMMER_flattened.sol\":26358:26392  profitThreshold = _profitThreshold */\n  dup2\n  swap1\n  sstore\n  pop\n    /* \"contracts/STEMMER_flattened.sol\":26402:26439  _mint(treasury, initialSupply * 1e18) */\n  tag_18\n    /* \"contracts/STEMMER_flattened.sol\":26408:26416  treasury */\n  0x09\n  0x00\n  swap1\n  sload\n  swap1\n  0x0100\n  exp\n  swap1\n  div\n  0xffffffffffffffffffffffffffffffffffffffff\n  and\n    /* \"contracts/STEMMER_flattened.sol\":26434:26438  1e18 */\n  0x0de0b6b3a7640000\n    /* \"contracts/STEMMER_flattened.sol\":26418:26431  initialSupply */\n  dup5\n    /* \"contracts/STEMMER_flattened.sol\":26418:26438  initialSupply * 1e18 */\n  tag_19\n  swap2\n  swap1\n  tag_20\n  jump\t// in\ntag_19:\n    /* \"contracts/STEMMER_flattened.sol\":26402:26407  _mint */\n  shl(0x20, tag_21)\n    /* \"contracts/STEMMER_flattened.sol\":26402:26439  _mint(treasury, initialSupply * 1e18) */\n  0x20\n  shr\n  jump\t// in\ntag_18:\n    /* \"contracts/STEMMER_flattened.sol\":26006:26446  constructor(... */\n  pop\n  pop\n  pop\n  pop\n  pop\n    /* \"contracts/STEMMER_flattened.sol\":24917:30973  contract STEMMER is ERC20, Ownable {... */\n  jump(tag_22)\n    /* \"contracts/STEMMER_flattened.sol\":24664:24851  function _transferOwnership(address newOwner) internal virtual {... */\ntag_16:\n    /* \"contracts/STEMMER_flattened.sol\":24737:24753  address oldOwner */\n  0x00\n    /* \"contracts/STEMMER_flattened.sol\":24756:24762  _owner */\n  0x05\n  0x00\n  swap1\n  sload\n  swap1\n  0x0100\n  exp\n  swap1\n  div\n  0xffffffffffffffffffffffffffffffffffffffff\n  and\n    /* \"contracts/STEMMER_flattened.sol\":24737:24762  address oldOwner = _owner */\n  swap1\n  pop\n    /* \"contracts/STEMMER_flattened.sol\":24781:24789  newOwner */\n  dup2\n    /* \"contracts/STEMMER_flattened.sol\":24772:24778  _owner */\n  0x05\n  0x00\n    /* \"contracts/STEMMER_flattened.sol\":24772:24789  _owner = newOwner */\n  0x0100\n  exp\n  dup2\n  sload\n  dup2\n  0xffffffffffffffffffffffffffffffffffffffff\n  mul\n  not\n  and\n  swap1\n  dup4\n  0xffffffffffffffffffffffffffffffffffffffff\n  and\n  mul\n  or\n  swap1\n  sstore\n  pop\n    /* \"contracts/STEMMER_flattened.sol\":24835:24843  newOwner */\n  dup2\n    /* \"contracts/STEMMER_flattened.sol\":24804:24844  OwnershipTransferred(oldOwner, newOwner) */\n  0xffffffffffffffffffffffffffffffffffffffff\n  and\n    /* \"contracts/STEMMER_flattened.sol\":24825:24833  oldOwner */\n  dup2\n    /* \"contracts/STEMMER_flattened.sol\":24804:24844  OwnershipTransferred(oldOwner, newOwner) */\n  0xffffffffffffffffffffffffffffffffffffffff\n  and\n  0x8be0079c531659141344cd1fd0a4f28419497f9722a3daafe3b4186f6b6457e0\n  mload(0x40)\n  mload(0x40)\n  dup1\n  swap2\n  sub\n  swap1\n  log3\n    /* \"contracts/STEMMER_flattened.sol\":24727:24851  {... */\n  pop\n    /* \"contracts/STEMMER_flattened.sol\":24664:24851  function _transferOwnership(address newOwner) internal virtual {... */\n  pop\n  jump\t// out\n    /* \"contracts/STEMMER_flattened.sol\":18339:18547  function _mint(address account, uint256 value) internal {... */\ntag_21:\n    /* \"contracts/STEMMER_flattened.sol\":18428:18429  0 */\n  0x00\n    /* \"contracts/STEMMER_flattened.sol\":18409:18430  account == address(0) */\n  0xffffffffffffffffffffffffffffffffffffffff\n  and\n    /* \"contracts/STEMMER_flattened.sol\":18409:18416  account */\n  dup3\n    /* \"contracts/STEMMER_flattened.sol\":18409:18430  account == address(0) */\n  0xffffffffffffffffffffffffffffffffffffffff\n  and\n  sub\n    /* \"contracts/STEMMER_flattened.sol\":18405:18496  if (account == address(0)) {... */\n  tag_25\n  jumpi\n    /* \"contracts/STEMMER_flattened.sol\":18482:18483  0 */\n  0x00\n    /* \"contracts/STEMMER_flattened.sol\":18453:18485  ERC20InvalidReceiver(address(0)) */\n  mload(0x40)\n  0xec442f0500000000000000000000000000000000000000000000000000000000\n  dup2\n  mstore\n  0x04\n  add\n  tag_26\n  swap2\n  swap1\n  tag_14\n  jump\t// in\ntag_26:\n  mload(0x40)\n  dup1\n  swap2\n  sub\n  swap1\n  revert\n    /* \"contracts/STEMMER_flattened.sol\":18405:18496  if (account == address(0)) {... */\ntag_25:\n    /* \"contracts/STEMMER_flattened.sol\":18505:18540  _update(address(0), account, value) */\n  tag_27\n    /* \"contracts/STEMMER_flattened.sol\":18521:18522  0 */\n  0x00\n    /* \"contracts/STEMMER_flattened.sol\":18525:18532  account */\n  dup4\n    /* \"contracts/STEMMER_flattened.sol\":18534:18539  value */\n  dup4\n    /* \"contracts/STEMMER_flattened.sol\":18505:18512  _update */\n  shl(0x20, tag_28)\n    /* \"contracts/STEMMER_flattened.sol\":18505:18540  _update(address(0), account, value) */\n  0x20\n  shr\n  jump\t// in\ntag_27:\n    /* \"contracts/STEMMER_flattened.sol\":18339:18547  function _mint(address account, uint256 value) internal {... */\n  pop\n  pop\n  jump\t// out\n    /* \"contracts/STEMMER_flattened.sol\":16889:17996  function _update(address from, address to, uint256 value) internal virtual {... */\ntag_28:\n    /* \"contracts/STEMMER_flattened.sol\":16994:16995  0 */\n  0x00\n    /* \"contracts/STEMMER_flattened.sol\":16978:16996  from == address(0) */\n  0xffffffffffffffffffffffffffffffffffffffff\n  and\n    /* \"contracts/STEMMER_flattened.sol\":16978:16982  from */\n  dup4\n    /* \"contracts/STEMMER_flattened.sol\":16978:16996  from == address(0) */\n  0xffffffffffffffffffffffffffffffffffffffff\n  and\n  sub\n    /* \"contracts/STEMMER_flattened.sol\":16974:17514  if (from == address(0)) {... */\n  tag_30\n  jumpi\n    /* \"contracts/STEMMER_flattened.sol\":17130:17135  value */\n  dup1\n    /* \"contracts/STEMMER_flattened.sol\":17114:17126  _totalSupply */\n  0x02\n  0x00\n    /* \"contracts/STEMMER_flattened.sol\":17114:17135  _totalSupply += value */\n  dup3\n  dup3\n  sload\n  tag_31\n  swap2\n  swap1\n  tag_32\n  jump\t// in\ntag_31:\n  swap3\n  pop\n  pop\n  dup2\n  swap1\n  sstore\n  pop\n    /* \"contracts/STEMMER_flattened.sol\":16974:17514  if (from == address(0)) {... */\n  jump(tag_33)\ntag_30:\n    /* \"contracts/STEMMER_flattened.sol\":17166:17185  uint256 fromBalance */\n  0x00\n    /* \"contracts/STEMMER_flattened.sol\":17188:17197  _balances */\n  dup1\n    /* \"contracts/STEMMER_flattened.sol\":17188:17203  _balances[from] */\n  0x00\n    /* \"contracts/STEMMER_flattened.sol\":17198:17202  from */\n  dup6\n    /* \"contracts/STEMMER_flattened.sol\":17188:17203  _balances[from] */\n  0xffffffffffffffffffffffffffffffffffffffff\n  and\n  0xffffffffffffffffffffffffffffffffffffffff\n  and\n  dup2\n  mstore\n  0x20\n  add\n  swap1\n  dup2\n  mstore\n  0x20\n  add\n  0x00\n  keccak256\n  sload\n    /* \"contracts/STEMMER_flattened.sol\":17166:17203  uint256 fromBalance = _balances[from] */\n  swap1\n  pop\n    /* \"contracts/STEMMER_flattened.sol\":17235:17240  value */\n  dup2\n    /* \"contracts/STEMMER_flattened.sol\":17221:17232  fromBalance */\n  dup2\n    /* \"contracts/STEMMER_flattened.sol\":17221:17240  fromBalance < value */\n  lt\n    /* \"contracts/STEMMER_flattened.sol\":17217:17332  if (fromBalance < value) {... */\n  iszero\n  tag_34\n  jumpi\n    /* \"contracts/STEMMER_flattened.sol\":17292:17296  from */\n  dup4\n    /* \"contracts/STEMMER_flattened.sol\":17298:17309  fromBalance */\n  dup2\n    /* \"contracts/STEMMER_flattened.sol\":17311:17316  value */\n  dup4\n    /* \"contracts/STEMMER_flattened.sol\":17267:17317  ERC20InsufficientBalance(from, fromBalance, value) */\n  mload(0x40)\n  0xe450d38c00000000000000000000000000000000000000000000000000000000\n  dup2\n  mstore\n  0x04\n  add\n  tag_35\n  swap4\n  swap3\n  swap2\n  swap1\n  tag_36\n  jump\t// in\ntag_35:\n  mload(0x40)\n  dup1\n  swap2\n  sub\n  swap1\n  revert\n    /* \"contracts/STEMMER_flattened.sol\":17217:17332  if (fromBalance < value) {... */\ntag_34:\n    /* \"contracts/STEMMER_flattened.sol\":17484:17489  value */\n  dup2\n    /* \"contracts/STEMMER_flattened.sol\":17470:17481  fromBalance */\n  dup2\n    /* \"contracts/STEMMER_flattened.sol\":17470:17489  fromBalance - value */\n  sub\n    /* \"contracts/STEMMER_flattened.sol\":17452:17461  _balances */\n  0x00\n    /* \"contracts/STEMMER_flattened.sol\":17452:17467  _balances[from] */\n  dup1\n    /* \"contracts/STEMMER_flattened.sol\":17462:17466  from */\n  dup7\n    /* \"contracts/STEMMER_flattened.sol\":17452:17467  _balances[from] */\n  0xffffffffffffffffffffffffffffffffffffffff\n  and\n  0xffffffffffffffffffffffffffffffffffffffff\n  and\n  dup2\n  mstore\n  0x20\n  add\n  swap1\n  dup2\n  mstore\n  0x20\n  add\n  0x00\n  keccak256\n    /* \"contracts/STEMMER_flattened.sol\":17452:17489  _balances[from] = fromBalance - value */\n  dup2\n  swap1\n  sstore\n  pop\n    /* \"contracts/STEMMER_flattened.sol\":17152:17514  {... */\n  pop\n    /* \"contracts/STEMMER_flattened.sol\":16974:17514  if (from == address(0)) {... */\ntag_33:\n    /* \"contracts/STEMMER_flattened.sol\":17542:17543  0 */\n  0x00\n    /* \"contracts/STEMMER_flattened.sol\":17528:17544  to == address(0) */\n  0xffffffffffffffffffffffffffffffffffffffff\n  and\n    /* \"contracts/STEMMER_flattened.sol\":17528:17530  to */\n  dup3\n    /* \"contracts/STEMMER_flattened.sol\":17528:17544  to == address(0) */\n  0xffffffffffffffffffffffffffffffffffffffff\n  and\n  sub\n    /* \"contracts/STEMMER_flattened.sol\":17524:17949  if (to == address(0)) {... */\n  tag_37\n  jumpi\n    /* \"contracts/STEMMER_flattened.sol\":17707:17712  value */\n  dup1\n    /* \"contracts/STEMMER_flattened.sol\":17691:17703  _totalSupply */\n  0x02\n  0x00\n    /* \"contracts/STEMMER_flattened.sol\":17691:17712  _totalSupply -= value */\n  dup3\n  dup3\n  sload\n  sub\n  swap3\n  pop\n  pop\n  dup2\n  swap1\n  sstore\n  pop\n    /* \"contracts/STEMMER_flattened.sol\":17524:17949  if (to == address(0)) {... */\n  jump(tag_38)\ntag_37:\n    /* \"contracts/STEMMER_flattened.sol\":17919:17924  value */\n  dup1\n    /* \"contracts/STEMMER_flattened.sol\":17902:17911  _balances */\n  0x00\n    /* \"contracts/STEMMER_flattened.sol\":17902:17915  _balances[to] */\n  dup1\n    /* \"contracts/STEMMER_flattened.sol\":17912:17914  to */\n  dup5\n    /* \"contracts/STEMMER_flattened.sol\":17902:17915  _balances[to] */\n  0xffffffffffffffffffffffffffffffffffffffff\n  and\n  0xffffffffffffffffffffffffffffffffffffffff\n  and\n  dup2\n  mstore\n  0x20\n  add\n  swap1\n  dup2\n  mstore\n  0x20\n  add\n  0x00\n  keccak256\n  0x00\n    /* \"contracts/STEMMER_flattened.sol\":17902:17924  _balances[to] += value */\n  dup3\n  dup3\n  sload\n  add\n  swap3\n  pop\n  pop\n  dup2\n  swap1\n  sstore\n  pop\n    /* \"contracts/STEMMER_flattened.sol\":17524:17949  if (to == address(0)) {... */\ntag_38:\n    /* \"contracts/STEMMER_flattened.sol\":17979:17981  to */\n  dup2\n    /* \"contracts/STEMMER_flattened.sol\":17964:17989  Transfer(from, to, value) */\n  0xffffffffffffffffffffffffffffffffffffffff\n  and\n    /* \"contracts/STEMMER_flattened.sol\":17973:17977  from */\n  dup4\n    /* \"contracts/STEMMER_flattened.sol\":17964:17989  Transfer(from, to, value) */\n  0xffffffffffffffffffffffffffffffffffffffff\n  and\n  0xddf252ad1be2c89b69c2b068fc378daa952ba7f163c4a11628f55a4df523b3ef\n    /* \"contracts/STEMMER_flattened.sol\":17983:17988  value */\n  dup4\n    /* \"contracts/STEMMER_flattened.sol\":17964:17989  Transfer(from, to, value) */\n  mload(0x40)\n  tag_39\n  swap2\n  swap1\n  tag_40\n  jump\t// in\ntag_39:\n  mload(0x40)\n  dup1\n  swap2\n  sub\n  swap1\n  log3\n    /* \"contracts/STEMMER_flattened.sol\":16889:17996  function _update(address from, address to, uint256 value) internal virtual {... */\n  pop\n  pop\n  pop\n  jump\t// out\n    /* \"#utility.yul\":88:205   */\ntag_42:\n    /* \"#utility.yul\":197:198   */\n  0x00\n    /* \"#utility.yul\":194:195   */\n  dup1\n    /* \"#utility.yul\":187:199   */\n  revert\n    /* \"#utility.yul\":334:460   */\ntag_44:\n    /* \"#utility.yul\":371:378   */\n  0x00\n    /* \"#utility.yul\":411:453   */\n  0xffffffffffffffffffffffffffffffffffffffff\n    /* \"#utility.yul\":404:409   */\n  dup3\n    /* \"#utility.yul\":400:454   */\n  and\n    /* \"#utility.yul\":389:454   */\n  swap1\n  pop\n    /* \"#utility.yul\":334:460   */\n  swap2\n  swap1\n  pop\n  jump\t// out\n    /* \"#utility.yul\":466:562   */\ntag_45:\n    /* \"#utility.yul\":503:510   */\n  0x00\n    /* \"#utility.yul\":532:556   */\n  tag_79\n    /* \"#utility.yul\":550:555   */\n  dup3\n    /* \"#utility.yul\":532:556   */\n  tag_44\n  jump\t// in\ntag_79:\n    /* \"#utility.yul\":521:556   */\n  swap1\n  pop\n    /* \"#utility.yul\":466:562   */\n  swap2\n  swap1\n  pop\n  jump\t// out\n    /* \"#utility.yul\":568:690   */\ntag_46:\n    /* \"#utility.yul\":641:665   */\n  tag_81\n    /* \"#utility.yul\":659:664   */\n  dup2\n    /* \"#utility.yul\":641:665   */\n  tag_45\n  jump\t// in\ntag_81:\n    /* \"#utility.yul\":634:639   */\n  dup2\n    /* \"#utility.yul\":631:666   */\n  eq\n    /* \"#utility.yul\":621:684   */\n  tag_82\n  jumpi\n    /* \"#utility.yul\":680:681   */\n  0x00\n    /* \"#utility.yul\":677:678   */\n  dup1\n    /* \"#utility.yul\":670:682   */\n  revert\n    /* \"#utility.yul\":621:684   */\ntag_82:\n    /* \"#utility.yul\":568:690   */\n  pop\n  jump\t// out\n    /* \"#utility.yul\":696:839   */\ntag_47:\n    /* \"#utility.yul\":753:758   */\n  0x00\n    /* \"#utility.yul\":784:790   */\n  dup2\n    /* \"#utility.yul\":778:791   */\n  mload\n    /* \"#utility.yul\":769:791   */\n  swap1\n  pop\n    /* \"#utility.yul\":800:833   */\n  tag_84\n    /* \"#utility.yul\":827:832   */\n  dup2\n    /* \"#utility.yul\":800:833   */\n  tag_46\n  jump\t// in\ntag_84:\n    /* \"#utility.yul\":696:839   */\n  swap3\n  swap2\n  pop\n  pop\n  jump\t// out\n    /* \"#utility.yul\":845:922   */\ntag_48:\n    /* \"#utility.yul\":882:889   */\n  0x00\n    /* \"#utility.yul\":911:916   */\n  dup2\n    /* \"#utility.yul\":900:916   */\n  swap1\n  pop\n    /* \"#utility.yul\":845:922   */\n  swap2\n  swap1\n  pop\n  jump\t// out\n    /* \"#utility.yul\":928:1050   */\ntag_49:\n    /* \"#utility.yul\":1001:1025   */\n  tag_87\n    /* \"#utility.yul\":1019:1024   */\n  dup2\n    /* \"#utility.yul\":1001:1025   */\n  tag_48\n  jump\t// in\ntag_87:\n    /* \"#utility.yul\":994:999   */\n  dup2\n    /* \"#utility.yul\":991:1026   */\n  eq\n    /* \"#utility.yul\":981:1044   */\n  tag_88\n  jumpi\n    /* \"#utility.yul\":1040:1041   */\n  0x00\n    /* \"#utility.yul\":1037:1038   */\n  dup1\n    /* \"#utility.yul\":1030:1042   */\n  revert\n    /* \"#utility.yul\":981:1044   */\ntag_88:\n    /* \"#utility.yul\":928:1050   */\n  pop\n  jump\t// out\n    /* \"#utility.yul\":1056:1199   */\ntag_50:\n    /* \"#utility.yul\":1113:1118   */\n  0x00\n    /* \"#utility.yul\":1144:1150   */\n  dup2\n    /* \"#utility.yul\":1138:1151   */\n  mload\n    /* \"#utility.yul\":1129:1151   */\n  swap1\n  pop\n    /* \"#utility.yul\":1160:1193   */\n  tag_90\n    /* \"#utility.yul\":1187:1192   */\n  dup2\n    /* \"#utility.yul\":1160:1193   */\n  tag_49\n  jump\t// in\ntag_90:\n    /* \"#utility.yul\":1056:1199   */\n  swap3\n  swap2\n  pop\n  pop\n  jump\t// out\n    /* \"#utility.yul\":1205:2182   */\ntag_3:\n    /* \"#utility.yul\":1311:1317   */\n  0x00\n    /* \"#utility.yul\":1319:1325   */\n  dup1\n    /* \"#utility.yul\":1327:1333   */\n  0x00\n    /* \"#utility.yul\":1335:1341   */\n  dup1\n    /* \"#utility.yul\":1343:1349   */\n  0x00\n    /* \"#utility.yul\":1392:1395   */\n  0xa0\n    /* \"#utility.yul\":1380:1389   */\n  dup7\n    /* \"#utility.yul\":1371:1378   */\n  dup9\n    /* \"#utility.yul\":1367:1390   */\n  sub\n    /* \"#utility.yul\":1363:1396   */\n  slt\n    /* \"#utility.yul\":1360:1480   */\n  iszero\n  tag_92\n  jumpi\n    /* \"#utility.yul\":1399:1478   */\n  tag_93\n  tag_42\n  jump\t// in\ntag_93:\n    /* \"#utility.yul\":1360:1480   */\ntag_92:\n    /* \"#utility.yul\":1519:1520   */\n  0x00\n    /* \"#utility.yul\":1544:1608   */\n  tag_94\n    /* \"#utility.yul\":1600:1607   */\n  dup9\n    /* \"#utility.yul\":1591:1597   */\n  dup3\n    /* \"#utility.yul\":1580:1589   */\n  dup10\n    /* \"#utility.yul\":1576:1598   */\n  add\n    /* \"#utility.yul\":1544:1608   */\n  tag_47\n  jump\t// in\ntag_94:\n    /* \"#utility.yul\":1534:1608   */\n  swap6\n  pop\n    /* \"#utility.yul\":1490:1618   */\n  pop\n    /* \"#utility.yul\":1657:1659   */\n  0x20\n    /* \"#utility.yul\":1683:1747   */\n  tag_95\n    /* \"#utility.yul\":1739:1746   */\n  dup9\n    /* \"#utility.yul\":1730:1736   */\n  dup3\n    /* \"#utility.yul\":1719:1728   */\n  dup10\n    /* \"#utility.yul\":1715:1737   */\n  add\n    /* \"#utility.yul\":1683:1747   */\n  tag_47\n  jump\t// in\ntag_95:\n    /* \"#utility.yul\":1673:1747   */\n  swap5\n  pop\n    /* \"#utility.yul\":1628:1757   */\n  pop\n    /* \"#utility.yul\":1796:1798   */\n  0x40\n    /* \"#utility.yul\":1822:1886   */\n  tag_96\n    /* \"#utility.yul\":1878:1885   */\n  dup9\n    /* \"#utility.yul\":1869:1875   */\n  dup3\n    /* \"#utility.yul\":1858:1867   */\n  dup10\n    /* \"#utility.yul\":1854:1876   */\n  add\n    /* \"#utility.yul\":1822:1886   */\n  tag_47\n  jump\t// in\ntag_96:\n    /* \"#utility.yul\":1812:1886   */\n  swap4\n  pop\n    /* \"#utility.yul\":1767:1896   */\n  pop\n    /* \"#utility.yul\":1935:1937   */\n  0x60\n    /* \"#utility.yul\":1961:2025   */\n  tag_97\n    /* \"#utility.yul\":2017:2024   */\n  dup9\n    /* \"#utility.yul\":2008:2014   */\n  dup3\n    /* \"#utility.yul\":1997:2006   */\n  dup10\n    /* \"#utility.yul\":1993:2015   */\n  add\n    /* \"#utility.yul\":1961:2025   */\n  tag_50\n  jump\t// in\ntag_97:\n    /* \"#utility.yul\":1951:2025   */\n  swap3\n  pop\n    /* \"#utility.yul\":1906:2035   */\n  pop\n    /* \"#utility.yul\":2074:2077   */\n  0x80\n    /* \"#utility.yul\":2101:2165   */\n  tag_98\n    /* \"#utility.yul\":2157:2164   */\n  dup9\n    /* \"#utility.yul\":2148:2154   */\n  dup3\n    /* \"#utility.yul\":2137:2146   */\n  dup10\n    /* \"#utility.yul\":2133:2155   */\n  add\n    /* \"#utility.yul\":2101:2165   */\n  tag_50\n  jump\t// in\ntag_98:\n    /* \"#utility.yul\":2091:2165   */\n  swap2\n  pop\n    /* \"#utility.yul\":2045:2175   */\n  pop\n    /* \"#utility.yul\":1205:2182   */\n  swap3\n  swap6\n  pop\n  swap3\n  swap6\n  swap1\n  swap4\n  pop\n  jump\t// out\n    /* \"#utility.yul\":2188:2287   */\ntag_51:\n    /* \"#utility.yul\":2240:2246   */\n  0x00\n    /* \"#utility.yul\":2274:2279   */\n  dup2\n    /* \"#utility.yul\":2268:2280   */\n  mload\n    /* \"#utility.yul\":2258:2280   */\n  swap1\n  pop\n    /* \"#utility.yul\":2188:2287   */\n  swap2\n  swap1\n  pop\n  jump\t// out\n    /* \"#utility.yul\":2293:2473   */\ntag_52:\n    /* \"#utility.yul\":2341:2418   */\n  0x4e487b7100000000000000000000000000000000000000000000000000000000\n    /* \"#utility.yul\":2338:2339   */\n  0x00\n    /* \"#utility.yul\":2331:2419   */\n  mstore\n    /* \"#utility.yul\":2438:2442   */\n  0x41\n    /* \"#utility.yul\":2435:2436   */\n  0x04\n    /* \"#utility.yul\":2428:2443   */\n  mstore\n    /* \"#utility.yul\":2462:2466   */\n  0x24\n    /* \"#utility.yul\":2459:2460   */\n  0x00\n    /* \"#utility.yul\":2452:2467   */\n  revert\n    /* \"#utility.yul\":2479:2659   */\ntag_53:\n    /* \"#utility.yul\":2527:2604   */\n  0x4e487b7100000000000000000000000000000000000000000000000000000000\n    /* \"#utility.yul\":2524:2525   */\n  0x00\n    /* \"#utility.yul\":2517:2605   */\n  mstore\n    /* \"#utility.yul\":2624:2628   */\n  0x22\n    /* \"#utility.yul\":2621:2622   */\n  0x04\n    /* \"#utility.yul\":2614:2629   */\n  mstore\n    /* \"#utility.yul\":2648:2652   */\n  0x24\n    /* \"#utility.yul\":2645:2646   */\n  0x00\n    /* \"#utility.yul\":2638:2653   */\n  revert\n    /* \"#utility.yul\":2665:2985   */\ntag_54:\n    /* \"#utility.yul\":2709:2715   */\n  0x00\n    /* \"#utility.yul\":2746:2747   */\n  0x02\n    /* \"#utility.yul\":2740:2744   */\n  dup3\n    /* \"#utility.yul\":2736:2748   */\n  div\n    /* \"#utility.yul\":2726:2748   */\n  swap1\n  pop\n    /* \"#utility.yul\":2793:2794   */\n  0x01\n    /* \"#utility.yul\":2787:2791   */\n  dup3\n    /* \"#utility.yul\":2783:2795   */\n  and\n    /* \"#utility.yul\":2814:2832   */\n  dup1\n    /* \"#utility.yul\":2804:2885   */\n  tag_103\n  jumpi\n    /* \"#utility.yul\":2870:2874   */\n  0x7f\n    /* \"#utility.yul\":2862:2868   */\n  dup3\n    /* \"#utility.yul\":2858:2875   */\n  and\n    /* \"#utility.yul\":2848:2875   */\n  swap2\n  pop\n    /* \"#utility.yul\":2804:2885   */\ntag_103:\n    /* \"#utility.yul\":2932:2934   */\n  0x20\n    /* \"#utility.yul\":2924:2930   */\n  dup3\n    /* \"#utility.yul\":2921:2935   */\n  lt\n    /* \"#utility.yul\":2901:2919   */\n  dup2\n    /* \"#utility.yul\":2898:2936   */\n  sub\n    /* \"#utility.yul\":2895:2979   */\n  tag_104\n  jumpi\n    /* \"#utility.yul\":2951:2969   */\n  tag_105\n  tag_53\n  jump\t// in\ntag_105:\n    /* \"#utility.yul\":2895:2979   */\ntag_104:\n    /* \"#utility.yul\":2716:2985   */\n  pop\n    /* \"#utility.yul\":2665:2985   */\n  swap2\n  swap1\n  pop\n  jump\t// out\n    /* \"#utility.yul\":2991:3132   */\ntag_55:\n    /* \"#utility.yul\":3040:3044   */\n  0x00\n    /* \"#utility.yul\":3063:3066   */\n  dup2\n    /* \"#utility.yul\":3055:3066   */\n  swap1\n  pop\n    /* \"#utility.yul\":3086:3089   */\n  dup2\n    /* \"#utility.yul\":3083:3084   */\n  0x00\n    /* \"#utility.yul\":3076:3090   */\n  mstore\n    /* \"#utility.yul\":3120:3124   */\n  0x20\n    /* \"#utility.yul\":3117:3118   */\n  0x00\n    /* \"#utility.yul\":3107:3125   */\n  keccak256\n    /* \"#utility.yul\":3099:3125   */\n  swap1\n  pop\n    /* \"#utility.yul\":2991:3132   */\n  swap2\n  swap1\n  pop\n  jump\t// out\n    /* \"#utility.yul\":3138:3231   */\ntag_56:\n    /* \"#utility.yul\":3175:3181   */\n  0x00\n    /* \"#utility.yul\":3222:3224   */\n  0x20\n    /* \"#utility.yul\":3217:3219   */\n  0x1f\n    /* \"#utility.yul\":3210:3215   */\n  dup4\n    /* \"#utility.yul\":3206:3220   */\n  add\n    /* \"#utility.yul\":3202:3225   */\n  div\n    /* \"#utility.yul\":3192:3225   */\n  swap1\n  pop\n    /* \"#utility.yul\":3138:3231   */\n  swap2\n  swap1\n  pop\n  jump\t// out\n    /* \"#utility.yul\":3237:3344   */\ntag_57:\n    /* \"#utility.yul\":3281:3289   */\n  0x00\n    /* \"#utility.yul\":3331:3336   */\n  dup3\n    /* \"#utility.yul\":3325:3329   */\n  dup3\n    /* \"#utility.yul\":3321:3337   */\n  shl\n    /* \"#utility.yul\":3300:3337   */\n  swap1\n  pop\n    /* \"#utility.yul\":3237:3344   */\n  swap3\n  swap2\n  pop\n  pop\n  jump\t// out\n    /* \"#utility.yul\":3350:3743   */\ntag_58:\n    /* \"#utility.yul\":3419:3425   */\n  0x00\n    /* \"#utility.yul\":3469:3470   */\n  0x08\n    /* \"#utility.yul\":3457:3467   */\n  dup4\n    /* \"#utility.yul\":3453:3471   */\n  mul\n    /* \"#utility.yul\":3492:3589   */\n  tag_110\n    /* \"#utility.yul\":3522:3588   */\n  0xffffffffffffffffffffffffffffffffffffffffffffffffffffffffffffffff\n    /* \"#utility.yul\":3511:3520   */\n  dup3\n    /* \"#utility.yul\":3492:3589   */\n  tag_57\n  jump\t// in\ntag_110:\n    /* \"#utility.yul\":3610:3649   */\n  tag_111\n    /* \"#utility.yul\":3640:3648   */\n  dup7\n    /* \"#utility.yul\":3629:3638   */\n  dup4\n    /* \"#utility.yul\":3610:3649   */\n  tag_57\n  jump\t// in\ntag_111:\n    /* \"#utility.yul\":3598:3649   */\n  swap6\n  pop\n    /* \"#utility.yul\":3682:3686   */\n  dup1\n    /* \"#utility.yul\":3678:3687   */\n  not\n    /* \"#utility.yul\":3671:3676   */\n  dup5\n    /* \"#utility.yul\":3667:3688   */\n  and\n    /* \"#utility.yul\":3658:3688   */\n  swap4\n  pop\n    /* \"#utility.yul\":3731:3735   */\n  dup1\n    /* \"#utility.yul\":3721:3729   */\n  dup7\n    /* \"#utility.yul\":3717:3736   */\n  and\n    /* \"#utility.yul\":3710:3715   */\n  dup5\n    /* \"#utility.yul\":3707:3737   */\n  or\n    /* \"#utility.yul\":3697:3737   */\n  swap3\n  pop\n    /* \"#utility.yul\":3426:3743   */\n  pop\n  pop\n    /* \"#utility.yul\":3350:3743   */\n  swap4\n  swap3\n  pop\n  pop\n  pop\n  jump\t// out\n    /* \"#utility.yul\":3749:3809   */\ntag_59:\n    /* \"#utility.yul\":3777:3780   */\n  0x00\n    /* \"#utility.yul\":3798:3803   */\n  dup2\n    /* \"#utility.yul\":3791:3803   */\n  swap1\n  pop\n    /* \"#utility.yul\":3749:3809   */\n  swap2\n  swap1\n  pop\n  jump\t// out\n    /* \"#utility.yul\":3815:3957   */\ntag_60:\n    /* \"#utility.yul\":3865:3874   */\n  0x00\n    /* \"#utility.yul\":3898:3951   */\n  tag_114\n    /* \"#utility.yul\":3916:3950   */\n  tag_115\n    /* \"#utility.yul\":3925:3949   */\n  tag_116\n    /* \"#utility.yul\":3943:3948   */\n  dup5\n    /* \"#utility.yul\":3925:3949   */\n  tag_48\n  jump\t// in\ntag_116:\n    /* \"#utility.yul\":3916:3950   */\n  tag_59\n  jump\t// in\ntag_115:\n    /* \"#utility.yul\":3898:3951   */\n  tag_48\n  jump\t// in\ntag_114:\n    /* \"#utility.yul\":3885:3951   */\n  swap1\n  pop\n    /* \"#utility.yul\":3815:3957   */\n  swap2\n  swap1\n  pop\n  jump\t// out\n    /* \"#utility.yul\":3963:4038   */\ntag_61:\n    /* \"#utility.yul\":4006:4009   */\n  0x00\n    /* \"#utility.yul\":4027:4032   */\n  dup2\n    /* \"#utility.yul\":4020:4032   */\n  swap1\n  pop\n    /* \"#utility.yul\":3963:4038   */\n  swap2\n  swap1\n  pop\n  jump\t// out\n    /* \"#utility.yul\":4044:4313   */\ntag_62:\n    /* \"#utility.yul\":4154:4193   */\n  tag_119\n    /* \"#utility.yul\":4185:4192   */\n  dup4\n    /* \"#utility.yul\":4154:4193   */\n  tag_60\n  jump\t// in\ntag_119:\n    /* \"#utility.yul\":4215:4306   */\n  tag_120\n    /* \"#utility.yul\":4264:4305   */\n  tag_121\n    /* \"#utility.yul\":4288:4304   */\n  dup3\n    /* \"#utility.yul\":4264:4305   */\n  tag_61\n  jump\t// in\ntag_121:\n    /* \"#utility.yul\":4256:4262   */\n  dup5\n    /* \"#utility.yul\":4249:4253   */\n  dup5\n    /* \"#utility.yul\":4243:4254   */\n  sload\n    /* \"#utility.yul\":4215:4306   */\n  tag_58\n  jump\t// in\ntag_120:\n    /* \"#utility.yul\":4209:4213   */\n  dup3\n    /* \"#utility.yul\":4202:4307   */\n  sstore\n    /* \"#utility.yul\":4120:4313   */\n  pop\n    /* \"#utility.yul\":4044:4313   */\n  pop\n  pop\n  pop\n  jump\t// out\n    /* \"#utility.yul\":4319:4392   */\ntag_63:\n    /* \"#utility.yul\":4364:4367   */\n  0x00\n    /* \"#utility.yul\":4319:4392   */\n  swap1\n  jump\t// out\n    /* \"#utility.yul\":4398:4587   */\ntag_64:\n    /* \"#utility.yul\":4475:4507   */\n  tag_124\n  tag_63\n  jump\t// in\ntag_124:\n    /* \"#utility.yul\":4516:4581   */\n  tag_125\n    /* \"#utility.yul\":4574:4580   */\n  dup2\n    /* \"#utility.yul\":4566:4572   */\n  dup5\n    /* \"#utility.yul\":4560:4564   */\n  dup5\n    /* \"#utility.yul\":4516:4581   */\n  tag_62\n  jump\t// in\ntag_125:\n    /* \"#utility.yul\":4451:4587   */\n  pop\n    /* \"#utility.yul\":4398:4587   */\n  pop\n  pop\n  jump\t// out\n    /* \"#utility.yul\":4593:4779   */\ntag_65:\n    /* \"#utility.yul\":4653:4773   */\ntag_127:\n    /* \"#utility.yul\":4670:4673   */\n  dup2\n    /* \"#utility.yul\":4663:4668   */\n  dup2\n    /* \"#utility.yul\":4660:4674   */\n  lt\n    /* \"#utility.yul\":4653:4773   */\n  iszero\n  tag_129\n  jumpi\n    /* \"#utility.yul\":4724:4763   */\n  tag_130\n    /* \"#utility.yul\":4761:4762   */\n  0x00\n    /* \"#utility.yul\":4754:4759   */\n  dup3\n    /* \"#utility.yul\":4724:4763   */\n  tag_64\n  jump\t// in\ntag_130:\n    /* \"#utility.yul\":4697:4698   */\n  0x01\n    /* \"#utility.yul\":4690:4695   */\n  dup2\n    /* \"#utility.yul\":4686:4699   */\n  add\n    /* \"#utility.yul\":4677:4699   */\n  swap1\n  pop\n    /* \"#utility.yul\":4653:4773   */\n  jump(tag_127)\ntag_129:\n    /* \"#utility.yul\":4593:4779   */\n  pop\n  pop\n  jump\t// out\n    /* \"#utility.yul\":4785:5328   */\ntag_66:\n    /* \"#utility.yul\":4886:4888   */\n  0x1f\n    /* \"#utility.yul\":4881:4884   */\n  dup3\n    /* \"#utility.yul\":4878:4889   */\n  gt\n    /* \"#utility.yul\":4875:5321   */\n  iszero\n  tag_132\n  jumpi\n    /* \"#utility.yul\":4920:4958   */\n  tag_133\n    /* \"#utility.yul\":4952:4957   */\n  dup2\n    /* \"#utility.yul\":4920:4958   */\n  tag_55\n  jump\t// in\ntag_133:\n    /* \"#utility.yul\":5004:5033   */\n  tag_134\n    /* \"#utility.yul\":5022:5032   */\n  dup5\n    /* \"#utility.yul\":5004:5033   */\n  tag_56\n  jump\t// in\ntag_134:\n    /* \"#utility.yul\":4994:5002   */\n  dup2\n    /* \"#utility.yul\":4990:5034   */\n  add\n    /* \"#utility.yul\":5187:5189   */\n  0x20\n    /* \"#utility.yul\":5175:5185   */\n  dup6\n    /* \"#utility.yul\":5172:5190   */\n  lt\n    /* \"#utility.yul\":5169:5218   */\n  iszero\n  tag_135\n  jumpi\n    /* \"#utility.yul\":5208:5216   */\n  dup2\n    /* \"#utility.yul\":5193:5216   */\n  swap1\n  pop\n    /* \"#utility.yul\":5169:5218   */\ntag_135:\n    /* \"#utility.yul\":5231:5311   */\n  tag_136\n    /* \"#utility.yul\":5287:5309   */\n  tag_137\n    /* \"#utility.yul\":5305:5308   */\n  dup6\n    /* \"#utility.yul\":5287:5309   */\n  tag_56\n  jump\t// in\ntag_137:\n    /* \"#utility.yul\":5277:5285   */\n  dup4\n    /* \"#utility.yul\":5273:5310   */\n  add\n    /* \"#utility.yul\":5260:5271   */\n  dup3\n    /* \"#utility.yul\":5231:5311   */\n  tag_65\n  jump\t// in\ntag_136:\n    /* \"#utility.yul\":4890:5321   */\n  pop\n  pop\n    /* \"#utility.yul\":4875:5321   */\ntag_132:\n    /* \"#utility.yul\":4785:5328   */\n  pop\n  pop\n  pop\n  jump\t// out\n    /* \"#utility.yul\":5334:5451   */\ntag_67:\n    /* \"#utility.yul\":5388:5396   */\n  0x00\n    /* \"#utility.yul\":5438:5443   */\n  dup3\n    /* \"#utility.yul\":5432:5436   */\n  dup3\n    /* \"#utility.yul\":5428:5444   */\n  shr\n    /* \"#utility.yul\":5407:5444   */\n  swap1\n  pop\n    /* \"#utility.yul\":5334:5451   */\n  swap3\n  swap2\n  pop\n  pop\n  jump\t// out\n    /* \"#utility.yul\":5457:5626   */\ntag_68:\n    /* \"#utility.yul\":5501:5507   */\n  0x00\n    /* \"#utility.yul\":5534:5585   */\n  tag_140\n    /* \"#utility.yul\":5582:5583   */\n  0x00\n    /* \"#utility.yul\":5578:5584   */\n  not\n    /* \"#utility.yul\":5570:5575   */\n  dup5\n    /* \"#utility.yul\":5567:5568   */\n  0x08\n    /* \"#utility.yul\":5563:5576   */\n  mul\n    /* \"#utility.yul\":5534:5585   */\n  tag_67\n  jump\t// in\ntag_140:\n    /* \"#utility.yul\":5530:5586   */\n  not\n    /* \"#utility.yul\":5615:5619   */\n  dup1\n    /* \"#utility.yul\":5609:5613   */\n  dup4\n    /* \"#utility.yul\":5605:5620   */\n  and\n    /* \"#utility.yul\":5595:5620   */\n  swap2\n  pop\n    /* \"#utility.yul\":5508:5626   */\n  pop\n    /* \"#utility.yul\":5457:5626   */\n  swap3\n  swap2\n  pop\n  pop\n  jump\t// out\n    /* \"#utility.yul\":5631:5926   */\ntag_69:\n    /* \"#utility.yul\":5707:5711   */\n  0x00\n    /* \"#utility.yul\":5853:5882   */\n  tag_142\n    /* \"#utility.yul\":5878:5881   */\n  dup4\n    /* \"#utility.yul\":5872:5876   */\n  dup4\n    /* \"#utility.yul\":5853:5882   */\n  tag_68\n  jump\t// in\ntag_142:\n    /* \"#utility.yul\":5845:5882   */\n  swap2\n  pop\n    /* \"#utility.yul\":5915:5918   */\n  dup3\n    /* \"#utility.yul\":5912:5913   */\n  0x02\n    /* \"#utility.yul\":5908:5919   */\n  mul\n    /* \"#utility.yul\":5902:5906   */\n  dup3\n    /* \"#utility.yul\":5899:5920   */\n  or\n    /* \"#utility.yul\":5891:5920   */\n  swap1\n  pop\n    /* \"#utility.yul\":5631:5926   */\n  swap3\n  swap2\n  pop\n  pop\n  jump\t// out\n    /* \"#utility.yul\":5931:7326   */\ntag_9:\n    /* \"#utility.yul\":6048:6085   */\n  tag_144\n    /* \"#utility.yul\":6081:6084   */\n  dup3\n    /* \"#utility.yul\":6048:6085   */\n  tag_51\n  jump\t// in\ntag_144:\n    /* \"#utility.yul\":6150:6168   */\n  0xffffffffffffffff\n    /* \"#utility.yul\":6142:6148   */\n  dup2\n    /* \"#utility.yul\":6139:6169   */\n  gt\n    /* \"#utility.yul\":6136:6192   */\n  iszero\n  tag_145\n  jumpi\n    /* \"#utility.yul\":6172:6190   */\n  tag_146\n  tag_52\n  jump\t// in\ntag_146:\n    /* \"#utility.yul\":6136:6192   */\ntag_145:\n    /* \"#utility.yul\":6216:6254   */\n  tag_147\n    /* \"#utility.yul\":6248:6252   */\n  dup3\n    /* \"#utility.yul\":6242:6253   */\n  sload\n    /* \"#utility.yul\":6216:6254   */\n  tag_54\n  jump\t// in\ntag_147:\n    /* \"#utility.yul\":6301:6368   */\n  tag_148\n    /* \"#utility.yul\":6361:6367   */\n  dup3\n    /* \"#utility.yul\":6353:6359   */\n  dup3\n    /* \"#utility.yul\":6347:6351   */\n  dup6\n    /* \"#utility.yul\":6301:6368   */\n  tag_66\n  jump\t// in\ntag_148:\n    /* \"#utility.yul\":6395:6396   */\n  0x00\n    /* \"#utility.yul\":6419:6423   */\n  0x20\n    /* \"#utility.yul\":6406:6423   */\n  swap1\n  pop\n    /* \"#utility.yul\":6451:6453   */\n  0x1f\n    /* \"#utility.yul\":6443:6449   */\n  dup4\n    /* \"#utility.yul\":6440:6454   */\n  gt\n    /* \"#utility.yul\":6468:6469   */\n  0x01\n    /* \"#utility.yul\":6463:7081   */\n  dup2\n  eq\n  tag_150\n  jumpi\n    /* \"#utility.yul\":7125:7126   */\n  0x00\n    /* \"#utility.yul\":7142:7148   */\n  dup5\n    /* \"#utility.yul\":7139:7216   */\n  iszero\n  tag_151\n  jumpi\n    /* \"#utility.yul\":7191:7200   */\n  dup3\n    /* \"#utility.yul\":7186:7189   */\n  dup8\n    /* \"#utility.yul\":7182:7201   */\n  add\n    /* \"#utility.yul\":7176:7202   */\n  mload\n    /* \"#utility.yul\":7167:7202   */\n  swap1\n  pop\n    /* \"#utility.yul\":7139:7216   */\ntag_151:\n    /* \"#utility.yul\":7242:7309   */\n  tag_152\n    /* \"#utility.yul\":7302:7308   */\n  dup6\n    /* \"#utility.yul\":7295:7300   */\n  dup3\n    /* \"#utility.yul\":7242:7309   */\n  tag_69\n  jump\t// in\ntag_152:\n    /* \"#utility.yul\":7236:7240   */\n  dup7\n    /* \"#utility.yul\":7229:7310   */\n  sstore\n    /* \"#utility.yul\":7098:7320   */\n  pop\n    /* \"#utility.yul\":6433:7320   */\n  jump(tag_149)\n    /* \"#utility.yul\":6463:7081   */\ntag_150:\n    /* \"#utility.yul\":6515:6519   */\n  0x1f\n    /* \"#utility.yul\":6511:6520   */\n  not\n    /* \"#utility.yul\":6503:6509   */\n  dup5\n    /* \"#utility.yul\":6499:6521   */\n  and\n    /* \"#utility.yul\":6549:6586   */\n  tag_153\n    /* \"#utility.yul\":6581:6585   */\n  dup7\n    /* \"#utility.yul\":6549:6586   */\n  tag_55\n  jump\t// in\ntag_153:\n    /* \"#utility.yul\":6608:6609   */\n  0x00\n    /* \"#utility.yul\":6622:6830   */\ntag_154:\n    /* \"#utility.yul\":6636:6643   */\n  dup3\n    /* \"#utility.yul\":6633:6634   */\n  dup2\n    /* \"#utility.yul\":6630:6644   */\n  lt\n    /* \"#utility.yul\":6622:6830   */\n  iszero\n  tag_156\n  jumpi\n    /* \"#utility.yul\":6715:6724   */\n  dup5\n    /* \"#utility.yul\":6710:6713   */\n  dup10\n    /* \"#utility.yul\":6706:6725   */\n  add\n    /* \"#utility.yul\":6700:6726   */\n  mload\n    /* \"#utility.yul\":6692:6698   */\n  dup3\n    /* \"#utility.yul\":6685:6727   */\n  sstore\n    /* \"#utility.yul\":6766:6767   */\n  0x01\n    /* \"#utility.yul\":6758:6764   */\n  dup3\n    /* \"#utility.yul\":6754:6768   */\n  add\n    /* \"#utility.yul\":6744:6768   */\n  swap2\n  pop\n    /* \"#utility.yul\":6813:6815   */\n  0x20\n    /* \"#utility.yul\":6802:6811   */\n  dup6\n    /* \"#utility.yul\":6798:6816   */\n  add\n    /* \"#utility.yul\":6785:6816   */\n  swap5\n  pop\n    /* \"#utility.yul\":6659:6663   */\n  0x20\n    /* \"#utility.yul\":6656:6657   */\n  dup2\n    /* \"#utility.yul\":6652:6664   */\n  add\n    /* \"#utility.yul\":6647:6664   */\n  swap1\n  pop\n    /* \"#utility.yul\":6622:6830   */\n  jump(tag_154)\ntag_156:\n    /* \"#utility.yul\":6858:6864   */\n  dup7\n    /* \"#utility.yul\":6849:6856   */\n  dup4\n    /* \"#utility.yul\":6846:6865   */\n  lt\n    /* \"#utility.yul\":6843:7022   */\n  iszero\n  tag_157\n  jumpi\n    /* \"#utility.yul\":6916:6925   */\n  dup5\n    /* \"#utility.yul\":6911:6914   */\n  dup10\n    /* \"#utility.yul\":6907:6926   */\n  add\n    /* \"#utility.yul\":6901:6927   */\n  mload\n    /* \"#utility.yul\":6959:7007   */\n  tag_158\n    /* \"#utility.yul\":7001:7005   */\n  0x1f\n    /* \"#utility.yul\":6993:6999   */\n  dup10\n    /* \"#utility.yul\":6989:7006   */\n  and\n    /* \"#utility.yul\":6978:6987   */\n  dup3\n    /* \"#utility.yul\":6959:7007   */\n  tag_68\n  jump\t// in\ntag_158:\n    /* \"#utility.yul\":6951:6957   */\n  dup4\n    /* \"#utility.yul\":6944:7008   */\n  sstore\n    /* \"#utility.yul\":6866:7022   */\n  pop\n    /* \"#utility.yul\":6843:7022   */\ntag_157:\n    /* \"#utility.yul\":7068:7069   */\n  0x01\n    /* \"#utility.yul\":7064:7065   */\n  0x02\n    /* \"#utility.yul\":7056:7062   */\n  dup9\n    /* \"#utility.yul\":7052:7066   */\n  mul\n    /* \"#utility.yul\":7048:7070   */\n  add\n    /* \"#utility.yul\":7042:7046   */\n  dup9\n    /* \"#utility.yul\":7035:7071   */\n  sstore\n    /* \"#utility.yul\":6470:7081   */\n  pop\n  pop\n  pop\n    /* \"#utility.yul\":6433:7320   */\ntag_149:\n  pop\n    /* \"#utility.yul\":6023:7326   */\n  pop\n  pop\n  pop\n    /* \"#utility.yul\":5931:7326   */\n  pop\n  pop\n  jump\t// out\n    /* \"#utility.yul\":7332:7450   */\ntag_70:\n    /* \"#utility.yul\":7419:7443   */\n  tag_160\n    /* \"#utility.yul\":7437:7442   */\n  dup2\n    /* \"#utility.yul\":7419:7443   */\n  tag_45\n  jump\t// in\ntag_160:\n    /* \"#utility.yul\":7414:7417   */\n  dup3\n    /* \"#utility.yul\":7407:7444   */\n  mstore\n    /* \"#utility.yul\":7332:7450   */\n  pop\n  pop\n  jump\t// out\n    /* \"#utility.yul\":7456:7678   */\ntag_14:\n    /* \"#utility.yul\":7549:7553   */\n  0x00\n    /* \"#utility.yul\":7587:7589   */\n  0x20\n    /* \"#utility.yul\":7576:7585   */\n  dup3\n    /* \"#utility.yul\":7572:7590   */\n  add\n    /* \"#utility.yul\":7564:7590   */\n  swap1\n  pop\n    /* \"#utility.yul\":7600:7671   */\n  tag_162\n    /* \"#utility.yul\":7668:7669   */\n  0x00\n    /* \"#utility.yul\":7657:7666   */\n  dup4\n    /* \"#utility.yul\":7653:7670   */\n  add\n    /* \"#utility.yul\":7644:7650   */\n  dup5\n    /* \"#utility.yul\":7600:7671   */\n  tag_70\n  jump\t// in\ntag_162:\n    /* \"#utility.yul\":7456:7678   */\n  swap3\n  swap2\n  pop\n  pop\n  jump\t// out\n    /* \"#utility.yul\":7684:7864   */\ntag_71:\n    /* \"#utility.yul\":7732:7809   */\n  0x4e487b7100000000000000000000000000000000000000000000000000000000\n    /* \"#utility.yul\":7729:7730   */\n  0x00\n    /* \"#utility.yul\":7722:7810   */\n  mstore\n    /* \"#utility.yul\":7829:7833   */\n  0x11\n    /* \"#utility.yul\":7826:7827   */\n  0x04\n    /* \"#utility.yul\":7819:7834   */\n  mstore\n    /* \"#utility.yul\":7853:7857   */\n  0x24\n    /* \"#utility.yul\":7850:7851   */\n  0x00\n    /* \"#utility.yul\":7843:7858   */\n  revert\n    /* \"#utility.yul\":7870:8280   */\ntag_20:\n    /* \"#utility.yul\":7910:7917   */\n  0x00\n    /* \"#utility.yul\":7933:7953   */\n  tag_165\n    /* \"#utility.yul\":7951:7952   */\n  dup3\n    /* \"#utility.yul\":7933:7953   */\n  tag_48\n  jump\t// in\ntag_165:\n    /* \"#utility.yul\":7928:7953   */\n  swap2\n  pop\n    /* \"#utility.yul\":7967:7987   */\n  tag_166\n    /* \"#utility.yul\":7985:7986   */\n  dup4\n    /* \"#utility.yul\":7967:7987   */\n  tag_48\n  jump\t// in\ntag_166:\n    /* \"#utility.yul\":7962:7987   */\n  swap3\n  pop\n    /* \"#utility.yul\":8022:8023   */\n  dup3\n    /* \"#utility.yul\":8019:8020   */\n  dup3\n    /* \"#utility.yul\":8015:8024   */\n  mul\n    /* \"#utility.yul\":8044:8074   */\n  tag_167\n    /* \"#utility.yul\":8062:8073   */\n  dup2\n    /* \"#utility.yul\":8044:8074   */\n  tag_48\n  jump\t// in\ntag_167:\n    /* \"#utility.yul\":8033:8074   */\n  swap2\n  pop\n    /* \"#utility.yul\":8223:8224   */\n  dup3\n    /* \"#utility.yul\":8214:8221   */\n  dup3\n    /* \"#utility.yul\":8210:8225   */\n  div\n    /* \"#utility.yul\":8207:8208   */\n  dup5\n    /* \"#utility.yul\":8204:8226   */\n  eq\n    /* \"#utility.yul\":8184:8185   */\n  dup4\n    /* \"#utility.yul\":8177:8186   */\n  iszero\n    /* \"#utility.yul\":8157:8240   */\n  or\n    /* \"#utility.yul\":8134:8273   */\n  tag_168\n  jumpi\n    /* \"#utility.yul\":8253:8271   */\n  tag_169\n  tag_71\n  jump\t// in\ntag_169:\n    /* \"#utility.yul\":8134:8273   */\ntag_168:\n    /* \"#utility.yul\":7918:8280   */\n  pop\n    /* \"#utility.yul\":7870:8280   */\n  swap3\n  swap2\n  pop\n  pop\n  jump\t// out\n    /* \"#utility.yul\":8286:8477   */\ntag_32:\n    /* \"#utility.yul\":8326:8329   */\n  0x00\n    /* \"#utility.yul\":8345:8365   */\n  tag_171\n    /* \"#utility.yul\":8363:8364   */\n  dup3\n    /* \"#utility.yul\":8345:8365   */\n  tag_48\n  jump\t// in\ntag_171:\n    /* \"#utility.yul\":8340:8365   */\n  swap2\n  pop\n    /* \"#utility.yul\":8379:8399   */\n  tag_172\n    /* \"#utility.yul\":8397:8398   */\n  dup4\n    /* \"#utility.yul\":8379:8399   */\n  tag_48\n  jump\t// in\ntag_172:\n    /* \"#utility.yul\":8374:8399   */\n  swap3\n  pop\n    /* \"#utility.yul\":8422:8423   */\n  dup3\n    /* \"#utility.yul\":8419:8420   */\n  dup3\n    /* \"#utility.yul\":8415:8424   */\n  add\n    /* \"#utility.yul\":8408:8424   */\n  swap1\n  pop\n    /* \"#utility.yul\":8443:8446   */\n  dup1\n    /* \"#utility.yul\":8440:8441   */\n  dup3\n    /* \"#utility.yul\":8437:8447   */\n  gt\n    /* \"#utility.yul\":8434:8470   */\n  iszero\n  tag_173\n  jumpi\n    /* \"#utility.yul\":8450:8468   */\n  tag_174\n  tag_71\n  jump\t// in\ntag_174:\n    /* \"#utility.yul\":8434:8470   */\ntag_173:\n    /* \"#utility.yul\":8286:8477   */\n  swap3\n  swap2\n  pop\n  pop\n  jump\t// out\n    /* \"#utility.yul\":8483:8601   */\ntag_72:\n    /* \"#utility.yul\":8570:8594   */\n  tag_176\n    /* \"#utility.yul\":8588:8593   */\n  dup2\n    /* \"#utility.yul\":8570:8594   */\n  tag_48\n  jump\t// in\ntag_176:\n    /* \"#utility.yul\":8565:8568   */\n  dup3\n    /* \"#utility.yul\":8558:8595   */\n  mstore\n    /* \"#utility.yul\":8483:8601   */\n  pop\n  pop\n  jump\t// out\n    /* \"#utility.yul\":8607:9049   */\ntag_36:\n    /* \"#utility.yul\":8756:8760   */\n  0x00\n    /* \"#utility.yul\":8794:8796   */\n  0x60\n    /* \"#utility.yul\":8783:8792   */\n  dup3\n    /* \"#utility.yul\":8779:8797   */\n  add\n    /* \"#utility.yul\":8771:8797   */\n  swap1\n  pop\n    /* \"#utility.yul\":8807:8878   */\n  tag_178\n    /* \"#utility.yul\":8875:8876   */\n  0x00\n    /* \"#utility.yul\":8864:8873   */\n  dup4\n    /* \"#utility.yul\":8860:8877   */\n  add\n    /* \"#utility.yul\":8851:8857   */\n  dup7\n    /* \"#utility.yul\":8807:8878   */\n  tag_70\n  jump\t// in\ntag_178:\n    /* \"#utility.yul\":8888:8960   */\n  tag_179\n    /* \"#utility.yul\":8956:8958   */\n  0x20\n    /* \"#utility.yul\":8945:8954   */\n  dup4\n    /* \"#utility.yul\":8941:8959   */\n  add\n    /* \"#utility.yul\":8932:8938   */\n  dup6\n    /* \"#utility.yul\":8888:8960   */\n  tag_72\n  jump\t// in\ntag_179:\n    /* \"#utility.yul\":8970:9042   */\n  tag_180\n    /* \"#utility.yul\":9038:9040   */\n  0x40\n    /* \"#utility.yul\":9027:9036   */\n  dup4\n    /* \"#utility.yul\":9023:9041   */\n  add\n    /* \"#utility.yul\":9014:9020   */\n  dup5\n    /* \"#utility.yul\":8970:9042   */\n  tag_72\n  jump\t// in\ntag_180:\n    /* \"#utility.yul\":8607:9049   */\n  swap5\n  swap4\n  pop\n  pop\n  pop\n  pop\n  jump\t// out\n    /* \"#utility.yul\":9055:9277   */\ntag_40:\n    /* \"#utility.yul\":9148:9152   */\n  0x00\n    /* \"#utility.yul\":9186:9188   */\n  0x20\n    /* \"#utility.yul\":9175:9184   */\n  dup3\n    /* \"#utility.yul\":9171:9189   */\n  add\n    /* \"#utility.yul\":9163:9189   */\n  swap1\n  pop\n    /* \"#utility.yul\":9199:9270   */\n  tag_182\n    /* \"#utility.yul\":9267:9268   */\n  0x00\n    /* \"#utility.yul\":9256:9265   */\n  dup4\n    /* \"#utility.yul\":9252:9269   */\n  add\n    /* \"#utility.yul\":9243:9249   */\n  dup5\n    /* \"#utility.yul\":9199:9270   */\n  tag_72\n  jump\t// in\ntag_182:\n    /* \"#utility.yul\":9055:9277   */\n  swap3\n  swap2\n  pop\n  pop\n  jump\t// out\n    /* \"contracts/STEMMER_flattened.sol\":24917:30973  contract STEMMER is ERC20, Ownable {... */\ntag_22:\n  dataSize(sub_0)\n  dup1\n  dataOffset(sub_0)\n  0x00\n  codecopy\n  0x00\n  return\nstop\n\nsub_0: assembly {\n        /* \"contracts/STEMMER_flattened.sol\":24917:30973  contract STEMMER is ERC20, Ownable {... */\n      mstore(0x40, 0x80)\n      callvalue\n      dup1\n      iszero\n      tag_1\n      jumpi\n      0x00\n      dup1\n      revert\n    tag_1:\n      pop\n      jumpi(tag_2, lt(calldatasize, 0x04))\n      shr(0xe0, calldataload(0x00))\n      dup1\n      0x85e436bf\n      gt\n      tag_34\n      jumpi\n      dup1\n      0xc3f909d4\n      gt\n      tag_35\n      jumpi\n      dup1\n      0xf2fde38b\n      gt\n      tag_36\n      jumpi\n      dup1\n      0xf2fde38b\n      eq\n      tag_30\n      jumpi\n      dup1\n      0xf974821a\n      eq\n      tag_31\n      jumpi\n      dup1\n      0xfc37987b\n      eq\n      tag_32\n      jumpi\n      dup1\n      0xff90b54d\n      eq\n      tag_33\n      jumpi\n      jump(tag_2)\n    tag_36:\n      dup1\n      0xc3f909d4\n      eq\n      tag_26\n      jumpi\n      dup1\n      0xdd62ed3e\n      eq\n      tag_27\n      jumpi\n      dup1\n      0xf0f44260\n      eq\n      tag_28\n      jumpi\n      dup1\n      0xf203787c\n      eq\n      tag_29\n      jumpi\n      jump(tag_2)\n    tag_35:\n      dup1\n      0x9dc29fac\n      gt\n      tag_37\n      jumpi\n      dup1\n      0x9dc29fac\n      eq\n      tag_22\n      jumpi\n      dup1\n      0xa9059cbb\n      eq\n      tag_23\n      jumpi\n      dup1\n      0xa98ad46c\n      eq\n      tag_24\n      jumpi\n      dup1\n      0xbb285554\n      eq\n      tag_25\n      jumpi\n      jump(tag_2)\n    tag_37:\n      dup1\n      0x85e436bf\n      eq\n      tag_18\n      jumpi\n      dup1\n      0x8da5cb5b\n      eq\n      tag_19\n      jumpi\n      dup1\n      0x8e0b017d\n      eq\n      tag_20\n      jumpi\n      dup1\n      0x95d89b41\n      eq\n      tag_21\n      jumpi\n      jump(tag_2)\n    tag_34:\n      dup1\n      0x313ce567\n      gt\n      tag_38\n      jumpi\n      dup1\n      0x6217229b\n      gt\n      tag_39\n      jumpi\n      dup1\n      0x6217229b\n      eq\n      tag_14\n      jumpi\n      dup1\n      0x70a08231\n      eq\n      tag_15\n      jumpi\n      dup1\n      0x715018a6\n      eq\n      tag_16\n      jumpi\n      dup1\n      0x748e37f4\n      eq\n      tag_17\n      jumpi\n      jump(tag_2)\n    tag_39:\n      dup1\n      0x313ce567\n      eq\n      tag_10\n      jumpi\n      dup1\n      0x40c10f19\n      eq\n      tag_11\n      jumpi\n      dup1\n      0x5d91e3f8\n      eq\n      tag_12\n      jumpi\n      dup1\n      0x61d027b3\n      eq\n      tag_13\n      jumpi\n      jump(tag_2)\n    tag_38:\n      dup1\n      0x1481794e\n      gt\n      tag_40\n      jumpi\n      dup1\n      0x1481794e\n      eq\n      tag_6\n      jumpi\n      dup1\n      0x18160ddd\n      eq\n      tag_7\n      jumpi\n      dup1\n      0x23b872dd\n      eq\n      tag_8\n      jumpi\n      dup1\n      0x28821182\n      eq\n      tag_9\n      jumpi\n      jump(tag_2)\n    tag_40:\n      dup1\n      0x06fdde03\n      eq\n      tag_3\n      jumpi\n      dup1\n      0x095ea7b3\n      eq\n      tag_4\n      jumpi\n      dup1\n      0x0f7e730b\n      eq\n      tag_5\n      jumpi\n    tag_2:\n      0x00\n      dup1\n      revert\n        /* \"contracts/STEMMER_flattened.sol\":12660:12749  function name() public view virtual returns (string memory) {... */\n    tag_3:\n      tag_41\n      tag_42\n      jump\t// in\n    tag_41:\n      mload(0x40)\n      tag_43\n      swap2\n      swap1\n      tag_44\n      jump\t// in\n    tag_43:\n      mload(0x40)\n      dup1\n      swap2\n      sub\n      swap1\n      return\n        /* \"contracts/STEMMER_flattened.sol\":14879:15065  function approve(address spender, uint256 value) public virtual returns (bool) {... */\n    tag_4:\n      tag_45\n      0x04\n      dup1\n      calldatasize\n      sub\n      dup2\n      add\n      swap1\n      tag_46\n      swap2\n      swap1\n      tag_47\n      jump\t// in\n    tag_46:\n      tag_48\n      jump\t// in\n    tag_45:\n      mload(0x40)\n      tag_49\n      swap2\n      swap1\n      tag_50\n      jump\t// in\n    tag_49:\n      mload(0x40)\n      dup1\n      swap2\n      sub\n      swap1\n      return\n        /* \"contracts/STEMMER_flattened.sol\":29376:29531  function setProfitTreasury(address _treasury) external onlyOwner {... */\n    tag_5:\n      tag_51\n      0x04\n      dup1\n      calldatasize\n      sub\n      dup2\n      add\n      swap1\n      tag_52\n      swap2\n      swap1\n      tag_53\n      jump\t// in\n    tag_52:\n      tag_54\n      jump\t// in\n    tag_51:\n      stop\n        /* \"contracts/STEMMER_flattened.sol\":28969:29153  function withdrawUSDT(address to, uint256 amount) external onlyOwner {... */\n    tag_6:\n      tag_55\n      0x04\n      dup1\n      calldatasize\n      sub\n      dup2\n      add\n      swap1\n      tag_56\n      swap2\n      swap1\n      tag_47\n      jump\t// in\n    tag_56:\n      tag_57\n      jump\t// in\n    tag_55:\n      stop\n        /* \"contracts/STEMMER_flattened.sol\":13730:13827  function totalSupply() public view virtual returns (uint256) {... */\n    tag_7:\n      tag_58\n      tag_59\n      jump\t// in\n    tag_58:\n      mload(0x40)\n      tag_60\n      swap2\n      swap1\n      tag_61\n      jump\t// in\n    tag_60:\n      mload(0x40)\n      dup1\n      swap2\n      sub\n      swap1\n      return\n        /* \"contracts/STEMMER_flattened.sol\":15657:15901  function transferFrom(address from, address to, uint256 value) public virtual returns (bool) {... */\n    tag_8:\n      tag_62\n      0x04\n      dup1\n      calldatasize\n      sub\n      dup2\n      add\n      swap1\n      tag_63\n      swap2\n      swap1\n      tag_64\n      jump\t// in\n    tag_63:\n      tag_65\n      jump\t// in\n    tag_62:\n      mload(0x40)\n      tag_66\n      swap2\n      swap1\n      tag_50\n      jump\t// in\n    tag_66:\n      mload(0x40)\n      dup1\n      swap2\n      sub\n      swap1\n      return\n        /* \"contracts/STEMMER_flattened.sol\":29575:29802  function setProfitThreshold(uint256 newThreshold) external onlyOwner {... */\n    tag_9:\n      tag_67\n      0x04\n      dup1\n      calldatasize\n      sub\n      dup2\n      add\n      swap1\n      tag_68\n      swap2\n      swap1\n      tag_69\n      jump\t// in\n    tag_68:\n      tag_70\n      jump\t// in\n    tag_67:\n      stop\n        /* \"contracts/STEMMER_flattened.sol\":13588:13670  function decimals() public view virtual returns (uint8) {... */\n    tag_10:\n      tag_71\n      tag_72\n      jump\t// in\n    tag_71:\n      mload(0x40)\n      tag_73\n      swap2\n      swap1\n      tag_74\n      jump\t// in\n    tag_73:\n      mload(0x40)\n      dup1\n      swap2\n      sub\n      swap1\n      return\n        /* \"contracts/STEMMER_flattened.sol\":28054:28189  function mint(address to, uint256 amount) external onlyOwner {... */\n    tag_11:\n      tag_75\n      0x04\n      dup1\n      calldatasize\n      sub\n      dup2\n      add\n      swap1\n      tag_76\n      swap2\n      swap1\n      tag_47\n      jump\t// in\n    tag_76:\n      tag_77\n      jump\t// in\n    tag_75:\n      stop\n        /* \"contracts/STEMMER_flattened.sol\":26929:28019  function sellStem(uint256 stemAmount) external {... */\n    tag_12:\n      tag_78\n      0x04\n      dup1\n      calldatasize\n      sub\n      dup2\n      add\n      swap1\n      tag_79\n      swap2\n      swap1\n      tag_69\n      jump\t// in\n    tag_79:\n      tag_80\n      jump\t// in\n    tag_78:\n      stop\n        /* \"contracts/STEMMER_flattened.sol\":25128:25151  address public treasury */\n    tag_13:\n      tag_81\n      tag_82\n      jump\t// in\n    tag_81:\n      mload(0x40)\n      tag_83\n      swap2\n      swap1\n      tag_84\n      jump\t// in\n    tag_83:\n      mload(0x40)\n      dup1\n      swap2\n      sub\n      swap1\n      return\n        /* \"contracts/STEMMER_flattened.sol\":25055:25085  uint256 public sellRate = 1e18 */\n    tag_14:\n      tag_85\n      tag_86\n      jump\t// in\n    tag_85:\n      mload(0x40)\n      tag_87\n      swap2\n      swap1\n      tag_61\n      jump\t// in\n    tag_87:\n      mload(0x40)\n      dup1\n      swap2\n      sub\n      swap1\n      return\n        /* \"contracts/STEMMER_flattened.sol\":13885:14001  function balanceOf(address account) public view virtual returns (uint256) {... */\n    tag_15:\n      tag_88\n      0x04\n      dup1\n      calldatasize\n      sub\n      dup2\n      add\n      swap1\n      tag_89\n      swap2\n      swap1\n      tag_53\n      jump\t// in\n    tag_89:\n      tag_90\n      jump\t// in\n    tag_88:\n      mload(0x40)\n      tag_91\n      swap2\n      swap1\n      tag_61\n      jump\t// in\n    tag_91:\n      mload(0x40)\n      dup1\n      swap2\n      sub\n      swap1\n      return\n        /* \"contracts/STEMMER_flattened.sol\":24045:24146  function renounceOwnership() public virtual onlyOwner {... */\n    tag_16:\n      tag_92\n      tag_93\n      jump\t// in\n    tag_92:\n      stop\n        /* \"contracts/STEMMER_flattened.sol\":25261:25293  uint256 public accumulatedProfit */\n    tag_17:\n      tag_94\n      tag_95\n      jump\t// in\n    tag_94:\n      mload(0x40)\n      tag_96\n      swap2\n      swap1\n      tag_61\n      jump\t// in\n    tag_96:\n      mload(0x40)\n      dup1\n      swap2\n      sub\n      swap1\n      return\n        /* \"contracts/STEMMER_flattened.sol\":28413:28676  function setBuyRate(uint256 newRate) external onlyOwner {... */\n    tag_18:\n      tag_97\n      0x04\n      dup1\n      calldatasize\n      sub\n      dup2\n      add\n      swap1\n      tag_98\n      swap2\n      swap1\n      tag_69\n      jump\t// in\n    tag_98:\n      tag_99\n      jump\t// in\n    tag_97:\n      stop\n        /* \"contracts/STEMMER_flattened.sol\":23390:23475  function owner() public view virtual returns (address) {... */\n    tag_19:\n      tag_100\n      tag_101\n      jump\t// in\n    tag_100:\n      mload(0x40)\n      tag_102\n      swap2\n      swap1\n      tag_84\n      jump\t// in\n    tag_102:\n      mload(0x40)\n      dup1\n      swap2\n      sub\n      swap1\n      return\n        /* \"contracts/STEMMER_flattened.sol\":28717:28930  function setSellRate(uint256 newRate) external onlyOwner {... */\n    tag_20:\n      tag_103\n      0x04\n      dup1\n      calldatasize\n      sub\n      dup2\n      add\n      swap1\n      tag_104\n      swap2\n      swap1\n      tag_69\n      jump\t// in\n    tag_104:\n      tag_105\n      jump\t// in\n    tag_103:\n      stop\n        /* \"contracts/STEMMER_flattened.sol\":12862:12955  function symbol() public view virtual returns (string memory) {... */\n    tag_21:\n      tag_106\n      tag_107\n      jump\t// in\n    tag_106:\n      mload(0x40)\n      tag_108\n      swap2\n      swap1\n      tag_44\n      jump\t// in\n    tag_108:\n      mload(0x40)\n      dup1\n      swap2\n      sub\n      swap1\n      return\n        /* \"contracts/STEMMER_flattened.sol\":28224:28365  function burn(address from, uint256 amount) external onlyOwner {... */\n    tag_22:\n      tag_109\n      0x04\n      dup1\n      calldatasize\n      sub\n      dup2\n      add\n      swap1\n      tag_110\n      swap2\n      swap1\n      tag_47\n      jump\t// in\n    tag_110:\n      tag_111\n      jump\t// in\n    tag_109:\n      stop\n        /* \"contracts/STEMMER_flattened.sol\":14196:14374  function transfer(address to, uint256 value) public virtual returns (bool) {... */\n    tag_23:\n      tag_112\n      0x04\n      dup1\n      calldatasize\n      sub\n      dup2\n      add\n      swap1\n      tag_113\n      swap2\n      swap1\n      tag_47\n      jump\t// in\n    tag_113:\n      tag_114\n      jump\t// in\n    tag_112:\n      mload(0x40)\n      tag_115\n      swap2\n      swap1\n      tag_50\n      jump\t// in\n    tag_115:\n      mload(0x40)\n      dup1\n      swap2\n      sub\n      swap1\n      return\n        /* \"contracts/STEMMER_flattened.sol\":24959:24982  IERC20 public usdtToken */\n    tag_24:\n      tag_116\n      tag_117\n      jump\t// in\n    tag_116:\n      mload(0x40)\n      tag_118\n      swap2\n      swap1\n      tag_119\n      jump\t// in\n    tag_118:\n      mload(0x40)\n      dup1\n      swap2\n      sub\n      swap1\n      return\n        /* \"contracts/STEMMER_flattened.sol\":26508:26892  function buyStem(uint256 usdtAmount) external {... */\n    tag_25:\n      tag_120\n      0x04\n      dup1\n      calldatasize\n      sub\n      dup2\n      add\n      swap1\n      tag_121\n      swap2\n      swap1\n      tag_69\n      jump\t// in\n    tag_121:\n      tag_122\n      jump\t// in\n    tag_120:\n      stop\n        /* \"contracts/STEMMER_flattened.sol\":30187:30971  function getConfig() external view returns (... */\n    tag_26:\n      tag_123\n      tag_124\n      jump\t// in\n    tag_123:\n      mload(0x40)\n      tag_125\n      swap12\n      swap11\n      swap10\n      swap9\n      swap8\n      swap7\n      swap6\n      swap5\n      swap4\n      swap3\n      swap2\n      swap1\n      tag_126\n      jump\t// in\n    tag_125:\n      mload(0x40)\n      dup1\n      swap2\n      sub\n      swap1\n      return\n        /* \"contracts/STEMMER_flattened.sol\":14432:14572  function allowance(address owner, address spender) public view virtual returns (uint256) {... */\n    tag_27:\n      tag_127\n      0x04\n      dup1\n      calldatasize\n      sub\n      dup2\n      add\n      swap1\n      tag_128\n      swap2\n      swap1\n      tag_129\n      jump\t// in\n    tag_128:\n      tag_130\n      jump\t// in\n    tag_127:\n      mload(0x40)\n      tag_131\n      swap2\n      swap1\n      tag_61\n      jump\t// in\n    tag_131:\n      mload(0x40)\n      dup1\n      swap2\n      sub\n      swap1\n      return\n        /* \"contracts/STEMMER_flattened.sol\":29196:29333  function setTreasury(address _treasury) external onlyOwner {... */\n    tag_28:\n      tag_132\n      0x04\n      dup1\n      calldatasize\n      sub\n      dup2\n      add\n      swap1\n      tag_133\n      swap2\n      swap1\n      tag_53\n      jump\t// in\n    tag_133:\n      tag_134\n      jump\t// in\n    tag_132:\n      stop\n        /* \"contracts/STEMMER_flattened.sol\":25157:25186  address public profitTreasury */\n    tag_29:\n      tag_135\n      tag_136\n      jump\t// in\n    tag_135:\n      mload(0x40)\n      tag_137\n      swap2\n      swap1\n      tag_84\n      jump\t// in\n    tag_137:\n      mload(0x40)\n      dup1\n      swap2\n      sub\n      swap1\n      return\n        /* \"contracts/STEMMER_flattened.sol\":24295:24510  function transferOwnership(address newOwner) public virtual onlyOwner {... */\n    tag_30:\n      tag_138\n      0x04\n      dup1\n      calldatasize\n      sub\n      dup2\n      add\n      swap1\n      tag_139\n      swap2\n      swap1\n      tag_53\n      jump\t// in\n    tag_139:\n      tag_140\n      jump\t// in\n    tag_138:\n      stop\n        /* \"contracts/STEMMER_flattened.sol\":25225:25255  uint256 public profitThreshold */\n    tag_31:\n      tag_141\n      tag_142\n      jump\t// in\n    tag_141:\n      mload(0x40)\n      tag_143\n      swap2\n      swap1\n      tag_61\n      jump\t// in\n    tag_143:\n      mload(0x40)\n      dup1\n      swap2\n      sub\n      swap1\n      return\n        /* \"contracts/STEMMER_flattened.sol\":24989:25018  uint256 public buyRate = 1e18 */\n    tag_32:\n      tag_144\n      tag_145\n      jump\t// in\n    tag_144:\n      mload(0x40)\n      tag_146\n      swap2\n      swap1\n      tag_61\n      jump\t// in\n    tag_146:\n      mload(0x40)\n      dup1\n      swap2\n      sub\n      swap1\n      return\n        /* \"contracts/STEMMER_flattened.sol\":29866:30149  function withdrawAccumulatedProfit() external onlyOwner {... */\n    tag_33:\n      tag_147\n      tag_148\n      jump\t// in\n    tag_147:\n      stop\n        /* \"contracts/STEMMER_flattened.sol\":12660:12749  function name() public view virtual returns (string memory) {... */\n    tag_42:\n        /* \"contracts/STEMMER_flattened.sol\":12705:12718  string memory */\n      0x60\n        /* \"contracts/STEMMER_flattened.sol\":12737:12742  _name */\n      0x03\n        /* \"contracts/STEMMER_flattened.sol\":12730:12742  return _name */\n      dup1\n      sload\n      tag_150\n      swap1\n      tag_151\n      jump\t// in\n    tag_150:\n      dup1\n      0x1f\n      add\n      0x20\n      dup1\n      swap2\n      div\n      mul\n      0x20\n      add\n      mload(0x40)\n      swap1\n      dup2\n      add\n      0x40\n      mstore\n      dup1\n      swap3\n      swap2\n      swap1\n      dup2\n      dup2\n      mstore\n      0x20\n      add\n      dup3\n      dup1\n      sload\n      tag_152\n      swap1\n      tag_151\n      jump\t// in\n    tag_152:\n      dup1\n      iszero\n      tag_153\n      jumpi\n      dup1\n      0x1f\n      lt\n      tag_154\n      jumpi\n      0x0100\n      dup1\n      dup4\n      sload\n      div\n      mul\n      dup4\n      mstore\n      swap2\n      0x20\n      add\n      swap2\n      jump(tag_153)\n    tag_154:\n      dup3\n      add\n      swap2\n      swap1\n      0x00\n      mstore\n      keccak256(0x00, 0x20)\n      swap1\n    tag_155:\n      dup2\n      sload\n      dup2\n      mstore\n      swap1\n      0x01\n      add\n      swap1\n      0x20\n      add\n      dup1\n      dup4\n      gt\n      tag_155\n      jumpi\n      dup3\n      swap1\n      sub\n      0x1f\n      and\n      dup3\n      add\n      swap2\n    tag_153:\n      pop\n      pop\n      pop\n      pop\n      pop\n      swap1\n      pop\n        /* \"contracts/STEMMER_flattened.sol\":12660:12749  function name() public view virtual returns (string memory) {... */\n      swap1\n      jump\t// out\n        /* \"contracts/STEMMER_flattened.sol\":14879:15065  function approve(address spender, uint256 value) public virtual returns (bool) {... */\n    tag_48:\n        /* \"contracts/STEMMER_flattened.sol\":14952:14956  bool */\n      0x00\n        /* \"contracts/STEMMER_flattened.sol\":14968:14981  address owner */\n      dup1\n        /* \"contracts/STEMMER_flattened.sol\":14984:14996  _msgSender() */\n      tag_157\n        /* \"contracts/STEMMER_flattened.sol\":14984:14994  _msgSender */\n      tag_158\n        /* \"contracts/STEMMER_flattened.sol\":14984:14996  _msgSender() */\n      jump\t// in\n    tag_157:\n        /* \"contracts/STEMMER_flattened.sol\":14968:14996  address owner = _msgSender() */\n      swap1\n      pop\n        /* \"contracts/STEMMER_flattened.sol\":15006:15037  _approve(owner, spender, value) */\n      tag_159\n        /* \"contracts/STEMMER_flattened.sol\":15015:15020  owner */\n      dup2\n        /* \"contracts/STEMMER_flattened.sol\":15022:15029  spender */\n      dup6\n        /* \"contracts/STEMMER_flattened.sol\":15031:15036  value */\n      dup6\n        /* \"contracts/STEMMER_flattened.sol\":15006:15014  _approve */\n      tag_160\n        /* \"contracts/STEMMER_flattened.sol\":15006:15037  _approve(owner, spender, value) */\n      jump\t// in\n    tag_159:\n        /* \"contracts/STEMMER_flattened.sol\":15054:15058  true */\n      0x01\n        /* \"contracts/STEMMER_flattened.sol\":15047:15058  return true */\n      swap2\n      pop\n      pop\n        /* \"contracts/STEMMER_flattened.sol\":14879:15065  function approve(address spender, uint256 value) public virtual returns (bool) {... */\n      swap3\n      swap2\n      pop\n      pop\n      jump\t// out\n        /* \"contracts/STEMMER_flattened.sol\":29376:29531  function setProfitTreasury(address _treasury) external onlyOwner {... */\n    tag_54:\n        /* \"contracts/STEMMER_flattened.sol\":23283:23296  _checkOwner() */\n      tag_162\n        /* \"contracts/STEMMER_flattened.sol\":23283:23294  _checkOwner */\n      tag_163\n        /* \"contracts/STEMMER_flattened.sol\":23283:23296  _checkOwner() */\n      jump\t// in\n    tag_162:\n        /* \"contracts/STEMMER_flattened.sol\":29468:29477  _treasury */\n      dup1\n        /* \"contracts/STEMMER_flattened.sol\":29451:29465  profitTreasury */\n      0x0a\n      0x00\n        /* \"contracts/STEMMER_flattened.sol\":29451:29477  profitTreasury = _treasury */\n      0x0100\n      exp\n      dup2\n      sload\n      dup2\n      0xffffffffffffffffffffffffffffffffffffffff\n      mul\n      not\n      and\n      swap1\n      dup4\n      0xffffffffffffffffffffffffffffffffffffffff\n      and\n      mul\n      or\n      swap1\n      sstore\n      pop\n        /* \"contracts/STEMMER_flattened.sol\":29514:29523  _treasury */\n      dup1\n        /* \"contracts/STEMMER_flattened.sol\":29492:29524  ProfitTreasuryChanged(_treasury) */\n      0xffffffffffffffffffffffffffffffffffffffff\n      and\n      0x56d7403454282c9d1b884c3bdcfe0c09772c704ad0b14978c55bf72867485b\n      mload(0x40)\n      mload(0x40)\n      dup1\n      swap2\n      sub\n      swap1\n      log2\n        /* \"contracts/STEMMER_flattened.sol\":29376:29531  function setProfitTreasury(address _treasury) external onlyOwner {... */\n      pop\n      jump\t// out\n        /* \"contracts/STEMMER_flattened.sol\":28969:29153  function withdrawUSDT(address to, uint256 amount) external onlyOwner {... */\n    tag_57:\n        /* \"contracts/STEMMER_flattened.sol\":23283:23296  _checkOwner() */\n      tag_166\n        /* \"contracts/STEMMER_flattened.sol\":23283:23294  _checkOwner */\n      tag_163\n        /* \"contracts/STEMMER_flattened.sol\":23283:23296  _checkOwner() */\n      jump\t// in\n    tag_166:\n        /* \"contracts/STEMMER_flattened.sol\":29056:29065  usdtToken */\n      0x06\n      0x00\n      swap1\n      sload\n      swap1\n      0x0100\n      exp\n      swap1\n      div\n      0xffffffffffffffffffffffffffffffffffffffff\n      and\n        /* \"contracts/STEMMER_flattened.sol\":29056:29074  usdtToken.transfer */\n      0xffffffffffffffffffffffffffffffffffffffff\n      and\n      0xa9059cbb\n        /* \"contracts/STEMMER_flattened.sol\":29075:29077  to */\n      dup4\n        /* \"contracts/STEMMER_flattened.sol\":29079:29085  amount */\n      dup4\n        /* \"contracts/STEMMER_flattened.sol\":29056:29086  usdtToken.transfer(to, amount) */\n      mload(0x40)\n      dup4\n      0xffffffff\n      and\n      0xe0\n      shl\n      dup2\n      mstore\n      0x04\n      add\n      tag_168\n      swap3\n      swap2\n      swap1\n      tag_169\n      jump\t// in\n    tag_168:\n      0x20\n      mload(0x40)\n      dup1\n      dup4\n      sub\n      dup2\n      0x00\n      dup8\n      gas\n      call\n      iszero\n      dup1\n      iszero\n      tag_171\n      jumpi\n      returndatasize\n      0x00\n      dup1\n      returndatacopy\n      revert(0x00, returndatasize)\n    tag_171:\n      pop\n      pop\n      pop\n      pop\n      mload(0x40)\n      returndatasize\n      not(0x1f)\n      0x1f\n      dup3\n      add\n      and\n      dup3\n      add\n      dup1\n      0x40\n      mstore\n      pop\n      dup2\n      add\n      swap1\n      tag_172\n      swap2\n      swap1\n      tag_173\n      jump\t// in\n    tag_172:\n        /* \"contracts/STEMMER_flattened.sol\":29048:29106  require(usdtToken.transfer(to, amount), \"Withdraw failed\") */\n      tag_174\n      jumpi\n      mload(0x40)\n      0x08c379a000000000000000000000000000000000000000000000000000000000\n      dup2\n      mstore\n      0x04\n      add\n      tag_175\n      swap1\n      tag_176\n      jump\t// in\n    tag_175:\n      mload(0x40)\n      dup1\n      swap2\n      sub\n      swap1\n      revert\n    tag_174:\n        /* \"contracts/STEMMER_flattened.sol\":29135:29137  to */\n      dup2\n        /* \"contracts/STEMMER_flattened.sol\":29121:29146  USDTWithdrawn(to, amount) */\n      0xffffffffffffffffffffffffffffffffffffffff\n      and\n      0xb0bd88cdae83f74f918eb6bf26d99dcb3c1530530f339233b029e3b6a00ac50b\n        /* \"contracts/STEMMER_flattened.sol\":29139:29145  amount */\n      dup3\n        /* \"contracts/STEMMER_flattened.sol\":29121:29146  USDTWithdrawn(to, amount) */\n      mload(0x40)\n      tag_177\n      swap2\n      swap1\n      tag_61\n      jump\t// in\n    tag_177:\n      mload(0x40)\n      dup1\n      swap2\n      sub\n      swap1\n      log2\n        /* \"contracts/STEMMER_flattened.sol\":28969:29153  function withdrawUSDT(address to, uint256 amount) external onlyOwner {... */\n      pop\n      pop\n      jump\t// out\n        /* \"contracts/STEMMER_flattened.sol\":13730:13827  function totalSupply() public view virtual returns (uint256) {... */\n    tag_59:\n        /* \"contracts/STEMMER_flattened.sol\":13782:13789  uint256 */\n      0x00\n        /* \"contracts/STEMMER_flattened.sol\":13808:13820  _totalSupply */\n      sload(0x02)\n        /* \"contracts/STEMMER_flattened.sol\":13801:13820  return _totalSupply */\n      swap1\n      pop\n        /* \"contracts/STEMMER_flattened.sol\":13730:13827  function totalSupply() public view virtual returns (uint256) {... */\n      swap1\n      jump\t// out\n        /* \"contracts/STEMMER_flattened.sol\":15657:15901  function transferFrom(address from, address to, uint256 value) public virtual returns (bool) {... */\n    tag_65:\n        /* \"contracts/STEMMER_flattened.sol\":15744:15748  bool */\n      0x00\n        /* \"contracts/STEMMER_flattened.sol\":15760:15775  address spender */\n      dup1\n        /* \"contracts/STEMMER_flattened.sol\":15778:15790  _msgSender() */\n      tag_180\n        /* \"contracts/STEMMER_flattened.sol\":15778:15788  _msgSender */\n      tag_158\n        /* \"contracts/STEMMER_flattened.sol\":15778:15790  _msgSender() */\n      jump\t// in\n    tag_180:\n        /* \"contracts/STEMMER_flattened.sol\":15760:15790  address spender = _msgSender() */\n      swap1\n      pop\n        /* \"contracts/STEMMER_flattened.sol\":15800:15837  _spendAllowance(from, spender, value) */\n      tag_181\n        /* \"contracts/STEMMER_flattened.sol\":15816:15820  from */\n      dup6\n        /* \"contracts/STEMMER_flattened.sol\":15822:15829  spender */\n      dup3\n        /* \"contracts/STEMMER_flattened.sol\":15831:15836  value */\n      dup6\n        /* \"contracts/STEMMER_flattened.sol\":15800:15815  _spendAllowance */\n      tag_182\n        /* \"contracts/STEMMER_flattened.sol\":15800:15837  _spendAllowance(from, spender, value) */\n      jump\t// in\n    tag_181:\n        /* \"contracts/STEMMER_flattened.sol\":15847:15873  _transfer(from, to, value) */\n      tag_183\n        /* \"contracts/STEMMER_flattened.sol\":15857:15861  from */\n      dup6\n        /* \"contracts/STEMMER_flattened.sol\":15863:15865  to */\n      dup6\n        /* \"contracts/STEMMER_flattened.sol\":15867:15872  value */\n      dup6\n        /* \"contracts/STEMMER_flattened.sol\":15847:15856  _transfer */\n      tag_184\n        /* \"contracts/STEMMER_flattened.sol\":15847:15873  _transfer(from, to, value) */\n      jump\t// in\n    tag_183:\n        /* \"contracts/STEMMER_flattened.sol\":15890:15894  true */\n      0x01\n        /* \"contracts/STEMMER_flattened.sol\":15883:15894  return true */\n      swap2\n      pop\n      pop\n        /* \"contracts/STEMMER_flattened.sol\":15657:15901  function transferFrom(address from, address to, uint256 value) public virtual returns (bool) {... */\n      swap4\n      swap3\n      pop\n      pop\n      pop\n      jump\t// out\n        /* \"contracts/STEMMER_flattened.sol\":29575:29802  function setProfitThreshold(uint256 newThreshold) external onlyOwner {... */\n    tag_70:\n        /* \"contracts/STEMMER_flattened.sol\":23283:23296  _checkOwner() */\n      tag_186\n        /* \"contracts/STEMMER_flattened.sol\":23283:23294  _checkOwner */\n      tag_163\n        /* \"contracts/STEMMER_flattened.sol\":23283:23296  _checkOwner() */\n      jump\t// in\n    tag_186:\n        /* \"contracts/STEMMER_flattened.sol\":29677:29678  0 */\n      0x00\n        /* \"contracts/STEMMER_flattened.sol\":29662:29674  newThreshold */\n      dup2\n        /* \"contracts/STEMMER_flattened.sol\":29662:29678  newThreshold > 0 */\n      gt\n        /* \"contracts/STEMMER_flattened.sol\":29654:29704  require(newThreshold > 0, \"Threshold must be > 0\") */\n      tag_188\n      jumpi\n      mload(0x40)\n      0x08c379a000000000000000000000000000000000000000000000000000000000\n      dup2\n      mstore\n      0x04\n      add\n      tag_189\n      swap1\n      tag_190\n      jump\t// in\n    tag_189:\n      mload(0x40)\n      dup1\n      swap2\n      sub\n      swap1\n      revert\n    tag_188:\n        /* \"contracts/STEMMER_flattened.sol\":29732:29744  newThreshold */\n      dup1\n        /* \"contracts/STEMMER_flattened.sol\":29714:29729  profitThreshold */\n      0x0b\n        /* \"contracts/STEMMER_flattened.sol\":29714:29744  profitThreshold = newThreshold */\n      dup2\n      swap1\n      sstore\n      pop\n        /* \"contracts/STEMMER_flattened.sol\":29759:29795  ProfitThresholdUpdated(newThreshold) */\n      0xc5023cc86199e71ca52157b0b124ddbda596c9fb8bab5bb7028d162fa3ed5545\n        /* \"contracts/STEMMER_flattened.sol\":29782:29794  newThreshold */\n      dup2\n        /* \"contracts/STEMMER_flattened.sol\":29759:29795  ProfitThresholdUpdated(newThreshold) */\n      mload(0x40)\n      tag_191\n      swap2\n      swap1\n      tag_61\n      jump\t// in\n    tag_191:\n      mload(0x40)\n      dup1\n      swap2\n      sub\n      swap1\n      log1\n        /* \"contracts/STEMMER_flattened.sol\":29575:29802  function setProfitThreshold(uint256 newThreshold) external onlyOwner {... */\n      pop\n      jump\t// out\n        /* \"contracts/STEMMER_flattened.sol\":13588:13670  function decimals() public view virtual returns (uint8) {... */\n    tag_72:\n        /* \"contracts/STEMMER_flattened.sol\":13637:13642  uint8 */\n      0x00\n        /* \"contracts/STEMMER_flattened.sol\":13661:13663  18 */\n      0x12\n        /* \"contracts/STEMMER_flattened.sol\":13654:13663  return 18 */\n      swap1\n      pop\n        /* \"contracts/STEMMER_flattened.sol\":13588:13670  function decimals() public view virtual returns (uint8) {... */\n      swap1\n      jump\t// out\n        /* \"contracts/STEMMER_flattened.sol\":28054:28189  function mint(address to, uint256 amount) external onlyOwner {... */\n    tag_77:\n        /* \"contracts/STEMMER_flattened.sol\":23283:23296  _checkOwner() */\n      tag_194\n        /* \"contracts/STEMMER_flattened.sol\":23283:23294  _checkOwner */\n      tag_163\n        /* \"contracts/STEMMER_flattened.sol\":23283:23296  _checkOwner() */\n      jump\t// in\n    tag_194:\n        /* \"contracts/STEMMER_flattened.sol\":28125:28149  _mint(to, amount * 1e18) */\n      tag_196\n        /* \"contracts/STEMMER_flattened.sol\":28131:28133  to */\n      dup3\n        /* \"contracts/STEMMER_flattened.sol\":28144:28148  1e18 */\n      0x0de0b6b3a7640000\n        /* \"contracts/STEMMER_flattened.sol\":28135:28141  amount */\n      dup4\n        /* \"contracts/STEMMER_flattened.sol\":28135:28148  amount * 1e18 */\n      tag_197\n      swap2\n      swap1\n      tag_198\n      jump\t// in\n    tag_197:\n        /* \"contracts/STEMMER_flattened.sol\":28125:28130  _mint */\n      tag_199\n        /* \"contracts/STEMMER_flattened.sol\":28125:28149  _mint(to, amount * 1e18) */\n      jump\t// in\n    tag_196:\n        /* \"contracts/STEMMER_flattened.sol\":28171:28173  to */\n      dup2\n        /* \"contracts/STEMMER_flattened.sol\":28164:28182  Minted(to, amount) */\n      0xffffffffffffffffffffffffffffffffffffffff\n      and\n      0x30385c845b448a36257a6a1716e6ad2e1bc2cbe333cde1e69fe849ad6511adfe\n        /* \"contracts/STEMMER_flattened.sol\":28175:28181  amount */\n      dup3\n        /* \"contracts/STEMMER_flattened.sol\":28164:28182  Minted(to, amount) */\n      mload(0x40)\n      tag_200\n      swap2\n      swap1\n      tag_61\n      jump\t// in\n    tag_200:\n      mload(0x40)\n      dup1\n      swap2\n      sub\n      swap1\n      log2\n        /* \"contracts/STEMMER_flattened.sol\":28054:28189  function mint(address to, uint256 amount) external onlyOwner {... */\n      pop\n      pop\n      jump\t// out\n        /* \"contracts/STEMMER_flattened.sol\":26929:28019  function sellStem(uint256 stemAmount) external {... */\n    tag_80:\n        /* \"contracts/STEMMER_flattened.sol\":27007:27008  0 */\n      0x00\n        /* \"contracts/STEMMER_flattened.sol\":26994:27004  stemAmount */\n      dup2\n        /* \"contracts/STEMMER_flattened.sol\":26994:27008  stemAmount > 0 */\n      gt\n        /* \"contracts/STEMMER_flattened.sol\":26986:27042  require(stemAmount > 0, \"Amount must be greater than 0\") */\n      tag_202\n      jumpi\n      mload(0x40)\n      0x08c379a000000000000000000000000000000000000000000000000000000000\n      dup2\n      mstore\n      0x04\n      add\n      tag_203\n      swap1\n      tag_204\n      jump\t// in\n    tag_203:\n      mload(0x40)\n      dup1\n      swap2\n      sub\n      swap1\n      revert\n    tag_202:\n        /* \"contracts/STEMMER_flattened.sol\":27104:27122  uint256 usdtAmount */\n      0x00\n        /* \"contracts/STEMMER_flattened.sol\":27147:27155  sellRate */\n      sload(0x08)\n        /* \"contracts/STEMMER_flattened.sol\":27139:27143  1e18 */\n      0x0de0b6b3a7640000\n        /* \"contracts/STEMMER_flattened.sol\":27126:27136  stemAmount */\n      dup4\n        /* \"contracts/STEMMER_flattened.sol\":27126:27143  stemAmount * 1e18 */\n      tag_205\n      swap2\n      swap1\n      tag_198\n      jump\t// in\n    tag_205:\n        /* \"contracts/STEMMER_flattened.sol\":27125:27155  (stemAmount * 1e18) / sellRate */\n      tag_206\n      swap2\n      swap1\n      tag_207\n      jump\t// in\n    tag_206:\n        /* \"contracts/STEMMER_flattened.sol\":27104:27155  uint256 usdtAmount = (stemAmount * 1e18) / sellRate */\n      swap1\n      pop\n        /* \"contracts/STEMMER_flattened.sol\":27219:27241  uint256 fairUsdtAmount */\n      0x00\n        /* \"contracts/STEMMER_flattened.sol\":27257:27261  1e18 */\n      0x0de0b6b3a7640000\n        /* \"contracts/STEMMER_flattened.sol\":27244:27254  stemAmount */\n      dup4\n        /* \"contracts/STEMMER_flattened.sol\":27244:27261  stemAmount / 1e18 */\n      tag_208\n      swap2\n      swap1\n      tag_207\n      jump\t// in\n    tag_208:\n        /* \"contracts/STEMMER_flattened.sol\":27219:27261  uint256 fairUsdtAmount = stemAmount / 1e18 */\n      swap1\n      pop\n        /* \"contracts/STEMMER_flattened.sol\":27271:27292  uint256 expectedStems */\n      0x00\n        /* \"contracts/STEMMER_flattened.sol\":27312:27320  sellRate */\n      sload(0x08)\n        /* \"contracts/STEMMER_flattened.sol\":27295:27309  fairUsdtAmount */\n      dup3\n        /* \"contracts/STEMMER_flattened.sol\":27295:27320  fairUsdtAmount * sellRate */\n      tag_209\n      swap2\n      swap1\n      tag_198\n      jump\t// in\n    tag_209:\n        /* \"contracts/STEMMER_flattened.sol\":27271:27320  uint256 expectedStems = fairUsdtAmount * sellRate */\n      swap1\n      pop\n        /* \"contracts/STEMMER_flattened.sol\":27330:27349  uint256 profitStems */\n      0x00\n        /* \"contracts/STEMMER_flattened.sol\":27368:27378  stemAmount */\n      dup5\n        /* \"contracts/STEMMER_flattened.sol\":27352:27365  expectedStems */\n      dup3\n        /* \"contracts/STEMMER_flattened.sol\":27352:27378  expectedStems > stemAmount */\n      gt\n        /* \"contracts/STEMMER_flattened.sol\":27352:27411  expectedStems > stemAmount ? expectedStems - stemAmount : 0 */\n      tag_210\n      jumpi\n        /* \"contracts/STEMMER_flattened.sol\":27410:27411  0 */\n      0x00\n        /* \"contracts/STEMMER_flattened.sol\":27352:27411  expectedStems > stemAmount ? expectedStems - stemAmount : 0 */\n      jump(tag_211)\n    tag_210:\n        /* \"contracts/STEMMER_flattened.sol\":27397:27407  stemAmount */\n      dup5\n        /* \"contracts/STEMMER_flattened.sol\":27381:27394  expectedStems */\n      dup3\n        /* \"contracts/STEMMER_flattened.sol\":27381:27407  expectedStems - stemAmount */\n      tag_212\n      swap2\n      swap1\n      tag_213\n      jump\t// in\n    tag_212:\n        /* \"contracts/STEMMER_flattened.sol\":27352:27411  expectedStems > stemAmount ? expectedStems - stemAmount : 0 */\n    tag_211:\n        /* \"contracts/STEMMER_flattened.sol\":27330:27411  uint256 profitStems = expectedStems > stemAmount ? expectedStems - stemAmount : 0 */\n      swap1\n      pop\n        /* \"contracts/STEMMER_flattened.sol\":27467:27510  _transfer(msg.sender, treasury, stemAmount) */\n      tag_214\n        /* \"contracts/STEMMER_flattened.sol\":27477:27487  msg.sender */\n      caller\n        /* \"contracts/STEMMER_flattened.sol\":27489:27497  treasury */\n      0x09\n      0x00\n      swap1\n      sload\n      swap1\n      0x0100\n      exp\n      swap1\n      div\n      0xffffffffffffffffffffffffffffffffffffffff\n      and\n        /* \"contracts/STEMMER_flattened.sol\":27499:27509  stemAmount */\n      dup8\n        /* \"contracts/STEMMER_flattened.sol\":27467:27476  _transfer */\n      tag_184\n        /* \"contracts/STEMMER_flattened.sol\":27467:27510  _transfer(msg.sender, treasury, stemAmount) */\n      jump\t// in\n    tag_214:\n        /* \"contracts/STEMMER_flattened.sol\":27583:27584  0 */\n      0x00\n        /* \"contracts/STEMMER_flattened.sol\":27569:27580  profitStems */\n      dup2\n        /* \"contracts/STEMMER_flattened.sol\":27569:27584  profitStems > 0 */\n      gt\n        /* \"contracts/STEMMER_flattened.sol\":27569:27616  profitStems > 0 && profitTreasury != address(0) */\n      dup1\n      iszero\n      tag_215\n      jumpi\n      pop\n        /* \"contracts/STEMMER_flattened.sol\":27614:27615  0 */\n      0x00\n        /* \"contracts/STEMMER_flattened.sol\":27588:27616  profitTreasury != address(0) */\n      0xffffffffffffffffffffffffffffffffffffffff\n      and\n        /* \"contracts/STEMMER_flattened.sol\":27588:27602  profitTreasury */\n      0x0a\n      0x00\n      swap1\n      sload\n      swap1\n      0x0100\n      exp\n      swap1\n      div\n      0xffffffffffffffffffffffffffffffffffffffff\n      and\n        /* \"contracts/STEMMER_flattened.sol\":27588:27616  profitTreasury != address(0) */\n      0xffffffffffffffffffffffffffffffffffffffff\n      and\n      eq\n      iszero\n        /* \"contracts/STEMMER_flattened.sol\":27569:27616  profitStems > 0 && profitTreasury != address(0) */\n    tag_215:\n        /* \"contracts/STEMMER_flattened.sol\":27565:27857  if (profitStems > 0 && profitTreasury != address(0)) {... */\n      iszero\n      tag_216\n      jumpi\n        /* \"contracts/STEMMER_flattened.sol\":27653:27664  profitStems */\n      dup1\n        /* \"contracts/STEMMER_flattened.sol\":27632:27649  accumulatedProfit */\n      0x0c\n      0x00\n        /* \"contracts/STEMMER_flattened.sol\":27632:27664  accumulatedProfit += profitStems */\n      dup3\n      dup3\n      sload\n      tag_217\n      swap2\n      swap1\n      tag_218\n      jump\t// in\n    tag_217:\n      swap3\n      pop\n      pop\n      dup2\n      swap1\n      sstore\n      pop\n        /* \"contracts/STEMMER_flattened.sol\":27704:27719  profitThreshold */\n      sload(0x0b)\n        /* \"contracts/STEMMER_flattened.sol\":27683:27700  accumulatedProfit */\n      sload(0x0c)\n        /* \"contracts/STEMMER_flattened.sol\":27683:27719  accumulatedProfit >= profitThreshold */\n      lt\n        /* \"contracts/STEMMER_flattened.sol\":27679:27847  if (accumulatedProfit >= profitThreshold) {... */\n      tag_219\n      jumpi\n        /* \"contracts/STEMMER_flattened.sol\":27739:27793  _transfer(treasury, profitTreasury, accumulatedProfit) */\n      tag_220\n        /* \"contracts/STEMMER_flattened.sol\":27749:27757  treasury */\n      0x09\n      0x00\n      swap1\n      sload\n      swap1\n      0x0100\n      exp\n      swap1\n      div\n      0xffffffffffffffffffffffffffffffffffffffff\n      and\n        /* \"contracts/STEMMER_flattened.sol\":27759:27773  profitTreasury */\n      0x0a\n      0x00\n      swap1\n      sload\n      swap1\n      0x0100\n      exp\n      swap1\n      div\n      0xffffffffffffffffffffffffffffffffffffffff\n      and\n        /* \"contracts/STEMMER_flattened.sol\":27775:27792  accumulatedProfit */\n      sload(0x0c)\n        /* \"contracts/STEMMER_flattened.sol\":27739:27748  _transfer */\n      tag_184\n        /* \"contracts/STEMMER_flattened.sol\":27739:27793  _transfer(treasury, profitTreasury, accumulatedProfit) */\n      jump\t// in\n    tag_220:\n        /* \"contracts/STEMMER_flattened.sol\":27831:27832  0 */\n      0x00\n        /* \"contracts/STEMMER_flattened.sol\":27811:27828  accumulatedProfit */\n      0x0c\n        /* \"contracts/STEMMER_flattened.sol\":27811:27832  accumulatedProfit = 0 */\n      dup2\n      swap1\n      sstore\n      pop\n        /* \"contracts/STEMMER_flattened.sol\":27679:27847  if (accumulatedProfit >= profitThreshold) {... */\n    tag_219:\n        /* \"contracts/STEMMER_flattened.sol\":27565:27857  if (profitStems > 0 && profitTreasury != address(0)) {... */\n    tag_216:\n        /* \"contracts/STEMMER_flattened.sol\":27875:27884  usdtToken */\n      0x06\n      0x00\n      swap1\n      sload\n      swap1\n      0x0100\n      exp\n      swap1\n      div\n      0xffffffffffffffffffffffffffffffffffffffff\n      and\n        /* \"contracts/STEMMER_flattened.sol\":27875:27893  usdtToken.transfer */\n      0xffffffffffffffffffffffffffffffffffffffff\n      and\n      0xa9059cbb\n        /* \"contracts/STEMMER_flattened.sol\":27894:27904  msg.sender */\n      caller\n        /* \"contracts/STEMMER_flattened.sol\":27906:27916  usdtAmount */\n      dup7\n        /* \"contracts/STEMMER_flattened.sol\":27875:27917  usdtToken.transfer(msg.sender, usdtAmount) */\n      mload(0x40)\n      dup4\n      0xffffffff\n      and\n      0xe0\n      shl\n      dup2\n      mstore\n      0x04\n      add\n      tag_221\n      swap3\n      swap2\n      swap1\n      tag_169\n      jump\t// in\n    tag_221:\n      0x20\n      mload(0x40)\n      dup1\n      dup4\n      sub\n      dup2\n      0x00\n      dup8\n      gas\n      call\n      iszero\n      dup1\n      iszero\n      tag_223\n      jumpi\n      returndatasize\n      0x00\n      dup1\n      returndatacopy\n      revert(0x00, returndatasize)\n    tag_223:\n      pop\n      pop\n      pop\n      pop\n      mload(0x40)\n      returndatasize\n      not(0x1f)\n      0x1f\n      dup3\n      add\n      and\n      dup3\n      add\n      dup1\n      0x40\n      mstore\n      pop\n      dup2\n      add\n      swap1\n      tag_224\n      swap2\n      swap1\n      tag_173\n      jump\t// in\n    tag_224:\n        /* \"contracts/STEMMER_flattened.sol\":27867:27940  require(usdtToken.transfer(msg.sender, usdtAmount), \"USDT payout failed\") */\n      tag_225\n      jumpi\n      mload(0x40)\n      0x08c379a000000000000000000000000000000000000000000000000000000000\n      dup2\n      mstore\n      0x04\n      add\n      tag_226\n      swap1\n      tag_227\n      jump\t// in\n    tag_226:\n      mload(0x40)\n      dup1\n      swap2\n      sub\n      swap1\n      revert\n    tag_225:\n        /* \"contracts/STEMMER_flattened.sol\":27964:27974  msg.sender */\n      caller\n        /* \"contracts/STEMMER_flattened.sol\":27955:28012  SellStem(msg.sender, stemAmount, usdtAmount, profitStems) */\n      0xffffffffffffffffffffffffffffffffffffffff\n      and\n      0x91b69b546d2910ad29983da9d221cf0ebae5eb1929083361f4d6c95878cdb420\n        /* \"contracts/STEMMER_flattened.sol\":27976:27986  stemAmount */\n      dup7\n        /* \"contracts/STEMMER_flattened.sol\":27988:27998  usdtAmount */\n      dup7\n        /* \"contracts/STEMMER_flattened.sol\":28000:28011  profitStems */\n      dup5\n        /* \"contracts/STEMMER_flattened.sol\":27955:28012  SellStem(msg.sender, stemAmount, usdtAmount, profitStems) */\n      mload(0x40)\n      tag_228\n      swap4\n      swap3\n      swap2\n      swap1\n      tag_229\n      jump\t// in\n    tag_228:\n      mload(0x40)\n      dup1\n      swap2\n      sub\n      swap1\n      log2\n        /* \"contracts/STEMMER_flattened.sol\":26976:28019  {... */\n      pop\n      pop\n      pop\n      pop\n        /* \"contracts/STEMMER_flattened.sol\":26929:28019  function sellStem(uint256 stemAmount) external {... */\n      pop\n      jump\t// out\n        /* \"contracts/STEMMER_flattened.sol\":25128:25151  address public treasury */\n    tag_82:\n      0x09\n      0x00\n      swap1\n      sload\n      swap1\n      0x0100\n      exp\n      swap1\n      div\n      0xffffffffffffffffffffffffffffffffffffffff\n      and\n      dup2\n      jump\t// out\n        /* \"contracts/STEMMER_flattened.sol\":25055:25085  uint256 public sellRate = 1e18 */\n    tag_86:\n      sload(0x08)\n      dup2\n      jump\t// out\n        /* \"contracts/STEMMER_flattened.sol\":13885:14001  function balanceOf(address account) public view virtual returns (uint256) {... */\n    tag_90:\n        /* \"contracts/STEMMER_flattened.sol\":13950:13957  uint256 */\n      0x00\n        /* \"contracts/STEMMER_flattened.sol\":13976:13985  _balances */\n      dup1\n        /* \"contracts/STEMMER_flattened.sol\":13976:13994  _balances[account] */\n      0x00\n        /* \"contracts/STEMMER_flattened.sol\":13986:13993  account */\n      dup4\n        /* \"contracts/STEMMER_flattened.sol\":13976:13994  _balances[account] */\n      0xffffffffffffffffffffffffffffffffffffffff\n      and\n      0xffffffffffffffffffffffffffffffffffffffff\n      and\n      dup2\n      mstore\n      0x20\n      add\n      swap1\n      dup2\n      mstore\n      0x20\n      add\n      0x00\n      keccak256\n      sload\n        /* \"contracts/STEMMER_flattened.sol\":13969:13994  return _balances[account] */\n      swap1\n      pop\n        /* \"contracts/STEMMER_flattened.sol\":13885:14001  function balanceOf(address account) public view virtual returns (uint256) {... */\n      swap2\n      swap1\n      pop\n      jump\t// out\n        /* \"contracts/STEMMER_flattened.sol\":24045:24146  function renounceOwnership() public virtual onlyOwner {... */\n    tag_93:\n        /* \"contracts/STEMMER_flattened.sol\":23283:23296  _checkOwner() */\n      tag_232\n        /* \"contracts/STEMMER_flattened.sol\":23283:23294  _checkOwner */\n      tag_163\n        /* \"contracts/STEMMER_flattened.sol\":23283:23296  _checkOwner() */\n      jump\t// in\n    tag_232:\n        /* \"contracts/STEMMER_flattened.sol\":24109:24139  _transferOwnership(address(0)) */\n      tag_234\n        /* \"contracts/STEMMER_flattened.sol\":24136:24137  0 */\n      0x00\n        /* \"contracts/STEMMER_flattened.sol\":24109:24127  _transferOwnership */\n      tag_235\n        /* \"contracts/STEMMER_flattened.sol\":24109:24139  _transferOwnership(address(0)) */\n      jump\t// in\n    tag_234:\n        /* \"contracts/STEMMER_flattened.sol\":24045:24146  function renounceOwnership() public virtual onlyOwner {... */\n      jump\t// out\n        /* \"contracts/STEMMER_flattened.sol\":25261:25293  uint256 public accumulatedProfit */\n    tag_95:\n      sload(0x0c)\n      dup2\n      jump\t// out\n        /* \"contracts/STEMMER_flattened.sol\":28413:28676  function setBuyRate(uint256 newRate) external onlyOwner {... */\n    tag_99:\n        /* \"contracts/STEMMER_flattened.sol\":23283:23296  _checkOwner() */\n      tag_237\n        /* \"contracts/STEMMER_flattened.sol\":23283:23294  _checkOwner */\n      tag_163\n        /* \"contracts/STEMMER_flattened.sol\":23283:23296  _checkOwner() */\n      jump\t// in\n    tag_237:\n        /* \"contracts/STEMMER_flattened.sol\":28498:28502  1e18 */\n      0x0de0b6b3a7640000\n        /* \"contracts/STEMMER_flattened.sol\":28487:28494  newRate */\n      dup2\n        /* \"contracts/STEMMER_flattened.sol\":28487:28502  newRate >= 1e18 */\n      lt\n      iszero\n        /* \"contracts/STEMMER_flattened.sol\":28479:28533  require(newRate >= 1e18, \"Buy rate must be >= 1 STEM\") */\n      tag_239\n      jumpi\n      mload(0x40)\n      0x08c379a000000000000000000000000000000000000000000000000000000000\n      dup2\n      mstore\n      0x04\n      add\n      tag_240\n      swap1\n      tag_241\n      jump\t// in\n    tag_240:\n      mload(0x40)\n      dup1\n      swap2\n      sub\n      swap1\n      revert\n    tag_239:\n        /* \"contracts/STEMMER_flattened.sol\":28562:28570  sellRate */\n      sload(0x08)\n        /* \"contracts/STEMMER_flattened.sol\":28551:28558  newRate */\n      dup2\n        /* \"contracts/STEMMER_flattened.sol\":28551:28570  newRate <= sellRate */\n      gt\n      iszero\n        /* \"contracts/STEMMER_flattened.sol\":28543:28604  require(newRate <= sellRate, \"Buy rate must be <= Sell rate\") */\n      tag_242\n      jumpi\n      mload(0x40)\n      0x08c379a000000000000000000000000000000000000000000000000000000000\n      dup2\n      mstore\n      0x04\n      add\n      tag_243\n      swap1\n      tag_244\n      jump\t// in\n    tag_243:\n      mload(0x40)\n      dup1\n      swap2\n      sub\n      swap1\n      revert\n    tag_242:\n        /* \"contracts/STEMMER_flattened.sol\":28624:28631  newRate */\n      dup1\n        /* \"contracts/STEMMER_flattened.sol\":28614:28621  buyRate */\n      0x07\n        /* \"contracts/STEMMER_flattened.sol\":28614:28631  buyRate = newRate */\n      dup2\n      swap1\n      sstore\n      pop\n        /* \"contracts/STEMMER_flattened.sol\":28646:28669  BuyRateUpdated(newRate) */\n      0xedd2200f5e00a665285f3c40e420ff44575a36d6abf0b366d132a22cc4fcb1\n        /* \"contracts/STEMMER_flattened.sol\":28661:28668  newRate */\n      dup2\n        /* \"contracts/STEMMER_flattened.sol\":28646:28669  BuyRateUpdated(newRate) */\n      mload(0x40)\n      tag_245\n      swap2\n      swap1\n      tag_61\n      jump\t// in\n    tag_245:\n      mload(0x40)\n      dup1\n      swap2\n      sub\n      swap1\n      log1\n        /* \"contracts/STEMMER_flattened.sol\":28413:28676  function setBuyRate(uint256 newRate) external onlyOwner {... */\n      pop\n      jump\t// out\n        /* \"contracts/STEMMER_flattened.sol\":23390:23475  function owner() public view virtual returns (address) {... */\n    tag_101:\n        /* \"contracts/STEMMER_flattened.sol\":23436:23443  address */\n      0x00\n        /* \"contracts/STEMMER_flattened.sol\":23462:23468  _owner */\n      0x05\n      0x00\n      swap1\n      sload\n      swap1\n      0x0100\n      exp\n      swap1\n      div\n      0xffffffffffffffffffffffffffffffffffffffff\n      and\n        /* \"contracts/STEMMER_flattened.sol\":23455:23468  return _owner */\n      swap1\n      pop\n        /* \"contracts/STEMMER_flattened.sol\":23390:23475  function owner() public view virtual returns (address) {... */\n      swap1\n      jump\t// out\n        /* \"contracts/STEMMER_flattened.sol\":28717:28930  function setSellRate(uint256 newRate) external onlyOwner {... */\n    tag_105:\n        /* \"contracts/STEMMER_flattened.sol\":23283:23296  _checkOwner() */\n      tag_248\n        /* \"contracts/STEMMER_flattened.sol\":23283:23294  _checkOwner */\n      tag_163\n        /* \"contracts/STEMMER_flattened.sol\":23283:23296  _checkOwner() */\n      jump\t// in\n    tag_248:\n        /* \"contracts/STEMMER_flattened.sol\":28803:28807  1e18 */\n      0x0de0b6b3a7640000\n        /* \"contracts/STEMMER_flattened.sol\":28792:28799  newRate */\n      dup2\n        /* \"contracts/STEMMER_flattened.sol\":28792:28807  newRate >= 1e18 */\n      lt\n      iszero\n        /* \"contracts/STEMMER_flattened.sol\":28784:28856  require(newRate >= 1e18, unicode\"Sell rate must be â‰¥ 1 STEM per USDT\") */\n      tag_250\n      jumpi\n      mload(0x40)\n      0x08c379a000000000000000000000000000000000000000000000000000000000\n      dup2\n      mstore\n      0x04\n      add\n      tag_251\n      swap1\n      tag_252\n      jump\t// in\n    tag_251:\n      mload(0x40)\n      dup1\n      swap2\n      sub\n      swap1\n      revert\n    tag_250:\n        /* \"contracts/STEMMER_flattened.sol\":28877:28884  newRate */\n      dup1\n        /* \"contracts/STEMMER_flattened.sol\":28866:28874  sellRate */\n      0x08\n        /* \"contracts/STEMMER_flattened.sol\":28866:28884  sellRate = newRate */\n      dup2\n      swap1\n      sstore\n      pop\n        /* \"contracts/STEMMER_flattened.sol\":28899:28923  SellRateUpdated(newRate) */\n      0xbd74ca4c80e5eafe62d339abf0f9676e065fe0f2ebca0689e97dd5730ce4d8ab\n        /* \"contracts/STEMMER_flattened.sol\":28915:28922  newRate */\n      dup2\n        /* \"contracts/STEMMER_flattened.sol\":28899:28923  SellRateUpdated(newRate) */\n      mload(0x40)\n      tag_253\n      swap2\n      swap1\n      tag_61\n      jump\t// in\n    tag_253:\n      mload(0x40)\n      dup1\n      swap2\n      sub\n      swap1\n      log1\n        /* \"contracts/STEMMER_flattened.sol\":28717:28930  function setSellRate(uint256 newRate) external onlyOwner {... */\n      pop\n      jump\t// out\n        /* \"contracts/STEMMER_flattened.sol\":12862:12955  function symbol() public view virtual returns (string memory) {... */\n    tag_107:\n        /* \"contracts/STEMMER_flattened.sol\":12909:12922  string memory */\n      0x60\n        /* \"contracts/STEMMER_flattened.sol\":12941:12948  _symbol */\n      0x04\n        /* \"contracts/STEMMER_flattened.sol\":12934:12948  return _symbol */\n      dup1\n      sload\n      tag_255\n      swap1\n      tag_151\n      jump\t// in\n    tag_255:\n      dup1\n      0x1f\n      add\n      0x20\n      dup1\n      swap2\n      div\n      mul\n      0x20\n      add\n      mload(0x40)\n      swap1\n      dup2\n      add\n      0x40\n      mstore\n      dup1\n      swap3\n      swap2\n      swap1\n      dup2\n      dup2\n      mstore\n      0x20\n      add\n      dup3\n      dup1\n      sload\n      tag_256\n      swap1\n      tag_151\n      jump\t// in\n    tag_256:\n      dup1\n      iszero\n      tag_257\n      jumpi\n      dup1\n      0x1f\n      lt\n      tag_258\n      jumpi\n      0x0100\n      dup1\n      dup4\n      sload\n      div\n      mul\n      dup4\n      mstore\n      swap2\n      0x20\n      add\n      swap2\n      jump(tag_257)\n    tag_258:\n      dup3\n      add\n      swap2\n      swap1\n      0x00\n      mstore\n      keccak256(0x00, 0x20)\n      swap1\n    tag_259:\n      dup2\n      sload\n      dup2\n      mstore\n      swap1\n      0x01\n      add\n      swap1\n      0x20\n      add\n      dup1\n      dup4\n      gt\n      tag_259\n      jumpi\n      dup3\n      swap1\n      sub\n      0x1f\n      and\n      dup3\n      add\n      swap2\n    tag_257:\n      pop\n      pop\n      pop\n      pop\n      pop\n      swap1\n      pop\n        /* \"contracts/STEMMER_flattened.sol\":12862:12955  function symbol() public view virtual returns (string memory) {... */\n      swap1\n      jump\t// out\n        /* \"contracts/STEMMER_flattened.sol\":28224:28365  function burn(address from, uint256 amount) external onlyOwner {... */\n    tag_111:\n        /* \"contracts/STEMMER_flattened.sol\":23283:23296  _checkOwner() */\n      tag_261\n        /* \"contracts/STEMMER_flattened.sol\":23283:23294  _checkOwner */\n      tag_163\n        /* \"contracts/STEMMER_flattened.sol\":23283:23296  _checkOwner() */\n      jump\t// in\n    tag_261:\n        /* \"contracts/STEMMER_flattened.sol\":28297:28323  _burn(from, amount * 1e18) */\n      tag_263\n        /* \"contracts/STEMMER_flattened.sol\":28303:28307  from */\n      dup3\n        /* \"contracts/STEMMER_flattened.sol\":28318:28322  1e18 */\n      0x0de0b6b3a7640000\n        /* \"contracts/STEMMER_flattened.sol\":28309:28315  amount */\n      dup4\n        /* \"contracts/STEMMER_flattened.sol\":28309:28322  amount * 1e18 */\n      tag_264\n      swap2\n      swap1\n      tag_198\n      jump\t// in\n    tag_264:\n        /* \"contracts/STEMMER_flattened.sol\":28297:28302  _burn */\n      tag_265\n        /* \"contracts/STEMMER_flattened.sol\":28297:28323  _burn(from, amount * 1e18) */\n      jump\t// in\n    tag_263:\n        /* \"contracts/STEMMER_flattened.sol\":28345:28349  from */\n      dup2\n        /* \"contracts/STEMMER_flattened.sol\":28338:28358  Burned(from, amount) */\n      0xffffffffffffffffffffffffffffffffffffffff\n      and\n      0x696de425f79f4a40bc6d2122ca50507f0efbeabbff86a84871b7196ab8ea8df7\n        /* \"contracts/STEMMER_flattened.sol\":28351:28357  amount */\n      dup3\n        /* \"contracts/STEMMER_flattened.sol\":28338:28358  Burned(from, amount) */\n      mload(0x40)\n      tag_266\n      swap2\n      swap1\n      tag_61\n      jump\t// in\n    tag_266:\n      mload(0x40)\n      dup1\n      swap2\n      sub\n      swap1\n      log2\n        /* \"contracts/STEMMER_flattened.sol\":28224:28365  function burn(address from, uint256 amount) external onlyOwner {... */\n      pop\n      pop\n      jump\t// out\n        /* \"contracts/STEMMER_flattened.sol\":14196:14374  function transfer(address to, uint256 value) public virtual returns (bool) {... */\n    tag_114:\n        /* \"contracts/STEMMER_flattened.sol\":14265:14269  bool */\n      0x00\n        /* \"contracts/STEMMER_flattened.sol\":14281:14294  address owner */\n      dup1\n        /* \"contracts/STEMMER_flattened.sol\":14297:14309  _msgSender() */\n      tag_268\n        /* \"contracts/STEMMER_flattened.sol\":14297:14307  _msgSender */\n      tag_158\n        /* \"contracts/STEMMER_flattened.sol\":14297:14309  _msgSender() */\n      jump\t// in\n    tag_268:\n        /* \"contracts/STEMMER_flattened.sol\":14281:14309  address owner = _msgSender() */\n      swap1\n      pop\n        /* \"contracts/STEMMER_flattened.sol\":14319:14346  _transfer(owner, to, value) */\n      tag_269\n        /* \"contracts/STEMMER_flattened.sol\":14329:14334  owner */\n      dup2\n        /* \"contracts/STEMMER_flattened.sol\":14336:14338  to */\n      dup6\n        /* \"contracts/STEMMER_flattened.sol\":14340:14345  value */\n      dup6\n        /* \"contracts/STEMMER_flattened.sol\":14319:14328  _transfer */\n      tag_184\n        /* \"contracts/STEMMER_flattened.sol\":14319:14346  _transfer(owner, to, value) */\n      jump\t// in\n    tag_269:\n        /* \"contracts/STEMMER_flattened.sol\":14363:14367  true */\n      0x01\n        /* \"contracts/STEMMER_flattened.sol\":14356:14367  return true */\n      swap2\n      pop\n      pop\n        /* \"contracts/STEMMER_flattened.sol\":14196:14374  function transfer(address to, uint256 value) public virtual returns (bool) {... */\n      swap3\n      swap2\n      pop\n      pop\n      jump\t// out\n        /* \"contracts/STEMMER_flattened.sol\":24959:24982  IERC20 public usdtToken */\n    tag_117:\n      0x06\n      0x00\n      swap1\n      sload\n      swap1\n      0x0100\n      exp\n      swap1\n      div\n      0xffffffffffffffffffffffffffffffffffffffff\n      and\n      dup2\n      jump\t// out\n        /* \"contracts/STEMMER_flattened.sol\":26508:26892  function buyStem(uint256 usdtAmount) external {... */\n    tag_122:\n        /* \"contracts/STEMMER_flattened.sol\":26585:26586  0 */\n      0x00\n        /* \"contracts/STEMMER_flattened.sol\":26572:26582  usdtAmount */\n      dup2\n        /* \"contracts/STEMMER_flattened.sol\":26572:26586  usdtAmount > 0 */\n      gt\n        /* \"contracts/STEMMER_flattened.sol\":26564:26620  require(usdtAmount > 0, \"Amount must be greater than 0\") */\n      tag_271\n      jumpi\n      mload(0x40)\n      0x08c379a000000000000000000000000000000000000000000000000000000000\n      dup2\n      mstore\n      0x04\n      add\n      tag_272\n      swap1\n      tag_204\n      jump\t// in\n    tag_272:\n      mload(0x40)\n      dup1\n      swap2\n      sub\n      swap1\n      revert\n    tag_271:\n        /* \"contracts/STEMMER_flattened.sol\":26631:26649  uint256 stemAmount */\n      0x00\n        /* \"contracts/STEMMER_flattened.sol\":26665:26669  1e18 */\n      0x0de0b6b3a7640000\n        /* \"contracts/STEMMER_flattened.sol\":26652:26662  usdtAmount */\n      dup3\n        /* \"contracts/STEMMER_flattened.sol\":26652:26669  usdtAmount * 1e18 */\n      tag_273\n      swap2\n      swap1\n      tag_198\n      jump\t// in\n    tag_273:\n        /* \"contracts/STEMMER_flattened.sol\":26631:26669  uint256 stemAmount = usdtAmount * 1e18 */\n      swap1\n      pop\n        /* \"contracts/STEMMER_flattened.sol\":26687:26696  usdtToken */\n      0x06\n      0x00\n      swap1\n      sload\n      swap1\n      0x0100\n      exp\n      swap1\n      div\n      0xffffffffffffffffffffffffffffffffffffffff\n      and\n        /* \"contracts/STEMMER_flattened.sol\":26687:26709  usdtToken.transferFrom */\n      0xffffffffffffffffffffffffffffffffffffffff\n      and\n      0x23b872dd\n        /* \"contracts/STEMMER_flattened.sol\":26710:26720  msg.sender */\n      caller\n        /* \"contracts/STEMMER_flattened.sol\":26730:26734  this */\n      address\n        /* \"contracts/STEMMER_flattened.sol\":26737:26747  usdtAmount */\n      dup6\n        /* \"contracts/STEMMER_flattened.sol\":26687:26748  usdtToken.transferFrom(msg.sender, address(this), usdtAmount) */\n      mload(0x40)\n      dup5\n      0xffffffff\n      and\n      0xe0\n      shl\n      dup2\n      mstore\n      0x04\n      add\n      tag_274\n      swap4\n      swap3\n      swap2\n      swap1\n      tag_275\n      jump\t// in\n    tag_274:\n      0x20\n      mload(0x40)\n      dup1\n      dup4\n      sub\n      dup2\n      0x00\n      dup8\n      gas\n      call\n      iszero\n      dup1\n      iszero\n      tag_277\n      jumpi\n      returndatasize\n      0x00\n      dup1\n      returndatacopy\n      revert(0x00, returndatasize)\n    tag_277:\n      pop\n      pop\n      pop\n      pop\n      mload(0x40)\n      returndatasize\n      not(0x1f)\n      0x1f\n      dup3\n      add\n      and\n      dup3\n      add\n      dup1\n      0x40\n      mstore\n      pop\n      dup2\n      add\n      swap1\n      tag_278\n      swap2\n      swap1\n      tag_173\n      jump\t// in\n    tag_278:\n        /* \"contracts/STEMMER_flattened.sol\":26679:26773  require(usdtToken.transferFrom(msg.sender, address(this), usdtAmount), \"USDT transfer failed\") */\n      tag_279\n      jumpi\n      mload(0x40)\n      0x08c379a000000000000000000000000000000000000000000000000000000000\n      dup2\n      mstore\n      0x04\n      add\n      tag_280\n      swap1\n      tag_281\n      jump\t// in\n    tag_280:\n      mload(0x40)\n      dup1\n      swap2\n      sub\n      swap1\n      revert\n    tag_279:\n        /* \"contracts/STEMMER_flattened.sol\":26784:26827  _transfer(treasury, msg.sender, stemAmount) */\n      tag_282\n        /* \"contracts/STEMMER_flattened.sol\":26794:26802  treasury */\n      0x09\n      0x00\n      swap1\n      sload\n      swap1\n      0x0100\n      exp\n      swap1\n      div\n      0xffffffffffffffffffffffffffffffffffffffff\n      and\n        /* \"contracts/STEMMER_flattened.sol\":26804:26814  msg.sender */\n      caller\n        /* \"contracts/STEMMER_flattened.sol\":26816:26826  stemAmount */\n      dup4\n        /* \"contracts/STEMMER_flattened.sol\":26784:26793  _transfer */\n      tag_184\n        /* \"contracts/STEMMER_flattened.sol\":26784:26827  _transfer(treasury, msg.sender, stemAmount) */\n      jump\t// in\n    tag_282:\n        /* \"contracts/STEMMER_flattened.sol\":26850:26860  msg.sender */\n      caller\n        /* \"contracts/STEMMER_flattened.sol\":26842:26885  BuyStem(msg.sender, usdtAmount, stemAmount) */\n      0xffffffffffffffffffffffffffffffffffffffff\n      and\n      0x59bb2bddff6a71f8747469b7104385348606a838f9a98de25c0793b2aa4dd0eb\n        /* \"contracts/STEMMER_flattened.sol\":26862:26872  usdtAmount */\n      dup4\n        /* \"contracts/STEMMER_flattened.sol\":26874:26884  stemAmount */\n      dup4\n        /* \"contracts/STEMMER_flattened.sol\":26842:26885  BuyStem(msg.sender, usdtAmount, stemAmount) */\n      mload(0x40)\n      tag_283\n      swap3\n      swap2\n      swap1\n      tag_284\n      jump\t// in\n    tag_283:\n      mload(0x40)\n      dup1\n      swap2\n      sub\n      swap1\n      log2\n        /* \"contracts/STEMMER_flattened.sol\":26554:26892  {... */\n      pop\n        /* \"contracts/STEMMER_flattened.sol\":26508:26892  function buyStem(uint256 usdtAmount) external {... */\n      pop\n      jump\t// out\n        /* \"contracts/STEMMER_flattened.sol\":30187:30971  function getConfig() external view returns (... */\n    tag_124:\n        /* \"contracts/STEMMER_flattened.sol\":30240:30256  uint256 _buyRate */\n      0x00\n        /* \"contracts/STEMMER_flattened.sol\":30266:30283  uint256 _sellRate */\n      dup1\n        /* \"contracts/STEMMER_flattened.sol\":30293:30310  address _treasury */\n      0x00\n        /* \"contracts/STEMMER_flattened.sol\":30320:30343  address _profitTreasury */\n      dup1\n        /* \"contracts/STEMMER_flattened.sol\":30353:30380  uint256 treasuryStemBalance */\n      0x00\n        /* \"contracts/STEMMER_flattened.sol\":30390:30415  uint256 profitStemBalance */\n      dup1\n        /* \"contracts/STEMMER_flattened.sol\":30425:30452  uint256 contractStemBalance */\n      0x00\n        /* \"contracts/STEMMER_flattened.sol\":30462:30489  uint256 contractUsdtBalance */\n      dup1\n        /* \"contracts/STEMMER_flattened.sol\":30499:30522  uint256 totalStemSupply */\n      0x00\n        /* \"contracts/STEMMER_flattened.sol\":30532:30558  uint256 _accumulatedProfit */\n      dup1\n        /* \"contracts/STEMMER_flattened.sol\":30568:30592  uint256 _profitThreshold */\n      0x00\n        /* \"contracts/STEMMER_flattened.sol\":30630:30637  buyRate */\n      sload(0x07)\n        /* \"contracts/STEMMER_flattened.sol\":30651:30659  sellRate */\n      sload(0x08)\n        /* \"contracts/STEMMER_flattened.sol\":30673:30681  treasury */\n      0x09\n      0x00\n      swap1\n      sload\n      swap1\n      0x0100\n      exp\n      swap1\n      div\n      0xffffffffffffffffffffffffffffffffffffffff\n      and\n        /* \"contracts/STEMMER_flattened.sol\":30695:30709  profitTreasury */\n      0x0a\n      0x00\n      swap1\n      sload\n      swap1\n      0x0100\n      exp\n      swap1\n      div\n      0xffffffffffffffffffffffffffffffffffffffff\n      and\n        /* \"contracts/STEMMER_flattened.sol\":30723:30742  balanceOf(treasury) */\n      tag_286\n        /* \"contracts/STEMMER_flattened.sol\":30733:30741  treasury */\n      0x09\n      0x00\n      swap1\n      sload\n      swap1\n      0x0100\n      exp\n      swap1\n      div\n      0xffffffffffffffffffffffffffffffffffffffff\n      and\n        /* \"contracts/STEMMER_flattened.sol\":30723:30732  balanceOf */\n      tag_90\n        /* \"contracts/STEMMER_flattened.sol\":30723:30742  balanceOf(treasury) */\n      jump\t// in\n    tag_286:\n        /* \"contracts/STEMMER_flattened.sol\":30756:30781  balanceOf(profitTreasury) */\n      tag_287\n        /* \"contracts/STEMMER_flattened.sol\":30766:30780  profitTreasury */\n      0x0a\n      0x00\n      swap1\n      sload\n      swap1\n      0x0100\n      exp\n      swap1\n      div\n      0xffffffffffffffffffffffffffffffffffffffff\n      and\n        /* \"contracts/STEMMER_flattened.sol\":30756:30765  balanceOf */\n      tag_90\n        /* \"contracts/STEMMER_flattened.sol\":30756:30781  balanceOf(profitTreasury) */\n      jump\t// in\n    tag_287:\n        /* \"contracts/STEMMER_flattened.sol\":30795:30819  balanceOf(address(this)) */\n      tag_288\n        /* \"contracts/STEMMER_flattened.sol\":30813:30817  this */\n      address\n        /* \"contracts/STEMMER_flattened.sol\":30795:30804  balanceOf */\n      tag_90\n        /* \"contracts/STEMMER_flattened.sol\":30795:30819  balanceOf(address(this)) */\n      jump\t// in\n    tag_288:\n        /* \"contracts/STEMMER_flattened.sol\":30833:30842  usdtToken */\n      0x06\n      0x00\n      swap1\n      sload\n      swap1\n      0x0100\n      exp\n      swap1\n      div\n      0xffffffffffffffffffffffffffffffffffffffff\n      and\n        /* \"contracts/STEMMER_flattened.sol\":30833:30852  usdtToken.balanceOf */\n      0xffffffffffffffffffffffffffffffffffffffff\n      and\n      0x70a08231\n        /* \"contracts/STEMMER_flattened.sol\":30861:30865  this */\n      address\n        /* \"contracts/STEMMER_flattened.sol\":30833:30867  usdtToken.balanceOf(address(this)) */\n      mload(0x40)\n      dup3\n      0xffffffff\n      and\n      0xe0\n      shl\n      dup2\n      mstore\n      0x04\n      add\n      tag_289\n      swap2\n      swap1\n      tag_84\n      jump\t// in\n    tag_289:\n      0x20\n      mload(0x40)\n      dup1\n      dup4\n      sub\n      dup2\n      dup7\n      gas\n      staticcall\n      iszero\n      dup1\n      iszero\n      tag_291\n      jumpi\n      returndatasize\n      0x00\n      dup1\n      returndatacopy\n      revert(0x00, returndatasize)\n    tag_291:\n      pop\n      pop\n      pop\n      pop\n      mload(0x40)\n      returndatasize\n      not(0x1f)\n      0x1f\n      dup3\n      add\n      and\n      dup3\n      add\n      dup1\n      0x40\n      mstore\n      pop\n      dup2\n      add\n      swap1\n      tag_292\n      swap2\n      swap1\n      tag_293\n      jump\t// in\n    tag_292:\n        /* \"contracts/STEMMER_flattened.sol\":30881:30894  totalSupply() */\n      tag_294\n        /* \"contracts/STEMMER_flattened.sol\":30881:30892  totalSupply */\n      tag_59\n        /* \"contracts/STEMMER_flattened.sol\":30881:30894  totalSupply() */\n      jump\t// in\n    tag_294:\n        /* \"contracts/STEMMER_flattened.sol\":30908:30925  accumulatedProfit */\n      sload(0x0c)\n        /* \"contracts/STEMMER_flattened.sol\":30939:30954  profitThreshold */\n      sload(0x0b)\n        /* \"contracts/STEMMER_flattened.sol\":30609:30964  return (... */\n      swap11\n      pop\n      swap11\n      pop\n      swap11\n      pop\n      swap11\n      pop\n      swap11\n      pop\n      swap11\n      pop\n      swap11\n      pop\n      swap11\n      pop\n      swap11\n      pop\n      swap11\n      pop\n      swap11\n      pop\n        /* \"contracts/STEMMER_flattened.sol\":30187:30971  function getConfig() external view returns (... */\n      swap1\n      swap2\n      swap3\n      swap4\n      swap5\n      swap6\n      swap7\n      swap8\n      swap9\n      swap10\n      swap11\n      jump\t// out\n        /* \"contracts/STEMMER_flattened.sol\":14432:14572  function allowance(address owner, address spender) public view virtual returns (uint256) {... */\n    tag_130:\n        /* \"contracts/STEMMER_flattened.sol\":14512:14519  uint256 */\n      0x00\n        /* \"contracts/STEMMER_flattened.sol\":14538:14549  _allowances */\n      0x01\n        /* \"contracts/STEMMER_flattened.sol\":14538:14556  _allowances[owner] */\n      0x00\n        /* \"contracts/STEMMER_flattened.sol\":14550:14555  owner */\n      dup5\n        /* \"contracts/STEMMER_flattened.sol\":14538:14556  _allowances[owner] */\n      0xffffffffffffffffffffffffffffffffffffffff\n      and\n      0xffffffffffffffffffffffffffffffffffffffff\n      and\n      dup2\n      mstore\n      0x20\n      add\n      swap1\n      dup2\n      mstore\n      0x20\n      add\n      0x00\n      keccak256\n        /* \"contracts/STEMMER_flattened.sol\":14538:14565  _allowances[owner][spender] */\n      0x00\n        /* \"contracts/STEMMER_flattened.sol\":14557:14564  spender */\n      dup4\n        /* \"contracts/STEMMER_flattened.sol\":14538:14565  _allowances[owner][spender] */\n      0xffffffffffffffffffffffffffffffffffffffff\n      and\n      0xffffffffffffffffffffffffffffffffffffffff\n      and\n      dup2\n      mstore\n      0x20\n      add\n      swap1\n      dup2\n      mstore\n      0x20\n      add\n      0x00\n      keccak256\n      sload\n        /* \"contracts/STEMMER_flattened.sol\":14531:14565  return _allowances[owner][spender] */\n      swap1\n      pop\n        /* \"contracts/STEMMER_flattened.sol\":14432:14572  function allowance(address owner, address spender) public view virtual returns (uint256) {... */\n      swap3\n      swap2\n      pop\n      pop\n      jump\t// out\n        /* \"contracts/STEMMER_flattened.sol\":29196:29333  function setTreasury(address _treasury) external onlyOwner {... */\n    tag_134:\n        /* \"contracts/STEMMER_flattened.sol\":23283:23296  _checkOwner() */\n      tag_297\n        /* \"contracts/STEMMER_flattened.sol\":23283:23294  _checkOwner */\n      tag_163\n        /* \"contracts/STEMMER_flattened.sol\":23283:23296  _checkOwner() */\n      jump\t// in\n    tag_297:\n        /* \"contracts/STEMMER_flattened.sol\":29276:29285  _treasury */\n      dup1\n        /* \"contracts/STEMMER_flattened.sol\":29265:29273  treasury */\n      0x09\n      0x00\n        /* \"contracts/STEMMER_flattened.sol\":29265:29285  treasury = _treasury */\n      0x0100\n      exp\n      dup2\n      sload\n      dup2\n      0xffffffffffffffffffffffffffffffffffffffff\n      mul\n      not\n      and\n      swap1\n      dup4\n      0xffffffffffffffffffffffffffffffffffffffff\n      and\n      mul\n      or\n      swap1\n      sstore\n      pop\n        /* \"contracts/STEMMER_flattened.sol\":29316:29325  _treasury */\n      dup1\n        /* \"contracts/STEMMER_flattened.sol\":29300:29326  TreasuryChanged(_treasury) */\n      0xffffffffffffffffffffffffffffffffffffffff\n      and\n      0xc714d22a2f08b695f81e7c707058db484aa5b4d6b4c9fd64beb10fe85832f608\n      mload(0x40)\n      mload(0x40)\n      dup1\n      swap2\n      sub\n      swap1\n      log2\n        /* \"contracts/STEMMER_flattened.sol\":29196:29333  function setTreasury(address _treasury) external onlyOwner {... */\n      pop\n      jump\t// out\n        /* \"contracts/STEMMER_flattened.sol\":25157:25186  address public profitTreasury */\n    tag_136:\n      0x0a\n      0x00\n      swap1\n      sload\n      swap1\n      0x0100\n      exp\n      swap1\n      div\n      0xffffffffffffffffffffffffffffffffffffffff\n      and\n      dup2\n      jump\t// out\n        /* \"contracts/STEMMER_flattened.sol\":24295:24510  function transferOwnership(address newOwner) public virtual onlyOwner {... */\n    tag_140:\n        /* \"contracts/STEMMER_flattened.sol\":23283:23296  _checkOwner() */\n      tag_300\n        /* \"contracts/STEMMER_flattened.sol\":23283:23294  _checkOwner */\n      tag_163\n        /* \"contracts/STEMMER_flattened.sol\":23283:23296  _checkOwner() */\n      jump\t// in\n    tag_300:\n        /* \"contracts/STEMMER_flattened.sol\":24399:24400  0 */\n      0x00\n        /* \"contracts/STEMMER_flattened.sol\":24379:24401  newOwner == address(0) */\n      0xffffffffffffffffffffffffffffffffffffffff\n      and\n        /* \"contracts/STEMMER_flattened.sol\":24379:24387  newOwner */\n      dup2\n        /* \"contracts/STEMMER_flattened.sol\":24379:24401  newOwner == address(0) */\n      0xffffffffffffffffffffffffffffffffffffffff\n      and\n      sub\n        /* \"contracts/STEMMER_flattened.sol\":24375:24466  if (newOwner == address(0)) {... */\n      tag_302\n      jumpi\n        /* \"contracts/STEMMER_flattened.sol\":24452:24453  0 */\n      0x00\n        /* \"contracts/STEMMER_flattened.sol\":24424:24455  OwnableInvalidOwner(address(0)) */\n      mload(0x40)\n      0x1e4fbdf700000000000000000000000000000000000000000000000000000000\n      dup2\n      mstore\n      0x04\n      add\n      tag_303\n      swap2\n      swap1\n      tag_84\n      jump\t// in\n    tag_303:\n      mload(0x40)\n      dup1\n      swap2\n      sub\n      swap1\n      revert\n        /* \"contracts/STEMMER_flattened.sol\":24375:24466  if (newOwner == address(0)) {... */\n    tag_302:\n        /* \"contracts/STEMMER_flattened.sol\":24475:24503  _transferOwnership(newOwner) */\n      tag_304\n        /* \"contracts/STEMMER_flattened.sol\":24494:24502  newOwner */\n      dup2\n        /* \"contracts/STEMMER_flattened.sol\":24475:24493  _transferOwnership */\n      tag_235\n        /* \"contracts/STEMMER_flattened.sol\":24475:24503  _transferOwnership(newOwner) */\n      jump\t// in\n    tag_304:\n        /* \"contracts/STEMMER_flattened.sol\":24295:24510  function transferOwnership(address newOwner) public virtual onlyOwner {... */\n      pop\n      jump\t// out\n        /* \"contracts/STEMMER_flattened.sol\":25225:25255  uint256 public profitThreshold */\n    tag_142:\n      sload(0x0b)\n      dup2\n      jump\t// out\n        /* \"contracts/STEMMER_flattened.sol\":24989:25018  uint256 public buyRate = 1e18 */\n    tag_145:\n      sload(0x07)\n      dup2\n      jump\t// out\n        /* \"contracts/STEMMER_flattened.sol\":29866:30149  function withdrawAccumulatedProfit() external onlyOwner {... */\n    tag_148:\n        /* \"contracts/STEMMER_flattened.sol\":23283:23296  _checkOwner() */\n      tag_306\n        /* \"contracts/STEMMER_flattened.sol\":23283:23294  _checkOwner */\n      tag_163\n        /* \"contracts/STEMMER_flattened.sol\":23283:23296  _checkOwner() */\n      jump\t// in\n    tag_306:\n        /* \"contracts/STEMMER_flattened.sol\":29960:29961  0 */\n      0x00\n        /* \"contracts/STEMMER_flattened.sol\":29940:29957  accumulatedProfit */\n      sload(0x0c)\n        /* \"contracts/STEMMER_flattened.sol\":29940:29961  accumulatedProfit > 0 */\n      gt\n        /* \"contracts/STEMMER_flattened.sol\":29932:29987  require(accumulatedProfit > 0, \"No profit to withdraw\") */\n      tag_308\n      jumpi\n      mload(0x40)\n      0x08c379a000000000000000000000000000000000000000000000000000000000\n      dup2\n      mstore\n      0x04\n      add\n      tag_309\n      swap1\n      tag_310\n      jump\t// in\n    tag_309:\n      mload(0x40)\n      dup1\n      swap2\n      sub\n      swap1\n      revert\n    tag_308:\n        /* \"contracts/STEMMER_flattened.sol\":29997:30051  _transfer(treasury, profitTreasury, accumulatedProfit) */\n      tag_311\n        /* \"contracts/STEMMER_flattened.sol\":30007:30015  treasury */\n      0x09\n      0x00\n      swap1\n      sload\n      swap1\n      0x0100\n      exp\n      swap1\n      div\n      0xffffffffffffffffffffffffffffffffffffffff\n      and\n        /* \"contracts/STEMMER_flattened.sol\":30017:30031  profitTreasury */\n      0x0a\n      0x00\n      swap1\n      sload\n      swap1\n      0x0100\n      exp\n      swap1\n      div\n      0xffffffffffffffffffffffffffffffffffffffff\n      and\n        /* \"contracts/STEMMER_flattened.sol\":30033:30050  accumulatedProfit */\n      sload(0x0c)\n        /* \"contracts/STEMMER_flattened.sol\":29997:30006  _transfer */\n      tag_184\n        /* \"contracts/STEMMER_flattened.sol\":29997:30051  _transfer(treasury, profitTreasury, accumulatedProfit) */\n      jump\t// in\n    tag_311:\n        /* \"contracts/STEMMER_flattened.sol\":30066:30111  AccumulatedProfitWithdrawn(accumulatedProfit) */\n      0x035279bb4d182b0c31a3c5acf2ea52f703ec240e2c8cdaee25e353623db06418\n        /* \"contracts/STEMMER_flattened.sol\":30093:30110  accumulatedProfit */\n      sload(0x0c)\n        /* \"contracts/STEMMER_flattened.sol\":30066:30111  AccumulatedProfitWithdrawn(accumulatedProfit) */\n      mload(0x40)\n      tag_312\n      swap2\n      swap1\n      tag_61\n      jump\t// in\n    tag_312:\n      mload(0x40)\n      dup1\n      swap2\n      sub\n      swap1\n      log1\n        /* \"contracts/STEMMER_flattened.sol\":30141:30142  0 */\n      0x00\n        /* \"contracts/STEMMER_flattened.sol\":30121:30138  accumulatedProfit */\n      0x0c\n        /* \"contracts/STEMMER_flattened.sol\":30121:30142  accumulatedProfit = 0 */\n      dup2\n      swap1\n      sstore\n      pop\n        /* \"contracts/STEMMER_flattened.sol\":29866:30149  function withdrawAccumulatedProfit() external onlyOwner {... */\n      jump\t// out\n        /* \"contracts/STEMMER_flattened.sol\":4208:4304  function _msgSender() internal view virtual returns (address) {... */\n    tag_158:\n        /* \"contracts/STEMMER_flattened.sol\":4261:4268  address */\n      0x00\n        /* \"contracts/STEMMER_flattened.sol\":4287:4297  msg.sender */\n      caller\n        /* \"contracts/STEMMER_flattened.sol\":4280:4297  return msg.sender */\n      swap1\n      pop\n        /* \"contracts/STEMMER_flattened.sol\":4208:4304  function _msgSender() internal view virtual returns (address) {... */\n      swap1\n      jump\t// out\n        /* \"contracts/STEMMER_flattened.sol\":19607:19735  function _approve(address owner, address spender, uint256 value) internal {... */\n    tag_160:\n        /* \"contracts/STEMMER_flattened.sol\":19691:19728  _approve(owner, spender, value, true) */\n      tag_315\n        /* \"contracts/STEMMER_flattened.sol\":19700:19705  owner */\n      dup4\n        /* \"contracts/STEMMER_flattened.sol\":19707:19714  spender */\n      dup4\n        /* \"contracts/STEMMER_flattened.sol\":19716:19721  value */\n      dup4\n        /* \"contracts/STEMMER_flattened.sol\":19723:19727  true */\n      0x01\n        /* \"contracts/STEMMER_flattened.sol\":19691:19699  _approve */\n      tag_316\n        /* \"contracts/STEMMER_flattened.sol\":19691:19728  _approve(owner, spender, value, true) */\n      jump\t// in\n    tag_315:\n        /* \"contracts/STEMMER_flattened.sol\":19607:19735  function _approve(address owner, address spender, uint256 value) internal {... */\n      pop\n      pop\n      pop\n      jump\t// out\n        /* \"contracts/STEMMER_flattened.sol\":23548:23710  function _checkOwner() internal view virtual {... */\n    tag_163:\n        /* \"contracts/STEMMER_flattened.sol\":23618:23630  _msgSender() */\n      tag_318\n        /* \"contracts/STEMMER_flattened.sol\":23618:23628  _msgSender */\n      tag_158\n        /* \"contracts/STEMMER_flattened.sol\":23618:23630  _msgSender() */\n      jump\t// in\n    tag_318:\n        /* \"contracts/STEMMER_flattened.sol\":23607:23630  owner() != _msgSender() */\n      0xffffffffffffffffffffffffffffffffffffffff\n      and\n        /* \"contracts/STEMMER_flattened.sol\":23607:23614  owner() */\n      tag_319\n        /* \"contracts/STEMMER_flattened.sol\":23607:23612  owner */\n      tag_101\n        /* \"contracts/STEMMER_flattened.sol\":23607:23614  owner() */\n      jump\t// in\n    tag_319:\n        /* \"contracts/STEMMER_flattened.sol\":23607:23630  owner() != _msgSender() */\n      0xffffffffffffffffffffffffffffffffffffffff\n      and\n      eq\n        /* \"contracts/STEMMER_flattened.sol\":23603:23704  if (owner() != _msgSender()) {... */\n      tag_320\n      jumpi\n        /* \"contracts/STEMMER_flattened.sol\":23680:23692  _msgSender() */\n      tag_321\n        /* \"contracts/STEMMER_flattened.sol\":23680:23690  _msgSender */\n      tag_158\n        /* \"contracts/STEMMER_flattened.sol\":23680:23692  _msgSender() */\n      jump\t// in\n    tag_321:\n        /* \"contracts/STEMMER_flattened.sol\":23653:23693  OwnableUnauthorizedAccount(_msgSender()) */\n      mload(0x40)\n      0x118cdaa700000000000000000000000000000000000000000000000000000000\n      dup2\n      mstore\n      0x04\n      add\n      tag_322\n      swap2\n      swap1\n      tag_84\n      jump\t// in\n    tag_322:\n      mload(0x40)\n      dup1\n      swap2\n      sub\n      swap1\n      revert\n        /* \"contracts/STEMMER_flattened.sol\":23603:23704  if (owner() != _msgSender()) {... */\n    tag_320:\n        /* \"contracts/STEMMER_flattened.sol\":23548:23710  function _checkOwner() internal view virtual {... */\n      jump\t// out\n        /* \"contracts/STEMMER_flattened.sol\":21296:21772  function _spendAllowance(address owner, address spender, uint256 value) internal virtual {... */\n    tag_182:\n        /* \"contracts/STEMMER_flattened.sol\":21395:21419  uint256 currentAllowance */\n      0x00\n        /* \"contracts/STEMMER_flattened.sol\":21422:21447  allowance(owner, spender) */\n      tag_324\n        /* \"contracts/STEMMER_flattened.sol\":21432:21437  owner */\n      dup5\n        /* \"contracts/STEMMER_flattened.sol\":21439:21446  spender */\n      dup5\n        /* \"contracts/STEMMER_flattened.sol\":21422:21431  allowance */\n      tag_130\n        /* \"contracts/STEMMER_flattened.sol\":21422:21447  allowance(owner, spender) */\n      jump\t// in\n    tag_324:\n        /* \"contracts/STEMMER_flattened.sol\":21395:21447  uint256 currentAllowance = allowance(owner, spender) */\n      swap1\n      pop\n        /* \"contracts/STEMMER_flattened.sol\":21480:21497  type(uint256).max */\n      0xffffffffffffffffffffffffffffffffffffffffffffffffffffffffffffffff\n        /* \"contracts/STEMMER_flattened.sol\":21461:21477  currentAllowance */\n      dup2\n        /* \"contracts/STEMMER_flattened.sol\":21461:21497  currentAllowance < type(uint256).max */\n      lt\n        /* \"contracts/STEMMER_flattened.sol\":21457:21766  if (currentAllowance < type(uint256).max) {... */\n      iszero\n      tag_325\n      jumpi\n        /* \"contracts/STEMMER_flattened.sol\":21536:21541  value */\n      dup2\n        /* \"contracts/STEMMER_flattened.sol\":21517:21533  currentAllowance */\n      dup2\n        /* \"contracts/STEMMER_flattened.sol\":21517:21541  currentAllowance < value */\n      lt\n        /* \"contracts/STEMMER_flattened.sol\":21513:21643  if (currentAllowance < value) {... */\n      iszero\n      tag_326\n      jumpi\n        /* \"contracts/STEMMER_flattened.sol\":21595:21602  spender */\n      dup3\n        /* \"contracts/STEMMER_flattened.sol\":21604:21620  currentAllowance */\n      dup2\n        /* \"contracts/STEMMER_flattened.sol\":21622:21627  value */\n      dup4\n        /* \"contracts/STEMMER_flattened.sol\":21568:21628  ERC20InsufficientAllowance(spender, currentAllowance, value) */\n      mload(0x40)\n      0xfb8f41b200000000000000000000000000000000000000000000000000000000\n      dup2\n      mstore\n      0x04\n      add\n      tag_327\n      swap4\n      swap3\n      swap2\n      swap1\n      tag_328\n      jump\t// in\n    tag_327:\n      mload(0x40)\n      dup1\n      swap2\n      sub\n      swap1\n      revert\n        /* \"contracts/STEMMER_flattened.sol\":21513:21643  if (currentAllowance < value) {... */\n    tag_326:\n        /* \"contracts/STEMMER_flattened.sol\":21684:21741  _approve(owner, spender, currentAllowance - value, false) */\n      tag_329\n        /* \"contracts/STEMMER_flattened.sol\":21693:21698  owner */\n      dup5\n        /* \"contracts/STEMMER_flattened.sol\":21700:21707  spender */\n      dup5\n        /* \"contracts/STEMMER_flattened.sol\":21728:21733  value */\n      dup5\n        /* \"contracts/STEMMER_flattened.sol\":21709:21725  currentAllowance */\n      dup5\n        /* \"contracts/STEMMER_flattened.sol\":21709:21733  currentAllowance - value */\n      sub\n        /* \"contracts/STEMMER_flattened.sol\":21735:21740  false */\n      0x00\n        /* \"contracts/STEMMER_flattened.sol\":21684:21692  _approve */\n      tag_316\n        /* \"contracts/STEMMER_flattened.sol\":21684:21741  _approve(owner, spender, currentAllowance - value, false) */\n      jump\t// in\n    tag_329:\n        /* \"contracts/STEMMER_flattened.sol\":21457:21766  if (currentAllowance < type(uint256).max) {... */\n    tag_325:\n        /* \"contracts/STEMMER_flattened.sol\":21385:21772  {... */\n      pop\n        /* \"contracts/STEMMER_flattened.sol\":21296:21772  function _spendAllowance(address owner, address spender, uint256 value) internal virtual {... */\n      pop\n      pop\n      pop\n      jump\t// out\n        /* \"contracts/STEMMER_flattened.sol\":16274:16574  function _transfer(address from, address to, uint256 value) internal {... */\n    tag_184:\n        /* \"contracts/STEMMER_flattened.sol\":16373:16374  0 */\n      0x00\n        /* \"contracts/STEMMER_flattened.sol\":16357:16375  from == address(0) */\n      0xffffffffffffffffffffffffffffffffffffffff\n      and\n        /* \"contracts/STEMMER_flattened.sol\":16357:16361  from */\n      dup4\n        /* \"contracts/STEMMER_flattened.sol\":16357:16375  from == address(0) */\n      0xffffffffffffffffffffffffffffffffffffffff\n      and\n      sub\n        /* \"contracts/STEMMER_flattened.sol\":16353:16439  if (from == address(0)) {... */\n      tag_331\n      jumpi\n        /* \"contracts/STEMMER_flattened.sol\":16425:16426  0 */\n      0x00\n        /* \"contracts/STEMMER_flattened.sol\":16398:16428  ERC20InvalidSender(address(0)) */\n      mload(0x40)\n      0x96c6fd1e00000000000000000000000000000000000000000000000000000000\n      dup2\n      mstore\n      0x04\n      add\n      tag_332\n      swap2\n      swap1\n      tag_84\n      jump\t// in\n    tag_332:\n      mload(0x40)\n      dup1\n      swap2\n      sub\n      swap1\n      revert\n        /* \"contracts/STEMMER_flattened.sol\":16353:16439  if (from == address(0)) {... */\n    tag_331:\n        /* \"contracts/STEMMER_flattened.sol\":16466:16467  0 */\n      0x00\n        /* \"contracts/STEMMER_flattened.sol\":16452:16468  to == address(0) */\n      0xffffffffffffffffffffffffffffffffffffffff\n      and\n        /* \"contracts/STEMMER_flattened.sol\":16452:16454  to */\n      dup3\n        /* \"contracts/STEMMER_flattened.sol\":16452:16468  to == address(0) */\n      0xffffffffffffffffffffffffffffffffffffffff\n      and\n      sub\n        /* \"contracts/STEMMER_flattened.sol\":16448:16534  if (to == address(0)) {... */\n      tag_333\n      jumpi\n        /* \"contracts/STEMMER_flattened.sol\":16520:16521  0 */\n      0x00\n        /* \"contracts/STEMMER_flattened.sol\":16491:16523  ERC20InvalidReceiver(address(0)) */\n      mload(0x40)\n      0xec442f0500000000000000000000000000000000000000000000000000000000\n      dup2\n      mstore\n      0x04\n      add\n      tag_334\n      swap2\n      swap1\n      tag_84\n      jump\t// in\n    tag_334:\n      mload(0x40)\n      dup1\n      swap2\n      sub\n      swap1\n      revert\n        /* \"contracts/STEMMER_flattened.sol\":16448:16534  if (to == address(0)) {... */\n    tag_333:\n        /* \"contracts/STEMMER_flattened.sol\":16543:16567  _update(from, to, value) */\n      tag_335\n        /* \"contracts/STEMMER_flattened.sol\":16551:16555  from */\n      dup4\n        /* \"contracts/STEMMER_flattened.sol\":16557:16559  to */\n      dup4\n        /* \"contracts/STEMMER_flattened.sol\":16561:16566  value */\n      dup4\n        /* \"contracts/STEMMER_flattened.sol\":16543:16550  _update */\n      tag_336\n        /* \"contracts/STEMMER_flattened.sol\":16543:16567  _update(from, to, value) */\n      jump\t// in\n    tag_335:\n        /* \"contracts/STEMMER_flattened.sol\":16274:16574  function _transfer(address from, address to, uint256 value) internal {... */\n      pop\n      pop\n      pop\n      jump\t// out\n        /* \"contracts/STEMMER_flattened.sol\":18339:18547  function _mint(address account, uint256 value) internal {... */\n    tag_199:\n        /* \"contracts/STEMMER_flattened.sol\":18428:18429  0 */\n      0x00\n        /* \"contracts/STEMMER_flattened.sol\":18409:18430  account == address(0) */\n      0xffffffffffffffffffffffffffffffffffffffff\n      and\n        /* \"contracts/STEMMER_flattened.sol\":18409:18416  account */\n      dup3\n        /* \"contracts/STEMMER_flattened.sol\":18409:18430  account == address(0) */\n      0xffffffffffffffffffffffffffffffffffffffff\n      and\n      sub\n        /* \"contracts/STEMMER_flattened.sol\":18405:18496  if (account == address(0)) {... */\n      tag_338\n      jumpi\n        /* \"contracts/STEMMER_flattened.sol\":18482:18483  0 */\n      0x00\n        /* \"contracts/STEMMER_flattened.sol\":18453:18485  ERC20InvalidReceiver(address(0)) */\n      mload(0x40)\n      0xec442f0500000000000000000000000000000000000000000000000000000000\n      dup2\n      mstore\n      0x04\n      add\n      tag_339\n      swap2\n      swap1\n      tag_84\n      jump\t// in\n    tag_339:\n      mload(0x40)\n      dup1\n      swap2\n      sub\n      swap1\n      revert\n        /* \"contracts/STEMMER_flattened.sol\":18405:18496  if (account == address(0)) {... */\n    tag_338:\n        /* \"contracts/STEMMER_flattened.sol\":18505:18540  _update(address(0), account, value) */\n      tag_340\n        /* \"contracts/STEMMER_flattened.sol\":18521:18522  0 */\n      0x00\n        /* \"contracts/STEMMER_flattened.sol\":18525:18532  account */\n      dup4\n        /* \"contracts/STEMMER_flattened.sol\":18534:18539  value */\n      dup4\n        /* \"contracts/STEMMER_flattened.sol\":18505:18512  _update */\n      tag_336\n        /* \"contracts/STEMMER_flattened.sol\":18505:18540  _update(address(0), account, value) */\n      jump\t// in\n    tag_340:\n        /* \"contracts/STEMMER_flattened.sol\":18339:18547  function _mint(address account, uint256 value) internal {... */\n      pop\n      pop\n      jump\t// out\n        /* \"contracts/STEMMER_flattened.sol\":24664:24851  function _transferOwnership(address newOwner) internal virtual {... */\n    tag_235:\n        /* \"contracts/STEMMER_flattened.sol\":24737:24753  address oldOwner */\n      0x00\n        /* \"contracts/STEMMER_flattened.sol\":24756:24762  _owner */\n      0x05\n      0x00\n      swap1\n      sload\n      swap1\n      0x0100\n      exp\n      swap1\n      div\n      0xffffffffffffffffffffffffffffffffffffffff\n      and\n        /* \"contracts/STEMMER_flattened.sol\":24737:24762  address oldOwner = _owner */\n      swap1\n      pop\n        /* \"contracts/STEMMER_flattened.sol\":24781:24789  newOwner */\n      dup2\n        /* \"contracts/STEMMER_flattened.sol\":24772:24778  _owner */\n      0x05\n      0x00\n        /* \"contracts/STEMMER_flattened.sol\":24772:24789  _owner = newOwner */\n      0x0100\n      exp\n      dup2\n      sload\n      dup2\n      0xffffffffffffffffffffffffffffffffffffffff\n      mul\n      not\n      and\n      swap1\n      dup4\n      0xffffffffffffffffffffffffffffffffffffffff\n      and\n      mul\n      or\n      swap1\n      sstore\n      pop\n        /* \"contracts/STEMMER_flattened.sol\":24835:24843  newOwner */\n      dup2\n        /* \"contracts/STEMMER_flattened.sol\":24804:24844  OwnershipTransferred(oldOwner, newOwner) */\n      0xffffffffffffffffffffffffffffffffffffffff\n      and\n        /* \"contracts/STEMMER_flattened.sol\":24825:24833  oldOwner */\n      dup2\n        /* \"contracts/STEMMER_flattened.sol\":24804:24844  OwnershipTransferred(oldOwner, newOwner) */\n      0xffffffffffffffffffffffffffffffffffffffff\n      and\n      0x8be0079c531659141344cd1fd0a4f28419497f9722a3daafe3b4186f6b6457e0\n      mload(0x40)\n      mload(0x40)\n      dup1\n      swap2\n      sub\n      swap1\n      log3\n        /* \"contracts/STEMMER_flattened.sol\":24727:24851  {... */\n      pop\n        /* \"contracts/STEMMER_flattened.sol\":24664:24851  function _transferOwnership(address newOwner) internal virtual {... */\n      pop\n      jump\t// out\n        /* \"contracts/STEMMER_flattened.sol\":18865:19071  function _burn(address account, uint256 value) internal {... */\n    tag_265:\n        /* \"contracts/STEMMER_flattened.sol\":18954:18955  0 */\n      0x00\n        /* \"contracts/STEMMER_flattened.sol\":18935:18956  account == address(0) */\n      0xffffffffffffffffffffffffffffffffffffffff\n      and\n        /* \"contracts/STEMMER_flattened.sol\":18935:18942  account */\n      dup3\n        /* \"contracts/STEMMER_flattened.sol\":18935:18956  account == address(0) */\n      0xffffffffffffffffffffffffffffffffffffffff\n      and\n      sub\n        /* \"contracts/STEMMER_flattened.sol\":18931:19020  if (account == address(0)) {... */\n      tag_343\n      jumpi\n        /* \"contracts/STEMMER_flattened.sol\":19006:19007  0 */\n      0x00\n        /* \"contracts/STEMMER_flattened.sol\":18979:19009  ERC20InvalidSender(address(0)) */\n      mload(0x40)\n      0x96c6fd1e00000000000000000000000000000000000000000000000000000000\n      dup2\n      mstore\n      0x04\n      add\n      tag_344\n      swap2\n      swap1\n      tag_84\n      jump\t// in\n    tag_344:\n      mload(0x40)\n      dup1\n      swap2\n      sub\n      swap1\n      revert\n        /* \"contracts/STEMMER_flattened.sol\":18931:19020  if (account == address(0)) {... */\n    tag_343:\n        /* \"contracts/STEMMER_flattened.sol\":19029:19064  _update(account, address(0), value) */\n      tag_345\n        /* \"contracts/STEMMER_flattened.sol\":19037:19044  account */\n      dup3\n        /* \"contracts/STEMMER_flattened.sol\":19054:19055  0 */\n      0x00\n        /* \"contracts/STEMMER_flattened.sol\":19058:19063  value */\n      dup4\n        /* \"contracts/STEMMER_flattened.sol\":19029:19036  _update */\n      tag_336\n        /* \"contracts/STEMMER_flattened.sol\":19029:19064  _update(account, address(0), value) */\n      jump\t// in\n    tag_345:\n        /* \"contracts/STEMMER_flattened.sol\":18865:19071  function _burn(address account, uint256 value) internal {... */\n      pop\n      pop\n      jump\t// out\n        /* \"contracts/STEMMER_flattened.sol\":20582:21014  function _approve(address owner, address spender, uint256 value, bool emitEvent) internal virtual {... */\n    tag_316:\n        /* \"contracts/STEMMER_flattened.sol\":20711:20712  0 */\n      0x00\n        /* \"contracts/STEMMER_flattened.sol\":20694:20713  owner == address(0) */\n      0xffffffffffffffffffffffffffffffffffffffff\n      and\n        /* \"contracts/STEMMER_flattened.sol\":20694:20699  owner */\n      dup5\n        /* \"contracts/STEMMER_flattened.sol\":20694:20713  owner == address(0) */\n      0xffffffffffffffffffffffffffffffffffffffff\n      and\n      sub\n        /* \"contracts/STEMMER_flattened.sol\":20690:20779  if (owner == address(0)) {... */\n      tag_347\n      jumpi\n        /* \"contracts/STEMMER_flattened.sol\":20765:20766  0 */\n      0x00\n        /* \"contracts/STEMMER_flattened.sol\":20736:20768  ERC20InvalidApprover(address(0)) */\n      mload(0x40)\n      0xe602df0500000000000000000000000000000000000000000000000000000000\n      dup2\n      mstore\n      0x04\n      add\n      tag_348\n      swap2\n      swap1\n      tag_84\n      jump\t// in\n    tag_348:\n      mload(0x40)\n      dup1\n      swap2\n      sub\n      swap1\n      revert\n        /* \"contracts/STEMMER_flattened.sol\":20690:20779  if (owner == address(0)) {... */\n    tag_347:\n        /* \"contracts/STEMMER_flattened.sol\":20811:20812  0 */\n      0x00\n        /* \"contracts/STEMMER_flattened.sol\":20792:20813  spender == address(0) */\n      0xffffffffffffffffffffffffffffffffffffffff\n      and\n        /* \"contracts/STEMMER_flattened.sol\":20792:20799  spender */\n      dup4\n        /* \"contracts/STEMMER_flattened.sol\":20792:20813  spender == address(0) */\n      0xffffffffffffffffffffffffffffffffffffffff\n      and\n      sub\n        /* \"contracts/STEMMER_flattened.sol\":20788:20878  if (spender == address(0)) {... */\n      tag_349\n      jumpi\n        /* \"contracts/STEMMER_flattened.sol\":20864:20865  0 */\n      0x00\n        /* \"contracts/STEMMER_flattened.sol\":20836:20867  ERC20InvalidSpender(address(0)) */\n      mload(0x40)\n      0x94280d6200000000000000000000000000000000000000000000000000000000\n      dup2\n      mstore\n      0x04\n      add\n      tag_350\n      swap2\n      swap1\n      tag_84\n      jump\t// in\n    tag_350:\n      mload(0x40)\n      dup1\n      swap2\n      sub\n      swap1\n      revert\n        /* \"contracts/STEMMER_flattened.sol\":20788:20878  if (spender == address(0)) {... */\n    tag_349:\n        /* \"contracts/STEMMER_flattened.sol\":20917:20922  value */\n      dup2\n        /* \"contracts/STEMMER_flattened.sol\":20887:20898  _allowances */\n      0x01\n        /* \"contracts/STEMMER_flattened.sol\":20887:20905  _allowances[owner] */\n      0x00\n        /* \"contracts/STEMMER_flattened.sol\":20899:20904  owner */\n      dup7\n        /* \"contracts/STEMMER_flattened.sol\":20887:20905  _allowances[owner] */\n      0xffffffffffffffffffffffffffffffffffffffff\n      and\n      0xffffffffffffffffffffffffffffffffffffffff\n      and\n      dup2\n      mstore\n      0x20\n      add\n      swap1\n      dup2\n      mstore\n      0x20\n      add\n      0x00\n      keccak256\n        /* \"contracts/STEMMER_flattened.sol\":20887:20914  _allowances[owner][spender] */\n      0x00\n        /* \"contracts/STEMMER_flattened.sol\":20906:20913  spender */\n      dup6\n        /* \"contracts/STEMMER_flattened.sol\":20887:20914  _allowances[owner][spender] */\n      0xffffffffffffffffffffffffffffffffffffffff\n      and\n      0xffffffffffffffffffffffffffffffffffffffff\n      and\n      dup2\n      mstore\n      0x20\n      add\n      swap1\n      dup2\n      mstore\n      0x20\n      add\n      0x00\n      keccak256\n        /* \"contracts/STEMMER_flattened.sol\":20887:20922  _allowances[owner][spender] = value */\n      dup2\n      swap1\n      sstore\n      pop\n        /* \"contracts/STEMMER_flattened.sol\":20936:20945  emitEvent */\n      dup1\n        /* \"contracts/STEMMER_flattened.sol\":20932:21008  if (emitEvent) {... */\n      iszero\n      tag_351\n      jumpi\n        /* \"contracts/STEMMER_flattened.sol\":20982:20989  spender */\n      dup3\n        /* \"contracts/STEMMER_flattened.sol\":20966:20997  Approval(owner, spender, value) */\n      0xffffffffffffffffffffffffffffffffffffffff\n      and\n        /* \"contracts/STEMMER_flattened.sol\":20975:20980  owner */\n      dup5\n        /* \"contracts/STEMMER_flattened.sol\":20966:20997  Approval(owner, spender, value) */\n      0xffffffffffffffffffffffffffffffffffffffff\n      and\n      0x8c5be1e5ebec7d5bd14f71427d1e84f3dd0314c0f7b2291e5b200ac8c7c3b925\n        /* \"contracts/STEMMER_flattened.sol\":20991:20996  value */\n      dup5\n        /* \"contracts/STEMMER_flattened.sol\":20966:20997  Approval(owner, spender, value) */\n      mload(0x40)\n      tag_352\n      swap2\n      swap1\n      tag_61\n      jump\t// in\n    tag_352:\n      mload(0x40)\n      dup1\n      swap2\n      sub\n      swap1\n      log3\n        /* \"contracts/STEMMER_flattened.sol\":20932:21008  if (emitEvent) {... */\n    tag_351:\n        /* \"contracts/STEMMER_flattened.sol\":20582:21014  function _approve(address owner, address spender, uint256 value, bool emitEvent) internal virtual {... */\n      pop\n      pop\n      pop\n      pop\n      jump\t// out\n        /* \"contracts/STEMMER_flattened.sol\":16889:17996  function _update(address from, address to, uint256 value) internal virtual {... */\n    tag_336:\n        /* \"contracts/STEMMER_flattened.sol\":16994:16995  0 */\n      0x00\n        /* \"contracts/STEMMER_flattened.sol\":16978:16996  from == address(0) */\n      0xffffffffffffffffffffffffffffffffffffffff\n      and\n        /* \"contracts/STEMMER_flattened.sol\":16978:16982  from */\n      dup4\n        /* \"contracts/STEMMER_flattened.sol\":16978:16996  from == address(0) */\n      0xffffffffffffffffffffffffffffffffffffffff\n      and\n      sub\n        /* \"contracts/STEMMER_flattened.sol\":16974:17514  if (from == address(0)) {... */\n      tag_354\n      jumpi\n        /* \"contracts/STEMMER_flattened.sol\":17130:17135  value */\n      dup1\n        /* \"contracts/STEMMER_flattened.sol\":17114:17126  _totalSupply */\n      0x02\n      0x00\n        /* \"contracts/STEMMER_flattened.sol\":17114:17135  _totalSupply += value */\n      dup3\n      dup3\n      sload\n      tag_355\n      swap2\n      swap1\n      tag_218\n      jump\t// in\n    tag_355:\n      swap3\n      pop\n      pop\n      dup2\n      swap1\n      sstore\n      pop\n        /* \"contracts/STEMMER_flattened.sol\":16974:17514  if (from == address(0)) {... */\n      jump(tag_356)\n    tag_354:\n        /* \"contracts/STEMMER_flattened.sol\":17166:17185  uint256 fromBalance */\n      0x00\n        /* \"contracts/STEMMER_flattened.sol\":17188:17197  _balances */\n      dup1\n        /* \"contracts/STEMMER_flattened.sol\":17188:17203  _balances[from] */\n      0x00\n        /* \"contracts/STEMMER_flattened.sol\":17198:17202  from */\n      dup6\n        /* \"contracts/STEMMER_flattened.sol\":17188:17203  _balances[from] */\n      0xffffffffffffffffffffffffffffffffffffffff\n      and\n      0xffffffffffffffffffffffffffffffffffffffff\n      and\n      dup2\n      mstore\n      0x20\n      add\n      swap1\n      dup2\n      mstore\n      0x20\n      add\n      0x00\n      keccak256\n      sload\n        /* \"contracts/STEMMER_flattened.sol\":17166:17203  uint256 fromBalance = _balances[from] */\n      swap1\n      pop\n        /* \"contracts/STEMMER_flattened.sol\":17235:17240  value */\n      dup2\n        /* \"contracts/STEMMER_flattened.sol\":17221:17232  fromBalance */\n      dup2\n        /* \"contracts/STEMMER_flattened.sol\":17221:17240  fromBalance < value */\n      lt\n        /* \"contracts/STEMMER_flattened.sol\":17217:17332  if (fromBalance < value) {... */\n      iszero\n      tag_357\n      jumpi\n        /* \"contracts/STEMMER_flattened.sol\":17292:17296  from */\n      dup4\n        /* \"contracts/STEMMER_flattened.sol\":17298:17309  fromBalance */\n      dup2\n        /* \"contracts/STEMMER_flattened.sol\":17311:17316  value */\n      dup4\n        /* \"contracts/STEMMER_flattened.sol\":17267:17317  ERC20InsufficientBalance(from, fromBalance, value) */\n      mload(0x40)\n      0xe450d38c00000000000000000000000000000000000000000000000000000000\n      dup2\n      mstore\n      0x04\n      add\n      tag_358\n      swap4\n      swap3\n      swap2\n      swap1\n      tag_328\n      jump\t// in\n    tag_358:\n      mload(0x40)\n      dup1\n      swap2\n      sub\n      swap1\n      revert\n        /* \"contracts/STEMMER_flattened.sol\":17217:17332  if (fromBalance < value) {... */\n    tag_357:\n        /* \"contracts/STEMMER_flattened.sol\":17484:17489  value */\n      dup2\n        /* \"contracts/STEMMER_flattened.sol\":17470:17481  fromBalance */\n      dup2\n        /* \"contracts/STEMMER_flattened.sol\":17470:17489  fromBalance - value */\n      sub\n        /* \"contracts/STEMMER_flattened.sol\":17452:17461  _balances */\n      0x00\n        /* \"contracts/STEMMER_flattened.sol\":17452:17467  _balances[from] */\n      dup1\n        /* \"contracts/STEMMER_flattened.sol\":17462:17466  from */\n      dup7\n        /* \"contracts/STEMMER_flattened.sol\":17452:17467  _balances[from] */\n      0xffffffffffffffffffffffffffffffffffffffff\n      and\n      0xffffffffffffffffffffffffffffffffffffffff\n      and\n      dup2\n      mstore\n      0x20\n      add\n      swap1\n      dup2\n      mstore\n      0x20\n      add\n      0x00\n      keccak256\n        /* \"contracts/STEMMER_flattened.sol\":17452:17489  _balances[from] = fromBalance - value */\n      dup2\n      swap1\n      sstore\n      pop\n        /* \"contracts/STEMMER_flattened.sol\":17152:17514  {... */\n      pop\n        /* \"contracts/STEMMER_flattened.sol\":16974:17514  if (from == address(0)) {... */\n    tag_356:\n        /* \"contracts/STEMMER_flattened.sol\":17542:17543  0 */\n      0x00\n        /* \"contracts/STEMMER_flattened.sol\":17528:17544  to == address(0) */\n      0xffffffffffffffffffffffffffffffffffffffff\n      and\n        /* \"contracts/STEMMER_flattened.sol\":17528:17530  to */\n      dup3\n        /* \"contracts/STEMMER_flattened.sol\":17528:17544  to == address(0) */\n      0xffffffffffffffffffffffffffffffffffffffff\n      and\n      sub\n        /* \"contracts/STEMMER_flattened.sol\":17524:17949  if (to == address(0)) {... */\n      tag_359\n      jumpi\n        /* \"contracts/STEMMER_flattened.sol\":17707:17712  value */\n      dup1\n        /* \"contracts/STEMMER_flattened.sol\":17691:17703  _totalSupply */\n      0x02\n      0x00\n        /* \"contracts/STEMMER_flattened.sol\":17691:17712  _totalSupply -= value */\n      dup3\n      dup3\n      sload\n      sub\n      swap3\n      pop\n      pop\n      dup2\n      swap1\n      sstore\n      pop\n        /* \"contracts/STEMMER_flattened.sol\":17524:17949  if (to == address(0)) {... */\n      jump(tag_360)\n    tag_359:\n        /* \"contracts/STEMMER_flattened.sol\":17919:17924  value */\n      dup1\n        /* \"contracts/STEMMER_flattened.sol\":17902:17911  _balances */\n      0x00\n        /* \"contracts/STEMMER_flattened.sol\":17902:17915  _balances[to] */\n      dup1\n        /* \"contracts/STEMMER_flattened.sol\":17912:17914  to */\n      dup5\n        /* \"contracts/STEMMER_flattened.sol\":17902:17915  _balances[to] */\n      0xffffffffffffffffffffffffffffffffffffffff\n      and\n      0xffffffffffffffffffffffffffffffffffffffff\n      and\n      dup2\n      mstore\n      0x20\n      add\n      swap1\n      dup2\n      mstore\n      0x20\n      add\n      0x00\n      keccak256\n      0x00\n        /* \"contracts/STEMMER_flattened.sol\":17902:17924  _balances[to] += value */\n      dup3\n      dup3\n      sload\n      add\n      swap3\n      pop\n      pop\n      dup2\n      swap1\n      sstore\n      pop\n        /* \"contracts/STEMMER_flattened.sol\":17524:17949  if (to == address(0)) {... */\n    tag_360:\n        /* \"contracts/STEMMER_flattened.sol\":17979:17981  to */\n      dup2\n        /* \"contracts/STEMMER_flattened.sol\":17964:17989  Transfer(from, to, value) */\n      0xffffffffffffffffffffffffffffffffffffffff\n      and\n        /* \"contracts/STEMMER_flattened.sol\":17973:17977  from */\n      dup4\n        /* \"contracts/STEMMER_flattened.sol\":17964:17989  Transfer(from, to, value) */\n      0xffffffffffffffffffffffffffffffffffffffff\n      and\n      0xddf252ad1be2c89b69c2b068fc378daa952ba7f163c4a11628f55a4df523b3ef\n        /* \"contracts/STEMMER_flattened.sol\":17983:17988  value */\n      dup4\n        /* \"contracts/STEMMER_flattened.sol\":17964:17989  Transfer(from, to, value) */\n      mload(0x40)\n      tag_361\n      swap2\n      swap1\n      tag_61\n      jump\t// in\n    tag_361:\n      mload(0x40)\n      dup1\n      swap2\n      sub\n      swap1\n      log3\n        /* \"contracts/STEMMER_flattened.sol\":16889:17996  function _update(address from, address to, uint256 value) internal virtual {... */\n      pop\n      pop\n      pop\n      jump\t// out\n        /* \"#utility.yul\":7:106   */\n    tag_362:\n        /* \"#utility.yul\":59:65   */\n      0x00\n        /* \"#utility.yul\":93:98   */\n      dup2\n        /* \"#utility.yul\":87:99   */\n      mload\n        /* \"#utility.yul\":77:99   */\n      swap1\n      pop\n        /* \"#utility.yul\":7:106   */\n      swap2\n      swap1\n      pop\n      jump\t// out\n        /* \"#utility.yul\":112:281   */\n    tag_363:\n        /* \"#utility.yul\":196:207   */\n      0x00\n        /* \"#utility.yul\":230:236   */\n      dup3\n        /* \"#utility.yul\":225:228   */\n      dup3\n        /* \"#utility.yul\":218:237   */\n      mstore\n        /* \"#utility.yul\":270:274   */\n      0x20\n        /* \"#utility.yul\":265:268   */\n      dup3\n        /* \"#utility.yul\":261:275   */\n      add\n        /* \"#utility.yul\":246:275   */\n      swap1\n      pop\n        /* \"#utility.yul\":112:281   */\n      swap3\n      swap2\n      pop\n      pop\n      jump\t// out\n        /* \"#utility.yul\":287:533   */\n    tag_364:\n        /* \"#utility.yul\":368:369   */\n      0x00\n        /* \"#utility.yul\":378:491   */\n    tag_416:\n        /* \"#utility.yul\":392:398   */\n      dup4\n        /* \"#utility.yul\":389:390   */\n      dup2\n        /* \"#utility.yul\":386:399   */\n      lt\n        /* \"#utility.yul\":378:491   */\n      iszero\n      tag_418\n      jumpi\n        /* \"#utility.yul\":477:478   */\n      dup1\n        /* \"#utility.yul\":472:475   */\n      dup3\n        /* \"#utility.yul\":468:479   */\n      add\n        /* \"#utility.yul\":462:480   */\n      mload\n        /* \"#utility.yul\":458:459   */\n      dup2\n        /* \"#utility.yul\":453:456   */\n      dup5\n        /* \"#utility.yul\":449:460   */\n      add\n        /* \"#utility.yul\":442:481   */\n      mstore\n        /* \"#utility.yul\":414:416   */\n      0x20\n        /* \"#utility.yul\":411:412   */\n      dup2\n        /* \"#utility.yul\":407:417   */\n      add\n        /* \"#utility.yul\":402:417   */\n      swap1\n      pop\n        /* \"#utility.yul\":378:491   */\n      jump(tag_416)\n    tag_418:\n        /* \"#utility.yul\":525:526   */\n      0x00\n        /* \"#utility.yul\":516:522   */\n      dup5\n        /* \"#utility.yul\":511:514   */\n      dup5\n        /* \"#utility.yul\":507:523   */\n      add\n        /* \"#utility.yul\":500:527   */\n      mstore\n        /* \"#utility.yul\":349:533   */\n      pop\n        /* \"#utility.yul\":287:533   */\n      pop\n      pop\n      pop\n      jump\t// out\n        /* \"#utility.yul\":539:641   */\n    tag_365:\n        /* \"#utility.yul\":580:586   */\n      0x00\n        /* \"#utility.yul\":631:633   */\n      0x1f\n        /* \"#utility.yul\":627:634   */\n      not\n        /* \"#utility.yul\":622:624   */\n      0x1f\n        /* \"#utility.yul\":615:620   */\n      dup4\n        /* \"#utility.yul\":611:625   */\n      add\n        /* \"#utility.yul\":607:635   */\n      and\n        /* \"#utility.yul\":597:635   */\n      swap1\n      pop\n        /* \"#utility.yul\":539:641   */\n      swap2\n      swap1\n      pop\n      jump\t// out\n        /* \"#utility.yul\":647:1024   */\n    tag_366:\n        /* \"#utility.yul\":735:738   */\n      0x00\n        /* \"#utility.yul\":763:802   */\n      tag_421\n        /* \"#utility.yul\":796:801   */\n      dup3\n        /* \"#utility.yul\":763:802   */\n      tag_362\n      jump\t// in\n    tag_421:\n        /* \"#utility.yul\":818:889   */\n      tag_422\n        /* \"#utility.yul\":882:888   */\n      dup2\n        /* \"#utility.yul\":877:880   */\n      dup6\n        /* \"#utility.yul\":818:889   */\n      tag_363\n      jump\t// in\n    tag_422:\n        /* \"#utility.yul\":811:889   */\n      swap4\n      pop\n        /* \"#utility.yul\":898:963   */\n      tag_423\n        /* \"#utility.yul\":956:962   */\n      dup2\n        /* \"#utility.yul\":951:954   */\n      dup6\n        /* \"#utility.yul\":944:948   */\n      0x20\n        /* \"#utility.yul\":937:942   */\n      dup7\n        /* \"#utility.yul\":933:949   */\n      add\n        /* \"#utility.yul\":898:963   */\n      tag_364\n      jump\t// in\n    tag_423:\n        /* \"#utility.yul\":988:1017   */\n      tag_424\n        /* \"#utility.yul\":1010:1016   */\n      dup2\n        /* \"#utility.yul\":988:1017   */\n      tag_365\n      jump\t// in\n    tag_424:\n        /* \"#utility.yul\":983:986   */\n      dup5\n        /* \"#utility.yul\":979:1018   */\n      add\n        /* \"#utility.yul\":972:1018   */\n      swap2\n      pop\n        /* \"#utility.yul\":739:1024   */\n      pop\n        /* \"#utility.yul\":647:1024   */\n      swap3\n      swap2\n      pop\n      pop\n      jump\t// out\n        /* \"#utility.yul\":1030:1343   */\n    tag_44:\n        /* \"#utility.yul\":1143:1147   */\n      0x00\n        /* \"#utility.yul\":1181:1183   */\n      0x20\n        /* \"#utility.yul\":1170:1179   */\n      dup3\n        /* \"#utility.yul\":1166:1184   */\n      add\n        /* \"#utility.yul\":1158:1184   */\n      swap1\n      pop\n        /* \"#utility.yul\":1230:1239   */\n      dup2\n        /* \"#utility.yul\":1224:1228   */\n      dup2\n        /* \"#utility.yul\":1220:1240   */\n      sub\n        /* \"#utility.yul\":1216:1217   */\n      0x00\n        /* \"#utility.yul\":1205:1214   */\n      dup4\n        /* \"#utility.yul\":1201:1218   */\n      add\n        /* \"#utility.yul\":1194:1241   */\n      mstore\n        /* \"#utility.yul\":1258:1336   */\n      tag_426\n        /* \"#utility.yul\":1331:1335   */\n      dup2\n        /* \"#utility.yul\":1322:1328   */\n      dup5\n        /* \"#utility.yul\":1258:1336   */\n      tag_366\n      jump\t// in\n    tag_426:\n        /* \"#utility.yul\":1250:1336   */\n      swap1\n      pop\n        /* \"#utility.yul\":1030:1343   */\n      swap3\n      swap2\n      pop\n      pop\n      jump\t// out\n        /* \"#utility.yul\":1430:1547   */\n    tag_368:\n        /* \"#utility.yul\":1539:1540   */\n      0x00\n        /* \"#utility.yul\":1536:1537   */\n      dup1\n        /* \"#utility.yul\":1529:1541   */\n      revert\n        /* \"#utility.yul\":1676:1802   */\n    tag_370:\n        /* \"#utility.yul\":1713:1720   */\n      0x00\n        /* \"#utility.yul\":1753:1795   */\n      0xffffffffffffffffffffffffffffffffffffffff\n        /* \"#utility.yul\":1746:1751   */\n      dup3\n        /* \"#utility.yul\":1742:1796   */\n      and\n        /* \"#utility.yul\":1731:1796   */\n      swap1\n      pop\n        /* \"#utility.yul\":1676:1802   */\n      swap2\n      swap1\n      pop\n      jump\t// out\n        /* \"#utility.yul\":1808:1904   */\n    tag_371:\n        /* \"#utility.yul\":1845:1852   */\n      0x00\n        /* \"#utility.yul\":1874:1898   */\n      tag_432\n        /* \"#utility.yul\":1892:1897   */\n      dup3\n        /* \"#utility.yul\":1874:1898   */\n      tag_370\n      jump\t// in\n    tag_432:\n        /* \"#utility.yul\":1863:1898   */\n      swap1\n      pop\n        /* \"#utility.yul\":1808:1904   */\n      swap2\n      swap1\n      pop\n      jump\t// out\n        /* \"#utility.yul\":1910:2032   */\n    tag_372:\n        /* \"#utility.yul\":1983:2007   */\n      tag_434\n        /* \"#utility.yul\":2001:2006   */\n      dup2\n        /* \"#utility.yul\":1983:2007   */\n      tag_371\n      jump\t// in\n    tag_434:\n        /* \"#utility.yul\":1976:1981   */\n      dup2\n        /* \"#utility.yul\":1973:2008   */\n      eq\n        /* \"#utility.yul\":1963:2026   */\n      tag_435\n      jumpi\n        /* \"#utility.yul\":2022:2023   */\n      0x00\n        /* \"#utility.yul\":2019:2020   */\n      dup1\n        /* \"#utility.yul\":2012:2024   */\n      revert\n        /* \"#utility.yul\":1963:2026   */\n    tag_435:\n        /* \"#utility.yul\":1910:2032   */\n      pop\n      jump\t// out\n        /* \"#utility.yul\":2038:2177   */\n    tag_373:\n        /* \"#utility.yul\":2084:2089   */\n      0x00\n        /* \"#utility.yul\":2122:2128   */\n      dup2\n        /* \"#utility.yul\":2109:2129   */\n      calldataload\n        /* \"#utility.yul\":2100:2129   */\n      swap1\n      pop\n        /* \"#utility.yul\":2138:2171   */\n      tag_437\n        /* \"#utility.yul\":2165:2170   */\n      dup2\n        /* \"#utility.yul\":2138:2171   */\n      tag_372\n      jump\t// in\n    tag_437:\n        /* \"#utility.yul\":2038:2177   */\n      swap3\n      swap2\n      pop\n      pop\n      jump\t// out\n        /* \"#utility.yul\":2183:2260   */\n    tag_374:\n        /* \"#utility.yul\":2220:2227   */\n      0x00\n        /* \"#utility.yul\":2249:2254   */\n      dup2\n        /* \"#utility.yul\":2238:2254   */\n      swap1\n      pop\n        /* \"#utility.yul\":2183:2260   */\n      swap2\n      swap1\n      pop\n      jump\t// out\n        /* \"#utility.yul\":2266:2388   */\n    tag_375:\n        /* \"#utility.yul\":2339:2363   */\n      tag_440\n        /* \"#utility.yul\":2357:2362   */\n      dup2\n        /* \"#utility.yul\":2339:2363   */\n      tag_374\n      jump\t// in\n    tag_440:\n        /* \"#utility.yul\":2332:2337   */\n      dup2\n        /* \"#utility.yul\":2329:2364   */\n      eq\n        /* \"#utility.yul\":2319:2382   */\n      tag_441\n      jumpi\n        /* \"#utility.yul\":2378:2379   */\n      0x00\n        /* \"#utility.yul\":2375:2376   */\n      dup1\n        /* \"#utility.yul\":2368:2380   */\n      revert\n        /* \"#utility.yul\":2319:2382   */\n    tag_441:\n        /* \"#utility.yul\":2266:2388   */\n      pop\n      jump\t// out\n        /* \"#utility.yul\":2394:2533   */\n    tag_376:\n        /* \"#utility.yul\":2440:2445   */\n      0x00\n        /* \"#utility.yul\":2478:2484   */\n      dup2\n        /* \"#utility.yul\":2465:2485   */\n      calldataload\n        /* \"#utility.yul\":2456:2485   */\n      swap1\n      pop\n        /* \"#utility.yul\":2494:2527   */\n      tag_443\n        /* \"#utility.yul\":2521:2526   */\n      dup2\n        /* \"#utility.yul\":2494:2527   */\n      tag_375\n      jump\t// in\n    tag_443:\n        /* \"#utility.yul\":2394:2533   */\n      swap3\n      swap2\n      pop\n      pop\n      jump\t// out\n        /* \"#utility.yul\":2539:3013   */\n    tag_47:\n        /* \"#utility.yul\":2607:2613   */\n      0x00\n        /* \"#utility.yul\":2615:2621   */\n      dup1\n        /* \"#utility.yul\":2664:2666   */\n      0x40\n        /* \"#utility.yul\":2652:2661   */\n      dup4\n        /* \"#utility.yul\":2643:2650   */\n      dup6\n        /* \"#utility.yul\":2639:2662   */\n      sub\n        /* \"#utility.yul\":2635:2667   */\n      slt\n        /* \"#utility.yul\":2632:2751   */\n      iszero\n      tag_445\n      jumpi\n        /* \"#utility.yul\":2670:2749   */\n      tag_446\n      tag_368\n      jump\t// in\n    tag_446:\n        /* \"#utility.yul\":2632:2751   */\n    tag_445:\n        /* \"#utility.yul\":2790:2791   */\n      0x00\n        /* \"#utility.yul\":2815:2868   */\n      tag_447\n        /* \"#utility.yul\":2860:2867   */\n      dup6\n        /* \"#utility.yul\":2851:2857   */\n      dup3\n        /* \"#utility.yul\":2840:2849   */\n      dup7\n        /* \"#utility.yul\":2836:2858   */\n      add\n        /* \"#utility.yul\":2815:2868   */\n      tag_373\n      jump\t// in\n    tag_447:\n        /* \"#utility.yul\":2805:2868   */\n      swap3\n      pop\n        /* \"#utility.yul\":2761:2878   */\n      pop\n        /* \"#utility.yul\":2917:2919   */\n      0x20\n        /* \"#utility.yul\":2943:2996   */\n      tag_448\n        /* \"#utility.yul\":2988:2995   */\n      dup6\n        /* \"#utility.yul\":2979:2985   */\n      dup3\n        /* \"#utility.yul\":2968:2977   */\n      dup7\n        /* \"#utility.yul\":2964:2986   */\n      add\n        /* \"#utility.yul\":2943:2996   */\n      tag_376\n      jump\t// in\n    tag_448:\n        /* \"#utility.yul\":2933:2996   */\n      swap2\n      pop\n        /* \"#utility.yul\":2888:3006   */\n      pop\n        /* \"#utility.yul\":2539:3013   */\n      swap3\n      pop\n      swap3\n      swap1\n      pop\n      jump\t// out\n        /* \"#utility.yul\":3019:3109   */\n    tag_377:\n        /* \"#utility.yul\":3053:3060   */\n      0x00\n        /* \"#utility.yul\":3096:3101   */\n      dup2\n        /* \"#utility.yul\":3089:3102   */\n      iszero\n        /* \"#utility.yul\":3082:3103   */\n      iszero\n        /* \"#utility.yul\":3071:3103   */\n      swap1\n      pop\n        /* \"#utility.yul\":3019:3109   */\n      swap2\n      swap1\n      pop\n      jump\t// out\n        /* \"#utility.yul\":3115:3224   */\n    tag_378:\n        /* \"#utility.yul\":3196:3217   */\n      tag_451\n        /* \"#utility.yul\":3211:3216   */\n      dup2\n        /* \"#utility.yul\":3196:3217   */\n      tag_377\n      jump\t// in\n    tag_451:\n        /* \"#utility.yul\":3191:3194   */\n      dup3\n        /* \"#utility.yul\":3184:3218   */\n      mstore\n        /* \"#utility.yul\":3115:3224   */\n      pop\n      pop\n      jump\t// out\n        /* \"#utility.yul\":3230:3440   */\n    tag_50:\n        /* \"#utility.yul\":3317:3321   */\n      0x00\n        /* \"#utility.yul\":3355:3357   */\n      0x20\n        /* \"#utility.yul\":3344:3353   */\n      dup3\n        /* \"#utility.yul\":3340:3358   */\n      add\n        /* \"#utility.yul\":3332:3358   */\n      swap1\n      pop\n        /* \"#utility.yul\":3368:3433   */\n      tag_453\n        /* \"#utility.yul\":3430:3431   */\n      0x00\n        /* \"#utility.yul\":3419:3428   */\n      dup4\n        /* \"#utility.yul\":3415:3432   */\n      add\n        /* \"#utility.yul\":3406:3412   */\n      dup5\n        /* \"#utility.yul\":3368:3433   */\n      tag_378\n      jump\t// in\n    tag_453:\n        /* \"#utility.yul\":3230:3440   */\n      swap3\n      swap2\n      pop\n      pop\n      jump\t// out\n        /* \"#utility.yul\":3446:3775   */\n    tag_53:\n        /* \"#utility.yul\":3505:3511   */\n      0x00\n        /* \"#utility.yul\":3554:3556   */\n      0x20\n        /* \"#utility.yul\":3542:3551   */\n      dup3\n        /* \"#utility.yul\":3533:3540   */\n      dup5\n        /* \"#utility.yul\":3529:3552   */\n      sub\n        /* \"#utility.yul\":3525:3557   */\n      slt\n        /* \"#utility.yul\":3522:3641   */\n      iszero\n      tag_455\n      jumpi\n        /* \"#utility.yul\":3560:3639   */\n      tag_456\n      tag_368\n      jump\t// in\n    tag_456:\n        /* \"#utility.yul\":3522:3641   */\n    tag_455:\n        /* \"#utility.yul\":3680:3681   */\n      0x00\n        /* \"#utility.yul\":3705:3758   */\n      tag_457\n        /* \"#utility.yul\":3750:3757   */\n      dup5\n        /* \"#utility.yul\":3741:3747   */\n      dup3\n        /* \"#utility.yul\":3730:3739   */\n      dup6\n        /* \"#utility.yul\":3726:3748   */\n      add\n        /* \"#utility.yul\":3705:3758   */\n      tag_373\n      jump\t// in\n    tag_457:\n        /* \"#utility.yul\":3695:3758   */\n      swap2\n      pop\n        /* \"#utility.yul\":3651:3768   */\n      pop\n        /* \"#utility.yul\":3446:3775   */\n      swap3\n      swap2\n      pop\n      pop\n      jump\t// out\n        /* \"#utility.yul\":3781:3899   */\n    tag_379:\n        /* \"#utility.yul\":3868:3892   */\n      tag_459\n        /* \"#utility.yul\":3886:3891   */\n      dup2\n        /* \"#utility.yul\":3868:3892   */\n      tag_374\n      jump\t// in\n    tag_459:\n        /* \"#utility.yul\":3863:3866   */\n      dup3\n        /* \"#utility.yul\":3856:3893   */\n      mstore\n        /* \"#utility.yul\":3781:3899   */\n      pop\n      pop\n      jump\t// out\n        /* \"#utility.yul\":3905:4127   */\n    tag_61:\n        /* \"#utility.yul\":3998:4002   */\n      0x00\n        /* \"#utility.yul\":4036:4038   */\n      0x20\n        /* \"#utility.yul\":4025:4034   */\n      dup3\n        /* \"#utility.yul\":4021:4039   */\n      add\n        /* \"#utility.yul\":4013:4039   */\n      swap1\n      pop\n        /* \"#utility.yul\":4049:4120   */\n      tag_461\n        /* \"#utility.yul\":4117:4118   */\n      0x00\n        /* \"#utility.yul\":4106:4115   */\n      dup4\n        /* \"#utility.yul\":4102:4119   */\n      add\n        /* \"#utility.yul\":4093:4099   */\n      dup5\n        /* \"#utility.yul\":4049:4120   */\n      tag_379\n      jump\t// in\n    tag_461:\n        /* \"#utility.yul\":3905:4127   */\n      swap3\n      swap2\n      pop\n      pop\n      jump\t// out\n        /* \"#utility.yul\":4133:4752   */\n    tag_64:\n        /* \"#utility.yul\":4210:4216   */\n      0x00\n        /* \"#utility.yul\":4218:4224   */\n      dup1\n        /* \"#utility.yul\":4226:4232   */\n      0x00\n        /* \"#utility.yul\":4275:4277   */\n      0x60\n        /* \"#utility.yul\":4263:4272   */\n      dup5\n        /* \"#utility.yul\":4254:4261   */\n      dup7\n        /* \"#utility.yul\":4250:4273   */\n      sub\n        /* \"#utility.yul\":4246:4278   */\n      slt\n        /* \"#utility.yul\":4243:4362   */\n      iszero\n      tag_463\n      jumpi\n        /* \"#utility.yul\":4281:4360   */\n      tag_464\n      tag_368\n      jump\t// in\n    tag_464:\n        /* \"#utility.yul\":4243:4362   */\n    tag_463:\n        /* \"#utility.yul\":4401:4402   */\n      0x00\n        /* \"#utility.yul\":4426:4479   */\n      tag_465\n        /* \"#utility.yul\":4471:4478   */\n      dup7\n        /* \"#utility.yul\":4462:4468   */\n      dup3\n        /* \"#utility.yul\":4451:4460   */\n      dup8\n        /* \"#utility.yul\":4447:4469   */\n      add\n        /* \"#utility.yul\":4426:4479   */\n      tag_373\n      jump\t// in\n    tag_465:\n        /* \"#utility.yul\":4416:4479   */\n      swap4\n      pop\n        /* \"#utility.yul\":4372:4489   */\n      pop\n        /* \"#utility.yul\":4528:4530   */\n      0x20\n        /* \"#utility.yul\":4554:4607   */\n      tag_466\n        /* \"#utility.yul\":4599:4606   */\n      dup7\n        /* \"#utility.yul\":4590:4596   */\n      dup3\n        /* \"#utility.yul\":4579:4588   */\n      dup8\n        /* \"#utility.yul\":4575:4597   */\n      add\n        /* \"#utility.yul\":4554:4607   */\n      tag_373\n      jump\t// in\n    tag_466:\n        /* \"#utility.yul\":4544:4607   */\n      swap3\n      pop\n        /* \"#utility.yul\":4499:4617   */\n      pop\n        /* \"#utility.yul\":4656:4658   */\n      0x40\n        /* \"#utility.yul\":4682:4735   */\n      tag_467\n        /* \"#utility.yul\":4727:4734   */\n      dup7\n        /* \"#utility.yul\":4718:4724   */\n      dup3\n        /* \"#utility.yul\":4707:4716   */\n      dup8\n        /* \"#utility.yul\":4703:4725   */\n      add\n        /* \"#utility.yul\":4682:4735   */\n      tag_376\n      jump\t// in\n    tag_467:\n        /* \"#utility.yul\":4672:4735   */\n      swap2\n      pop\n        /* \"#utility.yul\":4627:4745   */\n      pop\n        /* \"#utility.yul\":4133:4752   */\n      swap3\n      pop\n      swap3\n      pop\n      swap3\n      jump\t// out\n        /* \"#utility.yul\":4758:5087   */\n    tag_69:\n        /* \"#utility.yul\":4817:4823   */\n      0x00\n        /* \"#utility.yul\":4866:4868   */\n      0x20\n        /* \"#utility.yul\":4854:4863   */\n      dup3\n        /* \"#utility.yul\":4845:4852   */\n      dup5\n        /* \"#utility.yul\":4841:4864   */\n      sub\n        /* \"#utility.yul\":4837:4869   */\n      slt\n        /* \"#utility.yul\":4834:4953   */\n      iszero\n      tag_469\n      jumpi\n        /* \"#utility.yul\":4872:4951   */\n      tag_470\n      tag_368\n      jump\t// in\n    tag_470:\n        /* \"#utility.yul\":4834:4953   */\n    tag_469:\n        /* \"#utility.yul\":4992:4993   */\n      0x00\n        /* \"#utility.yul\":5017:5070   */\n      tag_471\n        /* \"#utility.yul\":5062:5069   */\n      dup5\n        /* \"#utility.yul\":5053:5059   */\n      dup3\n        /* \"#utility.yul\":5042:5051   */\n      dup6\n        /* \"#utility.yul\":5038:5060   */\n      add\n        /* \"#utility.yul\":5017:5070   */\n      tag_376\n      jump\t// in\n    tag_471:\n        /* \"#utility.yul\":5007:5070   */\n      swap2\n      pop\n        /* \"#utility.yul\":4963:5080   */\n      pop\n        /* \"#utility.yul\":4758:5087   */\n      swap3\n      swap2\n      pop\n      pop\n      jump\t// out\n        /* \"#utility.yul\":5093:5179   */\n    tag_380:\n        /* \"#utility.yul\":5128:5135   */\n      0x00\n        /* \"#utility.yul\":5168:5172   */\n      0xff\n        /* \"#utility.yul\":5161:5166   */\n      dup3\n        /* \"#utility.yul\":5157:5173   */\n      and\n        /* \"#utility.yul\":5146:5173   */\n      swap1\n      pop\n        /* \"#utility.yul\":5093:5179   */\n      swap2\n      swap1\n      pop\n      jump\t// out\n        /* \"#utility.yul\":5185:5297   */\n    tag_381:\n        /* \"#utility.yul\":5268:5290   */\n      tag_474\n        /* \"#utility.yul\":5284:5289   */\n      dup2\n        /* \"#utility.yul\":5268:5290   */\n      tag_380\n      jump\t// in\n    tag_474:\n        /* \"#utility.yul\":5263:5266   */\n      dup3\n        /* \"#utility.yul\":5256:5291   */\n      mstore\n        /* \"#utility.yul\":5185:5297   */\n      pop\n      pop\n      jump\t// out\n        /* \"#utility.yul\":5303:5517   */\n    tag_74:\n        /* \"#utility.yul\":5392:5396   */\n      0x00\n        /* \"#utility.yul\":5430:5432   */\n      0x20\n        /* \"#utility.yul\":5419:5428   */\n      dup3\n        /* \"#utility.yul\":5415:5433   */\n      add\n        /* \"#utility.yul\":5407:5433   */\n      swap1\n      pop\n        /* \"#utility.yul\":5443:5510   */\n      tag_476\n        /* \"#utility.yul\":5507:5508   */\n      0x00\n        /* \"#utility.yul\":5496:5505   */\n      dup4\n        /* \"#utility.yul\":5492:5509   */\n      add\n        /* \"#utility.yul\":5483:5489   */\n      dup5\n        /* \"#utility.yul\":5443:5510   */\n      tag_381\n      jump\t// in\n    tag_476:\n        /* \"#utility.yul\":5303:5517   */\n      swap3\n      swap2\n      pop\n      pop\n      jump\t// out\n        /* \"#utility.yul\":5523:5641   */\n    tag_382:\n        /* \"#utility.yul\":5610:5634   */\n      tag_478\n        /* \"#utility.yul\":5628:5633   */\n      dup2\n        /* \"#utility.yul\":5610:5634   */\n      tag_371\n      jump\t// in\n    tag_478:\n        /* \"#utility.yul\":5605:5608   */\n      dup3\n        /* \"#utility.yul\":5598:5635   */\n      mstore\n        /* \"#utility.yul\":5523:5641   */\n      pop\n      pop\n      jump\t// out\n        /* \"#utility.yul\":5647:5869   */\n    tag_84:\n        /* \"#utility.yul\":5740:5744   */\n      0x00\n        /* \"#utility.yul\":5778:5780   */\n      0x20\n        /* \"#utility.yul\":5767:5776   */\n      dup3\n        /* \"#utility.yul\":5763:5781   */\n      add\n        /* \"#utility.yul\":5755:5781   */\n      swap1\n      pop\n        /* \"#utility.yul\":5791:5862   */\n      tag_480\n        /* \"#utility.yul\":5859:5860   */\n      0x00\n        /* \"#utility.yul\":5848:5857   */\n      dup4\n        /* \"#utility.yul\":5844:5861   */\n      add\n        /* \"#utility.yul\":5835:5841   */\n      dup5\n        /* \"#utility.yul\":5791:5862   */\n      tag_382\n      jump\t// in\n    tag_480:\n        /* \"#utility.yul\":5647:5869   */\n      swap3\n      swap2\n      pop\n      pop\n      jump\t// out\n        /* \"#utility.yul\":5875:5935   */\n    tag_383:\n        /* \"#utility.yul\":5903:5906   */\n      0x00\n        /* \"#utility.yul\":5924:5929   */\n      dup2\n        /* \"#utility.yul\":5917:5929   */\n      swap1\n      pop\n        /* \"#utility.yul\":5875:5935   */\n      swap2\n      swap1\n      pop\n      jump\t// out\n        /* \"#utility.yul\":5941:6083   */\n    tag_384:\n        /* \"#utility.yul\":5991:6000   */\n      0x00\n        /* \"#utility.yul\":6024:6077   */\n      tag_483\n        /* \"#utility.yul\":6042:6076   */\n      tag_484\n        /* \"#utility.yul\":6051:6075   */\n      tag_485\n        /* \"#utility.yul\":6069:6074   */\n      dup5\n        /* \"#utility.yul\":6051:6075   */\n      tag_370\n      jump\t// in\n    tag_485:\n        /* \"#utility.yul\":6042:6076   */\n      tag_383\n      jump\t// in\n    tag_484:\n        /* \"#utility.yul\":6024:6077   */\n      tag_370\n      jump\t// in\n    tag_483:\n        /* \"#utility.yul\":6011:6077   */\n      swap1\n      pop\n        /* \"#utility.yul\":5941:6083   */\n      swap2\n      swap1\n      pop\n      jump\t// out\n        /* \"#utility.yul\":6089:6215   */\n    tag_385:\n        /* \"#utility.yul\":6139:6148   */\n      0x00\n        /* \"#utility.yul\":6172:6209   */\n      tag_487\n        /* \"#utility.yul\":6203:6208   */\n      dup3\n        /* \"#utility.yul\":6172:6209   */\n      tag_384\n      jump\t// in\n    tag_487:\n        /* \"#utility.yul\":6159:6209   */\n      swap1\n      pop\n        /* \"#utility.yul\":6089:6215   */\n      swap2\n      swap1\n      pop\n      jump\t// out\n        /* \"#utility.yul\":6221:6360   */\n    tag_386:\n        /* \"#utility.yul\":6284:6293   */\n      0x00\n        /* \"#utility.yul\":6317:6354   */\n      tag_489\n        /* \"#utility.yul\":6348:6353   */\n      dup3\n        /* \"#utility.yul\":6317:6354   */\n      tag_385\n      jump\t// in\n    tag_489:\n        /* \"#utility.yul\":6304:6354   */\n      swap1\n      pop\n        /* \"#utility.yul\":6221:6360   */\n      swap2\n      swap1\n      pop\n      jump\t// out\n        /* \"#utility.yul\":6366:6523   */\n    tag_387:\n        /* \"#utility.yul\":6466:6516   */\n      tag_491\n        /* \"#utility.yul\":6510:6515   */\n      dup2\n        /* \"#utility.yul\":6466:6516   */\n      tag_386\n      jump\t// in\n    tag_491:\n        /* \"#utility.yul\":6461:6464   */\n      dup3\n        /* \"#utility.yul\":6454:6517   */\n      mstore\n        /* \"#utility.yul\":6366:6523   */\n      pop\n      pop\n      jump\t// out\n        /* \"#utility.yul\":6529:6777   */\n    tag_119:\n        /* \"#utility.yul\":6635:6639   */\n      0x00\n        /* \"#utility.yul\":6673:6675   */\n      0x20\n        /* \"#utility.yul\":6662:6671   */\n      dup3\n        /* \"#utility.yul\":6658:6676   */\n      add\n        /* \"#utility.yul\":6650:6676   */\n      swap1\n      pop\n        /* \"#utility.yul\":6686:6770   */\n      tag_493\n        /* \"#utility.yul\":6767:6768   */\n      0x00\n        /* \"#utility.yul\":6756:6765   */\n      dup4\n        /* \"#utility.yul\":6752:6769   */\n      add\n        /* \"#utility.yul\":6743:6749   */\n      dup5\n        /* \"#utility.yul\":6686:6770   */\n      tag_387\n      jump\t// in\n    tag_493:\n        /* \"#utility.yul\":6529:6777   */\n      swap3\n      swap2\n      pop\n      pop\n      jump\t// out\n        /* \"#utility.yul\":6783:8115   */\n    tag_126:\n        /* \"#utility.yul\":7157:7161   */\n      0x00\n        /* \"#utility.yul\":7195:7198   */\n      0x0160\n        /* \"#utility.yul\":7184:7193   */\n      dup3\n        /* \"#utility.yul\":7180:7199   */\n      add\n        /* \"#utility.yul\":7172:7199   */\n      swap1\n      pop\n        /* \"#utility.yul\":7209:7280   */\n      tag_495\n        /* \"#utility.yul\":7277:7278   */\n      0x00\n        /* \"#utility.yul\":7266:7275   */\n      dup4\n        /* \"#utility.yul\":7262:7279   */\n      add\n        /* \"#utility.yul\":7253:7259   */\n      dup15\n        /* \"#utility.yul\":7209:7280   */\n      tag_379\n      jump\t// in\n    tag_495:\n        /* \"#utility.yul\":7290:7362   */\n      tag_496\n        /* \"#utility.yul\":7358:7360   */\n      0x20\n        /* \"#utility.yul\":7347:7356   */\n      dup4\n        /* \"#utility.yul\":7343:7361   */\n      add\n        /* \"#utility.yul\":7334:7340   */\n      dup14\n        /* \"#utility.yul\":7290:7362   */\n      tag_379\n      jump\t// in\n    tag_496:\n        /* \"#utility.yul\":7372:7444   */\n      tag_497\n        /* \"#utility.yul\":7440:7442   */\n      0x40\n        /* \"#utility.yul\":7429:7438   */\n      dup4\n        /* \"#utility.yul\":7425:7443   */\n      add\n        /* \"#utility.yul\":7416:7422   */\n      dup13\n        /* \"#utility.yul\":7372:7444   */\n      tag_382\n      jump\t// in\n    tag_497:\n        /* \"#utility.yul\":7454:7526   */\n      tag_498\n        /* \"#utility.yul\":7522:7524   */\n      0x60\n        /* \"#utility.yul\":7511:7520   */\n      dup4\n        /* \"#utility.yul\":7507:7525   */\n      add\n        /* \"#utility.yul\":7498:7504   */\n      dup12\n        /* \"#utility.yul\":7454:7526   */\n      tag_382\n      jump\t// in\n    tag_498:\n        /* \"#utility.yul\":7536:7609   */\n      tag_499\n        /* \"#utility.yul\":7604:7607   */\n      0x80\n        /* \"#utility.yul\":7593:7602   */\n      dup4\n        /* \"#utility.yul\":7589:7608   */\n      add\n        /* \"#utility.yul\":7580:7586   */\n      dup11\n        /* \"#utility.yul\":7536:7609   */\n      tag_379\n      jump\t// in\n    tag_499:\n        /* \"#utility.yul\":7619:7692   */\n      tag_500\n        /* \"#utility.yul\":7687:7690   */\n      0xa0\n        /* \"#utility.yul\":7676:7685   */\n      dup4\n        /* \"#utility.yul\":7672:7691   */\n      add\n        /* \"#utility.yul\":7663:7669   */\n      dup10\n        /* \"#utility.yul\":7619:7692   */\n      tag_379\n      jump\t// in\n    tag_500:\n        /* \"#utility.yul\":7702:7775   */\n      tag_501\n        /* \"#utility.yul\":7770:7773   */\n      0xc0\n        /* \"#utility.yul\":7759:7768   */\n      dup4\n        /* \"#utility.yul\":7755:7774   */\n      add\n        /* \"#utility.yul\":7746:7752   */\n      dup9\n        /* \"#utility.yul\":7702:7775   */\n      tag_379\n      jump\t// in\n    tag_501:\n        /* \"#utility.yul\":7785:7858   */\n      tag_502\n        /* \"#utility.yul\":7853:7856   */\n      0xe0\n        /* \"#utility.yul\":7842:7851   */\n      dup4\n        /* \"#utility.yul\":7838:7857   */\n      add\n        /* \"#utility.yul\":7829:7835   */\n      dup8\n        /* \"#utility.yul\":7785:7858   */\n      tag_379\n      jump\t// in\n    tag_502:\n        /* \"#utility.yul\":7868:7941   */\n      tag_503\n        /* \"#utility.yul\":7936:7939   */\n      0x0100\n        /* \"#utility.yul\":7925:7934   */\n      dup4\n        /* \"#utility.yul\":7921:7940   */\n      add\n        /* \"#utility.yul\":7912:7918   */\n      dup7\n        /* \"#utility.yul\":7868:7941   */\n      tag_379\n      jump\t// in\n    tag_503:\n        /* \"#utility.yul\":7951:8024   */\n      tag_504\n        /* \"#utility.yul\":8019:8022   */\n      0x0120\n        /* \"#utility.yul\":8008:8017   */\n      dup4\n        /* \"#utility.yul\":8004:8023   */\n      add\n        /* \"#utility.yul\":7995:8001   */\n      dup6\n        /* \"#utility.yul\":7951:8024   */\n      tag_379\n      jump\t// in\n    tag_504:\n        /* \"#utility.yul\":8034:8108   */\n      tag_505\n        /* \"#utility.yul\":8103:8106   */\n      0x0140\n        /* \"#utility.yul\":8092:8101   */\n      dup4\n        /* \"#utility.yul\":8088:8107   */\n      add\n        /* \"#utility.yul\":8078:8085   */\n      dup5\n        /* \"#utility.yul\":8034:8108   */\n      tag_379\n      jump\t// in\n    tag_505:\n        /* \"#utility.yul\":6783:8115   */\n      swap13\n      swap12\n      pop\n      pop\n      pop\n      pop\n      pop\n      pop\n      pop\n      pop\n      pop\n      pop\n      pop\n      pop\n      jump\t// out\n        /* \"#utility.yul\":8121:8595   */\n    tag_129:\n        /* \"#utility.yul\":8189:8195   */\n      0x00\n        /* \"#utility.yul\":8197:8203   */\n      dup1\n        /* \"#utility.yul\":8246:8248   */\n      0x40\n        /* \"#utility.yul\":8234:8243   */\n      dup4\n        /* \"#utility.yul\":8225:8232   */\n      dup6\n        /* \"#utility.yul\":8221:8244   */\n      sub\n        /* \"#utility.yul\":8217:8249   */\n      slt\n        /* \"#utility.yul\":8214:8333   */\n      iszero\n      tag_507\n      jumpi\n        /* \"#utility.yul\":8252:8331   */\n      tag_508\n      tag_368\n      jump\t// in\n    tag_508:\n        /* \"#utility.yul\":8214:8333   */\n    tag_507:\n        /* \"#utility.yul\":8372:8373   */\n      0x00\n        /* \"#utility.yul\":8397:8450   */\n      tag_509\n        /* \"#utility.yul\":8442:8449   */\n      dup6\n        /* \"#utility.yul\":8433:8439   */\n      dup3\n        /* \"#utility.yul\":8422:8431   */\n      dup7\n        /* \"#utility.yul\":8418:8440   */\n      add\n        /* \"#utility.yul\":8397:8450   */\n      tag_373\n      jump\t// in\n    tag_509:\n        /* \"#utility.yul\":8387:8450   */\n      swap3\n      pop\n        /* \"#utility.yul\":8343:8460   */\n      pop\n        /* \"#utility.yul\":8499:8501   */\n      0x20\n        /* \"#utility.yul\":8525:8578   */\n      tag_510\n        /* \"#utility.yul\":8570:8577   */\n      dup6\n        /* \"#utility.yul\":8561:8567   */\n      dup3\n        /* \"#utility.yul\":8550:8559   */\n      dup7\n        /* \"#utility.yul\":8546:8568   */\n      add\n        /* \"#utility.yul\":8525:8578   */\n      tag_373\n      jump\t// in\n    tag_510:\n        /* \"#utility.yul\":8515:8578   */\n      swap2\n      pop\n        /* \"#utility.yul\":8470:8588   */\n      pop\n        /* \"#utility.yul\":8121:8595   */\n      swap3\n      pop\n      swap3\n      swap1\n      pop\n      jump\t// out\n        /* \"#utility.yul\":8601:8781   */\n    tag_388:\n        /* \"#utility.yul\":8649:8726   */\n      0x4e487b7100000000000000000000000000000000000000000000000000000000\n        /* \"#utility.yul\":8646:8647   */\n      0x00\n        /* \"#utility.yul\":8639:8727   */\n      mstore\n        /* \"#utility.yul\":8746:8750   */\n      0x22\n        /* \"#utility.yul\":8743:8744   */\n      0x04\n        /* \"#utility.yul\":8736:8751   */\n      mstore\n        /* \"#utility.yul\":8770:8774   */\n      0x24\n        /* \"#utility.yul\":8767:8768   */\n      0x00\n        /* \"#utility.yul\":8760:8775   */\n      revert\n        /* \"#utility.yul\":8787:9107   */\n    tag_151:\n        /* \"#utility.yul\":8831:8837   */\n      0x00\n        /* \"#utility.yul\":8868:8869   */\n      0x02\n        /* \"#utility.yul\":8862:8866   */\n      dup3\n        /* \"#utility.yul\":8858:8870   */\n      div\n        /* \"#utility.yul\":8848:8870   */\n      swap1\n      pop\n        /* \"#utility.yul\":8915:8916   */\n      0x01\n        /* \"#utility.yul\":8909:8913   */\n      dup3\n        /* \"#utility.yul\":8905:8917   */\n      and\n        /* \"#utility.yul\":8936:8954   */\n      dup1\n        /* \"#utility.yul\":8926:9007   */\n      tag_513\n      jumpi\n        /* \"#utility.yul\":8992:8996   */\n      0x7f\n        /* \"#utility.yul\":8984:8990   */\n      dup3\n        /* \"#utility.yul\":8980:8997   */\n      and\n        /* \"#utility.yul\":8970:8997   */\n      swap2\n      pop\n        /* \"#utility.yul\":8926:9007   */\n    tag_513:\n        /* \"#utility.yul\":9054:9056   */\n      0x20\n        /* \"#utility.yul\":9046:9052   */\n      dup3\n        /* \"#utility.yul\":9043:9057   */\n      lt\n        /* \"#utility.yul\":9023:9041   */\n      dup2\n        /* \"#utility.yul\":9020:9058   */\n      sub\n        /* \"#utility.yul\":9017:9101   */\n      tag_514\n      jumpi\n        /* \"#utility.yul\":9073:9091   */\n      tag_515\n      tag_388\n      jump\t// in\n    tag_515:\n        /* \"#utility.yul\":9017:9101   */\n    tag_514:\n        /* \"#utility.yul\":8838:9107   */\n      pop\n        /* \"#utility.yul\":8787:9107   */\n      swap2\n      swap1\n      pop\n      jump\t// out\n        /* \"#utility.yul\":9113:9445   */\n    tag_169:\n        /* \"#utility.yul\":9234:9238   */\n      0x00\n        /* \"#utility.yul\":9272:9274   */\n      0x40\n        /* \"#utility.yul\":9261:9270   */\n      dup3\n        /* \"#utility.yul\":9257:9275   */\n      add\n        /* \"#utility.yul\":9249:9275   */\n      swap1\n      pop\n        /* \"#utility.yul\":9285:9356   */\n      tag_517\n        /* \"#utility.yul\":9353:9354   */\n      0x00\n        /* \"#utility.yul\":9342:9351   */\n      dup4\n        /* \"#utility.yul\":9338:9355   */\n      add\n        /* \"#utility.yul\":9329:9335   */\n      dup6\n        /* \"#utility.yul\":9285:9356   */\n      tag_382\n      jump\t// in\n    tag_517:\n        /* \"#utility.yul\":9366:9438   */\n      tag_518\n        /* \"#utility.yul\":9434:9436   */\n      0x20\n        /* \"#utility.yul\":9423:9432   */\n      dup4\n        /* \"#utility.yul\":9419:9437   */\n      add\n        /* \"#utility.yul\":9410:9416   */\n      dup5\n        /* \"#utility.yul\":9366:9438   */\n      tag_379\n      jump\t// in\n    tag_518:\n        /* \"#utility.yul\":9113:9445   */\n      swap4\n      swap3\n      pop\n      pop\n      pop\n      jump\t// out\n        /* \"#utility.yul\":9451:9567   */\n    tag_389:\n        /* \"#utility.yul\":9521:9542   */\n      tag_520\n        /* \"#utility.yul\":9536:9541   */\n      dup2\n        /* \"#utility.yul\":9521:9542   */\n      tag_377\n      jump\t// in\n    tag_520:\n        /* \"#utility.yul\":9514:9519   */\n      dup2\n        /* \"#utility.yul\":9511:9543   */\n      eq\n        /* \"#utility.yul\":9501:9561   */\n      tag_521\n      jumpi\n        /* \"#utility.yul\":9557:9558   */\n      0x00\n        /* \"#utility.yul\":9554:9555   */\n      dup1\n        /* \"#utility.yul\":9547:9559   */\n      revert\n        /* \"#utility.yul\":9501:9561   */\n    tag_521:\n        /* \"#utility.yul\":9451:9567   */\n      pop\n      jump\t// out\n        /* \"#utility.yul\":9573:9710   */\n    tag_390:\n        /* \"#utility.yul\":9627:9632   */\n      0x00\n        /* \"#utility.yul\":9658:9664   */\n      dup2\n        /* \"#utility.yul\":9652:9665   */\n      mload\n        /* \"#utility.yul\":9643:9665   */\n      swap1\n      pop\n        /* \"#utility.yul\":9674:9704   */\n      tag_523\n        /* \"#utility.yul\":9698:9703   */\n      dup2\n        /* \"#utility.yul\":9674:9704   */\n      tag_389\n      jump\t// in\n    tag_523:\n        /* \"#utility.yul\":9573:9710   */\n      swap3\n      swap2\n      pop\n      pop\n      jump\t// out\n        /* \"#utility.yul\":9716:10061   */\n    tag_173:\n        /* \"#utility.yul\":9783:9789   */\n      0x00\n        /* \"#utility.yul\":9832:9834   */\n      0x20\n        /* \"#utility.yul\":9820:9829   */\n      dup3\n        /* \"#utility.yul\":9811:9818   */\n      dup5\n        /* \"#utility.yul\":9807:9830   */\n      sub\n        /* \"#utility.yul\":9803:9835   */\n      slt\n        /* \"#utility.yul\":9800:9919   */\n      iszero\n      tag_525\n      jumpi\n        /* \"#utility.yul\":9838:9917   */\n      tag_526\n      tag_368\n      jump\t// in\n    tag_526:\n        /* \"#utility.yul\":9800:9919   */\n    tag_525:\n        /* \"#utility.yul\":9958:9959   */\n      0x00\n        /* \"#utility.yul\":9983:10044   */\n      tag_527\n        /* \"#utility.yul\":10036:10043   */\n      dup5\n        /* \"#utility.yul\":10027:10033   */\n      dup3\n        /* \"#utility.yul\":10016:10025   */\n      dup6\n        /* \"#utility.yul\":10012:10034   */\n      add\n        /* \"#utility.yul\":9983:10044   */\n      tag_390\n      jump\t// in\n    tag_527:\n        /* \"#utility.yul\":9973:10044   */\n      swap2\n      pop\n        /* \"#utility.yul\":9929:10054   */\n      pop\n        /* \"#utility.yul\":9716:10061   */\n      swap3\n      swap2\n      pop\n      pop\n      jump\t// out\n        /* \"#utility.yul\":10067:10232   */\n    tag_391:\n        /* \"#utility.yul\":10207:10224   */\n      0x5769746864726177206661696c65640000000000000000000000000000000000\n        /* \"#utility.yul\":10203:10204   */\n      0x00\n        /* \"#utility.yul\":10195:10201   */\n      dup3\n        /* \"#utility.yul\":10191:10205   */\n      add\n        /* \"#utility.yul\":10184:10225   */\n      mstore\n        /* \"#utility.yul\":10067:10232   */\n      pop\n      jump\t// out\n        /* \"#utility.yul\":10238:10604   */\n    tag_392:\n        /* \"#utility.yul\":10380:10383   */\n      0x00\n        /* \"#utility.yul\":10401:10468   */\n      tag_530\n        /* \"#utility.yul\":10465:10467   */\n      0x0f\n        /* \"#utility.yul\":10460:10463   */\n      dup4\n        /* \"#utility.yul\":10401:10468   */\n      tag_363\n      jump\t// in\n    tag_530:\n        /* \"#utility.yul\":10394:10468   */\n      swap2\n      pop\n        /* \"#utility.yul\":10477:10570   */\n      tag_531\n        /* \"#utility.yul\":10566:10569   */\n      dup3\n        /* \"#utility.yul\":10477:10570   */\n      tag_391\n      jump\t// in\n    tag_531:\n        /* \"#utility.yul\":10595:10597   */\n      0x20\n        /* \"#utility.yul\":10590:10593   */\n      dup3\n        /* \"#utility.yul\":10586:10598   */\n      add\n        /* \"#utility.yul\":10579:10598   */\n      swap1\n      pop\n        /* \"#utility.yul\":10238:10604   */\n      swap2\n      swap1\n      pop\n      jump\t// out\n        /* \"#utility.yul\":10610:11029   */\n    tag_176:\n        /* \"#utility.yul\":10776:10780   */\n      0x00\n        /* \"#utility.yul\":10814:10816   */\n      0x20\n        /* \"#utility.yul\":10803:10812   */\n      dup3\n        /* \"#utility.yul\":10799:10817   */\n      add\n        /* \"#utility.yul\":10791:10817   */\n      swap1\n      pop\n        /* \"#utility.yul\":10863:10872   */\n      dup2\n        /* \"#utility.yul\":10857:10861   */\n      dup2\n        /* \"#utility.yul\":10853:10873   */\n      sub\n        /* \"#utility.yul\":10849:10850   */\n      0x00\n        /* \"#utility.yul\":10838:10847   */\n      dup4\n        /* \"#utility.yul\":10834:10851   */\n      add\n        /* \"#utility.yul\":10827:10874   */\n      mstore\n        /* \"#utility.yul\":10891:11022   */\n      tag_533\n        /* \"#utility.yul\":11017:11021   */\n      dup2\n        /* \"#utility.yul\":10891:11022   */\n      tag_392\n      jump\t// in\n    tag_533:\n        /* \"#utility.yul\":10883:11022   */\n      swap1\n      pop\n        /* \"#utility.yul\":10610:11029   */\n      swap2\n      swap1\n      pop\n      jump\t// out\n        /* \"#utility.yul\":11035:11206   */\n    tag_393:\n        /* \"#utility.yul\":11175:11198   */\n      0x5468726573686f6c64206d757374206265203e20300000000000000000000000\n        /* \"#utility.yul\":11171:11172   */\n      0x00\n        /* \"#utility.yul\":11163:11169   */\n      dup3\n        /* \"#utility.yul\":11159:11173   */\n      add\n        /* \"#utility.yul\":11152:11199   */\n      mstore\n        /* \"#utility.yul\":11035:11206   */\n      pop\n      jump\t// out\n        /* \"#utility.yul\":11212:11578   */\n    tag_394:\n        /* \"#utility.yul\":11354:11357   */\n      0x00\n        /* \"#utility.yul\":11375:11442   */\n      tag_536\n        /* \"#utility.yul\":11439:11441   */\n      0x15\n        /* \"#utility.yul\":11434:11437   */\n      dup4\n        /* \"#utility.yul\":11375:11442   */\n      tag_363\n      jump\t// in\n    tag_536:\n        /* \"#utility.yul\":11368:11442   */\n      swap2\n      pop\n        /* \"#utility.yul\":11451:11544   */\n      tag_537\n        /* \"#utility.yul\":11540:11543   */\n      dup3\n        /* \"#utility.yul\":11451:11544   */\n      tag_393\n      jump\t// in\n    tag_537:\n        /* \"#utility.yul\":11569:11571   */\n      0x20\n        /* \"#utility.yul\":11564:11567   */\n      dup3\n        /* \"#utility.yul\":11560:11572   */\n      add\n        /* \"#utility.yul\":11553:11572   */\n      swap1\n      pop\n        /* \"#utility.yul\":11212:11578   */\n      swap2\n      swap1\n      pop\n      jump\t// out\n        /* \"#utility.yul\":11584:12003   */\n    tag_190:\n        /* \"#utility.yul\":11750:11754   */\n      0x00\n        /* \"#utility.yul\":11788:11790   */\n      0x20\n        /* \"#utility.yul\":11777:11786   */\n      dup3\n        /* \"#utility.yul\":11773:11791   */\n      add\n        /* \"#utility.yul\":11765:11791   */\n      swap1\n      pop\n        /* \"#utility.yul\":11837:11846   */\n      dup2\n        /* \"#utility.yul\":11831:11835   */\n      dup2\n        /* \"#utility.yul\":11827:11847   */\n      sub\n        /* \"#utility.yul\":11823:11824   */\n      0x00\n        /* \"#utility.yul\":11812:11821   */\n      dup4\n        /* \"#utility.yul\":11808:11825   */\n      add\n        /* \"#utility.yul\":11801:11848   */\n      mstore\n        /* \"#utility.yul\":11865:11996   */\n      tag_539\n        /* \"#utility.yul\":11991:11995   */\n      dup2\n        /* \"#utility.yul\":11865:11996   */\n      tag_394\n      jump\t// in\n    tag_539:\n        /* \"#utility.yul\":11857:11996   */\n      swap1\n      pop\n        /* \"#utility.yul\":11584:12003   */\n      swap2\n      swap1\n      pop\n      jump\t// out\n        /* \"#utility.yul\":12009:12189   */\n    tag_395:\n        /* \"#utility.yul\":12057:12134   */\n      0x4e487b7100000000000000000000000000000000000000000000000000000000\n        /* \"#utility.yul\":12054:12055   */\n      0x00\n        /* \"#utility.yul\":12047:12135   */\n      mstore\n        /* \"#utility.yul\":12154:12158   */\n      0x11\n        /* \"#utility.yul\":12151:12152   */\n      0x04\n        /* \"#utility.yul\":12144:12159   */\n      mstore\n        /* \"#utility.yul\":12178:12182   */\n      0x24\n        /* \"#utility.yul\":12175:12176   */\n      0x00\n        /* \"#utility.yul\":12168:12183   */\n      revert\n        /* \"#utility.yul\":12195:12605   */\n    tag_198:\n        /* \"#utility.yul\":12235:12242   */\n      0x00\n        /* \"#utility.yul\":12258:12278   */\n      tag_542\n        /* \"#utility.yul\":12276:12277   */\n      dup3\n        /* \"#utility.yul\":12258:12278   */\n      tag_374\n      jump\t// in\n    tag_542:\n        /* \"#utility.yul\":12253:12278   */\n      swap2\n      pop\n        /* \"#utility.yul\":12292:12312   */\n      tag_543\n        /* \"#utility.yul\":12310:12311   */\n      dup4\n        /* \"#utility.yul\":12292:12312   */\n      tag_374\n      jump\t// in\n    tag_543:\n        /* \"#utility.yul\":12287:12312   */\n      swap3\n      pop\n        /* \"#utility.yul\":12347:12348   */\n      dup3\n        /* \"#utility.yul\":12344:12345   */\n      dup3\n        /* \"#utility.yul\":12340:12349   */\n      mul\n        /* \"#utility.yul\":12369:12399   */\n      tag_544\n        /* \"#utility.yul\":12387:12398   */\n      dup2\n        /* \"#utility.yul\":12369:12399   */\n      tag_374\n      jump\t// in\n    tag_544:\n        /* \"#utility.yul\":12358:12399   */\n      swap2\n      pop\n        /* \"#utility.yul\":12548:12549   */\n      dup3\n        /* \"#utility.yul\":12539:12546   */\n      dup3\n        /* \"#utility.yul\":12535:12550   */\n      div\n        /* \"#utility.yul\":12532:12533   */\n      dup5\n        /* \"#utility.yul\":12529:12551   */\n      eq\n        /* \"#utility.yul\":12509:12510   */\n      dup4\n        /* \"#utility.yul\":12502:12511   */\n      iszero\n        /* \"#utility.yul\":12482:12565   */\n      or\n        /* \"#utility.yul\":12459:12598   */\n      tag_545\n      jumpi\n        /* \"#utility.yul\":12578:12596   */\n      tag_546\n      tag_395\n      jump\t// in\n    tag_546:\n        /* \"#utility.yul\":12459:12598   */\n    tag_545:\n        /* \"#utility.yul\":12243:12605   */\n      pop\n        /* \"#utility.yul\":12195:12605   */\n      swap3\n      swap2\n      pop\n      pop\n      jump\t// out\n        /* \"#utility.yul\":12611:12790   */\n    tag_396:\n        /* \"#utility.yul\":12751:12782   */\n      0x416d6f756e74206d7573742062652067726561746572207468616e2030000000\n        /* \"#utility.yul\":12747:12748   */\n      0x00\n        /* \"#utility.yul\":12739:12745   */\n      dup3\n        /* \"#utility.yul\":12735:12749   */\n      add\n        /* \"#utility.yul\":12728:12783   */\n      mstore\n        /* \"#utility.yul\":12611:12790   */\n      pop\n      jump\t// out\n        /* \"#utility.yul\":12796:13162   */\n    tag_397:\n        /* \"#utility.yul\":12938:12941   */\n      0x00\n        /* \"#utility.yul\":12959:13026   */\n      tag_549\n        /* \"#utility.yul\":13023:13025   */\n      0x1d\n        /* \"#utility.yul\":13018:13021   */\n      dup4\n        /* \"#utility.yul\":12959:13026   */\n      tag_363\n      jump\t// in\n    tag_549:\n        /* \"#utility.yul\":12952:13026   */\n      swap2\n      pop\n        /* \"#utility.yul\":13035:13128   */\n      tag_550\n        /* \"#utility.yul\":13124:13127   */\n      dup3\n        /* \"#utility.yul\":13035:13128   */\n      tag_396\n      jump\t// in\n    tag_550:\n        /* \"#utility.yul\":13153:13155   */\n      0x20\n        /* \"#utility.yul\":13148:13151   */\n      dup3\n        /* \"#utility.yul\":13144:13156   */\n      add\n        /* \"#utility.yul\":13137:13156   */\n      swap1\n      pop\n        /* \"#utility.yul\":12796:13162   */\n      swap2\n      swap1\n      pop\n      jump\t// out\n        /* \"#utility.yul\":13168:13587   */\n    tag_204:\n        /* \"#utility.yul\":13334:13338   */\n      0x00\n        /* \"#utility.yul\":13372:13374   */\n      0x20\n        /* \"#utility.yul\":13361:13370   */\n      dup3\n        /* \"#utility.yul\":13357:13375   */\n      add\n        /* \"#utility.yul\":13349:13375   */\n      swap1\n      pop\n        /* \"#utility.yul\":13421:13430   */\n      dup2\n        /* \"#utility.yul\":13415:13419   */\n      dup2\n        /* \"#utility.yul\":13411:13431   */\n      sub\n        /* \"#utility.yul\":13407:13408   */\n      0x00\n        /* \"#utility.yul\":13396:13405   */\n      dup4\n        /* \"#utility.yul\":13392:13409   */\n      add\n        /* \"#utility.yul\":13385:13432   */\n      mstore\n        /* \"#utility.yul\":13449:13580   */\n      tag_552\n        /* \"#utility.yul\":13575:13579   */\n      dup2\n        /* \"#utility.yul\":13449:13580   */\n      tag_397\n      jump\t// in\n    tag_552:\n        /* \"#utility.yul\":13441:13580   */\n      swap1\n      pop\n        /* \"#utility.yul\":13168:13587   */\n      swap2\n      swap1\n      pop\n      jump\t// out\n        /* \"#utility.yul\":13593:13773   */\n    tag_398:\n        /* \"#utility.yul\":13641:13718   */\n      0x4e487b7100000000000000000000000000000000000000000000000000000000\n        /* \"#utility.yul\":13638:13639   */\n      0x00\n        /* \"#utility.yul\":13631:13719   */\n      mstore\n        /* \"#utility.yul\":13738:13742   */\n      0x12\n        /* \"#utility.yul\":13735:13736   */\n      0x04\n        /* \"#utility.yul\":13728:13743   */\n      mstore\n        /* \"#utility.yul\":13762:13766   */\n      0x24\n        /* \"#utility.yul\":13759:13760   */\n      0x00\n        /* \"#utility.yul\":13752:13767   */\n      revert\n        /* \"#utility.yul\":13779:13964   */\n    tag_207:\n        /* \"#utility.yul\":13819:13820   */\n      0x00\n        /* \"#utility.yul\":13836:13856   */\n      tag_555\n        /* \"#utility.yul\":13854:13855   */\n      dup3\n        /* \"#utility.yul\":13836:13856   */\n      tag_374\n      jump\t// in\n    tag_555:\n        /* \"#utility.yul\":13831:13856   */\n      swap2\n      pop\n        /* \"#utility.yul\":13870:13890   */\n      tag_556\n        /* \"#utility.yul\":13888:13889   */\n      dup4\n        /* \"#utility.yul\":13870:13890   */\n      tag_374\n      jump\t// in\n    tag_556:\n        /* \"#utility.yul\":13865:13890   */\n      swap3\n      pop\n        /* \"#utility.yul\":13909:13910   */\n      dup3\n        /* \"#utility.yul\":13899:13934   */\n      tag_557\n      jumpi\n        /* \"#utility.yul\":13914:13932   */\n      tag_558\n      tag_398\n      jump\t// in\n    tag_558:\n        /* \"#utility.yul\":13899:13934   */\n    tag_557:\n        /* \"#utility.yul\":13956:13957   */\n      dup3\n        /* \"#utility.yul\":13953:13954   */\n      dup3\n        /* \"#utility.yul\":13949:13958   */\n      div\n        /* \"#utility.yul\":13944:13958   */\n      swap1\n      pop\n        /* \"#utility.yul\":13779:13964   */\n      swap3\n      swap2\n      pop\n      pop\n      jump\t// out\n        /* \"#utility.yul\":13970:14164   */\n    tag_213:\n        /* \"#utility.yul\":14010:14014   */\n      0x00\n        /* \"#utility.yul\":14030:14050   */\n      tag_560\n        /* \"#utility.yul\":14048:14049   */\n      dup3\n        /* \"#utility.yul\":14030:14050   */\n      tag_374\n      jump\t// in\n    tag_560:\n        /* \"#utility.yul\":14025:14050   */\n      swap2\n      pop\n        /* \"#utility.yul\":14064:14084   */\n      tag_561\n        /* \"#utility.yul\":14082:14083   */\n      dup4\n        /* \"#utility.yul\":14064:14084   */\n      tag_374\n      jump\t// in\n    tag_561:\n        /* \"#utility.yul\":14059:14084   */\n      swap3\n      pop\n        /* \"#utility.yul\":14108:14109   */\n      dup3\n        /* \"#utility.yul\":14105:14106   */\n      dup3\n        /* \"#utility.yul\":14101:14110   */\n      sub\n        /* \"#utility.yul\":14093:14110   */\n      swap1\n      pop\n        /* \"#utility.yul\":14132:14133   */\n      dup2\n        /* \"#utility.yul\":14126:14130   */\n      dup2\n        /* \"#utility.yul\":14123:14134   */\n      gt\n        /* \"#utility.yul\":14120:14157   */\n      iszero\n      tag_562\n      jumpi\n        /* \"#utility.yul\":14137:14155   */\n      tag_563\n      tag_395\n      jump\t// in\n    tag_563:\n        /* \"#utility.yul\":14120:14157   */\n    tag_562:\n        /* \"#utility.yul\":13970:14164   */\n      swap3\n      swap2\n      pop\n      pop\n      jump\t// out\n        /* \"#utility.yul\":14170:14361   */\n    tag_218:\n        /* \"#utility.yul\":14210:14213   */\n      0x00\n        /* \"#utility.yul\":14229:14249   */\n      tag_565\n        /* \"#utility.yul\":14247:14248   */\n      dup3\n        /* \"#utility.yul\":14229:14249   */\n      tag_374\n      jump\t// in\n    tag_565:\n        /* \"#utility.yul\":14224:14249   */\n      swap2\n      pop\n        /* \"#utility.yul\":14263:14283   */\n      tag_566\n        /* \"#utility.yul\":14281:14282   */\n      dup4\n        /* \"#utility.yul\":14263:14283   */\n      tag_374\n      jump\t// in\n    tag_566:\n        /* \"#utility.yul\":14258:14283   */\n      swap3\n      pop\n        /* \"#utility.yul\":14306:14307   */\n      dup3\n        /* \"#utility.yul\":14303:14304   */\n      dup3\n        /* \"#utility.yul\":14299:14308   */\n      add\n        /* \"#utility.yul\":14292:14308   */\n      swap1\n      pop\n        /* \"#utility.yul\":14327:14330   */\n      dup1\n        /* \"#utility.yul\":14324:14325   */\n      dup3\n        /* \"#utility.yul\":14321:14331   */\n      gt\n        /* \"#utility.yul\":14318:14354   */\n      iszero\n      tag_567\n      jumpi\n        /* \"#utility.yul\":14334:14352   */\n      tag_568\n      tag_395\n      jump\t// in\n    tag_568:\n        /* \"#utility.yul\":14318:14354   */\n    tag_567:\n        /* \"#utility.yul\":14170:14361   */\n      swap3\n      swap2\n      pop\n      pop\n      jump\t// out\n        /* \"#utility.yul\":14367:14535   */\n    tag_399:\n        /* \"#utility.yul\":14507:14527   */\n      0x55534454207061796f7574206661696c65640000000000000000000000000000\n        /* \"#utility.yul\":14503:14504   */\n      0x00\n        /* \"#utility.yul\":14495:14501   */\n      dup3\n        /* \"#utility.yul\":14491:14505   */\n      add\n        /* \"#utility.yul\":14484:14528   */\n      mstore\n        /* \"#utility.yul\":14367:14535   */\n      pop\n      jump\t// out\n        /* \"#utility.yul\":14541:14907   */\n    tag_400:\n        /* \"#utility.yul\":14683:14686   */\n      0x00\n        /* \"#utility.yul\":14704:14771   */\n      tag_571\n        /* \"#utility.yul\":14768:14770   */\n      0x12\n        /* \"#utility.yul\":14763:14766   */\n      dup4\n        /* \"#utility.yul\":14704:14771   */\n      tag_363\n      jump\t// in\n    tag_571:\n        /* \"#utility.yul\":14697:14771   */\n      swap2\n      pop\n        /* \"#utility.yul\":14780:14873   */\n      tag_572\n        /* \"#utility.yul\":14869:14872   */\n      dup3\n        /* \"#utility.yul\":14780:14873   */\n      tag_399\n      jump\t// in\n    tag_572:\n        /* \"#utility.yul\":14898:14900   */\n      0x20\n        /* \"#utility.yul\":14893:14896   */\n      dup3\n        /* \"#utility.yul\":14889:14901   */\n      add\n        /* \"#utility.yul\":14882:14901   */\n      swap1\n      pop\n        /* \"#utility.yul\":14541:14907   */\n      swap2\n      swap1\n      pop\n      jump\t// out\n        /* \"#utility.yul\":14913:15332   */\n    tag_227:\n        /* \"#utility.yul\":15079:15083   */\n      0x00\n        /* \"#utility.yul\":15117:15119   */\n      0x20\n        /* \"#utility.yul\":15106:15115   */\n      dup3\n        /* \"#utility.yul\":15102:15120   */\n      add\n        /* \"#utility.yul\":15094:15120   */\n      swap1\n      pop\n        /* \"#utility.yul\":15166:15175   */\n      dup2\n        /* \"#utility.yul\":15160:15164   */\n      dup2\n        /* \"#utility.yul\":15156:15176   */\n      sub\n        /* \"#utility.yul\":15152:15153   */\n      0x00\n        /* \"#utility.yul\":15141:15150   */\n      dup4\n        /* \"#utility.yul\":15137:15154   */\n      add\n        /* \"#utility.yul\":15130:15177   */\n      mstore\n        /* \"#utility.yul\":15194:15325   */\n      tag_574\n        /* \"#utility.yul\":15320:15324   */\n      dup2\n        /* \"#utility.yul\":15194:15325   */\n      tag_400\n      jump\t// in\n    tag_574:\n        /* \"#utility.yul\":15186:15325   */\n      swap1\n      pop\n        /* \"#utility.yul\":14913:15332   */\n      swap2\n      swap1\n      pop\n      jump\t// out\n        /* \"#utility.yul\":15338:15780   */\n    tag_229:\n        /* \"#utility.yul\":15487:15491   */\n      0x00\n        /* \"#utility.yul\":15525:15527   */\n      0x60\n        /* \"#utility.yul\":15514:15523   */\n      dup3\n        /* \"#utility.yul\":15510:15528   */\n      add\n        /* \"#utility.yul\":15502:15528   */\n      swap1\n      pop\n        /* \"#utility.yul\":15538:15609   */\n      tag_576\n        /* \"#utility.yul\":15606:15607   */\n      0x00\n        /* \"#utility.yul\":15595:15604   */\n      dup4\n        /* \"#utility.yul\":15591:15608   */\n      add\n        /* \"#utility.yul\":15582:15588   */\n      dup7\n        /* \"#utility.yul\":15538:15609   */\n      tag_379\n      jump\t// in\n    tag_576:\n        /* \"#utility.yul\":15619:15691   */\n      tag_577\n        /* \"#utility.yul\":15687:15689   */\n      0x20\n        /* \"#utility.yul\":15676:15685   */\n      dup4\n        /* \"#utility.yul\":15672:15690   */\n      add\n        /* \"#utility.yul\":15663:15669   */\n      dup6\n        /* \"#utility.yul\":15619:15691   */\n      tag_379\n      jump\t// in\n    tag_577:\n        /* \"#utility.yul\":15701:15773   */\n      tag_578\n        /* \"#utility.yul\":15769:15771   */\n      0x40\n        /* \"#utility.yul\":15758:15767   */\n      dup4\n        /* \"#utility.yul\":15754:15772   */\n      add\n        /* \"#utility.yul\":15745:15751   */\n      dup5\n        /* \"#utility.yul\":15701:15773   */\n      tag_379\n      jump\t// in\n    tag_578:\n        /* \"#utility.yul\":15338:15780   */\n      swap5\n      swap4\n      pop\n      pop\n      pop\n      pop\n      jump\t// out\n        /* \"#utility.yul\":15786:15962   */\n    tag_401:\n        /* \"#utility.yul\":15926:15954   */\n      0x4275792072617465206d757374206265203e3d2031205354454d000000000000\n        /* \"#utility.yul\":15922:15923   */\n      0x00\n        /* \"#utility.yul\":15914:15920   */\n      dup3\n        /* \"#utility.yul\":15910:15924   */\n      add\n        /* \"#utility.yul\":15903:15955   */\n      mstore\n        /* \"#utility.yul\":15786:15962   */\n      pop\n      jump\t// out\n        /* \"#utility.yul\":15968:16334   */\n    tag_402:\n        /* \"#utility.yul\":16110:16113   */\n      0x00\n        /* \"#utility.yul\":16131:16198   */\n      tag_581\n        /* \"#utility.yul\":16195:16197   */\n      0x1a\n        /* \"#utility.yul\":16190:16193   */\n      dup4\n        /* \"#utility.yul\":16131:16198   */\n      tag_363\n      jump\t// in\n    tag_581:\n        /* \"#utility.yul\":16124:16198   */\n      swap2\n      pop\n        /* \"#utility.yul\":16207:16300   */\n      tag_582\n        /* \"#utility.yul\":16296:16299   */\n      dup3\n        /* \"#utility.yul\":16207:16300   */\n      tag_401\n      jump\t// in\n    tag_582:\n        /* \"#utility.yul\":16325:16327   */\n      0x20\n        /* \"#utility.yul\":16320:16323   */\n      dup3\n        /* \"#utility.yul\":16316:16328   */\n      add\n        /* \"#utility.yul\":16309:16328   */\n      swap1\n      pop\n        /* \"#utility.yul\":15968:16334   */\n      swap2\n      swap1\n      pop\n      jump\t// out\n        /* \"#utility.yul\":16340:16759   */\n    tag_241:\n        /* \"#utility.yul\":16506:16510   */\n      0x00\n        /* \"#utility.yul\":16544:16546   */\n      0x20\n        /* \"#utility.yul\":16533:16542   */\n      dup3\n        /* \"#utility.yul\":16529:16547   */\n      add\n        /* \"#utility.yul\":16521:16547   */\n      swap1\n      pop\n        /* \"#utility.yul\":16593:16602   */\n      dup2\n        /* \"#utility.yul\":16587:16591   */\n      dup2\n        /* \"#utility.yul\":16583:16603   */\n      sub\n        /* \"#utility.yul\":16579:16580   */\n      0x00\n        /* \"#utility.yul\":16568:16577   */\n      dup4\n        /* \"#utility.yul\":16564:16581   */\n      add\n        /* \"#utility.yul\":16557:16604   */\n      mstore\n        /* \"#utility.yul\":16621:16752   */\n      tag_584\n        /* \"#utility.yul\":16747:16751   */\n      dup2\n        /* \"#utility.yul\":16621:16752   */\n      tag_402\n      jump\t// in\n    tag_584:\n        /* \"#utility.yul\":16613:16752   */\n      swap1\n      pop\n        /* \"#utility.yul\":16340:16759   */\n      swap2\n      swap1\n      pop\n      jump\t// out\n        /* \"#utility.yul\":16765:16944   */\n    tag_403:\n        /* \"#utility.yul\":16905:16936   */\n      0x4275792072617465206d757374206265203c3d2053656c6c2072617465000000\n        /* \"#utility.yul\":16901:16902   */\n      0x00\n        /* \"#utility.yul\":16893:16899   */\n      dup3\n        /* \"#utility.yul\":16889:16903   */\n      add\n        /* \"#utility.yul\":16882:16937   */\n      mstore\n        /* \"#utility.yul\":16765:16944   */\n      pop\n      jump\t// out\n        /* \"#utility.yul\":16950:17316   */\n    tag_404:\n        /* \"#utility.yul\":17092:17095   */\n      0x00\n        /* \"#utility.yul\":17113:17180   */\n      tag_587\n        /* \"#utility.yul\":17177:17179   */\n      0x1d\n        /* \"#utility.yul\":17172:17175   */\n      dup4\n        /* \"#utility.yul\":17113:17180   */\n      tag_363\n      jump\t// in\n    tag_587:\n        /* \"#utility.yul\":17106:17180   */\n      swap2\n      pop\n        /* \"#utility.yul\":17189:17282   */\n      tag_588\n        /* \"#utility.yul\":17278:17281   */\n      dup3\n        /* \"#utility.yul\":17189:17282   */\n      tag_403\n      jump\t// in\n    tag_588:\n        /* \"#utility.yul\":17307:17309   */\n      0x20\n        /* \"#utility.yul\":17302:17305   */\n      dup3\n        /* \"#utility.yul\":17298:17310   */\n      add\n        /* \"#utility.yul\":17291:17310   */\n      swap1\n      pop\n        /* \"#utility.yul\":16950:17316   */\n      swap2\n      swap1\n      pop\n      jump\t// out\n        /* \"#utility.yul\":17322:17741   */\n    tag_244:\n        /* \"#utility.yul\":17488:17492   */\n      0x00\n        /* \"#utility.yul\":17526:17528   */\n      0x20\n        /* \"#utility.yul\":17515:17524   */\n      dup3\n        /* \"#utility.yul\":17511:17529   */\n      add\n        /* \"#utility.yul\":17503:17529   */\n      swap1\n      pop\n        /* \"#utility.yul\":17575:17584   */\n      dup2\n        /* \"#utility.yul\":17569:17573   */\n      dup2\n        /* \"#utility.yul\":17565:17585   */\n      sub\n        /* \"#utility.yul\":17561:17562   */\n      0x00\n        /* \"#utility.yul\":17550:17559   */\n      dup4\n        /* \"#utility.yul\":17546:17563   */\n      add\n        /* \"#utility.yul\":17539:17586   */\n      mstore\n        /* \"#utility.yul\":17603:17734   */\n      tag_590\n        /* \"#utility.yul\":17729:17733   */\n      dup2\n        /* \"#utility.yul\":17603:17734   */\n      tag_404\n      jump\t// in\n    tag_590:\n        /* \"#utility.yul\":17595:17734   */\n      swap1\n      pop\n        /* \"#utility.yul\":17322:17741   */\n      swap2\n      swap1\n      pop\n      jump\t// out\n        /* \"#utility.yul\":17747:18003   */\n    tag_405:\n        /* \"#utility.yul\":17887:17953   */\n      0x53656c6c2072617465206d75737420626520e289a52031205354454d20706572\n        /* \"#utility.yul\":17883:17884   */\n      0x00\n        /* \"#utility.yul\":17875:17881   */\n      dup3\n        /* \"#utility.yul\":17871:17885   */\n      add\n        /* \"#utility.yul\":17864:17954   */\n      mstore\n        /* \"#utility.yul\":17988:17995   */\n      0x2055534454000000000000000000000000000000000000000000000000000000\n        /* \"#utility.yul\":17983:17985   */\n      0x20\n        /* \"#utility.yul\":17975:17981   */\n      dup3\n        /* \"#utility.yul\":17971:17986   */\n      add\n        /* \"#utility.yul\":17964:17996   */\n      mstore\n        /* \"#utility.yul\":17747:18003   */\n      pop\n      jump\t// out\n        /* \"#utility.yul\":18009:18375   */\n    tag_406:\n        /* \"#utility.yul\":18151:18154   */\n      0x00\n        /* \"#utility.yul\":18172:18239   */\n      tag_593\n        /* \"#utility.yul\":18236:18238   */\n      0x25\n        /* \"#utility.yul\":18231:18234   */\n      dup4\n        /* \"#utility.yul\":18172:18239   */\n      tag_363\n      jump\t// in\n    tag_593:\n        /* \"#utility.yul\":18165:18239   */\n      swap2\n      pop\n        /* \"#utility.yul\":18248:18341   */\n      tag_594\n        /* \"#utility.yul\":18337:18340   */\n      dup3\n        /* \"#utility.yul\":18248:18341   */\n      tag_405\n      jump\t// in\n    tag_594:\n        /* \"#utility.yul\":18366:18368   */\n      0x40\n        /* \"#utility.yul\":18361:18364   */\n      dup3\n        /* \"#utility.yul\":18357:18369   */\n      add\n        /* \"#utility.yul\":18350:18369   */\n      swap1\n      pop\n        /* \"#utility.yul\":18009:18375   */\n      swap2\n      swap1\n      pop\n      jump\t// out\n        /* \"#utility.yul\":18381:18800   */\n    tag_252:\n        /* \"#utility.yul\":18547:18551   */\n      0x00\n        /* \"#utility.yul\":18585:18587   */\n      0x20\n        /* \"#utility.yul\":18574:18583   */\n      dup3\n        /* \"#utility.yul\":18570:18588   */\n      add\n        /* \"#utility.yul\":18562:18588   */\n      swap1\n      pop\n        /* \"#utility.yul\":18634:18643   */\n      dup2\n        /* \"#utility.yul\":18628:18632   */\n      dup2\n        /* \"#utility.yul\":18624:18644   */\n      sub\n        /* \"#utility.yul\":18620:18621   */\n      0x00\n        /* \"#utility.yul\":18609:18618   */\n      dup4\n        /* \"#utility.yul\":18605:18622   */\n      add\n        /* \"#utility.yul\":18598:18645   */\n      mstore\n        /* \"#utility.yul\":18662:18793   */\n      tag_596\n        /* \"#utility.yul\":18788:18792   */\n      dup2\n        /* \"#utility.yul\":18662:18793   */\n      tag_406\n      jump\t// in\n    tag_596:\n        /* \"#utility.yul\":18654:18793   */\n      swap1\n      pop\n        /* \"#utility.yul\":18381:18800   */\n      swap2\n      swap1\n      pop\n      jump\t// out\n        /* \"#utility.yul\":18806:19248   */\n    tag_275:\n        /* \"#utility.yul\":18955:18959   */\n      0x00\n        /* \"#utility.yul\":18993:18995   */\n      0x60\n        /* \"#utility.yul\":18982:18991   */\n      dup3\n        /* \"#utility.yul\":18978:18996   */\n      add\n        /* \"#utility.yul\":18970:18996   */\n      swap1\n      pop\n        /* \"#utility.yul\":19006:19077   */\n      tag_598\n        /* \"#utility.yul\":19074:19075   */\n      0x00\n        /* \"#utility.yul\":19063:19072   */\n      dup4\n        /* \"#utility.yul\":19059:19076   */\n      add\n        /* \"#utility.yul\":19050:19056   */\n      dup7\n        /* \"#utility.yul\":19006:19077   */\n      tag_382\n      jump\t// in\n    tag_598:\n        /* \"#utility.yul\":19087:19159   */\n      tag_599\n        /* \"#utility.yul\":19155:19157   */\n      0x20\n        /* \"#utility.yul\":19144:19153   */\n      dup4\n        /* \"#utility.yul\":19140:19158   */\n      add\n        /* \"#utility.yul\":19131:19137   */\n      dup6\n        /* \"#utility.yul\":19087:19159   */\n      tag_382\n      jump\t// in\n    tag_599:\n        /* \"#utility.yul\":19169:19241   */\n      tag_600\n        /* \"#utility.yul\":19237:19239   */\n      0x40\n        /* \"#utility.yul\":19226:19235   */\n      dup4\n        /* \"#utility.yul\":19222:19240   */\n      add\n        /* \"#utility.yul\":19213:19219   */\n      dup5\n        /* \"#utility.yul\":19169:19241   */\n      tag_379\n      jump\t// in\n    tag_600:\n        /* \"#utility.yul\":18806:19248   */\n      swap5\n      swap4\n      pop\n      pop\n      pop\n      pop\n      jump\t// out\n        /* \"#utility.yul\":19254:19424   */\n    tag_407:\n        /* \"#utility.yul\":19394:19416   */\n      0x55534454207472616e73666572206661696c6564000000000000000000000000\n        /* \"#utility.yul\":19390:19391   */\n      0x00\n        /* \"#utility.yul\":19382:19388   */\n      dup3\n        /* \"#utility.yul\":19378:19392   */\n      add\n        /* \"#utility.yul\":19371:19417   */\n      mstore\n        /* \"#utility.yul\":19254:19424   */\n      pop\n      jump\t// out\n        /* \"#utility.yul\":19430:19796   */\n    tag_408:\n        /* \"#utility.yul\":19572:19575   */\n      0x00\n        /* \"#utility.yul\":19593:19660   */\n      tag_603\n        /* \"#utility.yul\":19657:19659   */\n      0x14\n        /* \"#utility.yul\":19652:19655   */\n      dup4\n        /* \"#utility.yul\":19593:19660   */\n      tag_363\n      jump\t// in\n    tag_603:\n        /* \"#utility.yul\":19586:19660   */\n      swap2\n      pop\n        /* \"#utility.yul\":19669:19762   */\n      tag_604\n        /* \"#utility.yul\":19758:19761   */\n      dup3\n        /* \"#utility.yul\":19669:19762   */\n      tag_407\n      jump\t// in\n    tag_604:\n        /* \"#utility.yul\":19787:19789   */\n      0x20\n        /* \"#utility.yul\":19782:19785   */\n      dup3\n        /* \"#utility.yul\":19778:19790   */\n      add\n        /* \"#utility.yul\":19771:19790   */\n      swap1\n      pop\n        /* \"#utility.yul\":19430:19796   */\n      swap2\n      swap1\n      pop\n      jump\t// out\n        /* \"#utility.yul\":19802:20221   */\n    tag_281:\n        /* \"#utility.yul\":19968:19972   */\n      0x00\n        /* \"#utility.yul\":20006:20008   */\n      0x20\n        /* \"#utility.yul\":19995:20004   */\n      dup3\n        /* \"#utility.yul\":19991:20009   */\n      add\n        /* \"#utility.yul\":19983:20009   */\n      swap1\n      pop\n        /* \"#utility.yul\":20055:20064   */\n      dup2\n        /* \"#utility.yul\":20049:20053   */\n      dup2\n        /* \"#utility.yul\":20045:20065   */\n      sub\n        /* \"#utility.yul\":20041:20042   */\n      0x00\n        /* \"#utility.yul\":20030:20039   */\n      dup4\n        /* \"#utility.yul\":20026:20043   */\n      add\n        /* \"#utility.yul\":20019:20066   */\n      mstore\n        /* \"#utility.yul\":20083:20214   */\n      tag_606\n        /* \"#utility.yul\":20209:20213   */\n      dup2\n        /* \"#utility.yul\":20083:20214   */\n      tag_408\n      jump\t// in\n    tag_606:\n        /* \"#utility.yul\":20075:20214   */\n      swap1\n      pop\n        /* \"#utility.yul\":19802:20221   */\n      swap2\n      swap1\n      pop\n      jump\t// out\n        /* \"#utility.yul\":20227:20559   */\n    tag_284:\n        /* \"#utility.yul\":20348:20352   */\n      0x00\n        /* \"#utility.yul\":20386:20388   */\n      0x40\n        /* \"#utility.yul\":20375:20384   */\n      dup3\n        /* \"#utility.yul\":20371:20389   */\n      add\n        /* \"#utility.yul\":20363:20389   */\n      swap1\n      pop\n        /* \"#utility.yul\":20399:20470   */\n      tag_608\n        /* \"#utility.yul\":20467:20468   */\n      0x00\n        /* \"#utility.yul\":20456:20465   */\n      dup4\n        /* \"#utility.yul\":20452:20469   */\n      add\n        /* \"#utility.yul\":20443:20449   */\n      dup6\n        /* \"#utility.yul\":20399:20470   */\n      tag_379\n      jump\t// in\n    tag_608:\n        /* \"#utility.yul\":20480:20552   */\n      tag_609\n        /* \"#utility.yul\":20548:20550   */\n      0x20\n        /* \"#utility.yul\":20537:20546   */\n      dup4\n        /* \"#utility.yul\":20533:20551   */\n      add\n        /* \"#utility.yul\":20524:20530   */\n      dup5\n        /* \"#utility.yul\":20480:20552   */\n      tag_379\n      jump\t// in\n    tag_609:\n        /* \"#utility.yul\":20227:20559   */\n      swap4\n      swap3\n      pop\n      pop\n      pop\n      jump\t// out\n        /* \"#utility.yul\":20565:20708   */\n    tag_409:\n        /* \"#utility.yul\":20622:20627   */\n      0x00\n        /* \"#utility.yul\":20653:20659   */\n      dup2\n        /* \"#utility.yul\":20647:20660   */\n      mload\n        /* \"#utility.yul\":20638:20660   */\n      swap1\n      pop\n        /* \"#utility.yul\":20669:20702   */\n      tag_611\n        /* \"#utility.yul\":20696:20701   */\n      dup2\n        /* \"#utility.yul\":20669:20702   */\n      tag_375\n      jump\t// in\n    tag_611:\n        /* \"#utility.yul\":20565:20708   */\n      swap3\n      swap2\n      pop\n      pop\n      jump\t// out\n        /* \"#utility.yul\":20714:21065   */\n    tag_293:\n        /* \"#utility.yul\":20784:20790   */\n      0x00\n        /* \"#utility.yul\":20833:20835   */\n      0x20\n        /* \"#utility.yul\":20821:20830   */\n      dup3\n        /* \"#utility.yul\":20812:20819   */\n      dup5\n        /* \"#utility.yul\":20808:20831   */\n      sub\n        /* \"#utility.yul\":20804:20836   */\n      slt\n        /* \"#utility.yul\":20801:20920   */\n      iszero\n      tag_613\n      jumpi\n        /* \"#utility.yul\":20839:20918   */\n      tag_614\n      tag_368\n      jump\t// in\n    tag_614:\n        /* \"#utility.yul\":20801:20920   */\n    tag_613:\n        /* \"#utility.yul\":20959:20960   */\n      0x00\n        /* \"#utility.yul\":20984:21048   */\n      tag_615\n        /* \"#utility.yul\":21040:21047   */\n      dup5\n        /* \"#utility.yul\":21031:21037   */\n      dup3\n        /* \"#utility.yul\":21020:21029   */\n      dup6\n        /* \"#utility.yul\":21016:21038   */\n      add\n        /* \"#utility.yul\":20984:21048   */\n      tag_409\n      jump\t// in\n    tag_615:\n        /* \"#utility.yul\":20974:21048   */\n      swap2\n      pop\n        /* \"#utility.yul\":20930:21058   */\n      pop\n        /* \"#utility.yul\":20714:21065   */\n      swap3\n      swap2\n      pop\n      pop\n      jump\t// out\n        /* \"#utility.yul\":21071:21242   */\n    tag_410:\n        /* \"#utility.yul\":21211:21234   */\n      0x4e6f2070726f66697420746f2077697468647261770000000000000000000000\n        /* \"#utility.yul\":21207:21208   */\n      0x00\n        /* \"#utility.yul\":21199:21205   */\n      dup3\n        /* \"#utility.yul\":21195:21209   */\n      add\n        /* \"#utility.yul\":21188:21235   */\n      mstore\n        /* \"#utility.yul\":21071:21242   */\n      pop\n      jump\t// out\n        /* \"#utility.yul\":21248:21614   */\n    tag_411:\n        /* \"#utility.yul\":21390:21393   */\n      0x00\n        /* \"#utility.yul\":21411:21478   */\n      tag_618\n        /* \"#utility.yul\":21475:21477   */\n      0x15\n        /* \"#utility.yul\":21470:21473   */\n      dup4\n        /* \"#utility.yul\":21411:21478   */\n      tag_363\n      jump\t// in\n    tag_618:\n        /* \"#utility.yul\":21404:21478   */\n      swap2\n      pop\n        /* \"#utility.yul\":21487:21580   */\n      tag_619\n        /* \"#utility.yul\":21576:21579   */\n      dup3\n        /* \"#utility.yul\":21487:21580   */\n      tag_410\n      jump\t// in\n    tag_619:\n        /* \"#utility.yul\":21605:21607   */\n      0x20\n        /* \"#utility.yul\":21600:21603   */\n      dup3\n        /* \"#utility.yul\":21596:21608   */\n      add\n        /* \"#utility.yul\":21589:21608   */\n      swap1\n      pop\n        /* \"#utility.yul\":21248:21614   */\n      swap2\n      swap1\n      pop\n      jump\t// out\n        /* \"#utility.yul\":21620:22039   */\n    tag_310:\n        /* \"#utility.yul\":21786:21790   */\n      0x00\n        /* \"#utility.yul\":21824:21826   */\n      0x20\n        /* \"#utility.yul\":21813:21822   */\n      dup3\n        /* \"#utility.yul\":21809:21827   */\n      add\n        /* \"#utility.yul\":21801:21827   */\n      swap1\n      pop\n        /* \"#utility.yul\":21873:21882   */\n      dup2\n        /* \"#utility.yul\":21867:21871   */\n      dup2\n        /* \"#utility.yul\":21863:21883   */\n      sub\n        /* \"#utility.yul\":21859:21860   */\n      0x00\n        /* \"#utility.yul\":21848:21857   */\n      dup4\n        /* \"#utility.yul\":21844:21861   */\n      add\n        /* \"#utility.yul\":21837:21884   */\n      mstore\n        /* \"#utility.yul\":21901:22032   */\n      tag_621\n        /* \"#utility.yul\":22027:22031   */\n      dup2\n        /* \"#utility.yul\":21901:22032   */\n      tag_411\n      jump\t// in\n    tag_621:\n        /* \"#utility.yul\":21893:22032   */\n      swap1\n      pop\n        /* \"#utility.yul\":21620:22039   */\n      swap2\n      swap1\n      pop\n      jump\t// out\n        /* \"#utility.yul\":22045:22487   */\n    tag_328:\n        /* \"#utility.yul\":22194:22198   */\n      0x00\n        /* \"#utility.yul\":22232:22234   */\n      0x60\n        /* \"#utility.yul\":22221:22230   */\n      dup3\n        /* \"#utility.yul\":22217:22235   */\n      add\n        /* \"#utility.yul\":22209:22235   */\n      swap1\n      pop\n        /* \"#utility.yul\":22245:22316   */\n      tag_623\n        /* \"#utility.yul\":22313:22314   */\n      0x00\n        /* \"#utility.yul\":22302:22311   */\n      dup4\n        /* \"#utility.yul\":22298:22315   */\n      add\n        /* \"#utility.yul\":22289:22295   */\n      dup7\n        /* \"#utility.yul\":22245:22316   */\n      tag_382\n      jump\t// in\n    tag_623:\n        /* \"#utility.yul\":22326:22398   */\n      tag_624\n        /* \"#utility.yul\":22394:22396   */\n      0x20\n        /* \"#utility.yul\":22383:22392   */\n      dup4\n        /* \"#utility.yul\":22379:22397   */\n      add\n        /* \"#utility.yul\":22370:22376   */\n      dup6\n        /* \"#utility.yul\":22326:22398   */\n      tag_379\n      jump\t// in\n    tag_624:\n        /* \"#utility.yul\":22408:22480   */\n      tag_625\n        /* \"#utility.yul\":22476:22478   */\n      0x40\n        /* \"#utility.yul\":22465:22474   */\n      dup4\n        /* \"#utility.yul\":22461:22479   */\n      add\n        /* \"#utility.yul\":22452:22458   */\n      dup5\n        /* \"#utility.yul\":22408:22480   */\n      tag_379\n      jump\t// in\n    tag_625:\n        /* \"#utility.yul\":22045:22487   */\n      swap5\n      swap4\n      pop\n      pop\n      pop\n      pop\n      jump\t// out\n\n    auxdata: 0xa2646970667358221220177f07107016ff0097ce47a91812ae0449672e6e46c9f978b51b5c23157408ff64736f6c63430008140033\n}\n",
				"bytecode": {
					"linkReferences": {},
					"object": "6080604052670de0b6b3a7640000600755670de0b6b3a764000060085534801562000028575f80fd5b506040516200343d3803806200343d83398181016040528101906200004e91906200068e565b336040518060400160405280600781526020017f5354454d4d4552000000000000000000000000000000000000000000000000008152506040518060400160405280600481526020017f5354454d000000000000000000000000000000000000000000000000000000008152508160039081620000cc91906200096d565b508060049081620000de91906200096d565b5050505f73ffffffffffffffffffffffffffffffffffffffff168173ffffffffffffffffffffffffffffffffffffffff160362000154575f6040517f1e4fbdf70000000000000000000000000000000000000000000000000000000081526004016200014b919062000a62565b60405180910390fd5b62000165816200028060201b60201c565b508460065f6101000a81548173ffffffffffffffffffffffffffffffffffffffff021916908373ffffffffffffffffffffffffffffffffffffffff1602179055508360095f6101000a81548173ffffffffffffffffffffffffffffffffffffffff021916908373ffffffffffffffffffffffffffffffffffffffff16021790555082600a5f6101000a81548173ffffffffffffffffffffffffffffffffffffffff021916908373ffffffffffffffffffffffffffffffffffffffff16021790555080600b819055506200027560095f9054906101000a900473ffffffffffffffffffffffffffffffffffffffff16670de0b6b3a76400008462000269919062000aaa565b6200034360201b60201c565b505050505062000b95565b5f60055f9054906101000a900473ffffffffffffffffffffffffffffffffffffffff1690508160055f6101000a81548173ffffffffffffffffffffffffffffffffffffffff021916908373ffffffffffffffffffffffffffffffffffffffff1602179055508173ffffffffffffffffffffffffffffffffffffffff168173ffffffffffffffffffffffffffffffffffffffff167f8be0079c531659141344cd1fd0a4f28419497f9722a3daafe3b4186f6b6457e060405160405180910390a35050565b5f73ffffffffffffffffffffffffffffffffffffffff168273ffffffffffffffffffffffffffffffffffffffff1603620003b6575f6040517fec442f05000000000000000000000000000000000000000000000000000000008152600401620003ad919062000a62565b60405180910390fd5b620003c95f8383620003cd60201b60201c565b5050565b5f73ffffffffffffffffffffffffffffffffffffffff168373ffffffffffffffffffffffffffffffffffffffff160362000421578060025f82825462000414919062000af4565b92505081905550620004f2565b5f805f8573ffffffffffffffffffffffffffffffffffffffff1673ffffffffffffffffffffffffffffffffffffffff1681526020019081526020015f2054905081811015620004ad578381836040517fe450d38c000000000000000000000000000000000000000000000000000000008152600401620004a49392919062000b3f565b60405180910390fd5b8181035f808673ffffffffffffffffffffffffffffffffffffffff1673ffffffffffffffffffffffffffffffffffffffff1681526020019081526020015f2081905550505b5f73ffffffffffffffffffffffffffffffffffffffff168273ffffffffffffffffffffffffffffffffffffffff16036200053b578060025f828254039250508190555062000585565b805f808473ffffffffffffffffffffffffffffffffffffffff1673ffffffffffffffffffffffffffffffffffffffff1681526020019081526020015f205f82825401925050819055505b8173ffffffffffffffffffffffffffffffffffffffff168373ffffffffffffffffffffffffffffffffffffffff167fddf252ad1be2c89b69c2b068fc378daa952ba7f163c4a11628f55a4df523b3ef83604051620005e4919062000b7a565b60405180910390a3505050565b5f80fd5b5f73ffffffffffffffffffffffffffffffffffffffff82169050919050565b5f6200062082620005f5565b9050919050565b620006328162000614565b81146200063d575f80fd5b50565b5f81519050620006508162000627565b92915050565b5f819050919050565b6200066a8162000656565b811462000675575f80fd5b50565b5f8151905062000688816200065f565b92915050565b5f805f805f60a08688031215620006aa57620006a9620005f1565b5b5f620006b98882890162000640565b9550506020620006cc8882890162000640565b9450506040620006df8882890162000640565b9350506060620006f28882890162000678565b9250506080620007058882890162000678565b9150509295509295909350565b5f81519050919050565b7f4e487b71000000000000000000000000000000000000000000000000000000005f52604160045260245ffd5b7f4e487b71000000000000000000000000000000000000000000000000000000005f52602260045260245ffd5b5f60028204905060018216806200078e57607f821691505b602082108103620007a457620007a362000749565b5b50919050565b5f819050815f5260205f209050919050565b5f6020601f8301049050919050565b5f82821b905092915050565b5f60088302620008087fffffffffffffffffffffffffffffffffffffffffffffffffffffffffffffffff82620007cb565b620008148683620007cb565b95508019841693508086168417925050509392505050565b5f819050919050565b5f620008556200084f620008498462000656565b6200082c565b62000656565b9050919050565b5f819050919050565b620008708362000835565b620008886200087f826200085c565b848454620007d7565b825550505050565b5f90565b6200089e62000890565b620008ab81848462000865565b505050565b5b81811015620008d257620008c65f8262000894565b600181019050620008b1565b5050565b601f8211156200092157620008eb81620007aa565b620008f684620007bc565b8101602085101562000906578190505b6200091e6200091585620007bc565b830182620008b0565b50505b505050565b5f82821c905092915050565b5f620009435f198460080262000926565b1980831691505092915050565b5f6200095d838362000932565b9150826002028217905092915050565b620009788262000712565b67ffffffffffffffff8111156200099457620009936200071c565b5b620009a0825462000776565b620009ad828285620008d6565b5f60209050601f831160018114620009e3575f8415620009ce578287015190505b620009da858262000950565b86555062000a49565b601f198416620009f386620007aa565b5f5b8281101562000a1c57848901518255600182019150602085019450602081019050620009f5565b8683101562000a3c578489015162000a38601f89168262000932565b8355505b6001600288020188555050505b505050505050565b62000a5c8162000614565b82525050565b5f60208201905062000a775f83018462000a51565b92915050565b7f4e487b71000000000000000000000000000000000000000000000000000000005f52601160045260245ffd5b5f62000ab68262000656565b915062000ac38362000656565b925082820262000ad38162000656565b9150828204841483151762000aed5762000aec62000a7d565b5b5092915050565b5f62000b008262000656565b915062000b0d8362000656565b925082820190508082111562000b285762000b2762000a7d565b5b92915050565b62000b398162000656565b82525050565b5f60608201905062000b545f83018662000a51565b62000b63602083018562000b2e565b62000b72604083018462000b2e565b949350505050565b5f60208201905062000b8f5f83018462000b2e565b92915050565b61289a8062000ba35f395ff3fe608060405234801561000f575f80fd5b50600436106101e3575f3560e01c806385e436bf1161010d578063c3f909d4116100a0578063f2fde38b1161006f578063f2fde38b1461054d578063f974821a14610569578063fc37987b14610587578063ff90b54d146105a5576101e3565b8063c3f909d4146104bb578063dd62ed3e146104e3578063f0f4426014610513578063f203787c1461052f576101e3565b80639dc29fac116100dc5780639dc29fac14610435578063a9059cbb14610451578063a98ad46c14610481578063bb2855541461049f576101e3565b806385e436bf146103c15780638da5cb5b146103dd5780638e0b017d146103fb57806395d89b4114610417576101e3565b8063313ce567116101855780636217229b116101545780636217229b1461034b57806370a0823114610369578063715018a614610399578063748e37f4146103a3576101e3565b8063313ce567146102d757806340c10f19146102f55780635d91e3f81461031157806361d027b31461032d576101e3565b80631481794e116101c15780631481794e1461025157806318160ddd1461026d57806323b872dd1461028b57806328821182146102bb576101e3565b806306fdde03146101e7578063095ea7b3146102055780630f7e730b14610235575b5f80fd5b6101ef6105af565b6040516101fc9190611de0565b60405180910390f35b61021f600480360381019061021a9190611e91565b61063f565b60405161022c9190611ee9565b60405180910390f35b61024f600480360381019061024a9190611f02565b610661565b005b61026b60048036038101906102669190611e91565b6106ee565b005b610275610823565b6040516102829190611f3c565b60405180910390f35b6102a560048036038101906102a09190611f55565b61082c565b6040516102b29190611ee9565b60405180910390f35b6102d560048036038101906102d09190611fa5565b61085a565b005b6102df6108e5565b6040516102ec9190611feb565b60405180910390f35b61030f600480360381019061030a9190611e91565b6108ed565b005b61032b60048036038101906103269190611fa5565b610964565b005b610335610c4b565b6040516103429190612013565b60405180910390f35b610353610c70565b6040516103609190611f3c565b60405180910390f35b610383600480360381019061037e9190611f02565b610c76565b6040516103909190611f3c565b60405180910390f35b6103a1610cbb565b005b6103ab610cce565b6040516103b89190611f3c565b60405180910390f35b6103db60048036038101906103d69190611fa5565b610cd4565b005b6103e5610dac565b6040516103f29190612013565b60405180910390f35b61041560048036038101906104109190611fa5565b610dd4565b005b61041f610e68565b60405161042c9190611de0565b60405180910390f35b61044f600480360381019061044a9190611e91565b610ef8565b005b61046b60048036038101906104669190611e91565b610f6f565b6040516104789190611ee9565b60405180910390f35b610489610f91565b6040516104969190612087565b60405180910390f35b6104b960048036038101906104b49190611fa5565b610fb6565b005b6104c361116c565b6040516104da9b9a999897969594939291906120a0565b60405180910390f35b6104fd60048036038101906104f89190612149565b6112e8565b60405161050a9190611f3c565b60405180910390f35b61052d60048036038101906105289190611f02565b61136a565b005b6105376113f8565b6040516105449190612013565b60405180910390f35b61056760048036038101906105629190611f02565b61141d565b005b6105716114a1565b60405161057e9190611f3c565b60405180910390f35b61058f6114a7565b60405161059c9190611f3c565b60405180910390f35b6105ad6114ad565b005b6060600380546105be906121b4565b80601f01602080910402602001604051908101604052809291908181526020018280546105ea906121b4565b80156106355780601f1061060c57610100808354040283529160200191610635565b820191905f5260205f20905b81548152906001019060200180831161061857829003601f168201915b5050505050905090565b5f8061064961158a565b9050610656818585611591565b600191505092915050565b6106696115a3565b80600a5f6101000a81548173ffffffffffffffffffffffffffffffffffffffff021916908373ffffffffffffffffffffffffffffffffffffffff1602179055508073ffffffffffffffffffffffffffffffffffffffff167e56d7403454282c9d1b884c3bdcfe0c09772c704ad0b14978c55bf72867485b60405160405180910390a250565b6106f66115a3565b60065f9054906101000a900473ffffffffffffffffffffffffffffffffffffffff1673ffffffffffffffffffffffffffffffffffffffff1663a9059cbb83836040518363ffffffff1660e01b81526004016107529291906121e4565b6020604051808303815f875af115801561076e573d5f803e3d5ffd5b505050506040513d601f19601f820116820180604052508101906107929190612235565b6107d1576040517f08c379a00000000000000000000000000000000000000000000000000000000081526004016107c8906122aa565b60405180910390fd5b8173ffffffffffffffffffffffffffffffffffffffff167fb0bd88cdae83f74f918eb6bf26d99dcb3c1530530f339233b029e3b6a00ac50b826040516108179190611f3c565b60405180910390a25050565b5f600254905090565b5f8061083661158a565b905061084385828561162a565b61084e8585856116bd565b60019150509392505050565b6108626115a3565b5f81116108a4576040517f08c379a000000000000000000000000000000000000000000000000000000000815260040161089b90612312565b60405180910390fd5b80600b819055507fc5023cc86199e71ca52157b0b124ddbda596c9fb8bab5bb7028d162fa3ed5545816040516108da9190611f3c565b60405180910390a150565b5f6012905090565b6108f56115a3565b61091282670de0b6b3a76400008361090d919061235d565b6117ad565b8173ffffffffffffffffffffffffffffffffffffffff167f30385c845b448a36257a6a1716e6ad2e1bc2cbe333cde1e69fe849ad6511adfe826040516109589190611f3c565b60405180910390a25050565b5f81116109a6576040517f08c379a000000000000000000000000000000000000000000000000000000000815260040161099d906123e8565b60405180910390fd5b5f600854670de0b6b3a7640000836109be919061235d565b6109c89190612433565b90505f670de0b6b3a7640000836109df9190612433565b90505f600854826109f0919061235d565b90505f848211610a00575f610a0d565b8482610a0c9190612463565b5b9050610a3b3360095f9054906101000a900473ffffffffffffffffffffffffffffffffffffffff16876116bd565b5f81118015610a9757505f73ffffffffffffffffffffffffffffffffffffffff16600a5f9054906101000a900473ffffffffffffffffffffffffffffffffffffffff1673ffffffffffffffffffffffffffffffffffffffff1614155b15610b175780600c5f828254610aad9190612496565b92505081905550600b54600c5410610b1657610b0e60095f9054906101000a900473ffffffffffffffffffffffffffffffffffffffff16600a5f9054906101000a900473ffffffffffffffffffffffffffffffffffffffff16600c546116bd565b5f600c819055505b5b60065f9054906101000a900473ffffffffffffffffffffffffffffffffffffffff1673ffffffffffffffffffffffffffffffffffffffff1663a9059cbb33866040518363ffffffff1660e01b8152600401610b739291906121e4565b6020604051808303815f875af1158015610b8f573d5f803e3d5ffd5b505050506040513d601f19601f82011682018060405250810190610bb39190612235565b610bf2576040517f08c379a0000000000000000000000000000000000000000000000000000000008152600401610be990612513565b60405180910390fd5b3373ffffffffffffffffffffffffffffffffffffffff167f91b69b546d2910ad29983da9d221cf0ebae5eb1929083361f4d6c95878cdb420868684604051610c3c93929190612531565b60405180910390a25050505050565b60095f9054906101000a900473ffffffffffffffffffffffffffffffffffffffff1681565b60085481565b5f805f8373ffffffffffffffffffffffffffffffffffffffff1673ffffffffffffffffffffffffffffffffffffffff1681526020019081526020015f20549050919050565b610cc36115a3565b610ccc5f61182c565b565b600c5481565b610cdc6115a3565b670de0b6b3a7640000811015610d27576040517f08c379a0000000000000000000000000000000000000000000000000000000008152600401610d1e906125b0565b60405180910390fd5b600854811115610d6c576040517f08c379a0000000000000000000000000000000000000000000000000000000008152600401610d6390612618565b60405180910390fd5b806007819055507eedd2200f5e00a665285f3c40e420ff44575a36d6abf0b366d132a22cc4fcb181604051610da19190611f3c565b60405180910390a150565b5f60055f9054906101000a900473ffffffffffffffffffffffffffffffffffffffff16905090565b610ddc6115a3565b670de0b6b3a7640000811015610e27576040517f08c379a0000000000000000000000000000000000000000000000000000000008152600401610e1e906126a6565b60405180910390fd5b806008819055507fbd74ca4c80e5eafe62d339abf0f9676e065fe0f2ebca0689e97dd5730ce4d8ab81604051610e5d9190611f3c565b60405180910390a150565b606060048054610e77906121b4565b80601f0160208091040260200160405190810160405280929190818152602001828054610ea3906121b4565b8015610eee5780601f10610ec557610100808354040283529160200191610eee565b820191905f5260205f20905b815481529060010190602001808311610ed157829003601f168201915b5050505050905090565b610f006115a3565b610f1d82670de0b6b3a764000083610f18919061235d565b6118ef565b8173ffffffffffffffffffffffffffffffffffffffff167f696de425f79f4a40bc6d2122ca50507f0efbeabbff86a84871b7196ab8ea8df782604051610f639190611f3c565b60405180910390a25050565b5f80610f7961158a565b9050610f868185856116bd565b600191505092915050565b60065f9054906101000a900473ffffffffffffffffffffffffffffffffffffffff1681565b5f8111610ff8576040517f08c379a0000000000000000000000000000000000000000000000000000000008152600401610fef906123e8565b60405180910390fd5b5f670de0b6b3a76400008261100d919061235d565b905060065f9054906101000a900473ffffffffffffffffffffffffffffffffffffffff1673ffffffffffffffffffffffffffffffffffffffff166323b872dd3330856040518463ffffffff1660e01b815260040161106d939291906126c4565b6020604051808303815f875af1158015611089573d5f803e3d5ffd5b505050506040513d601f19601f820116820180604052508101906110ad9190612235565b6110ec576040517f08c379a00000000000000000000000000000000000000000000000000000000081526004016110e390612743565b60405180910390fd5b61111860095f9054906101000a900473ffffffffffffffffffffffffffffffffffffffff1633836116bd565b3373ffffffffffffffffffffffffffffffffffffffff167f59bb2bddff6a71f8747469b7104385348606a838f9a98de25c0793b2aa4dd0eb8383604051611160929190612761565b60405180910390a25050565b5f805f805f805f805f805f60075460085460095f9054906101000a900473ffffffffffffffffffffffffffffffffffffffff16600a5f9054906101000a900473ffffffffffffffffffffffffffffffffffffffff166111eb60095f9054906101000a900473ffffffffffffffffffffffffffffffffffffffff16610c76565b611215600a5f9054906101000a900473ffffffffffffffffffffffffffffffffffffffff16610c76565b61121e30610c76565b60065f9054906101000a900473ffffffffffffffffffffffffffffffffffffffff1673ffffffffffffffffffffffffffffffffffffffff166370a08231306040518263ffffffff1660e01b81526004016112789190612013565b602060405180830381865afa158015611293573d5f803e3d5ffd5b505050506040513d601f19601f820116820180604052508101906112b7919061279c565b6112bf610823565b600c54600b549a509a509a509a509a509a509a509a509a509a509a50909192939495969798999a565b5f60015f8473ffffffffffffffffffffffffffffffffffffffff1673ffffffffffffffffffffffffffffffffffffffff1681526020019081526020015f205f8373ffffffffffffffffffffffffffffffffffffffff1673ffffffffffffffffffffffffffffffffffffffff1681526020019081526020015f2054905092915050565b6113726115a3565b8060095f6101000a81548173ffffffffffffffffffffffffffffffffffffffff021916908373ffffffffffffffffffffffffffffffffffffffff1602179055508073ffffffffffffffffffffffffffffffffffffffff167fc714d22a2f08b695f81e7c707058db484aa5b4d6b4c9fd64beb10fe85832f60860405160405180910390a250565b600a5f9054906101000a900473ffffffffffffffffffffffffffffffffffffffff1681565b6114256115a3565b5f73ffffffffffffffffffffffffffffffffffffffff168173ffffffffffffffffffffffffffffffffffffffff1603611495575f6040517f1e4fbdf700000000000000000000000000000000000000000000000000000000815260040161148c9190612013565b60405180910390fd5b61149e8161182c565b50565b600b5481565b60075481565b6114b56115a3565b5f600c54116114f9576040517f08c379a00000000000000000000000000000000000000000000000000000000081526004016114f090612811565b60405180910390fd5b61154860095f9054906101000a900473ffffffffffffffffffffffffffffffffffffffff16600a5f9054906101000a900473ffffffffffffffffffffffffffffffffffffffff16600c546116bd565b7f035279bb4d182b0c31a3c5acf2ea52f703ec240e2c8cdaee25e353623db06418600c546040516115799190611f3c565b60405180910390a15f600c81905550565b5f33905090565b61159e838383600161196e565b505050565b6115ab61158a565b73ffffffffffffffffffffffffffffffffffffffff166115c9610dac565b73ffffffffffffffffffffffffffffffffffffffff1614611628576115ec61158a565b6040517f118cdaa700000000000000000000000000000000000000000000000000000000815260040161161f9190612013565b60405180910390fd5b565b5f61163584846112e8565b90507fffffffffffffffffffffffffffffffffffffffffffffffffffffffffffffffff8110156116b757818110156116a8578281836040517ffb8f41b200000000000000000000000000000000000000000000000000000000815260040161169f9392919061282f565b60405180910390fd5b6116b684848484035f61196e565b5b50505050565b5f73ffffffffffffffffffffffffffffffffffffffff168373ffffffffffffffffffffffffffffffffffffffff160361172d575f6040517f96c6fd1e0000000000000000000000000000000000000000000000000000000081526004016117249190612013565b60405180910390fd5b5f73ffffffffffffffffffffffffffffffffffffffff168273ffffffffffffffffffffffffffffffffffffffff160361179d575f6040517fec442f050000000000000000000000000000000000000000000000000000000081526004016117949190612013565b60405180910390fd5b6117a8838383611b3d565b505050565b5f73ffffffffffffffffffffffffffffffffffffffff168273ffffffffffffffffffffffffffffffffffffffff160361181d575f6040517fec442f050000000000000000000000000000000000000000000000000000000081526004016118149190612013565b60405180910390fd5b6118285f8383611b3d565b5050565b5f60055f9054906101000a900473ffffffffffffffffffffffffffffffffffffffff1690508160055f6101000a81548173ffffffffffffffffffffffffffffffffffffffff021916908373ffffffffffffffffffffffffffffffffffffffff1602179055508173ffffffffffffffffffffffffffffffffffffffff168173ffffffffffffffffffffffffffffffffffffffff167f8be0079c531659141344cd1fd0a4f28419497f9722a3daafe3b4186f6b6457e060405160405180910390a35050565b5f73ffffffffffffffffffffffffffffffffffffffff168273ffffffffffffffffffffffffffffffffffffffff160361195f575f6040517f96c6fd1e0000000000000000000000000000000000000000000000000000000081526004016119569190612013565b60405180910390fd5b61196a825f83611b3d565b5050565b5f73ffffffffffffffffffffffffffffffffffffffff168473ffffffffffffffffffffffffffffffffffffffff16036119de575f6040517fe602df050000000000000000000000000000000000000000000000000000000081526004016119d59190612013565b60405180910390fd5b5f73ffffffffffffffffffffffffffffffffffffffff168373ffffffffffffffffffffffffffffffffffffffff1603611a4e575f6040517f94280d62000000000000000000000000000000000000000000000000000000008152600401611a459190612013565b60405180910390fd5b8160015f8673ffffffffffffffffffffffffffffffffffffffff1673ffffffffffffffffffffffffffffffffffffffff1681526020019081526020015f205f8573ffffffffffffffffffffffffffffffffffffffff1673ffffffffffffffffffffffffffffffffffffffff1681526020019081526020015f20819055508015611b37578273ffffffffffffffffffffffffffffffffffffffff168473ffffffffffffffffffffffffffffffffffffffff167f8c5be1e5ebec7d5bd14f71427d1e84f3dd0314c0f7b2291e5b200ac8c7c3b92584604051611b2e9190611f3c565b60405180910390a35b50505050565b5f73ffffffffffffffffffffffffffffffffffffffff168373ffffffffffffffffffffffffffffffffffffffff1603611b8d578060025f828254611b819190612496565b92505081905550611c5b565b5f805f8573ffffffffffffffffffffffffffffffffffffffff1673ffffffffffffffffffffffffffffffffffffffff1681526020019081526020015f2054905081811015611c16578381836040517fe450d38c000000000000000000000000000000000000000000000000000000008152600401611c0d9392919061282f565b60405180910390fd5b8181035f808673ffffffffffffffffffffffffffffffffffffffff1673ffffffffffffffffffffffffffffffffffffffff1681526020019081526020015f2081905550505b5f73ffffffffffffffffffffffffffffffffffffffff168273ffffffffffffffffffffffffffffffffffffffff1603611ca2578060025f8282540392505081905550611cec565b805f808473ffffffffffffffffffffffffffffffffffffffff1673ffffffffffffffffffffffffffffffffffffffff1681526020019081526020015f205f82825401925050819055505b8173ffffffffffffffffffffffffffffffffffffffff168373ffffffffffffffffffffffffffffffffffffffff167fddf252ad1be2c89b69c2b068fc378daa952ba7f163c4a11628f55a4df523b3ef83604051611d499190611f3c565b60405180910390a3505050565b5f81519050919050565b5f82825260208201905092915050565b5f5b83811015611d8d578082015181840152602081019050611d72565b5f8484015250505050565b5f601f19601f8301169050919050565b5f611db282611d56565b611dbc8185611d60565b9350611dcc818560208601611d70565b611dd581611d98565b840191505092915050565b5f6020820190508181035f830152611df88184611da8565b905092915050565b5f80fd5b5f73ffffffffffffffffffffffffffffffffffffffff82169050919050565b5f611e2d82611e04565b9050919050565b611e3d81611e23565b8114611e47575f80fd5b50565b5f81359050611e5881611e34565b92915050565b5f819050919050565b611e7081611e5e565b8114611e7a575f80fd5b50565b5f81359050611e8b81611e67565b92915050565b5f8060408385031215611ea757611ea6611e00565b5b5f611eb485828601611e4a565b9250506020611ec585828601611e7d565b9150509250929050565b5f8115159050919050565b611ee381611ecf565b82525050565b5f602082019050611efc5f830184611eda565b92915050565b5f60208284031215611f1757611f16611e00565b5b5f611f2484828501611e4a565b91505092915050565b611f3681611e5e565b82525050565b5f602082019050611f4f5f830184611f2d565b92915050565b5f805f60608486031215611f6c57611f6b611e00565b5b5f611f7986828701611e4a565b9350506020611f8a86828701611e4a565b9250506040611f9b86828701611e7d565b9150509250925092565b5f60208284031215611fba57611fb9611e00565b5b5f611fc784828501611e7d565b91505092915050565b5f60ff82169050919050565b611fe581611fd0565b82525050565b5f602082019050611ffe5f830184611fdc565b92915050565b61200d81611e23565b82525050565b5f6020820190506120265f830184612004565b92915050565b5f819050919050565b5f61204f61204a61204584611e04565b61202c565b611e04565b9050919050565b5f61206082612035565b9050919050565b5f61207182612056565b9050919050565b61208181612067565b82525050565b5f60208201905061209a5f830184612078565b92915050565b5f610160820190506120b45f83018e611f2d565b6120c1602083018d611f2d565b6120ce604083018c612004565b6120db606083018b612004565b6120e8608083018a611f2d565b6120f560a0830189611f2d565b61210260c0830188611f2d565b61210f60e0830187611f2d565b61211d610100830186611f2d565b61212b610120830185611f2d565b612139610140830184611f2d565b9c9b505050505050505050505050565b5f806040838503121561215f5761215e611e00565b5b5f61216c85828601611e4a565b925050602061217d85828601611e4a565b9150509250929050565b7f4e487b71000000000000000000000000000000000000000000000000000000005f52602260045260245ffd5b5f60028204905060018216806121cb57607f821691505b6020821081036121de576121dd612187565b5b50919050565b5f6040820190506121f75f830185612004565b6122046020830184611f2d565b9392505050565b61221481611ecf565b811461221e575f80fd5b50565b5f8151905061222f8161220b565b92915050565b5f6020828403121561224a57612249611e00565b5b5f61225784828501612221565b91505092915050565b7f5769746864726177206661696c656400000000000000000000000000000000005f82015250565b5f612294600f83611d60565b915061229f82612260565b602082019050919050565b5f6020820190508181035f8301526122c181612288565b9050919050565b7f5468726573686f6c64206d757374206265203e203000000000000000000000005f82015250565b5f6122fc601583611d60565b9150612307826122c8565b602082019050919050565b5f6020820190508181035f830152612329816122f0565b9050919050565b7f4e487b71000000000000000000000000000000000000000000000000000000005f52601160045260245ffd5b5f61236782611e5e565b915061237283611e5e565b925082820261238081611e5e565b9150828204841483151761239757612396612330565b5b5092915050565b7f416d6f756e74206d7573742062652067726561746572207468616e20300000005f82015250565b5f6123d2601d83611d60565b91506123dd8261239e565b602082019050919050565b5f6020820190508181035f8301526123ff816123c6565b9050919050565b7f4e487b71000000000000000000000000000000000000000000000000000000005f52601260045260245ffd5b5f61243d82611e5e565b915061244883611e5e565b92508261245857612457612406565b5b828204905092915050565b5f61246d82611e5e565b915061247883611e5e565b92508282039050818111156124905761248f612330565b5b92915050565b5f6124a082611e5e565b91506124ab83611e5e565b92508282019050808211156124c3576124c2612330565b5b92915050565b7f55534454207061796f7574206661696c656400000000000000000000000000005f82015250565b5f6124fd601283611d60565b9150612508826124c9565b602082019050919050565b5f6020820190508181035f83015261252a816124f1565b9050919050565b5f6060820190506125445f830186611f2d565b6125516020830185611f2d565b61255e6040830184611f2d565b949350505050565b7f4275792072617465206d757374206265203e3d2031205354454d0000000000005f82015250565b5f61259a601a83611d60565b91506125a582612566565b602082019050919050565b5f6020820190508181035f8301526125c78161258e565b9050919050565b7f4275792072617465206d757374206265203c3d2053656c6c20726174650000005f82015250565b5f612602601d83611d60565b915061260d826125ce565b602082019050919050565b5f6020820190508181035f83015261262f816125f6565b9050919050565b7f53656c6c2072617465206d75737420626520e289a52031205354454d207065725f8201527f2055534454000000000000000000000000000000000000000000000000000000602082015250565b5f612690602583611d60565b915061269b82612636565b604082019050919050565b5f6020820190508181035f8301526126bd81612684565b9050919050565b5f6060820190506126d75f830186612004565b6126e46020830185612004565b6126f16040830184611f2d565b949350505050565b7f55534454207472616e73666572206661696c65640000000000000000000000005f82015250565b5f61272d601483611d60565b9150612738826126f9565b602082019050919050565b5f6020820190508181035f83015261275a81612721565b9050919050565b5f6040820190506127745f830185611f2d565b6127816020830184611f2d565b9392505050565b5f8151905061279681611e67565b92915050565b5f602082840312156127b1576127b0611e00565b5b5f6127be84828501612788565b91505092915050565b7f4e6f2070726f66697420746f20776974686472617700000000000000000000005f82015250565b5f6127fb601583611d60565b9150612806826127c7565b602082019050919050565b5f6020820190508181035f830152612828816127ef565b9050919050565b5f6060820190506128425f830186612004565b61284f6020830185611f2d565b61285c6040830184611f2d565b94935050505056fea2646970667358221220177f07107016ff0097ce47a91812ae0449672e6e46c9f978b51b5c23157408ff64736f6c63430008140033",
					"opcodes": "PUSH1 0x80 PUSH1 0x40 MSTORE PUSH8 0xDE0B6B3A7640000 PUSH1 0x7 SSTORE PUSH8 0xDE0B6B3A7640000 PUSH1 0x8 SSTORE CALLVALUE DUP1 ISZERO PUSH3 0x28 JUMPI PUSH0 DUP1 REVERT JUMPDEST POP PUSH1 0x40 MLOAD PUSH3 0x343D CODESIZE SUB DUP1 PUSH3 0x343D DUP4 CODECOPY DUP2 DUP2 ADD PUSH1 0x40 MSTORE DUP2 ADD SWAP1 PUSH3 0x4E SWAP2 SWAP1 PUSH3 0x68E JUMP JUMPDEST CALLER PUSH1 0x40 MLOAD DUP1 PUSH1 0x40 ADD PUSH1 0x40 MSTORE DUP1 PUSH1 0x7 DUP2 MSTORE PUSH1 0x20 ADD PUSH32 0x5354454D4D455200000000000000000000000000000000000000000000000000 DUP2 MSTORE POP PUSH1 0x40 MLOAD DUP1 PUSH1 0x40 ADD PUSH1 0x40 MSTORE DUP1 PUSH1 0x4 DUP2 MSTORE PUSH1 0x20 ADD PUSH32 0x5354454D00000000000000000000000000000000000000000000000000000000 DUP2 MSTORE POP DUP2 PUSH1 0x3 SWAP1 DUP2 PUSH3 0xCC SWAP2 SWAP1 PUSH3 0x96D JUMP JUMPDEST POP DUP1 PUSH1 0x4 SWAP1 DUP2 PUSH3 0xDE SWAP2 SWAP1 PUSH3 0x96D JUMP JUMPDEST POP POP POP PUSH0 PUSH20 0xFFFFFFFFFFFFFFFFFFFFFFFFFFFFFFFFFFFFFFFF AND DUP2 PUSH20 0xFFFFFFFFFFFFFFFFFFFFFFFFFFFFFFFFFFFFFFFF AND SUB PUSH3 0x154 JUMPI PUSH0 PUSH1 0x40 MLOAD PUSH32 0x1E4FBDF700000000000000000000000000000000000000000000000000000000 DUP2 MSTORE PUSH1 0x4 ADD PUSH3 0x14B SWAP2 SWAP1 PUSH3 0xA62 JUMP JUMPDEST PUSH1 0x40 MLOAD DUP1 SWAP2 SUB SWAP1 REVERT JUMPDEST PUSH3 0x165 DUP2 PUSH3 0x280 PUSH1 0x20 SHL PUSH1 0x20 SHR JUMP JUMPDEST POP DUP5 PUSH1 0x6 PUSH0 PUSH2 0x100 EXP DUP2 SLOAD DUP2 PUSH20 0xFFFFFFFFFFFFFFFFFFFFFFFFFFFFFFFFFFFFFFFF MUL NOT AND SWAP1 DUP4 PUSH20 0xFFFFFFFFFFFFFFFFFFFFFFFFFFFFFFFFFFFFFFFF AND MUL OR SWAP1 SSTORE POP DUP4 PUSH1 0x9 PUSH0 PUSH2 0x100 EXP DUP2 SLOAD DUP2 PUSH20 0xFFFFFFFFFFFFFFFFFFFFFFFFFFFFFFFFFFFFFFFF MUL NOT AND SWAP1 DUP4 PUSH20 0xFFFFFFFFFFFFFFFFFFFFFFFFFFFFFFFFFFFFFFFF AND MUL OR SWAP1 SSTORE POP DUP3 PUSH1 0xA PUSH0 PUSH2 0x100 EXP DUP2 SLOAD DUP2 PUSH20 0xFFFFFFFFFFFFFFFFFFFFFFFFFFFFFFFFFFFFFFFF MUL NOT AND SWAP1 DUP4 PUSH20 0xFFFFFFFFFFFFFFFFFFFFFFFFFFFFFFFFFFFFFFFF AND MUL OR SWAP1 SSTORE POP DUP1 PUSH1 0xB DUP2 SWAP1 SSTORE POP PUSH3 0x275 PUSH1 0x9 PUSH0 SWAP1 SLOAD SWAP1 PUSH2 0x100 EXP SWAP1 DIV PUSH20 0xFFFFFFFFFFFFFFFFFFFFFFFFFFFFFFFFFFFFFFFF AND PUSH8 0xDE0B6B3A7640000 DUP5 PUSH3 0x269 SWAP2 SWAP1 PUSH3 0xAAA JUMP JUMPDEST PUSH3 0x343 PUSH1 0x20 SHL PUSH1 0x20 SHR JUMP JUMPDEST POP POP POP POP POP PUSH3 0xB95 JUMP JUMPDEST PUSH0 PUSH1 0x5 PUSH0 SWAP1 SLOAD SWAP1 PUSH2 0x100 EXP SWAP1 DIV PUSH20 0xFFFFFFFFFFFFFFFFFFFFFFFFFFFFFFFFFFFFFFFF AND SWAP1 POP DUP2 PUSH1 0x5 PUSH0 PUSH2 0x100 EXP DUP2 SLOAD DUP2 PUSH20 0xFFFFFFFFFFFFFFFFFFFFFFFFFFFFFFFFFFFFFFFF MUL NOT AND SWAP1 DUP4 PUSH20 0xFFFFFFFFFFFFFFFFFFFFFFFFFFFFFFFFFFFFFFFF AND MUL OR SWAP1 SSTORE POP DUP2 PUSH20 0xFFFFFFFFFFFFFFFFFFFFFFFFFFFFFFFFFFFFFFFF AND DUP2 PUSH20 0xFFFFFFFFFFFFFFFFFFFFFFFFFFFFFFFFFFFFFFFF AND PUSH32 0x8BE0079C531659141344CD1FD0A4F28419497F9722A3DAAFE3B4186F6B6457E0 PUSH1 0x40 MLOAD PUSH1 0x40 MLOAD DUP1 SWAP2 SUB SWAP1 LOG3 POP POP JUMP JUMPDEST PUSH0 PUSH20 0xFFFFFFFFFFFFFFFFFFFFFFFFFFFFFFFFFFFFFFFF AND DUP3 PUSH20 0xFFFFFFFFFFFFFFFFFFFFFFFFFFFFFFFFFFFFFFFF AND SUB PUSH3 0x3B6 JUMPI PUSH0 PUSH1 0x40 MLOAD PUSH32 0xEC442F0500000000000000000000000000000000000000000000000000000000 DUP2 MSTORE PUSH1 0x4 ADD PUSH3 0x3AD SWAP2 SWAP1 PUSH3 0xA62 JUMP JUMPDEST PUSH1 0x40 MLOAD DUP1 SWAP2 SUB SWAP1 REVERT JUMPDEST PUSH3 0x3C9 PUSH0 DUP4 DUP4 PUSH3 0x3CD PUSH1 0x20 SHL PUSH1 0x20 SHR JUMP JUMPDEST POP POP JUMP JUMPDEST PUSH0 PUSH20 0xFFFFFFFFFFFFFFFFFFFFFFFFFFFFFFFFFFFFFFFF AND DUP4 PUSH20 0xFFFFFFFFFFFFFFFFFFFFFFFFFFFFFFFFFFFFFFFF AND SUB PUSH3 0x421 JUMPI DUP1 PUSH1 0x2 PUSH0 DUP3 DUP3 SLOAD PUSH3 0x414 SWAP2 SWAP1 PUSH3 0xAF4 JUMP JUMPDEST SWAP3 POP POP DUP2 SWAP1 SSTORE POP PUSH3 0x4F2 JUMP JUMPDEST PUSH0 DUP1 PUSH0 DUP6 PUSH20 0xFFFFFFFFFFFFFFFFFFFFFFFFFFFFFFFFFFFFFFFF AND PUSH20 0xFFFFFFFFFFFFFFFFFFFFFFFFFFFFFFFFFFFFFFFF AND DUP2 MSTORE PUSH1 0x20 ADD SWAP1 DUP2 MSTORE PUSH1 0x20 ADD PUSH0 KECCAK256 SLOAD SWAP1 POP DUP2 DUP2 LT ISZERO PUSH3 0x4AD JUMPI DUP4 DUP2 DUP4 PUSH1 0x40 MLOAD PUSH32 0xE450D38C00000000000000000000000000000000000000000000000000000000 DUP2 MSTORE PUSH1 0x4 ADD PUSH3 0x4A4 SWAP4 SWAP3 SWAP2 SWAP1 PUSH3 0xB3F JUMP JUMPDEST PUSH1 0x40 MLOAD DUP1 SWAP2 SUB SWAP1 REVERT JUMPDEST DUP2 DUP2 SUB PUSH0 DUP1 DUP7 PUSH20 0xFFFFFFFFFFFFFFFFFFFFFFFFFFFFFFFFFFFFFFFF AND PUSH20 0xFFFFFFFFFFFFFFFFFFFFFFFFFFFFFFFFFFFFFFFF AND DUP2 MSTORE PUSH1 0x20 ADD SWAP1 DUP2 MSTORE PUSH1 0x20 ADD PUSH0 KECCAK256 DUP2 SWAP1 SSTORE POP POP JUMPDEST PUSH0 PUSH20 0xFFFFFFFFFFFFFFFFFFFFFFFFFFFFFFFFFFFFFFFF AND DUP3 PUSH20 0xFFFFFFFFFFFFFFFFFFFFFFFFFFFFFFFFFFFFFFFF AND SUB PUSH3 0x53B JUMPI DUP1 PUSH1 0x2 PUSH0 DUP3 DUP3 SLOAD SUB SWAP3 POP POP DUP2 SWAP1 SSTORE POP PUSH3 0x585 JUMP JUMPDEST DUP1 PUSH0 DUP1 DUP5 PUSH20 0xFFFFFFFFFFFFFFFFFFFFFFFFFFFFFFFFFFFFFFFF AND PUSH20 0xFFFFFFFFFFFFFFFFFFFFFFFFFFFFFFFFFFFFFFFF AND DUP2 MSTORE PUSH1 0x20 ADD SWAP1 DUP2 MSTORE PUSH1 0x20 ADD PUSH0 KECCAK256 PUSH0 DUP3 DUP3 SLOAD ADD SWAP3 POP POP DUP2 SWAP1 SSTORE POP JUMPDEST DUP2 PUSH20 0xFFFFFFFFFFFFFFFFFFFFFFFFFFFFFFFFFFFFFFFF AND DUP4 PUSH20 0xFFFFFFFFFFFFFFFFFFFFFFFFFFFFFFFFFFFFFFFF AND PUSH32 0xDDF252AD1BE2C89B69C2B068FC378DAA952BA7F163C4A11628F55A4DF523B3EF DUP4 PUSH1 0x40 MLOAD PUSH3 0x5E4 SWAP2 SWAP1 PUSH3 0xB7A JUMP JUMPDEST PUSH1 0x40 MLOAD DUP1 SWAP2 SUB SWAP1 LOG3 POP POP POP JUMP JUMPDEST PUSH0 DUP1 REVERT JUMPDEST PUSH0 PUSH20 0xFFFFFFFFFFFFFFFFFFFFFFFFFFFFFFFFFFFFFFFF DUP3 AND SWAP1 POP SWAP2 SWAP1 POP JUMP JUMPDEST PUSH0 PUSH3 0x620 DUP3 PUSH3 0x5F5 JUMP JUMPDEST SWAP1 POP SWAP2 SWAP1 POP JUMP JUMPDEST PUSH3 0x632 DUP2 PUSH3 0x614 JUMP JUMPDEST DUP2 EQ PUSH3 0x63D JUMPI PUSH0 DUP1 REVERT JUMPDEST POP JUMP JUMPDEST PUSH0 DUP2 MLOAD SWAP1 POP PUSH3 0x650 DUP2 PUSH3 0x627 JUMP JUMPDEST SWAP3 SWAP2 POP POP JUMP JUMPDEST PUSH0 DUP2 SWAP1 POP SWAP2 SWAP1 POP JUMP JUMPDEST PUSH3 0x66A DUP2 PUSH3 0x656 JUMP JUMPDEST DUP2 EQ PUSH3 0x675 JUMPI PUSH0 DUP1 REVERT JUMPDEST POP JUMP JUMPDEST PUSH0 DUP2 MLOAD SWAP1 POP PUSH3 0x688 DUP2 PUSH3 0x65F JUMP JUMPDEST SWAP3 SWAP2 POP POP JUMP JUMPDEST PUSH0 DUP1 PUSH0 DUP1 PUSH0 PUSH1 0xA0 DUP7 DUP9 SUB SLT ISZERO PUSH3 0x6AA JUMPI PUSH3 0x6A9 PUSH3 0x5F1 JUMP JUMPDEST JUMPDEST PUSH0 PUSH3 0x6B9 DUP9 DUP3 DUP10 ADD PUSH3 0x640 JUMP JUMPDEST SWAP6 POP POP PUSH1 0x20 PUSH3 0x6CC DUP9 DUP3 DUP10 ADD PUSH3 0x640 JUMP JUMPDEST SWAP5 POP POP PUSH1 0x40 PUSH3 0x6DF DUP9 DUP3 DUP10 ADD PUSH3 0x640 JUMP JUMPDEST SWAP4 POP POP PUSH1 0x60 PUSH3 0x6F2 DUP9 DUP3 DUP10 ADD PUSH3 0x678 JUMP JUMPDEST SWAP3 POP POP PUSH1 0x80 PUSH3 0x705 DUP9 DUP3 DUP10 ADD PUSH3 0x678 JUMP JUMPDEST SWAP2 POP POP SWAP3 SWAP6 POP SWAP3 SWAP6 SWAP1 SWAP4 POP JUMP JUMPDEST PUSH0 DUP2 MLOAD SWAP1 POP SWAP2 SWAP1 POP JUMP JUMPDEST PUSH32 0x4E487B7100000000000000000000000000000000000000000000000000000000 PUSH0 MSTORE PUSH1 0x41 PUSH1 0x4 MSTORE PUSH1 0x24 PUSH0 REVERT JUMPDEST PUSH32 0x4E487B7100000000000000000000000000000000000000000000000000000000 PUSH0 MSTORE PUSH1 0x22 PUSH1 0x4 MSTORE PUSH1 0x24 PUSH0 REVERT JUMPDEST PUSH0 PUSH1 0x2 DUP3 DIV SWAP1 POP PUSH1 0x1 DUP3 AND DUP1 PUSH3 0x78E JUMPI PUSH1 0x7F DUP3 AND SWAP2 POP JUMPDEST PUSH1 0x20 DUP3 LT DUP2 SUB PUSH3 0x7A4 JUMPI PUSH3 0x7A3 PUSH3 0x749 JUMP JUMPDEST JUMPDEST POP SWAP2 SWAP1 POP JUMP JUMPDEST PUSH0 DUP2 SWAP1 POP DUP2 PUSH0 MSTORE PUSH1 0x20 PUSH0 KECCAK256 SWAP1 POP SWAP2 SWAP1 POP JUMP JUMPDEST PUSH0 PUSH1 0x20 PUSH1 0x1F DUP4 ADD DIV SWAP1 POP SWAP2 SWAP1 POP JUMP JUMPDEST PUSH0 DUP3 DUP3 SHL SWAP1 POP SWAP3 SWAP2 POP POP JUMP JUMPDEST PUSH0 PUSH1 0x8 DUP4 MUL PUSH3 0x808 PUSH32 0xFFFFFFFFFFFFFFFFFFFFFFFFFFFFFFFFFFFFFFFFFFFFFFFFFFFFFFFFFFFFFFFF DUP3 PUSH3 0x7CB JUMP JUMPDEST PUSH3 0x814 DUP7 DUP4 PUSH3 0x7CB JUMP JUMPDEST SWAP6 POP DUP1 NOT DUP5 AND SWAP4 POP DUP1 DUP7 AND DUP5 OR SWAP3 POP POP POP SWAP4 SWAP3 POP POP POP JUMP JUMPDEST PUSH0 DUP2 SWAP1 POP SWAP2 SWAP1 POP JUMP JUMPDEST PUSH0 PUSH3 0x855 PUSH3 0x84F PUSH3 0x849 DUP5 PUSH3 0x656 JUMP JUMPDEST PUSH3 0x82C JUMP JUMPDEST PUSH3 0x656 JUMP JUMPDEST SWAP1 POP SWAP2 SWAP1 POP JUMP JUMPDEST PUSH0 DUP2 SWAP1 POP SWAP2 SWAP1 POP JUMP JUMPDEST PUSH3 0x870 DUP4 PUSH3 0x835 JUMP JUMPDEST PUSH3 0x888 PUSH3 0x87F DUP3 PUSH3 0x85C JUMP JUMPDEST DUP5 DUP5 SLOAD PUSH3 0x7D7 JUMP JUMPDEST DUP3 SSTORE POP POP POP POP JUMP JUMPDEST PUSH0 SWAP1 JUMP JUMPDEST PUSH3 0x89E PUSH3 0x890 JUMP JUMPDEST PUSH3 0x8AB DUP2 DUP5 DUP5 PUSH3 0x865 JUMP JUMPDEST POP POP POP JUMP JUMPDEST JUMPDEST DUP2 DUP2 LT ISZERO PUSH3 0x8D2 JUMPI PUSH3 0x8C6 PUSH0 DUP3 PUSH3 0x894 JUMP JUMPDEST PUSH1 0x1 DUP2 ADD SWAP1 POP PUSH3 0x8B1 JUMP JUMPDEST POP POP JUMP JUMPDEST PUSH1 0x1F DUP3 GT ISZERO PUSH3 0x921 JUMPI PUSH3 0x8EB DUP2 PUSH3 0x7AA JUMP JUMPDEST PUSH3 0x8F6 DUP5 PUSH3 0x7BC JUMP JUMPDEST DUP2 ADD PUSH1 0x20 DUP6 LT ISZERO PUSH3 0x906 JUMPI DUP2 SWAP1 POP JUMPDEST PUSH3 0x91E PUSH3 0x915 DUP6 PUSH3 0x7BC JUMP JUMPDEST DUP4 ADD DUP3 PUSH3 0x8B0 JUMP JUMPDEST POP POP JUMPDEST POP POP POP JUMP JUMPDEST PUSH0 DUP3 DUP3 SHR SWAP1 POP SWAP3 SWAP2 POP POP JUMP JUMPDEST PUSH0 PUSH3 0x943 PUSH0 NOT DUP5 PUSH1 0x8 MUL PUSH3 0x926 JUMP JUMPDEST NOT DUP1 DUP4 AND SWAP2 POP POP SWAP3 SWAP2 POP POP JUMP JUMPDEST PUSH0 PUSH3 0x95D DUP4 DUP4 PUSH3 0x932 JUMP JUMPDEST SWAP2 POP DUP3 PUSH1 0x2 MUL DUP3 OR SWAP1 POP SWAP3 SWAP2 POP POP JUMP JUMPDEST PUSH3 0x978 DUP3 PUSH3 0x712 JUMP JUMPDEST PUSH8 0xFFFFFFFFFFFFFFFF DUP2 GT ISZERO PUSH3 0x994 JUMPI PUSH3 0x993 PUSH3 0x71C JUMP JUMPDEST JUMPDEST PUSH3 0x9A0 DUP3 SLOAD PUSH3 0x776 JUMP JUMPDEST PUSH3 0x9AD DUP3 DUP3 DUP6 PUSH3 0x8D6 JUMP JUMPDEST PUSH0 PUSH1 0x20 SWAP1 POP PUSH1 0x1F DUP4 GT PUSH1 0x1 DUP2 EQ PUSH3 0x9E3 JUMPI PUSH0 DUP5 ISZERO PUSH3 0x9CE JUMPI DUP3 DUP8 ADD MLOAD SWAP1 POP JUMPDEST PUSH3 0x9DA DUP6 DUP3 PUSH3 0x950 JUMP JUMPDEST DUP7 SSTORE POP PUSH3 0xA49 JUMP JUMPDEST PUSH1 0x1F NOT DUP5 AND PUSH3 0x9F3 DUP7 PUSH3 0x7AA JUMP JUMPDEST PUSH0 JUMPDEST DUP3 DUP2 LT ISZERO PUSH3 0xA1C JUMPI DUP5 DUP10 ADD MLOAD DUP3 SSTORE PUSH1 0x1 DUP3 ADD SWAP2 POP PUSH1 0x20 DUP6 ADD SWAP5 POP PUSH1 0x20 DUP2 ADD SWAP1 POP PUSH3 0x9F5 JUMP JUMPDEST DUP7 DUP4 LT ISZERO PUSH3 0xA3C JUMPI DUP5 DUP10 ADD MLOAD PUSH3 0xA38 PUSH1 0x1F DUP10 AND DUP3 PUSH3 0x932 JUMP JUMPDEST DUP4 SSTORE POP JUMPDEST PUSH1 0x1 PUSH1 0x2 DUP9 MUL ADD DUP9 SSTORE POP POP POP JUMPDEST POP POP POP POP POP POP JUMP JUMPDEST PUSH3 0xA5C DUP2 PUSH3 0x614 JUMP JUMPDEST DUP3 MSTORE POP POP JUMP JUMPDEST PUSH0 PUSH1 0x20 DUP3 ADD SWAP1 POP PUSH3 0xA77 PUSH0 DUP4 ADD DUP5 PUSH3 0xA51 JUMP JUMPDEST SWAP3 SWAP2 POP POP JUMP JUMPDEST PUSH32 0x4E487B7100000000000000000000000000000000000000000000000000000000 PUSH0 MSTORE PUSH1 0x11 PUSH1 0x4 MSTORE PUSH1 0x24 PUSH0 REVERT JUMPDEST PUSH0 PUSH3 0xAB6 DUP3 PUSH3 0x656 JUMP JUMPDEST SWAP2 POP PUSH3 0xAC3 DUP4 PUSH3 0x656 JUMP JUMPDEST SWAP3 POP DUP3 DUP3 MUL PUSH3 0xAD3 DUP2 PUSH3 0x656 JUMP JUMPDEST SWAP2 POP DUP3 DUP3 DIV DUP5 EQ DUP4 ISZERO OR PUSH3 0xAED JUMPI PUSH3 0xAEC PUSH3 0xA7D JUMP JUMPDEST JUMPDEST POP SWAP3 SWAP2 POP POP JUMP JUMPDEST PUSH0 PUSH3 0xB00 DUP3 PUSH3 0x656 JUMP JUMPDEST SWAP2 POP PUSH3 0xB0D DUP4 PUSH3 0x656 JUMP JUMPDEST SWAP3 POP DUP3 DUP3 ADD SWAP1 POP DUP1 DUP3 GT ISZERO PUSH3 0xB28 JUMPI PUSH3 0xB27 PUSH3 0xA7D JUMP JUMPDEST JUMPDEST SWAP3 SWAP2 POP POP JUMP JUMPDEST PUSH3 0xB39 DUP2 PUSH3 0x656 JUMP JUMPDEST DUP3 MSTORE POP POP JUMP JUMPDEST PUSH0 PUSH1 0x60 DUP3 ADD SWAP1 POP PUSH3 0xB54 PUSH0 DUP4 ADD DUP7 PUSH3 0xA51 JUMP JUMPDEST PUSH3 0xB63 PUSH1 0x20 DUP4 ADD DUP6 PUSH3 0xB2E JUMP JUMPDEST PUSH3 0xB72 PUSH1 0x40 DUP4 ADD DUP5 PUSH3 0xB2E JUMP JUMPDEST SWAP5 SWAP4 POP POP POP POP JUMP JUMPDEST PUSH0 PUSH1 0x20 DUP3 ADD SWAP1 POP PUSH3 0xB8F PUSH0 DUP4 ADD DUP5 PUSH3 0xB2E JUMP JUMPDEST SWAP3 SWAP2 POP POP JUMP JUMPDEST PUSH2 0x289A DUP1 PUSH3 0xBA3 PUSH0 CODECOPY PUSH0 RETURN INVALID PUSH1 0x80 PUSH1 0x40 MSTORE CALLVALUE DUP1 ISZERO PUSH2 0xF JUMPI PUSH0 DUP1 REVERT JUMPDEST POP PUSH1 0x4 CALLDATASIZE LT PUSH2 0x1E3 JUMPI PUSH0 CALLDATALOAD PUSH1 0xE0 SHR DUP1 PUSH4 0x85E436BF GT PUSH2 0x10D JUMPI DUP1 PUSH4 0xC3F909D4 GT PUSH2 0xA0 JUMPI DUP1 PUSH4 0xF2FDE38B GT PUSH2 0x6F JUMPI DUP1 PUSH4 0xF2FDE38B EQ PUSH2 0x54D JUMPI DUP1 PUSH4 0xF974821A EQ PUSH2 0x569 JUMPI DUP1 PUSH4 0xFC37987B EQ PUSH2 0x587 JUMPI DUP1 PUSH4 0xFF90B54D EQ PUSH2 0x5A5 JUMPI PUSH2 0x1E3 JUMP JUMPDEST DUP1 PUSH4 0xC3F909D4 EQ PUSH2 0x4BB JUMPI DUP1 PUSH4 0xDD62ED3E EQ PUSH2 0x4E3 JUMPI DUP1 PUSH4 0xF0F44260 EQ PUSH2 0x513 JUMPI DUP1 PUSH4 0xF203787C EQ PUSH2 0x52F JUMPI PUSH2 0x1E3 JUMP JUMPDEST DUP1 PUSH4 0x9DC29FAC GT PUSH2 0xDC JUMPI DUP1 PUSH4 0x9DC29FAC EQ PUSH2 0x435 JUMPI DUP1 PUSH4 0xA9059CBB EQ PUSH2 0x451 JUMPI DUP1 PUSH4 0xA98AD46C EQ PUSH2 0x481 JUMPI DUP1 PUSH4 0xBB285554 EQ PUSH2 0x49F JUMPI PUSH2 0x1E3 JUMP JUMPDEST DUP1 PUSH4 0x85E436BF EQ PUSH2 0x3C1 JUMPI DUP1 PUSH4 0x8DA5CB5B EQ PUSH2 0x3DD JUMPI DUP1 PUSH4 0x8E0B017D EQ PUSH2 0x3FB JUMPI DUP1 PUSH4 0x95D89B41 EQ PUSH2 0x417 JUMPI PUSH2 0x1E3 JUMP JUMPDEST DUP1 PUSH4 0x313CE567 GT PUSH2 0x185 JUMPI DUP1 PUSH4 0x6217229B GT PUSH2 0x154 JUMPI DUP1 PUSH4 0x6217229B EQ PUSH2 0x34B JUMPI DUP1 PUSH4 0x70A08231 EQ PUSH2 0x369 JUMPI DUP1 PUSH4 0x715018A6 EQ PUSH2 0x399 JUMPI DUP1 PUSH4 0x748E37F4 EQ PUSH2 0x3A3 JUMPI PUSH2 0x1E3 JUMP JUMPDEST DUP1 PUSH4 0x313CE567 EQ PUSH2 0x2D7 JUMPI DUP1 PUSH4 0x40C10F19 EQ PUSH2 0x2F5 JUMPI DUP1 PUSH4 0x5D91E3F8 EQ PUSH2 0x311 JUMPI DUP1 PUSH4 0x61D027B3 EQ PUSH2 0x32D JUMPI PUSH2 0x1E3 JUMP JUMPDEST DUP1 PUSH4 0x1481794E GT PUSH2 0x1C1 JUMPI DUP1 PUSH4 0x1481794E EQ PUSH2 0x251 JUMPI DUP1 PUSH4 0x18160DDD EQ PUSH2 0x26D JUMPI DUP1 PUSH4 0x23B872DD EQ PUSH2 0x28B JUMPI DUP1 PUSH4 0x28821182 EQ PUSH2 0x2BB JUMPI PUSH2 0x1E3 JUMP JUMPDEST DUP1 PUSH4 0x6FDDE03 EQ PUSH2 0x1E7 JUMPI DUP1 PUSH4 0x95EA7B3 EQ PUSH2 0x205 JUMPI DUP1 PUSH4 0xF7E730B EQ PUSH2 0x235 JUMPI JUMPDEST PUSH0 DUP1 REVERT JUMPDEST PUSH2 0x1EF PUSH2 0x5AF JUMP JUMPDEST PUSH1 0x40 MLOAD PUSH2 0x1FC SWAP2 SWAP1 PUSH2 0x1DE0 JUMP JUMPDEST PUSH1 0x40 MLOAD DUP1 SWAP2 SUB SWAP1 RETURN JUMPDEST PUSH2 0x21F PUSH1 0x4 DUP1 CALLDATASIZE SUB DUP2 ADD SWAP1 PUSH2 0x21A SWAP2 SWAP1 PUSH2 0x1E91 JUMP JUMPDEST PUSH2 0x63F JUMP JUMPDEST PUSH1 0x40 MLOAD PUSH2 0x22C SWAP2 SWAP1 PUSH2 0x1EE9 JUMP JUMPDEST PUSH1 0x40 MLOAD DUP1 SWAP2 SUB SWAP1 RETURN JUMPDEST PUSH2 0x24F PUSH1 0x4 DUP1 CALLDATASIZE SUB DUP2 ADD SWAP1 PUSH2 0x24A SWAP2 SWAP1 PUSH2 0x1F02 JUMP JUMPDEST PUSH2 0x661 JUMP JUMPDEST STOP JUMPDEST PUSH2 0x26B PUSH1 0x4 DUP1 CALLDATASIZE SUB DUP2 ADD SWAP1 PUSH2 0x266 SWAP2 SWAP1 PUSH2 0x1E91 JUMP JUMPDEST PUSH2 0x6EE JUMP JUMPDEST STOP JUMPDEST PUSH2 0x275 PUSH2 0x823 JUMP JUMPDEST PUSH1 0x40 MLOAD PUSH2 0x282 SWAP2 SWAP1 PUSH2 0x1F3C JUMP JUMPDEST PUSH1 0x40 MLOAD DUP1 SWAP2 SUB SWAP1 RETURN JUMPDEST PUSH2 0x2A5 PUSH1 0x4 DUP1 CALLDATASIZE SUB DUP2 ADD SWAP1 PUSH2 0x2A0 SWAP2 SWAP1 PUSH2 0x1F55 JUMP JUMPDEST PUSH2 0x82C JUMP JUMPDEST PUSH1 0x40 MLOAD PUSH2 0x2B2 SWAP2 SWAP1 PUSH2 0x1EE9 JUMP JUMPDEST PUSH1 0x40 MLOAD DUP1 SWAP2 SUB SWAP1 RETURN JUMPDEST PUSH2 0x2D5 PUSH1 0x4 DUP1 CALLDATASIZE SUB DUP2 ADD SWAP1 PUSH2 0x2D0 SWAP2 SWAP1 PUSH2 0x1FA5 JUMP JUMPDEST PUSH2 0x85A JUMP JUMPDEST STOP JUMPDEST PUSH2 0x2DF PUSH2 0x8E5 JUMP JUMPDEST PUSH1 0x40 MLOAD PUSH2 0x2EC SWAP2 SWAP1 PUSH2 0x1FEB JUMP JUMPDEST PUSH1 0x40 MLOAD DUP1 SWAP2 SUB SWAP1 RETURN JUMPDEST PUSH2 0x30F PUSH1 0x4 DUP1 CALLDATASIZE SUB DUP2 ADD SWAP1 PUSH2 0x30A SWAP2 SWAP1 PUSH2 0x1E91 JUMP JUMPDEST PUSH2 0x8ED JUMP JUMPDEST STOP JUMPDEST PUSH2 0x32B PUSH1 0x4 DUP1 CALLDATASIZE SUB DUP2 ADD SWAP1 PUSH2 0x326 SWAP2 SWAP1 PUSH2 0x1FA5 JUMP JUMPDEST PUSH2 0x964 JUMP JUMPDEST STOP JUMPDEST PUSH2 0x335 PUSH2 0xC4B JUMP JUMPDEST PUSH1 0x40 MLOAD PUSH2 0x342 SWAP2 SWAP1 PUSH2 0x2013 JUMP JUMPDEST PUSH1 0x40 MLOAD DUP1 SWAP2 SUB SWAP1 RETURN JUMPDEST PUSH2 0x353 PUSH2 0xC70 JUMP JUMPDEST PUSH1 0x40 MLOAD PUSH2 0x360 SWAP2 SWAP1 PUSH2 0x1F3C JUMP JUMPDEST PUSH1 0x40 MLOAD DUP1 SWAP2 SUB SWAP1 RETURN JUMPDEST PUSH2 0x383 PUSH1 0x4 DUP1 CALLDATASIZE SUB DUP2 ADD SWAP1 PUSH2 0x37E SWAP2 SWAP1 PUSH2 0x1F02 JUMP JUMPDEST PUSH2 0xC76 JUMP JUMPDEST PUSH1 0x40 MLOAD PUSH2 0x390 SWAP2 SWAP1 PUSH2 0x1F3C JUMP JUMPDEST PUSH1 0x40 MLOAD DUP1 SWAP2 SUB SWAP1 RETURN JUMPDEST PUSH2 0x3A1 PUSH2 0xCBB JUMP JUMPDEST STOP JUMPDEST PUSH2 0x3AB PUSH2 0xCCE JUMP JUMPDEST PUSH1 0x40 MLOAD PUSH2 0x3B8 SWAP2 SWAP1 PUSH2 0x1F3C JUMP JUMPDEST PUSH1 0x40 MLOAD DUP1 SWAP2 SUB SWAP1 RETURN JUMPDEST PUSH2 0x3DB PUSH1 0x4 DUP1 CALLDATASIZE SUB DUP2 ADD SWAP1 PUSH2 0x3D6 SWAP2 SWAP1 PUSH2 0x1FA5 JUMP JUMPDEST PUSH2 0xCD4 JUMP JUMPDEST STOP JUMPDEST PUSH2 0x3E5 PUSH2 0xDAC JUMP JUMPDEST PUSH1 0x40 MLOAD PUSH2 0x3F2 SWAP2 SWAP1 PUSH2 0x2013 JUMP JUMPDEST PUSH1 0x40 MLOAD DUP1 SWAP2 SUB SWAP1 RETURN JUMPDEST PUSH2 0x415 PUSH1 0x4 DUP1 CALLDATASIZE SUB DUP2 ADD SWAP1 PUSH2 0x410 SWAP2 SWAP1 PUSH2 0x1FA5 JUMP JUMPDEST PUSH2 0xDD4 JUMP JUMPDEST STOP JUMPDEST PUSH2 0x41F PUSH2 0xE68 JUMP JUMPDEST PUSH1 0x40 MLOAD PUSH2 0x42C SWAP2 SWAP1 PUSH2 0x1DE0 JUMP JUMPDEST PUSH1 0x40 MLOAD DUP1 SWAP2 SUB SWAP1 RETURN JUMPDEST PUSH2 0x44F PUSH1 0x4 DUP1 CALLDATASIZE SUB DUP2 ADD SWAP1 PUSH2 0x44A SWAP2 SWAP1 PUSH2 0x1E91 JUMP JUMPDEST PUSH2 0xEF8 JUMP JUMPDEST STOP JUMPDEST PUSH2 0x46B PUSH1 0x4 DUP1 CALLDATASIZE SUB DUP2 ADD SWAP1 PUSH2 0x466 SWAP2 SWAP1 PUSH2 0x1E91 JUMP JUMPDEST PUSH2 0xF6F JUMP JUMPDEST PUSH1 0x40 MLOAD PUSH2 0x478 SWAP2 SWAP1 PUSH2 0x1EE9 JUMP JUMPDEST PUSH1 0x40 MLOAD DUP1 SWAP2 SUB SWAP1 RETURN JUMPDEST PUSH2 0x489 PUSH2 0xF91 JUMP JUMPDEST PUSH1 0x40 MLOAD PUSH2 0x496 SWAP2 SWAP1 PUSH2 0x2087 JUMP JUMPDEST PUSH1 0x40 MLOAD DUP1 SWAP2 SUB SWAP1 RETURN JUMPDEST PUSH2 0x4B9 PUSH1 0x4 DUP1 CALLDATASIZE SUB DUP2 ADD SWAP1 PUSH2 0x4B4 SWAP2 SWAP1 PUSH2 0x1FA5 JUMP JUMPDEST PUSH2 0xFB6 JUMP JUMPDEST STOP JUMPDEST PUSH2 0x4C3 PUSH2 0x116C JUMP JUMPDEST PUSH1 0x40 MLOAD PUSH2 0x4DA SWAP12 SWAP11 SWAP10 SWAP9 SWAP8 SWAP7 SWAP6 SWAP5 SWAP4 SWAP3 SWAP2 SWAP1 PUSH2 0x20A0 JUMP JUMPDEST PUSH1 0x40 MLOAD DUP1 SWAP2 SUB SWAP1 RETURN JUMPDEST PUSH2 0x4FD PUSH1 0x4 DUP1 CALLDATASIZE SUB DUP2 ADD SWAP1 PUSH2 0x4F8 SWAP2 SWAP1 PUSH2 0x2149 JUMP JUMPDEST PUSH2 0x12E8 JUMP JUMPDEST PUSH1 0x40 MLOAD PUSH2 0x50A SWAP2 SWAP1 PUSH2 0x1F3C JUMP JUMPDEST PUSH1 0x40 MLOAD DUP1 SWAP2 SUB SWAP1 RETURN JUMPDEST PUSH2 0x52D PUSH1 0x4 DUP1 CALLDATASIZE SUB DUP2 ADD SWAP1 PUSH2 0x528 SWAP2 SWAP1 PUSH2 0x1F02 JUMP JUMPDEST PUSH2 0x136A JUMP JUMPDEST STOP JUMPDEST PUSH2 0x537 PUSH2 0x13F8 JUMP JUMPDEST PUSH1 0x40 MLOAD PUSH2 0x544 SWAP2 SWAP1 PUSH2 0x2013 JUMP JUMPDEST PUSH1 0x40 MLOAD DUP1 SWAP2 SUB SWAP1 RETURN JUMPDEST PUSH2 0x567 PUSH1 0x4 DUP1 CALLDATASIZE SUB DUP2 ADD SWAP1 PUSH2 0x562 SWAP2 SWAP1 PUSH2 0x1F02 JUMP JUMPDEST PUSH2 0x141D JUMP JUMPDEST STOP JUMPDEST PUSH2 0x571 PUSH2 0x14A1 JUMP JUMPDEST PUSH1 0x40 MLOAD PUSH2 0x57E SWAP2 SWAP1 PUSH2 0x1F3C JUMP JUMPDEST PUSH1 0x40 MLOAD DUP1 SWAP2 SUB SWAP1 RETURN JUMPDEST PUSH2 0x58F PUSH2 0x14A7 JUMP JUMPDEST PUSH1 0x40 MLOAD PUSH2 0x59C SWAP2 SWAP1 PUSH2 0x1F3C JUMP JUMPDEST PUSH1 0x40 MLOAD DUP1 SWAP2 SUB SWAP1 RETURN JUMPDEST PUSH2 0x5AD PUSH2 0x14AD JUMP JUMPDEST STOP JUMPDEST PUSH1 0x60 PUSH1 0x3 DUP1 SLOAD PUSH2 0x5BE SWAP1 PUSH2 0x21B4 JUMP JUMPDEST DUP1 PUSH1 0x1F ADD PUSH1 0x20 DUP1 SWAP2 DIV MUL PUSH1 0x20 ADD PUSH1 0x40 MLOAD SWAP1 DUP2 ADD PUSH1 0x40 MSTORE DUP1 SWAP3 SWAP2 SWAP1 DUP2 DUP2 MSTORE PUSH1 0x20 ADD DUP3 DUP1 SLOAD PUSH2 0x5EA SWAP1 PUSH2 0x21B4 JUMP JUMPDEST DUP1 ISZERO PUSH2 0x635 JUMPI DUP1 PUSH1 0x1F LT PUSH2 0x60C JUMPI PUSH2 0x100 DUP1 DUP4 SLOAD DIV MUL DUP4 MSTORE SWAP2 PUSH1 0x20 ADD SWAP2 PUSH2 0x635 JUMP JUMPDEST DUP3 ADD SWAP2 SWAP1 PUSH0 MSTORE PUSH1 0x20 PUSH0 KECCAK256 SWAP1 JUMPDEST DUP2 SLOAD DUP2 MSTORE SWAP1 PUSH1 0x1 ADD SWAP1 PUSH1 0x20 ADD DUP1 DUP4 GT PUSH2 0x618 JUMPI DUP3 SWAP1 SUB PUSH1 0x1F AND DUP3 ADD SWAP2 JUMPDEST POP POP POP POP POP SWAP1 POP SWAP1 JUMP JUMPDEST PUSH0 DUP1 PUSH2 0x649 PUSH2 0x158A JUMP JUMPDEST SWAP1 POP PUSH2 0x656 DUP2 DUP6 DUP6 PUSH2 0x1591 JUMP JUMPDEST PUSH1 0x1 SWAP2 POP POP SWAP3 SWAP2 POP POP JUMP JUMPDEST PUSH2 0x669 PUSH2 0x15A3 JUMP JUMPDEST DUP1 PUSH1 0xA PUSH0 PUSH2 0x100 EXP DUP2 SLOAD DUP2 PUSH20 0xFFFFFFFFFFFFFFFFFFFFFFFFFFFFFFFFFFFFFFFF MUL NOT AND SWAP1 DUP4 PUSH20 0xFFFFFFFFFFFFFFFFFFFFFFFFFFFFFFFFFFFFFFFF AND MUL OR SWAP1 SSTORE POP DUP1 PUSH20 0xFFFFFFFFFFFFFFFFFFFFFFFFFFFFFFFFFFFFFFFF AND PUSH31 0x56D7403454282C9D1B884C3BDCFE0C09772C704AD0B14978C55BF72867485B PUSH1 0x40 MLOAD PUSH1 0x40 MLOAD DUP1 SWAP2 SUB SWAP1 LOG2 POP JUMP JUMPDEST PUSH2 0x6F6 PUSH2 0x15A3 JUMP JUMPDEST PUSH1 0x6 PUSH0 SWAP1 SLOAD SWAP1 PUSH2 0x100 EXP SWAP1 DIV PUSH20 0xFFFFFFFFFFFFFFFFFFFFFFFFFFFFFFFFFFFFFFFF AND PUSH20 0xFFFFFFFFFFFFFFFFFFFFFFFFFFFFFFFFFFFFFFFF AND PUSH4 0xA9059CBB DUP4 DUP4 PUSH1 0x40 MLOAD DUP4 PUSH4 0xFFFFFFFF AND PUSH1 0xE0 SHL DUP2 MSTORE PUSH1 0x4 ADD PUSH2 0x752 SWAP3 SWAP2 SWAP1 PUSH2 0x21E4 JUMP JUMPDEST PUSH1 0x20 PUSH1 0x40 MLOAD DUP1 DUP4 SUB DUP2 PUSH0 DUP8 GAS CALL ISZERO DUP1 ISZERO PUSH2 0x76E JUMPI RETURNDATASIZE PUSH0 DUP1 RETURNDATACOPY RETURNDATASIZE PUSH0 REVERT JUMPDEST POP POP POP POP PUSH1 0x40 MLOAD RETURNDATASIZE PUSH1 0x1F NOT PUSH1 0x1F DUP3 ADD AND DUP3 ADD DUP1 PUSH1 0x40 MSTORE POP DUP2 ADD SWAP1 PUSH2 0x792 SWAP2 SWAP1 PUSH2 0x2235 JUMP JUMPDEST PUSH2 0x7D1 JUMPI PUSH1 0x40 MLOAD PUSH32 0x8C379A000000000000000000000000000000000000000000000000000000000 DUP2 MSTORE PUSH1 0x4 ADD PUSH2 0x7C8 SWAP1 PUSH2 0x22AA JUMP JUMPDEST PUSH1 0x40 MLOAD DUP1 SWAP2 SUB SWAP1 REVERT JUMPDEST DUP2 PUSH20 0xFFFFFFFFFFFFFFFFFFFFFFFFFFFFFFFFFFFFFFFF AND PUSH32 0xB0BD88CDAE83F74F918EB6BF26D99DCB3C1530530F339233B029E3B6A00AC50B DUP3 PUSH1 0x40 MLOAD PUSH2 0x817 SWAP2 SWAP1 PUSH2 0x1F3C JUMP JUMPDEST PUSH1 0x40 MLOAD DUP1 SWAP2 SUB SWAP1 LOG2 POP POP JUMP JUMPDEST PUSH0 PUSH1 0x2 SLOAD SWAP1 POP SWAP1 JUMP JUMPDEST PUSH0 DUP1 PUSH2 0x836 PUSH2 0x158A JUMP JUMPDEST SWAP1 POP PUSH2 0x843 DUP6 DUP3 DUP6 PUSH2 0x162A JUMP JUMPDEST PUSH2 0x84E DUP6 DUP6 DUP6 PUSH2 0x16BD JUMP JUMPDEST PUSH1 0x1 SWAP2 POP POP SWAP4 SWAP3 POP POP POP JUMP JUMPDEST PUSH2 0x862 PUSH2 0x15A3 JUMP JUMPDEST PUSH0 DUP2 GT PUSH2 0x8A4 JUMPI PUSH1 0x40 MLOAD PUSH32 0x8C379A000000000000000000000000000000000000000000000000000000000 DUP2 MSTORE PUSH1 0x4 ADD PUSH2 0x89B SWAP1 PUSH2 0x2312 JUMP JUMPDEST PUSH1 0x40 MLOAD DUP1 SWAP2 SUB SWAP1 REVERT JUMPDEST DUP1 PUSH1 0xB DUP2 SWAP1 SSTORE POP PUSH32 0xC5023CC86199E71CA52157B0B124DDBDA596C9FB8BAB5BB7028D162FA3ED5545 DUP2 PUSH1 0x40 MLOAD PUSH2 0x8DA SWAP2 SWAP1 PUSH2 0x1F3C JUMP JUMPDEST PUSH1 0x40 MLOAD DUP1 SWAP2 SUB SWAP1 LOG1 POP JUMP JUMPDEST PUSH0 PUSH1 0x12 SWAP1 POP SWAP1 JUMP JUMPDEST PUSH2 0x8F5 PUSH2 0x15A3 JUMP JUMPDEST PUSH2 0x912 DUP3 PUSH8 0xDE0B6B3A7640000 DUP4 PUSH2 0x90D SWAP2 SWAP1 PUSH2 0x235D JUMP JUMPDEST PUSH2 0x17AD JUMP JUMPDEST DUP2 PUSH20 0xFFFFFFFFFFFFFFFFFFFFFFFFFFFFFFFFFFFFFFFF AND PUSH32 0x30385C845B448A36257A6A1716E6AD2E1BC2CBE333CDE1E69FE849AD6511ADFE DUP3 PUSH1 0x40 MLOAD PUSH2 0x958 SWAP2 SWAP1 PUSH2 0x1F3C JUMP JUMPDEST PUSH1 0x40 MLOAD DUP1 SWAP2 SUB SWAP1 LOG2 POP POP JUMP JUMPDEST PUSH0 DUP2 GT PUSH2 0x9A6 JUMPI PUSH1 0x40 MLOAD PUSH32 0x8C379A000000000000000000000000000000000000000000000000000000000 DUP2 MSTORE PUSH1 0x4 ADD PUSH2 0x99D SWAP1 PUSH2 0x23E8 JUMP JUMPDEST PUSH1 0x40 MLOAD DUP1 SWAP2 SUB SWAP1 REVERT JUMPDEST PUSH0 PUSH1 0x8 SLOAD PUSH8 0xDE0B6B3A7640000 DUP4 PUSH2 0x9BE SWAP2 SWAP1 PUSH2 0x235D JUMP JUMPDEST PUSH2 0x9C8 SWAP2 SWAP1 PUSH2 0x2433 JUMP JUMPDEST SWAP1 POP PUSH0 PUSH8 0xDE0B6B3A7640000 DUP4 PUSH2 0x9DF SWAP2 SWAP1 PUSH2 0x2433 JUMP JUMPDEST SWAP1 POP PUSH0 PUSH1 0x8 SLOAD DUP3 PUSH2 0x9F0 SWAP2 SWAP1 PUSH2 0x235D JUMP JUMPDEST SWAP1 POP PUSH0 DUP5 DUP3 GT PUSH2 0xA00 JUMPI PUSH0 PUSH2 0xA0D JUMP JUMPDEST DUP5 DUP3 PUSH2 0xA0C SWAP2 SWAP1 PUSH2 0x2463 JUMP JUMPDEST JUMPDEST SWAP1 POP PUSH2 0xA3B CALLER PUSH1 0x9 PUSH0 SWAP1 SLOAD SWAP1 PUSH2 0x100 EXP SWAP1 DIV PUSH20 0xFFFFFFFFFFFFFFFFFFFFFFFFFFFFFFFFFFFFFFFF AND DUP8 PUSH2 0x16BD JUMP JUMPDEST PUSH0 DUP2 GT DUP1 ISZERO PUSH2 0xA97 JUMPI POP PUSH0 PUSH20 0xFFFFFFFFFFFFFFFFFFFFFFFFFFFFFFFFFFFFFFFF AND PUSH1 0xA PUSH0 SWAP1 SLOAD SWAP1 PUSH2 0x100 EXP SWAP1 DIV PUSH20 0xFFFFFFFFFFFFFFFFFFFFFFFFFFFFFFFFFFFFFFFF AND PUSH20 0xFFFFFFFFFFFFFFFFFFFFFFFFFFFFFFFFFFFFFFFF AND EQ ISZERO JUMPDEST ISZERO PUSH2 0xB17 JUMPI DUP1 PUSH1 0xC PUSH0 DUP3 DUP3 SLOAD PUSH2 0xAAD SWAP2 SWAP1 PUSH2 0x2496 JUMP JUMPDEST SWAP3 POP POP DUP2 SWAP1 SSTORE POP PUSH1 0xB SLOAD PUSH1 0xC SLOAD LT PUSH2 0xB16 JUMPI PUSH2 0xB0E PUSH1 0x9 PUSH0 SWAP1 SLOAD SWAP1 PUSH2 0x100 EXP SWAP1 DIV PUSH20 0xFFFFFFFFFFFFFFFFFFFFFFFFFFFFFFFFFFFFFFFF AND PUSH1 0xA PUSH0 SWAP1 SLOAD SWAP1 PUSH2 0x100 EXP SWAP1 DIV PUSH20 0xFFFFFFFFFFFFFFFFFFFFFFFFFFFFFFFFFFFFFFFF AND PUSH1 0xC SLOAD PUSH2 0x16BD JUMP JUMPDEST PUSH0 PUSH1 0xC DUP2 SWAP1 SSTORE POP JUMPDEST JUMPDEST PUSH1 0x6 PUSH0 SWAP1 SLOAD SWAP1 PUSH2 0x100 EXP SWAP1 DIV PUSH20 0xFFFFFFFFFFFFFFFFFFFFFFFFFFFFFFFFFFFFFFFF AND PUSH20 0xFFFFFFFFFFFFFFFFFFFFFFFFFFFFFFFFFFFFFFFF AND PUSH4 0xA9059CBB CALLER DUP7 PUSH1 0x40 MLOAD DUP4 PUSH4 0xFFFFFFFF AND PUSH1 0xE0 SHL DUP2 MSTORE PUSH1 0x4 ADD PUSH2 0xB73 SWAP3 SWAP2 SWAP1 PUSH2 0x21E4 JUMP JUMPDEST PUSH1 0x20 PUSH1 0x40 MLOAD DUP1 DUP4 SUB DUP2 PUSH0 DUP8 GAS CALL ISZERO DUP1 ISZERO PUSH2 0xB8F JUMPI RETURNDATASIZE PUSH0 DUP1 RETURNDATACOPY RETURNDATASIZE PUSH0 REVERT JUMPDEST POP POP POP POP PUSH1 0x40 MLOAD RETURNDATASIZE PUSH1 0x1F NOT PUSH1 0x1F DUP3 ADD AND DUP3 ADD DUP1 PUSH1 0x40 MSTORE POP DUP2 ADD SWAP1 PUSH2 0xBB3 SWAP2 SWAP1 PUSH2 0x2235 JUMP JUMPDEST PUSH2 0xBF2 JUMPI PUSH1 0x40 MLOAD PUSH32 0x8C379A000000000000000000000000000000000000000000000000000000000 DUP2 MSTORE PUSH1 0x4 ADD PUSH2 0xBE9 SWAP1 PUSH2 0x2513 JUMP JUMPDEST PUSH1 0x40 MLOAD DUP1 SWAP2 SUB SWAP1 REVERT JUMPDEST CALLER PUSH20 0xFFFFFFFFFFFFFFFFFFFFFFFFFFFFFFFFFFFFFFFF AND PUSH32 0x91B69B546D2910AD29983DA9D221CF0EBAE5EB1929083361F4D6C95878CDB420 DUP7 DUP7 DUP5 PUSH1 0x40 MLOAD PUSH2 0xC3C SWAP4 SWAP3 SWAP2 SWAP1 PUSH2 0x2531 JUMP JUMPDEST PUSH1 0x40 MLOAD DUP1 SWAP2 SUB SWAP1 LOG2 POP POP POP POP POP JUMP JUMPDEST PUSH1 0x9 PUSH0 SWAP1 SLOAD SWAP1 PUSH2 0x100 EXP SWAP1 DIV PUSH20 0xFFFFFFFFFFFFFFFFFFFFFFFFFFFFFFFFFFFFFFFF AND DUP2 JUMP JUMPDEST PUSH1 0x8 SLOAD DUP2 JUMP JUMPDEST PUSH0 DUP1 PUSH0 DUP4 PUSH20 0xFFFFFFFFFFFFFFFFFFFFFFFFFFFFFFFFFFFFFFFF AND PUSH20 0xFFFFFFFFFFFFFFFFFFFFFFFFFFFFFFFFFFFFFFFF AND DUP2 MSTORE PUSH1 0x20 ADD SWAP1 DUP2 MSTORE PUSH1 0x20 ADD PUSH0 KECCAK256 SLOAD SWAP1 POP SWAP2 SWAP1 POP JUMP JUMPDEST PUSH2 0xCC3 PUSH2 0x15A3 JUMP JUMPDEST PUSH2 0xCCC PUSH0 PUSH2 0x182C JUMP JUMPDEST JUMP JUMPDEST PUSH1 0xC SLOAD DUP2 JUMP JUMPDEST PUSH2 0xCDC PUSH2 0x15A3 JUMP JUMPDEST PUSH8 0xDE0B6B3A7640000 DUP2 LT ISZERO PUSH2 0xD27 JUMPI PUSH1 0x40 MLOAD PUSH32 0x8C379A000000000000000000000000000000000000000000000000000000000 DUP2 MSTORE PUSH1 0x4 ADD PUSH2 0xD1E SWAP1 PUSH2 0x25B0 JUMP JUMPDEST PUSH1 0x40 MLOAD DUP1 SWAP2 SUB SWAP1 REVERT JUMPDEST PUSH1 0x8 SLOAD DUP2 GT ISZERO PUSH2 0xD6C JUMPI PUSH1 0x40 MLOAD PUSH32 0x8C379A000000000000000000000000000000000000000000000000000000000 DUP2 MSTORE PUSH1 0x4 ADD PUSH2 0xD63 SWAP1 PUSH2 0x2618 JUMP JUMPDEST PUSH1 0x40 MLOAD DUP1 SWAP2 SUB SWAP1 REVERT JUMPDEST DUP1 PUSH1 0x7 DUP2 SWAP1 SSTORE POP PUSH31 0xEDD2200F5E00A665285F3C40E420FF44575A36D6ABF0B366D132A22CC4FCB1 DUP2 PUSH1 0x40 MLOAD PUSH2 0xDA1 SWAP2 SWAP1 PUSH2 0x1F3C JUMP JUMPDEST PUSH1 0x40 MLOAD DUP1 SWAP2 SUB SWAP1 LOG1 POP JUMP JUMPDEST PUSH0 PUSH1 0x5 PUSH0 SWAP1 SLOAD SWAP1 PUSH2 0x100 EXP SWAP1 DIV PUSH20 0xFFFFFFFFFFFFFFFFFFFFFFFFFFFFFFFFFFFFFFFF AND SWAP1 POP SWAP1 JUMP JUMPDEST PUSH2 0xDDC PUSH2 0x15A3 JUMP JUMPDEST PUSH8 0xDE0B6B3A7640000 DUP2 LT ISZERO PUSH2 0xE27 JUMPI PUSH1 0x40 MLOAD PUSH32 0x8C379A000000000000000000000000000000000000000000000000000000000 DUP2 MSTORE PUSH1 0x4 ADD PUSH2 0xE1E SWAP1 PUSH2 0x26A6 JUMP JUMPDEST PUSH1 0x40 MLOAD DUP1 SWAP2 SUB SWAP1 REVERT JUMPDEST DUP1 PUSH1 0x8 DUP2 SWAP1 SSTORE POP PUSH32 0xBD74CA4C80E5EAFE62D339ABF0F9676E065FE0F2EBCA0689E97DD5730CE4D8AB DUP2 PUSH1 0x40 MLOAD PUSH2 0xE5D SWAP2 SWAP1 PUSH2 0x1F3C JUMP JUMPDEST PUSH1 0x40 MLOAD DUP1 SWAP2 SUB SWAP1 LOG1 POP JUMP JUMPDEST PUSH1 0x60 PUSH1 0x4 DUP1 SLOAD PUSH2 0xE77 SWAP1 PUSH2 0x21B4 JUMP JUMPDEST DUP1 PUSH1 0x1F ADD PUSH1 0x20 DUP1 SWAP2 DIV MUL PUSH1 0x20 ADD PUSH1 0x40 MLOAD SWAP1 DUP2 ADD PUSH1 0x40 MSTORE DUP1 SWAP3 SWAP2 SWAP1 DUP2 DUP2 MSTORE PUSH1 0x20 ADD DUP3 DUP1 SLOAD PUSH2 0xEA3 SWAP1 PUSH2 0x21B4 JUMP JUMPDEST DUP1 ISZERO PUSH2 0xEEE JUMPI DUP1 PUSH1 0x1F LT PUSH2 0xEC5 JUMPI PUSH2 0x100 DUP1 DUP4 SLOAD DIV MUL DUP4 MSTORE SWAP2 PUSH1 0x20 ADD SWAP2 PUSH2 0xEEE JUMP JUMPDEST DUP3 ADD SWAP2 SWAP1 PUSH0 MSTORE PUSH1 0x20 PUSH0 KECCAK256 SWAP1 JUMPDEST DUP2 SLOAD DUP2 MSTORE SWAP1 PUSH1 0x1 ADD SWAP1 PUSH1 0x20 ADD DUP1 DUP4 GT PUSH2 0xED1 JUMPI DUP3 SWAP1 SUB PUSH1 0x1F AND DUP3 ADD SWAP2 JUMPDEST POP POP POP POP POP SWAP1 POP SWAP1 JUMP JUMPDEST PUSH2 0xF00 PUSH2 0x15A3 JUMP JUMPDEST PUSH2 0xF1D DUP3 PUSH8 0xDE0B6B3A7640000 DUP4 PUSH2 0xF18 SWAP2 SWAP1 PUSH2 0x235D JUMP JUMPDEST PUSH2 0x18EF JUMP JUMPDEST DUP2 PUSH20 0xFFFFFFFFFFFFFFFFFFFFFFFFFFFFFFFFFFFFFFFF AND PUSH32 0x696DE425F79F4A40BC6D2122CA50507F0EFBEABBFF86A84871B7196AB8EA8DF7 DUP3 PUSH1 0x40 MLOAD PUSH2 0xF63 SWAP2 SWAP1 PUSH2 0x1F3C JUMP JUMPDEST PUSH1 0x40 MLOAD DUP1 SWAP2 SUB SWAP1 LOG2 POP POP JUMP JUMPDEST PUSH0 DUP1 PUSH2 0xF79 PUSH2 0x158A JUMP JUMPDEST SWAP1 POP PUSH2 0xF86 DUP2 DUP6 DUP6 PUSH2 0x16BD JUMP JUMPDEST PUSH1 0x1 SWAP2 POP POP SWAP3 SWAP2 POP POP JUMP JUMPDEST PUSH1 0x6 PUSH0 SWAP1 SLOAD SWAP1 PUSH2 0x100 EXP SWAP1 DIV PUSH20 0xFFFFFFFFFFFFFFFFFFFFFFFFFFFFFFFFFFFFFFFF AND DUP2 JUMP JUMPDEST PUSH0 DUP2 GT PUSH2 0xFF8 JUMPI PUSH1 0x40 MLOAD PUSH32 0x8C379A000000000000000000000000000000000000000000000000000000000 DUP2 MSTORE PUSH1 0x4 ADD PUSH2 0xFEF SWAP1 PUSH2 0x23E8 JUMP JUMPDEST PUSH1 0x40 MLOAD DUP1 SWAP2 SUB SWAP1 REVERT JUMPDEST PUSH0 PUSH8 0xDE0B6B3A7640000 DUP3 PUSH2 0x100D SWAP2 SWAP1 PUSH2 0x235D JUMP JUMPDEST SWAP1 POP PUSH1 0x6 PUSH0 SWAP1 SLOAD SWAP1 PUSH2 0x100 EXP SWAP1 DIV PUSH20 0xFFFFFFFFFFFFFFFFFFFFFFFFFFFFFFFFFFFFFFFF AND PUSH20 0xFFFFFFFFFFFFFFFFFFFFFFFFFFFFFFFFFFFFFFFF AND PUSH4 0x23B872DD CALLER ADDRESS DUP6 PUSH1 0x40 MLOAD DUP5 PUSH4 0xFFFFFFFF AND PUSH1 0xE0 SHL DUP2 MSTORE PUSH1 0x4 ADD PUSH2 0x106D SWAP4 SWAP3 SWAP2 SWAP1 PUSH2 0x26C4 JUMP JUMPDEST PUSH1 0x20 PUSH1 0x40 MLOAD DUP1 DUP4 SUB DUP2 PUSH0 DUP8 GAS CALL ISZERO DUP1 ISZERO PUSH2 0x1089 JUMPI RETURNDATASIZE PUSH0 DUP1 RETURNDATACOPY RETURNDATASIZE PUSH0 REVERT JUMPDEST POP POP POP POP PUSH1 0x40 MLOAD RETURNDATASIZE PUSH1 0x1F NOT PUSH1 0x1F DUP3 ADD AND DUP3 ADD DUP1 PUSH1 0x40 MSTORE POP DUP2 ADD SWAP1 PUSH2 0x10AD SWAP2 SWAP1 PUSH2 0x2235 JUMP JUMPDEST PUSH2 0x10EC JUMPI PUSH1 0x40 MLOAD PUSH32 0x8C379A000000000000000000000000000000000000000000000000000000000 DUP2 MSTORE PUSH1 0x4 ADD PUSH2 0x10E3 SWAP1 PUSH2 0x2743 JUMP JUMPDEST PUSH1 0x40 MLOAD DUP1 SWAP2 SUB SWAP1 REVERT JUMPDEST PUSH2 0x1118 PUSH1 0x9 PUSH0 SWAP1 SLOAD SWAP1 PUSH2 0x100 EXP SWAP1 DIV PUSH20 0xFFFFFFFFFFFFFFFFFFFFFFFFFFFFFFFFFFFFFFFF AND CALLER DUP4 PUSH2 0x16BD JUMP JUMPDEST CALLER PUSH20 0xFFFFFFFFFFFFFFFFFFFFFFFFFFFFFFFFFFFFFFFF AND PUSH32 0x59BB2BDDFF6A71F8747469B7104385348606A838F9A98DE25C0793B2AA4DD0EB DUP4 DUP4 PUSH1 0x40 MLOAD PUSH2 0x1160 SWAP3 SWAP2 SWAP1 PUSH2 0x2761 JUMP JUMPDEST PUSH1 0x40 MLOAD DUP1 SWAP2 SUB SWAP1 LOG2 POP POP JUMP JUMPDEST PUSH0 DUP1 PUSH0 DUP1 PUSH0 DUP1 PUSH0 DUP1 PUSH0 DUP1 PUSH0 PUSH1 0x7 SLOAD PUSH1 0x8 SLOAD PUSH1 0x9 PUSH0 SWAP1 SLOAD SWAP1 PUSH2 0x100 EXP SWAP1 DIV PUSH20 0xFFFFFFFFFFFFFFFFFFFFFFFFFFFFFFFFFFFFFFFF AND PUSH1 0xA PUSH0 SWAP1 SLOAD SWAP1 PUSH2 0x100 EXP SWAP1 DIV PUSH20 0xFFFFFFFFFFFFFFFFFFFFFFFFFFFFFFFFFFFFFFFF AND PUSH2 0x11EB PUSH1 0x9 PUSH0 SWAP1 SLOAD SWAP1 PUSH2 0x100 EXP SWAP1 DIV PUSH20 0xFFFFFFFFFFFFFFFFFFFFFFFFFFFFFFFFFFFFFFFF AND PUSH2 0xC76 JUMP JUMPDEST PUSH2 0x1215 PUSH1 0xA PUSH0 SWAP1 SLOAD SWAP1 PUSH2 0x100 EXP SWAP1 DIV PUSH20 0xFFFFFFFFFFFFFFFFFFFFFFFFFFFFFFFFFFFFFFFF AND PUSH2 0xC76 JUMP JUMPDEST PUSH2 0x121E ADDRESS PUSH2 0xC76 JUMP JUMPDEST PUSH1 0x6 PUSH0 SWAP1 SLOAD SWAP1 PUSH2 0x100 EXP SWAP1 DIV PUSH20 0xFFFFFFFFFFFFFFFFFFFFFFFFFFFFFFFFFFFFFFFF AND PUSH20 0xFFFFFFFFFFFFFFFFFFFFFFFFFFFFFFFFFFFFFFFF AND PUSH4 0x70A08231 ADDRESS PUSH1 0x40 MLOAD DUP3 PUSH4 0xFFFFFFFF AND PUSH1 0xE0 SHL DUP2 MSTORE PUSH1 0x4 ADD PUSH2 0x1278 SWAP2 SWAP1 PUSH2 0x2013 JUMP JUMPDEST PUSH1 0x20 PUSH1 0x40 MLOAD DUP1 DUP4 SUB DUP2 DUP7 GAS STATICCALL ISZERO DUP1 ISZERO PUSH2 0x1293 JUMPI RETURNDATASIZE PUSH0 DUP1 RETURNDATACOPY RETURNDATASIZE PUSH0 REVERT JUMPDEST POP POP POP POP PUSH1 0x40 MLOAD RETURNDATASIZE PUSH1 0x1F NOT PUSH1 0x1F DUP3 ADD AND DUP3 ADD DUP1 PUSH1 0x40 MSTORE POP DUP2 ADD SWAP1 PUSH2 0x12B7 SWAP2 SWAP1 PUSH2 0x279C JUMP JUMPDEST PUSH2 0x12BF PUSH2 0x823 JUMP JUMPDEST PUSH1 0xC SLOAD PUSH1 0xB SLOAD SWAP11 POP SWAP11 POP SWAP11 POP SWAP11 POP SWAP11 POP SWAP11 POP SWAP11 POP SWAP11 POP SWAP11 POP SWAP11 POP SWAP11 POP SWAP1 SWAP2 SWAP3 SWAP4 SWAP5 SWAP6 SWAP7 SWAP8 SWAP9 SWAP10 SWAP11 JUMP JUMPDEST PUSH0 PUSH1 0x1 PUSH0 DUP5 PUSH20 0xFFFFFFFFFFFFFFFFFFFFFFFFFFFFFFFFFFFFFFFF AND PUSH20 0xFFFFFFFFFFFFFFFFFFFFFFFFFFFFFFFFFFFFFFFF AND DUP2 MSTORE PUSH1 0x20 ADD SWAP1 DUP2 MSTORE PUSH1 0x20 ADD PUSH0 KECCAK256 PUSH0 DUP4 PUSH20 0xFFFFFFFFFFFFFFFFFFFFFFFFFFFFFFFFFFFFFFFF AND PUSH20 0xFFFFFFFFFFFFFFFFFFFFFFFFFFFFFFFFFFFFFFFF AND DUP2 MSTORE PUSH1 0x20 ADD SWAP1 DUP2 MSTORE PUSH1 0x20 ADD PUSH0 KECCAK256 SLOAD SWAP1 POP SWAP3 SWAP2 POP POP JUMP JUMPDEST PUSH2 0x1372 PUSH2 0x15A3 JUMP JUMPDEST DUP1 PUSH1 0x9 PUSH0 PUSH2 0x100 EXP DUP2 SLOAD DUP2 PUSH20 0xFFFFFFFFFFFFFFFFFFFFFFFFFFFFFFFFFFFFFFFF MUL NOT AND SWAP1 DUP4 PUSH20 0xFFFFFFFFFFFFFFFFFFFFFFFFFFFFFFFFFFFFFFFF AND MUL OR SWAP1 SSTORE POP DUP1 PUSH20 0xFFFFFFFFFFFFFFFFFFFFFFFFFFFFFFFFFFFFFFFF AND PUSH32 0xC714D22A2F08B695F81E7C707058DB484AA5B4D6B4C9FD64BEB10FE85832F608 PUSH1 0x40 MLOAD PUSH1 0x40 MLOAD DUP1 SWAP2 SUB SWAP1 LOG2 POP JUMP JUMPDEST PUSH1 0xA PUSH0 SWAP1 SLOAD SWAP1 PUSH2 0x100 EXP SWAP1 DIV PUSH20 0xFFFFFFFFFFFFFFFFFFFFFFFFFFFFFFFFFFFFFFFF AND DUP2 JUMP JUMPDEST PUSH2 0x1425 PUSH2 0x15A3 JUMP JUMPDEST PUSH0 PUSH20 0xFFFFFFFFFFFFFFFFFFFFFFFFFFFFFFFFFFFFFFFF AND DUP2 PUSH20 0xFFFFFFFFFFFFFFFFFFFFFFFFFFFFFFFFFFFFFFFF AND SUB PUSH2 0x1495 JUMPI PUSH0 PUSH1 0x40 MLOAD PUSH32 0x1E4FBDF700000000000000000000000000000000000000000000000000000000 DUP2 MSTORE PUSH1 0x4 ADD PUSH2 0x148C SWAP2 SWAP1 PUSH2 0x2013 JUMP JUMPDEST PUSH1 0x40 MLOAD DUP1 SWAP2 SUB SWAP1 REVERT JUMPDEST PUSH2 0x149E DUP2 PUSH2 0x182C JUMP JUMPDEST POP JUMP JUMPDEST PUSH1 0xB SLOAD DUP2 JUMP JUMPDEST PUSH1 0x7 SLOAD DUP2 JUMP JUMPDEST PUSH2 0x14B5 PUSH2 0x15A3 JUMP JUMPDEST PUSH0 PUSH1 0xC SLOAD GT PUSH2 0x14F9 JUMPI PUSH1 0x40 MLOAD PUSH32 0x8C379A000000000000000000000000000000000000000000000000000000000 DUP2 MSTORE PUSH1 0x4 ADD PUSH2 0x14F0 SWAP1 PUSH2 0x2811 JUMP JUMPDEST PUSH1 0x40 MLOAD DUP1 SWAP2 SUB SWAP1 REVERT JUMPDEST PUSH2 0x1548 PUSH1 0x9 PUSH0 SWAP1 SLOAD SWAP1 PUSH2 0x100 EXP SWAP1 DIV PUSH20 0xFFFFFFFFFFFFFFFFFFFFFFFFFFFFFFFFFFFFFFFF AND PUSH1 0xA PUSH0 SWAP1 SLOAD SWAP1 PUSH2 0x100 EXP SWAP1 DIV PUSH20 0xFFFFFFFFFFFFFFFFFFFFFFFFFFFFFFFFFFFFFFFF AND PUSH1 0xC SLOAD PUSH2 0x16BD JUMP JUMPDEST PUSH32 0x35279BB4D182B0C31A3C5ACF2EA52F703EC240E2C8CDAEE25E353623DB06418 PUSH1 0xC SLOAD PUSH1 0x40 MLOAD PUSH2 0x1579 SWAP2 SWAP1 PUSH2 0x1F3C JUMP JUMPDEST PUSH1 0x40 MLOAD DUP1 SWAP2 SUB SWAP1 LOG1 PUSH0 PUSH1 0xC DUP2 SWAP1 SSTORE POP JUMP JUMPDEST PUSH0 CALLER SWAP1 POP SWAP1 JUMP JUMPDEST PUSH2 0x159E DUP4 DUP4 DUP4 PUSH1 0x1 PUSH2 0x196E JUMP JUMPDEST POP POP POP JUMP JUMPDEST PUSH2 0x15AB PUSH2 0x158A JUMP JUMPDEST PUSH20 0xFFFFFFFFFFFFFFFFFFFFFFFFFFFFFFFFFFFFFFFF AND PUSH2 0x15C9 PUSH2 0xDAC JUMP JUMPDEST PUSH20 0xFFFFFFFFFFFFFFFFFFFFFFFFFFFFFFFFFFFFFFFF AND EQ PUSH2 0x1628 JUMPI PUSH2 0x15EC PUSH2 0x158A JUMP JUMPDEST PUSH1 0x40 MLOAD PUSH32 0x118CDAA700000000000000000000000000000000000000000000000000000000 DUP2 MSTORE PUSH1 0x4 ADD PUSH2 0x161F SWAP2 SWAP1 PUSH2 0x2013 JUMP JUMPDEST PUSH1 0x40 MLOAD DUP1 SWAP2 SUB SWAP1 REVERT JUMPDEST JUMP JUMPDEST PUSH0 PUSH2 0x1635 DUP5 DUP5 PUSH2 0x12E8 JUMP JUMPDEST SWAP1 POP PUSH32 0xFFFFFFFFFFFFFFFFFFFFFFFFFFFFFFFFFFFFFFFFFFFFFFFFFFFFFFFFFFFFFFFF DUP2 LT ISZERO PUSH2 0x16B7 JUMPI DUP2 DUP2 LT ISZERO PUSH2 0x16A8 JUMPI DUP3 DUP2 DUP4 PUSH1 0x40 MLOAD PUSH32 0xFB8F41B200000000000000000000000000000000000000000000000000000000 DUP2 MSTORE PUSH1 0x4 ADD PUSH2 0x169F SWAP4 SWAP3 SWAP2 SWAP1 PUSH2 0x282F JUMP JUMPDEST PUSH1 0x40 MLOAD DUP1 SWAP2 SUB SWAP1 REVERT JUMPDEST PUSH2 0x16B6 DUP5 DUP5 DUP5 DUP5 SUB PUSH0 PUSH2 0x196E JUMP JUMPDEST JUMPDEST POP POP POP POP JUMP JUMPDEST PUSH0 PUSH20 0xFFFFFFFFFFFFFFFFFFFFFFFFFFFFFFFFFFFFFFFF AND DUP4 PUSH20 0xFFFFFFFFFFFFFFFFFFFFFFFFFFFFFFFFFFFFFFFF AND SUB PUSH2 0x172D JUMPI PUSH0 PUSH1 0x40 MLOAD PUSH32 0x96C6FD1E00000000000000000000000000000000000000000000000000000000 DUP2 MSTORE PUSH1 0x4 ADD PUSH2 0x1724 SWAP2 SWAP1 PUSH2 0x2013 JUMP JUMPDEST PUSH1 0x40 MLOAD DUP1 SWAP2 SUB SWAP1 REVERT JUMPDEST PUSH0 PUSH20 0xFFFFFFFFFFFFFFFFFFFFFFFFFFFFFFFFFFFFFFFF AND DUP3 PUSH20 0xFFFFFFFFFFFFFFFFFFFFFFFFFFFFFFFFFFFFFFFF AND SUB PUSH2 0x179D JUMPI PUSH0 PUSH1 0x40 MLOAD PUSH32 0xEC442F0500000000000000000000000000000000000000000000000000000000 DUP2 MSTORE PUSH1 0x4 ADD PUSH2 0x1794 SWAP2 SWAP1 PUSH2 0x2013 JUMP JUMPDEST PUSH1 0x40 MLOAD DUP1 SWAP2 SUB SWAP1 REVERT JUMPDEST PUSH2 0x17A8 DUP4 DUP4 DUP4 PUSH2 0x1B3D JUMP JUMPDEST POP POP POP JUMP JUMPDEST PUSH0 PUSH20 0xFFFFFFFFFFFFFFFFFFFFFFFFFFFFFFFFFFFFFFFF AND DUP3 PUSH20 0xFFFFFFFFFFFFFFFFFFFFFFFFFFFFFFFFFFFFFFFF AND SUB PUSH2 0x181D JUMPI PUSH0 PUSH1 0x40 MLOAD PUSH32 0xEC442F0500000000000000000000000000000000000000000000000000000000 DUP2 MSTORE PUSH1 0x4 ADD PUSH2 0x1814 SWAP2 SWAP1 PUSH2 0x2013 JUMP JUMPDEST PUSH1 0x40 MLOAD DUP1 SWAP2 SUB SWAP1 REVERT JUMPDEST PUSH2 0x1828 PUSH0 DUP4 DUP4 PUSH2 0x1B3D JUMP JUMPDEST POP POP JUMP JUMPDEST PUSH0 PUSH1 0x5 PUSH0 SWAP1 SLOAD SWAP1 PUSH2 0x100 EXP SWAP1 DIV PUSH20 0xFFFFFFFFFFFFFFFFFFFFFFFFFFFFFFFFFFFFFFFF AND SWAP1 POP DUP2 PUSH1 0x5 PUSH0 PUSH2 0x100 EXP DUP2 SLOAD DUP2 PUSH20 0xFFFFFFFFFFFFFFFFFFFFFFFFFFFFFFFFFFFFFFFF MUL NOT AND SWAP1 DUP4 PUSH20 0xFFFFFFFFFFFFFFFFFFFFFFFFFFFFFFFFFFFFFFFF AND MUL OR SWAP1 SSTORE POP DUP2 PUSH20 0xFFFFFFFFFFFFFFFFFFFFFFFFFFFFFFFFFFFFFFFF AND DUP2 PUSH20 0xFFFFFFFFFFFFFFFFFFFFFFFFFFFFFFFFFFFFFFFF AND PUSH32 0x8BE0079C531659141344CD1FD0A4F28419497F9722A3DAAFE3B4186F6B6457E0 PUSH1 0x40 MLOAD PUSH1 0x40 MLOAD DUP1 SWAP2 SUB SWAP1 LOG3 POP POP JUMP JUMPDEST PUSH0 PUSH20 0xFFFFFFFFFFFFFFFFFFFFFFFFFFFFFFFFFFFFFFFF AND DUP3 PUSH20 0xFFFFFFFFFFFFFFFFFFFFFFFFFFFFFFFFFFFFFFFF AND SUB PUSH2 0x195F JUMPI PUSH0 PUSH1 0x40 MLOAD PUSH32 0x96C6FD1E00000000000000000000000000000000000000000000000000000000 DUP2 MSTORE PUSH1 0x4 ADD PUSH2 0x1956 SWAP2 SWAP1 PUSH2 0x2013 JUMP JUMPDEST PUSH1 0x40 MLOAD DUP1 SWAP2 SUB SWAP1 REVERT JUMPDEST PUSH2 0x196A DUP3 PUSH0 DUP4 PUSH2 0x1B3D JUMP JUMPDEST POP POP JUMP JUMPDEST PUSH0 PUSH20 0xFFFFFFFFFFFFFFFFFFFFFFFFFFFFFFFFFFFFFFFF AND DUP5 PUSH20 0xFFFFFFFFFFFFFFFFFFFFFFFFFFFFFFFFFFFFFFFF AND SUB PUSH2 0x19DE JUMPI PUSH0 PUSH1 0x40 MLOAD PUSH32 0xE602DF0500000000000000000000000000000000000000000000000000000000 DUP2 MSTORE PUSH1 0x4 ADD PUSH2 0x19D5 SWAP2 SWAP1 PUSH2 0x2013 JUMP JUMPDEST PUSH1 0x40 MLOAD DUP1 SWAP2 SUB SWAP1 REVERT JUMPDEST PUSH0 PUSH20 0xFFFFFFFFFFFFFFFFFFFFFFFFFFFFFFFFFFFFFFFF AND DUP4 PUSH20 0xFFFFFFFFFFFFFFFFFFFFFFFFFFFFFFFFFFFFFFFF AND SUB PUSH2 0x1A4E JUMPI PUSH0 PUSH1 0x40 MLOAD PUSH32 0x94280D6200000000000000000000000000000000000000000000000000000000 DUP2 MSTORE PUSH1 0x4 ADD PUSH2 0x1A45 SWAP2 SWAP1 PUSH2 0x2013 JUMP JUMPDEST PUSH1 0x40 MLOAD DUP1 SWAP2 SUB SWAP1 REVERT JUMPDEST DUP2 PUSH1 0x1 PUSH0 DUP7 PUSH20 0xFFFFFFFFFFFFFFFFFFFFFFFFFFFFFFFFFFFFFFFF AND PUSH20 0xFFFFFFFFFFFFFFFFFFFFFFFFFFFFFFFFFFFFFFFF AND DUP2 MSTORE PUSH1 0x20 ADD SWAP1 DUP2 MSTORE PUSH1 0x20 ADD PUSH0 KECCAK256 PUSH0 DUP6 PUSH20 0xFFFFFFFFFFFFFFFFFFFFFFFFFFFFFFFFFFFFFFFF AND PUSH20 0xFFFFFFFFFFFFFFFFFFFFFFFFFFFFFFFFFFFFFFFF AND DUP2 MSTORE PUSH1 0x20 ADD SWAP1 DUP2 MSTORE PUSH1 0x20 ADD PUSH0 KECCAK256 DUP2 SWAP1 SSTORE POP DUP1 ISZERO PUSH2 0x1B37 JUMPI DUP3 PUSH20 0xFFFFFFFFFFFFFFFFFFFFFFFFFFFFFFFFFFFFFFFF AND DUP5 PUSH20 0xFFFFFFFFFFFFFFFFFFFFFFFFFFFFFFFFFFFFFFFF AND PUSH32 0x8C5BE1E5EBEC7D5BD14F71427D1E84F3DD0314C0F7B2291E5B200AC8C7C3B925 DUP5 PUSH1 0x40 MLOAD PUSH2 0x1B2E SWAP2 SWAP1 PUSH2 0x1F3C JUMP JUMPDEST PUSH1 0x40 MLOAD DUP1 SWAP2 SUB SWAP1 LOG3 JUMPDEST POP POP POP POP JUMP JUMPDEST PUSH0 PUSH20 0xFFFFFFFFFFFFFFFFFFFFFFFFFFFFFFFFFFFFFFFF AND DUP4 PUSH20 0xFFFFFFFFFFFFFFFFFFFFFFFFFFFFFFFFFFFFFFFF AND SUB PUSH2 0x1B8D JUMPI DUP1 PUSH1 0x2 PUSH0 DUP3 DUP3 SLOAD PUSH2 0x1B81 SWAP2 SWAP1 PUSH2 0x2496 JUMP JUMPDEST SWAP3 POP POP DUP2 SWAP1 SSTORE POP PUSH2 0x1C5B JUMP JUMPDEST PUSH0 DUP1 PUSH0 DUP6 PUSH20 0xFFFFFFFFFFFFFFFFFFFFFFFFFFFFFFFFFFFFFFFF AND PUSH20 0xFFFFFFFFFFFFFFFFFFFFFFFFFFFFFFFFFFFFFFFF AND DUP2 MSTORE PUSH1 0x20 ADD SWAP1 DUP2 MSTORE PUSH1 0x20 ADD PUSH0 KECCAK256 SLOAD SWAP1 POP DUP2 DUP2 LT ISZERO PUSH2 0x1C16 JUMPI DUP4 DUP2 DUP4 PUSH1 0x40 MLOAD PUSH32 0xE450D38C00000000000000000000000000000000000000000000000000000000 DUP2 MSTORE PUSH1 0x4 ADD PUSH2 0x1C0D SWAP4 SWAP3 SWAP2 SWAP1 PUSH2 0x282F JUMP JUMPDEST PUSH1 0x40 MLOAD DUP1 SWAP2 SUB SWAP1 REVERT JUMPDEST DUP2 DUP2 SUB PUSH0 DUP1 DUP7 PUSH20 0xFFFFFFFFFFFFFFFFFFFFFFFFFFFFFFFFFFFFFFFF AND PUSH20 0xFFFFFFFFFFFFFFFFFFFFFFFFFFFFFFFFFFFFFFFF AND DUP2 MSTORE PUSH1 0x20 ADD SWAP1 DUP2 MSTORE PUSH1 0x20 ADD PUSH0 KECCAK256 DUP2 SWAP1 SSTORE POP POP JUMPDEST PUSH0 PUSH20 0xFFFFFFFFFFFFFFFFFFFFFFFFFFFFFFFFFFFFFFFF AND DUP3 PUSH20 0xFFFFFFFFFFFFFFFFFFFFFFFFFFFFFFFFFFFFFFFF AND SUB PUSH2 0x1CA2 JUMPI DUP1 PUSH1 0x2 PUSH0 DUP3 DUP3 SLOAD SUB SWAP3 POP POP DUP2 SWAP1 SSTORE POP PUSH2 0x1CEC JUMP JUMPDEST DUP1 PUSH0 DUP1 DUP5 PUSH20 0xFFFFFFFFFFFFFFFFFFFFFFFFFFFFFFFFFFFFFFFF AND PUSH20 0xFFFFFFFFFFFFFFFFFFFFFFFFFFFFFFFFFFFFFFFF AND DUP2 MSTORE PUSH1 0x20 ADD SWAP1 DUP2 MSTORE PUSH1 0x20 ADD PUSH0 KECCAK256 PUSH0 DUP3 DUP3 SLOAD ADD SWAP3 POP POP DUP2 SWAP1 SSTORE POP JUMPDEST DUP2 PUSH20 0xFFFFFFFFFFFFFFFFFFFFFFFFFFFFFFFFFFFFFFFF AND DUP4 PUSH20 0xFFFFFFFFFFFFFFFFFFFFFFFFFFFFFFFFFFFFFFFF AND PUSH32 0xDDF252AD1BE2C89B69C2B068FC378DAA952BA7F163C4A11628F55A4DF523B3EF DUP4 PUSH1 0x40 MLOAD PUSH2 0x1D49 SWAP2 SWAP1 PUSH2 0x1F3C JUMP JUMPDEST PUSH1 0x40 MLOAD DUP1 SWAP2 SUB SWAP1 LOG3 POP POP POP JUMP JUMPDEST PUSH0 DUP2 MLOAD SWAP1 POP SWAP2 SWAP1 POP JUMP JUMPDEST PUSH0 DUP3 DUP3 MSTORE PUSH1 0x20 DUP3 ADD SWAP1 POP SWAP3 SWAP2 POP POP JUMP JUMPDEST PUSH0 JUMPDEST DUP4 DUP2 LT ISZERO PUSH2 0x1D8D JUMPI DUP1 DUP3 ADD MLOAD DUP2 DUP5 ADD MSTORE PUSH1 0x20 DUP2 ADD SWAP1 POP PUSH2 0x1D72 JUMP JUMPDEST PUSH0 DUP5 DUP5 ADD MSTORE POP POP POP POP JUMP JUMPDEST PUSH0 PUSH1 0x1F NOT PUSH1 0x1F DUP4 ADD AND SWAP1 POP SWAP2 SWAP1 POP JUMP JUMPDEST PUSH0 PUSH2 0x1DB2 DUP3 PUSH2 0x1D56 JUMP JUMPDEST PUSH2 0x1DBC DUP2 DUP6 PUSH2 0x1D60 JUMP JUMPDEST SWAP4 POP PUSH2 0x1DCC DUP2 DUP6 PUSH1 0x20 DUP7 ADD PUSH2 0x1D70 JUMP JUMPDEST PUSH2 0x1DD5 DUP2 PUSH2 0x1D98 JUMP JUMPDEST DUP5 ADD SWAP2 POP POP SWAP3 SWAP2 POP POP JUMP JUMPDEST PUSH0 PUSH1 0x20 DUP3 ADD SWAP1 POP DUP2 DUP2 SUB PUSH0 DUP4 ADD MSTORE PUSH2 0x1DF8 DUP2 DUP5 PUSH2 0x1DA8 JUMP JUMPDEST SWAP1 POP SWAP3 SWAP2 POP POP JUMP JUMPDEST PUSH0 DUP1 REVERT JUMPDEST PUSH0 PUSH20 0xFFFFFFFFFFFFFFFFFFFFFFFFFFFFFFFFFFFFFFFF DUP3 AND SWAP1 POP SWAP2 SWAP1 POP JUMP JUMPDEST PUSH0 PUSH2 0x1E2D DUP3 PUSH2 0x1E04 JUMP JUMPDEST SWAP1 POP SWAP2 SWAP1 POP JUMP JUMPDEST PUSH2 0x1E3D DUP2 PUSH2 0x1E23 JUMP JUMPDEST DUP2 EQ PUSH2 0x1E47 JUMPI PUSH0 DUP1 REVERT JUMPDEST POP JUMP JUMPDEST PUSH0 DUP2 CALLDATALOAD SWAP1 POP PUSH2 0x1E58 DUP2 PUSH2 0x1E34 JUMP JUMPDEST SWAP3 SWAP2 POP POP JUMP JUMPDEST PUSH0 DUP2 SWAP1 POP SWAP2 SWAP1 POP JUMP JUMPDEST PUSH2 0x1E70 DUP2 PUSH2 0x1E5E JUMP JUMPDEST DUP2 EQ PUSH2 0x1E7A JUMPI PUSH0 DUP1 REVERT JUMPDEST POP JUMP JUMPDEST PUSH0 DUP2 CALLDATALOAD SWAP1 POP PUSH2 0x1E8B DUP2 PUSH2 0x1E67 JUMP JUMPDEST SWAP3 SWAP2 POP POP JUMP JUMPDEST PUSH0 DUP1 PUSH1 0x40 DUP4 DUP6 SUB SLT ISZERO PUSH2 0x1EA7 JUMPI PUSH2 0x1EA6 PUSH2 0x1E00 JUMP JUMPDEST JUMPDEST PUSH0 PUSH2 0x1EB4 DUP6 DUP3 DUP7 ADD PUSH2 0x1E4A JUMP JUMPDEST SWAP3 POP POP PUSH1 0x20 PUSH2 0x1EC5 DUP6 DUP3 DUP7 ADD PUSH2 0x1E7D JUMP JUMPDEST SWAP2 POP POP SWAP3 POP SWAP3 SWAP1 POP JUMP JUMPDEST PUSH0 DUP2 ISZERO ISZERO SWAP1 POP SWAP2 SWAP1 POP JUMP JUMPDEST PUSH2 0x1EE3 DUP2 PUSH2 0x1ECF JUMP JUMPDEST DUP3 MSTORE POP POP JUMP JUMPDEST PUSH0 PUSH1 0x20 DUP3 ADD SWAP1 POP PUSH2 0x1EFC PUSH0 DUP4 ADD DUP5 PUSH2 0x1EDA JUMP JUMPDEST SWAP3 SWAP2 POP POP JUMP JUMPDEST PUSH0 PUSH1 0x20 DUP3 DUP5 SUB SLT ISZERO PUSH2 0x1F17 JUMPI PUSH2 0x1F16 PUSH2 0x1E00 JUMP JUMPDEST JUMPDEST PUSH0 PUSH2 0x1F24 DUP5 DUP3 DUP6 ADD PUSH2 0x1E4A JUMP JUMPDEST SWAP2 POP POP SWAP3 SWAP2 POP POP JUMP JUMPDEST PUSH2 0x1F36 DUP2 PUSH2 0x1E5E JUMP JUMPDEST DUP3 MSTORE POP POP JUMP JUMPDEST PUSH0 PUSH1 0x20 DUP3 ADD SWAP1 POP PUSH2 0x1F4F PUSH0 DUP4 ADD DUP5 PUSH2 0x1F2D JUMP JUMPDEST SWAP3 SWAP2 POP POP JUMP JUMPDEST PUSH0 DUP1 PUSH0 PUSH1 0x60 DUP5 DUP7 SUB SLT ISZERO PUSH2 0x1F6C JUMPI PUSH2 0x1F6B PUSH2 0x1E00 JUMP JUMPDEST JUMPDEST PUSH0 PUSH2 0x1F79 DUP7 DUP3 DUP8 ADD PUSH2 0x1E4A JUMP JUMPDEST SWAP4 POP POP PUSH1 0x20 PUSH2 0x1F8A DUP7 DUP3 DUP8 ADD PUSH2 0x1E4A JUMP JUMPDEST SWAP3 POP POP PUSH1 0x40 PUSH2 0x1F9B DUP7 DUP3 DUP8 ADD PUSH2 0x1E7D JUMP JUMPDEST SWAP2 POP POP SWAP3 POP SWAP3 POP SWAP3 JUMP JUMPDEST PUSH0 PUSH1 0x20 DUP3 DUP5 SUB SLT ISZERO PUSH2 0x1FBA JUMPI PUSH2 0x1FB9 PUSH2 0x1E00 JUMP JUMPDEST JUMPDEST PUSH0 PUSH2 0x1FC7 DUP5 DUP3 DUP6 ADD PUSH2 0x1E7D JUMP JUMPDEST SWAP2 POP POP SWAP3 SWAP2 POP POP JUMP JUMPDEST PUSH0 PUSH1 0xFF DUP3 AND SWAP1 POP SWAP2 SWAP1 POP JUMP JUMPDEST PUSH2 0x1FE5 DUP2 PUSH2 0x1FD0 JUMP JUMPDEST DUP3 MSTORE POP POP JUMP JUMPDEST PUSH0 PUSH1 0x20 DUP3 ADD SWAP1 POP PUSH2 0x1FFE PUSH0 DUP4 ADD DUP5 PUSH2 0x1FDC JUMP JUMPDEST SWAP3 SWAP2 POP POP JUMP JUMPDEST PUSH2 0x200D DUP2 PUSH2 0x1E23 JUMP JUMPDEST DUP3 MSTORE POP POP JUMP JUMPDEST PUSH0 PUSH1 0x20 DUP3 ADD SWAP1 POP PUSH2 0x2026 PUSH0 DUP4 ADD DUP5 PUSH2 0x2004 JUMP JUMPDEST SWAP3 SWAP2 POP POP JUMP JUMPDEST PUSH0 DUP2 SWAP1 POP SWAP2 SWAP1 POP JUMP JUMPDEST PUSH0 PUSH2 0x204F PUSH2 0x204A PUSH2 0x2045 DUP5 PUSH2 0x1E04 JUMP JUMPDEST PUSH2 0x202C JUMP JUMPDEST PUSH2 0x1E04 JUMP JUMPDEST SWAP1 POP SWAP2 SWAP1 POP JUMP JUMPDEST PUSH0 PUSH2 0x2060 DUP3 PUSH2 0x2035 JUMP JUMPDEST SWAP1 POP SWAP2 SWAP1 POP JUMP JUMPDEST PUSH0 PUSH2 0x2071 DUP3 PUSH2 0x2056 JUMP JUMPDEST SWAP1 POP SWAP2 SWAP1 POP JUMP JUMPDEST PUSH2 0x2081 DUP2 PUSH2 0x2067 JUMP JUMPDEST DUP3 MSTORE POP POP JUMP JUMPDEST PUSH0 PUSH1 0x20 DUP3 ADD SWAP1 POP PUSH2 0x209A PUSH0 DUP4 ADD DUP5 PUSH2 0x2078 JUMP JUMPDEST SWAP3 SWAP2 POP POP JUMP JUMPDEST PUSH0 PUSH2 0x160 DUP3 ADD SWAP1 POP PUSH2 0x20B4 PUSH0 DUP4 ADD DUP15 PUSH2 0x1F2D JUMP JUMPDEST PUSH2 0x20C1 PUSH1 0x20 DUP4 ADD DUP14 PUSH2 0x1F2D JUMP JUMPDEST PUSH2 0x20CE PUSH1 0x40 DUP4 ADD DUP13 PUSH2 0x2004 JUMP JUMPDEST PUSH2 0x20DB PUSH1 0x60 DUP4 ADD DUP12 PUSH2 0x2004 JUMP JUMPDEST PUSH2 0x20E8 PUSH1 0x80 DUP4 ADD DUP11 PUSH2 0x1F2D JUMP JUMPDEST PUSH2 0x20F5 PUSH1 0xA0 DUP4 ADD DUP10 PUSH2 0x1F2D JUMP JUMPDEST PUSH2 0x2102 PUSH1 0xC0 DUP4 ADD DUP9 PUSH2 0x1F2D JUMP JUMPDEST PUSH2 0x210F PUSH1 0xE0 DUP4 ADD DUP8 PUSH2 0x1F2D JUMP JUMPDEST PUSH2 0x211D PUSH2 0x100 DUP4 ADD DUP7 PUSH2 0x1F2D JUMP JUMPDEST PUSH2 0x212B PUSH2 0x120 DUP4 ADD DUP6 PUSH2 0x1F2D JUMP JUMPDEST PUSH2 0x2139 PUSH2 0x140 DUP4 ADD DUP5 PUSH2 0x1F2D JUMP JUMPDEST SWAP13 SWAP12 POP POP POP POP POP POP POP POP POP POP POP POP JUMP JUMPDEST PUSH0 DUP1 PUSH1 0x40 DUP4 DUP6 SUB SLT ISZERO PUSH2 0x215F JUMPI PUSH2 0x215E PUSH2 0x1E00 JUMP JUMPDEST JUMPDEST PUSH0 PUSH2 0x216C DUP6 DUP3 DUP7 ADD PUSH2 0x1E4A JUMP JUMPDEST SWAP3 POP POP PUSH1 0x20 PUSH2 0x217D DUP6 DUP3 DUP7 ADD PUSH2 0x1E4A JUMP JUMPDEST SWAP2 POP POP SWAP3 POP SWAP3 SWAP1 POP JUMP JUMPDEST PUSH32 0x4E487B7100000000000000000000000000000000000000000000000000000000 PUSH0 MSTORE PUSH1 0x22 PUSH1 0x4 MSTORE PUSH1 0x24 PUSH0 REVERT JUMPDEST PUSH0 PUSH1 0x2 DUP3 DIV SWAP1 POP PUSH1 0x1 DUP3 AND DUP1 PUSH2 0x21CB JUMPI PUSH1 0x7F DUP3 AND SWAP2 POP JUMPDEST PUSH1 0x20 DUP3 LT DUP2 SUB PUSH2 0x21DE JUMPI PUSH2 0x21DD PUSH2 0x2187 JUMP JUMPDEST JUMPDEST POP SWAP2 SWAP1 POP JUMP JUMPDEST PUSH0 PUSH1 0x40 DUP3 ADD SWAP1 POP PUSH2 0x21F7 PUSH0 DUP4 ADD DUP6 PUSH2 0x2004 JUMP JUMPDEST PUSH2 0x2204 PUSH1 0x20 DUP4 ADD DUP5 PUSH2 0x1F2D JUMP JUMPDEST SWAP4 SWAP3 POP POP POP JUMP JUMPDEST PUSH2 0x2214 DUP2 PUSH2 0x1ECF JUMP JUMPDEST DUP2 EQ PUSH2 0x221E JUMPI PUSH0 DUP1 REVERT JUMPDEST POP JUMP JUMPDEST PUSH0 DUP2 MLOAD SWAP1 POP PUSH2 0x222F DUP2 PUSH2 0x220B JUMP JUMPDEST SWAP3 SWAP2 POP POP JUMP JUMPDEST PUSH0 PUSH1 0x20 DUP3 DUP5 SUB SLT ISZERO PUSH2 0x224A JUMPI PUSH2 0x2249 PUSH2 0x1E00 JUMP JUMPDEST JUMPDEST PUSH0 PUSH2 0x2257 DUP5 DUP3 DUP6 ADD PUSH2 0x2221 JUMP JUMPDEST SWAP2 POP POP SWAP3 SWAP2 POP POP JUMP JUMPDEST PUSH32 0x5769746864726177206661696C65640000000000000000000000000000000000 PUSH0 DUP3 ADD MSTORE POP JUMP JUMPDEST PUSH0 PUSH2 0x2294 PUSH1 0xF DUP4 PUSH2 0x1D60 JUMP JUMPDEST SWAP2 POP PUSH2 0x229F DUP3 PUSH2 0x2260 JUMP JUMPDEST PUSH1 0x20 DUP3 ADD SWAP1 POP SWAP2 SWAP1 POP JUMP JUMPDEST PUSH0 PUSH1 0x20 DUP3 ADD SWAP1 POP DUP2 DUP2 SUB PUSH0 DUP4 ADD MSTORE PUSH2 0x22C1 DUP2 PUSH2 0x2288 JUMP JUMPDEST SWAP1 POP SWAP2 SWAP1 POP JUMP JUMPDEST PUSH32 0x5468726573686F6C64206D757374206265203E20300000000000000000000000 PUSH0 DUP3 ADD MSTORE POP JUMP JUMPDEST PUSH0 PUSH2 0x22FC PUSH1 0x15 DUP4 PUSH2 0x1D60 JUMP JUMPDEST SWAP2 POP PUSH2 0x2307 DUP3 PUSH2 0x22C8 JUMP JUMPDEST PUSH1 0x20 DUP3 ADD SWAP1 POP SWAP2 SWAP1 POP JUMP JUMPDEST PUSH0 PUSH1 0x20 DUP3 ADD SWAP1 POP DUP2 DUP2 SUB PUSH0 DUP4 ADD MSTORE PUSH2 0x2329 DUP2 PUSH2 0x22F0 JUMP JUMPDEST SWAP1 POP SWAP2 SWAP1 POP JUMP JUMPDEST PUSH32 0x4E487B7100000000000000000000000000000000000000000000000000000000 PUSH0 MSTORE PUSH1 0x11 PUSH1 0x4 MSTORE PUSH1 0x24 PUSH0 REVERT JUMPDEST PUSH0 PUSH2 0x2367 DUP3 PUSH2 0x1E5E JUMP JUMPDEST SWAP2 POP PUSH2 0x2372 DUP4 PUSH2 0x1E5E JUMP JUMPDEST SWAP3 POP DUP3 DUP3 MUL PUSH2 0x2380 DUP2 PUSH2 0x1E5E JUMP JUMPDEST SWAP2 POP DUP3 DUP3 DIV DUP5 EQ DUP4 ISZERO OR PUSH2 0x2397 JUMPI PUSH2 0x2396 PUSH2 0x2330 JUMP JUMPDEST JUMPDEST POP SWAP3 SWAP2 POP POP JUMP JUMPDEST PUSH32 0x416D6F756E74206D7573742062652067726561746572207468616E2030000000 PUSH0 DUP3 ADD MSTORE POP JUMP JUMPDEST PUSH0 PUSH2 0x23D2 PUSH1 0x1D DUP4 PUSH2 0x1D60 JUMP JUMPDEST SWAP2 POP PUSH2 0x23DD DUP3 PUSH2 0x239E JUMP JUMPDEST PUSH1 0x20 DUP3 ADD SWAP1 POP SWAP2 SWAP1 POP JUMP JUMPDEST PUSH0 PUSH1 0x20 DUP3 ADD SWAP1 POP DUP2 DUP2 SUB PUSH0 DUP4 ADD MSTORE PUSH2 0x23FF DUP2 PUSH2 0x23C6 JUMP JUMPDEST SWAP1 POP SWAP2 SWAP1 POP JUMP JUMPDEST PUSH32 0x4E487B7100000000000000000000000000000000000000000000000000000000 PUSH0 MSTORE PUSH1 0x12 PUSH1 0x4 MSTORE PUSH1 0x24 PUSH0 REVERT JUMPDEST PUSH0 PUSH2 0x243D DUP3 PUSH2 0x1E5E JUMP JUMPDEST SWAP2 POP PUSH2 0x2448 DUP4 PUSH2 0x1E5E JUMP JUMPDEST SWAP3 POP DUP3 PUSH2 0x2458 JUMPI PUSH2 0x2457 PUSH2 0x2406 JUMP JUMPDEST JUMPDEST DUP3 DUP3 DIV SWAP1 POP SWAP3 SWAP2 POP POP JUMP JUMPDEST PUSH0 PUSH2 0x246D DUP3 PUSH2 0x1E5E JUMP JUMPDEST SWAP2 POP PUSH2 0x2478 DUP4 PUSH2 0x1E5E JUMP JUMPDEST SWAP3 POP DUP3 DUP3 SUB SWAP1 POP DUP2 DUP2 GT ISZERO PUSH2 0x2490 JUMPI PUSH2 0x248F PUSH2 0x2330 JUMP JUMPDEST JUMPDEST SWAP3 SWAP2 POP POP JUMP JUMPDEST PUSH0 PUSH2 0x24A0 DUP3 PUSH2 0x1E5E JUMP JUMPDEST SWAP2 POP PUSH2 0x24AB DUP4 PUSH2 0x1E5E JUMP JUMPDEST SWAP3 POP DUP3 DUP3 ADD SWAP1 POP DUP1 DUP3 GT ISZERO PUSH2 0x24C3 JUMPI PUSH2 0x24C2 PUSH2 0x2330 JUMP JUMPDEST JUMPDEST SWAP3 SWAP2 POP POP JUMP JUMPDEST PUSH32 0x55534454207061796F7574206661696C65640000000000000000000000000000 PUSH0 DUP3 ADD MSTORE POP JUMP JUMPDEST PUSH0 PUSH2 0x24FD PUSH1 0x12 DUP4 PUSH2 0x1D60 JUMP JUMPDEST SWAP2 POP PUSH2 0x2508 DUP3 PUSH2 0x24C9 JUMP JUMPDEST PUSH1 0x20 DUP3 ADD SWAP1 POP SWAP2 SWAP1 POP JUMP JUMPDEST PUSH0 PUSH1 0x20 DUP3 ADD SWAP1 POP DUP2 DUP2 SUB PUSH0 DUP4 ADD MSTORE PUSH2 0x252A DUP2 PUSH2 0x24F1 JUMP JUMPDEST SWAP1 POP SWAP2 SWAP1 POP JUMP JUMPDEST PUSH0 PUSH1 0x60 DUP3 ADD SWAP1 POP PUSH2 0x2544 PUSH0 DUP4 ADD DUP7 PUSH2 0x1F2D JUMP JUMPDEST PUSH2 0x2551 PUSH1 0x20 DUP4 ADD DUP6 PUSH2 0x1F2D JUMP JUMPDEST PUSH2 0x255E PUSH1 0x40 DUP4 ADD DUP5 PUSH2 0x1F2D JUMP JUMPDEST SWAP5 SWAP4 POP POP POP POP JUMP JUMPDEST PUSH32 0x4275792072617465206D757374206265203E3D2031205354454D000000000000 PUSH0 DUP3 ADD MSTORE POP JUMP JUMPDEST PUSH0 PUSH2 0x259A PUSH1 0x1A DUP4 PUSH2 0x1D60 JUMP JUMPDEST SWAP2 POP PUSH2 0x25A5 DUP3 PUSH2 0x2566 JUMP JUMPDEST PUSH1 0x20 DUP3 ADD SWAP1 POP SWAP2 SWAP1 POP JUMP JUMPDEST PUSH0 PUSH1 0x20 DUP3 ADD SWAP1 POP DUP2 DUP2 SUB PUSH0 DUP4 ADD MSTORE PUSH2 0x25C7 DUP2 PUSH2 0x258E JUMP JUMPDEST SWAP1 POP SWAP2 SWAP1 POP JUMP JUMPDEST PUSH32 0x4275792072617465206D757374206265203C3D2053656C6C2072617465000000 PUSH0 DUP3 ADD MSTORE POP JUMP JUMPDEST PUSH0 PUSH2 0x2602 PUSH1 0x1D DUP4 PUSH2 0x1D60 JUMP JUMPDEST SWAP2 POP PUSH2 0x260D DUP3 PUSH2 0x25CE JUMP JUMPDEST PUSH1 0x20 DUP3 ADD SWAP1 POP SWAP2 SWAP1 POP JUMP JUMPDEST PUSH0 PUSH1 0x20 DUP3 ADD SWAP1 POP DUP2 DUP2 SUB PUSH0 DUP4 ADD MSTORE PUSH2 0x262F DUP2 PUSH2 0x25F6 JUMP JUMPDEST SWAP1 POP SWAP2 SWAP1 POP JUMP JUMPDEST PUSH32 0x53656C6C2072617465206D75737420626520E289A52031205354454D20706572 PUSH0 DUP3 ADD MSTORE PUSH32 0x2055534454000000000000000000000000000000000000000000000000000000 PUSH1 0x20 DUP3 ADD MSTORE POP JUMP JUMPDEST PUSH0 PUSH2 0x2690 PUSH1 0x25 DUP4 PUSH2 0x1D60 JUMP JUMPDEST SWAP2 POP PUSH2 0x269B DUP3 PUSH2 0x2636 JUMP JUMPDEST PUSH1 0x40 DUP3 ADD SWAP1 POP SWAP2 SWAP1 POP JUMP JUMPDEST PUSH0 PUSH1 0x20 DUP3 ADD SWAP1 POP DUP2 DUP2 SUB PUSH0 DUP4 ADD MSTORE PUSH2 0x26BD DUP2 PUSH2 0x2684 JUMP JUMPDEST SWAP1 POP SWAP2 SWAP1 POP JUMP JUMPDEST PUSH0 PUSH1 0x60 DUP3 ADD SWAP1 POP PUSH2 0x26D7 PUSH0 DUP4 ADD DUP7 PUSH2 0x2004 JUMP JUMPDEST PUSH2 0x26E4 PUSH1 0x20 DUP4 ADD DUP6 PUSH2 0x2004 JUMP JUMPDEST PUSH2 0x26F1 PUSH1 0x40 DUP4 ADD DUP5 PUSH2 0x1F2D JUMP JUMPDEST SWAP5 SWAP4 POP POP POP POP JUMP JUMPDEST PUSH32 0x55534454207472616E73666572206661696C6564000000000000000000000000 PUSH0 DUP3 ADD MSTORE POP JUMP JUMPDEST PUSH0 PUSH2 0x272D PUSH1 0x14 DUP4 PUSH2 0x1D60 JUMP JUMPDEST SWAP2 POP PUSH2 0x2738 DUP3 PUSH2 0x26F9 JUMP JUMPDEST PUSH1 0x20 DUP3 ADD SWAP1 POP SWAP2 SWAP1 POP JUMP JUMPDEST PUSH0 PUSH1 0x20 DUP3 ADD SWAP1 POP DUP2 DUP2 SUB PUSH0 DUP4 ADD MSTORE PUSH2 0x275A DUP2 PUSH2 0x2721 JUMP JUMPDEST SWAP1 POP SWAP2 SWAP1 POP JUMP JUMPDEST PUSH0 PUSH1 0x40 DUP3 ADD SWAP1 POP PUSH2 0x2774 PUSH0 DUP4 ADD DUP6 PUSH2 0x1F2D JUMP JUMPDEST PUSH2 0x2781 PUSH1 0x20 DUP4 ADD DUP5 PUSH2 0x1F2D JUMP JUMPDEST SWAP4 SWAP3 POP POP POP JUMP JUMPDEST PUSH0 DUP2 MLOAD SWAP1 POP PUSH2 0x2796 DUP2 PUSH2 0x1E67 JUMP JUMPDEST SWAP3 SWAP2 POP POP JUMP JUMPDEST PUSH0 PUSH1 0x20 DUP3 DUP5 SUB SLT ISZERO PUSH2 0x27B1 JUMPI PUSH2 0x27B0 PUSH2 0x1E00 JUMP JUMPDEST JUMPDEST PUSH0 PUSH2 0x27BE DUP5 DUP3 DUP6 ADD PUSH2 0x2788 JUMP JUMPDEST SWAP2 POP POP SWAP3 SWAP2 POP POP JUMP JUMPDEST PUSH32 0x4E6F2070726F66697420746F2077697468647261770000000000000000000000 PUSH0 DUP3 ADD MSTORE POP JUMP JUMPDEST PUSH0 PUSH2 0x27FB PUSH1 0x15 DUP4 PUSH2 0x1D60 JUMP JUMPDEST SWAP2 POP PUSH2 0x2806 DUP3 PUSH2 0x27C7 JUMP JUMPDEST PUSH1 0x20 DUP3 ADD SWAP1 POP SWAP2 SWAP1 POP JUMP JUMPDEST PUSH0 PUSH1 0x20 DUP3 ADD SWAP1 POP DUP2 DUP2 SUB PUSH0 DUP4 ADD MSTORE PUSH2 0x2828 DUP2 PUSH2 0x27EF JUMP JUMPDEST SWAP1 POP SWAP2 SWAP1 POP JUMP JUMPDEST PUSH0 PUSH1 0x60 DUP3 ADD SWAP1 POP PUSH2 0x2842 PUSH0 DUP4 ADD DUP7 PUSH2 0x2004 JUMP JUMPDEST PUSH2 0x284F PUSH1 0x20 DUP4 ADD DUP6 PUSH2 0x1F2D JUMP JUMPDEST PUSH2 0x285C PUSH1 0x40 DUP4 ADD DUP5 PUSH2 0x1F2D JUMP JUMPDEST SWAP5 SWAP4 POP POP POP POP JUMP INVALID LOG2 PUSH5 0x6970667358 0x22 SLT KECCAK256 OR PUSH32 0x7107016FF0097CE47A91812AE0449672E6E46C9F978B51B5C23157408FF6473 PUSH16 0x6C634300081400330000000000000000 "
				},
				"gasEstimates": {
					"creation": {
						"codeDepositCost": "2078800",
						"executionCost": "infinite",
						"totalCost": "infinite"
					},
					"external": {
						"accumulatedProfit()": "2536",
						"allowance(address,address)": "infinite",
						"approve(address,uint256)": "infinite",
						"balanceOf(address)": "2896",
						"burn(address,uint256)": "infinite",
						"buyRate()": "2513",
						"buyStem(uint256)": "infinite",
						"decimals()": "384",
						"getConfig()": "infinite",
						"mint(address,uint256)": "infinite",
						"name()": "infinite",
						"owner()": "2583",
						"profitThreshold()": "2491",
						"profitTreasury()": "2619",
						"renounceOwnership()": "infinite",
						"sellRate()": "2470",
						"sellStem(uint256)": "infinite",
						"setBuyRate(uint256)": "infinite",
						"setProfitThreshold(uint256)": "infinite",
						"setProfitTreasury(address)": "infinite",
						"setSellRate(uint256)": "infinite",
						"setTreasury(address)": "infinite",
						"symbol()": "infinite",
						"totalSupply()": "2500",
						"transfer(address,uint256)": "infinite",
						"transferFrom(address,address,uint256)": "infinite",
						"transferOwnership(address)": "infinite",
						"treasury()": "2620",
						"usdtToken()": "infinite",
						"withdrawAccumulatedProfit()": "infinite",
						"withdrawUSDT(address,uint256)": "infinite"
					}
				},
				"methodIdentifiers": {
					"accumulatedProfit()": "748e37f4",
					"allowance(address,address)": "dd62ed3e",
					"approve(address,uint256)": "095ea7b3",
					"balanceOf(address)": "70a08231",
					"burn(address,uint256)": "9dc29fac",
					"buyRate()": "fc37987b",
					"buyStem(uint256)": "bb285554",
					"decimals()": "313ce567",
					"getConfig()": "c3f909d4",
					"mint(address,uint256)": "40c10f19",
					"name()": "06fdde03",
					"owner()": "8da5cb5b",
					"profitThreshold()": "f974821a",
					"profitTreasury()": "f203787c",
					"renounceOwnership()": "715018a6",
					"sellRate()": "6217229b",
					"sellStem(uint256)": "5d91e3f8",
					"setBuyRate(uint256)": "85e436bf",
					"setProfitThreshold(uint256)": "28821182",
					"setProfitTreasury(address)": "0f7e730b",
					"setSellRate(uint256)": "8e0b017d",
					"setTreasury(address)": "f0f44260",
					"symbol()": "95d89b41",
					"totalSupply()": "18160ddd",
					"transfer(address,uint256)": "a9059cbb",
					"transferFrom(address,address,uint256)": "23b872dd",
					"transferOwnership(address)": "f2fde38b",
					"treasury()": "61d027b3",
					"usdtToken()": "a98ad46c",
					"withdrawAccumulatedProfit()": "ff90b54d",
					"withdrawUSDT(address,uint256)": "1481794e"
				}
			},
			"storageLayout": {
				"storage": [
					{
						"astId": 279,
						"contract": "contracts/STEMMER_flattened.sol:STEMMER",
						"label": "_balances",
						"offset": 0,
						"slot": "0",
						"type": "t_mapping(t_address,t_uint256)"
					},
					{
						"astId": 285,
						"contract": "contracts/STEMMER_flattened.sol:STEMMER",
						"label": "_allowances",
						"offset": 0,
						"slot": "1",
						"type": "t_mapping(t_address,t_mapping(t_address,t_uint256))"
					},
					{
						"astId": 287,
						"contract": "contracts/STEMMER_flattened.sol:STEMMER",
						"label": "_totalSupply",
						"offset": 0,
						"slot": "2",
						"type": "t_uint256"
					},
					{
						"astId": 289,
						"contract": "contracts/STEMMER_flattened.sol:STEMMER",
						"label": "_name",
						"offset": 0,
						"slot": "3",
						"type": "t_string_storage"
					},
					{
						"astId": 291,
						"contract": "contracts/STEMMER_flattened.sol:STEMMER",
						"label": "_symbol",
						"offset": 0,
						"slot": "4",
						"type": "t_string_storage"
					},
					{
						"astId": 777,
						"contract": "contracts/STEMMER_flattened.sol:STEMMER",
						"label": "_owner",
						"offset": 0,
						"slot": "5",
						"type": "t_address"
					},
					{
						"astId": 924,
						"contract": "contracts/STEMMER_flattened.sol:STEMMER",
						"label": "usdtToken",
						"offset": 0,
						"slot": "6",
						"type": "t_contract(IERC20)77"
					},
					{
						"astId": 927,
						"contract": "contracts/STEMMER_flattened.sol:STEMMER",
						"label": "buyRate",
						"offset": 0,
						"slot": "7",
						"type": "t_uint256"
					},
					{
						"astId": 930,
						"contract": "contracts/STEMMER_flattened.sol:STEMMER",
						"label": "sellRate",
						"offset": 0,
						"slot": "8",
						"type": "t_uint256"
					},
					{
						"astId": 932,
						"contract": "contracts/STEMMER_flattened.sol:STEMMER",
						"label": "treasury",
						"offset": 0,
						"slot": "9",
						"type": "t_address"
					},
					{
						"astId": 934,
						"contract": "contracts/STEMMER_flattened.sol:STEMMER",
						"label": "profitTreasury",
						"offset": 0,
						"slot": "10",
						"type": "t_address"
					},
					{
						"astId": 936,
						"contract": "contracts/STEMMER_flattened.sol:STEMMER",
						"label": "profitThreshold",
						"offset": 0,
						"slot": "11",
						"type": "t_uint256"
					},
					{
						"astId": 938,
						"contract": "contracts/STEMMER_flattened.sol:STEMMER",
						"label": "accumulatedProfit",
						"offset": 0,
						"slot": "12",
						"type": "t_uint256"
					}
				],
				"types": {
					"t_address": {
						"encoding": "inplace",
						"label": "address",
						"numberOfBytes": "20"
					},
					"t_contract(IERC20)77": {
						"encoding": "inplace",
						"label": "contract IERC20",
						"numberOfBytes": "20"
					},
					"t_mapping(t_address,t_mapping(t_address,t_uint256))": {
						"encoding": "mapping",
						"key": "t_address",
						"label": "mapping(address => mapping(address => uint256))",
						"numberOfBytes": "32",
						"value": "t_mapping(t_address,t_uint256)"
					},
					"t_mapping(t_address,t_uint256)": {
						"encoding": "mapping",
						"key": "t_address",
						"label": "mapping(address => uint256)",
						"numberOfBytes": "32",
						"value": "t_uint256"
					},
					"t_string_storage": {
						"encoding": "bytes",
						"label": "string",
						"numberOfBytes": "32"
					},
					"t_uint256": {
						"encoding": "inplace",
						"label": "uint256",
						"numberOfBytes": "32"
					}
				}
			},
			"userdoc": {
				"kind": "user",
				"methods": {},
				"version": 1
			}
		}
	}
}